:020000040800F2
:1000000050200020F901000825230008B91F00082E
:1000100021230008B5020008952700080000000011
:100020000000000000000000000000002D23000878
:10003000B90200080000000029230008312300084D
:10004000130200081302000813020008130200083C
:10005000130200081302000813020008130200082C
:10006000130200081302000813020008130200081C
:10007000130200081302000813020008130200080C
:1000800013020008130200081302000813020008FC
:1000900013020008130200081302000813020008EC
:1000A00013020008130200081302000813020008DC
:1000B0001302000839230008130200081302000885
:1000C00013020008130200081302000813020008BC
:1000D000130200083D2500085D25000813020008F2
:1000E000130200081302000813020008130200089C
:1000F000130200081302000813020008130200088C
:10010000130200081302000813020008130200087B
:100110001302000813020008452300081302000818
:10012000130200081302000813020008130200085B
:1001300000F002F800F050F814A696E8000CB24463
:10014000B344DA4501D100F047F8BAE80F000FA632
:1001500096E83000A5EB040504EB0607AAEB0704BC
:10016000A7F101074FEA15154FEA3414A4F1010471
:10017000AC4201D300F030F813F0010F18BFFB1AA6
:1001800043F0010300F001F8DBE718471C270000EB
:100190003C270000103A24BF78C878C1FAD852072B
:1001A00024BF30C830C144BF04680C6070470000F1
:1001B000704700000023002400250026103A28BFC5
:1001C00078C1FBD8520728BF30C148BF0B607047C9
:1001D0001FB51FBD10B510BD00F031F81146FFF777
:1001E000F7FF02F0F5FA00F04FF803B4FFF7F2FF63
:1001F00003BC00F057F80000094880470948004751
:10020000FEE7FEE7FEE7FEE7FEE7FEE7FEE7FEE7C6
:10021000FEE7FEE704480549054A064B7047000023
:100220003523000831010008501A0020502000201A
:10023000501C0020501C00207047704770477546C6
:1002400000F02CF8AE4605006946534620F0070042
:10025000854618B020B5FFF7DDFFBDE820404FF020
:1002600000064FF000074FF000084FF0000BAC46BF
:10027000ACE8C009ACE8C009ACE8C009ACE8C0090A
:1002800021F007018D46704710B50446AFF300809A
:100290002046BDE81040FFF7A8BF000000487047A7
:1002A0001000002001491820ABBEFEE72600020026
:1002B00070470000FEE7000070470000EFF3108079
:1002C00072B600BFFEE70000014690F82100022848
:1002D00016D10868D1E90FC3026822F00E0202604D
:1002E000026822F001020260012000FA03F2CCF859
:1002F000042081F821000020002281F8202070478E
:10030000042088630120002281F82020704700002B
:1003100090F82110022927D1026840F2040C1368DA
:10032000C4F2020C23F00E03136013680CF17C017D
:100330008A4223F0010111601AD940F20841C4F247
:1003400002018A4250D040F21C41C4F202018A42AA
:1003500042D040F23041C4F202018A4248D14FF407
:100360008073CCF800345CE0042181630120704785
:100370004321C4F202018A420EDD6B21C4F2020164
:100380008A421BDC4421C4F202018A423ED0582139
:10039000C4F202018A4223E00821C4F202018A4227
:1003A00032D01C21C4F202018A4237D03021C4F27B
:1003B00002018A4214D14FF4807230E06C21C4F201
:1003C00002018A4226D08021C4F202018A4207D16A
:1003D0004FF0807223E000BF1023CCF8003420E0FF
:1003E0004FF480321BE000BF0123CCF8003418E04A
:1003F0000CF588614FF480338A4208BF4FF4805374
:10040000CCF800340DE000BF012208E04FF4805228
:1004100005E000BF4FF4801201E000BF1022CCF8CD
:100420000020012180F82110416B0022002980F872
:10043000202004BF0020704780B58847002080BD81
:10044000B0B5044600F012F9054640F20000C2F2D1
:1004500000000078611C18BF044400BF00F006F9DA
:10046000401BA042FAD3B0BD2DE9F04F82B00E6818
:10047000002E00F0E980A0F1804241F6004540F2F4
:100480000043A2F58432C4F201050624C4F201033C
:100490004FEAB227A84208BF05244FF0000E4FF0E4
:1004A00001080F254FF0000A4FF0000B052F38BF51
:1004B0004FEAB224009408E00E680AF1010A36FA05
:1004C0000AF20EF1040E00F0BF8008FA0AFC16EAE8
:1004D0000C09F1D04E684FF6FF72C1F2100296423D
:1004E00012DC122E56D8DFE806F0350B4D49555573
:1004F000555555555555555555555545510000BF00
:10050000D1F80CB046E000BF4FF6FF72C1F22102F5
:1005100096420FDC0022C1F2110296421AD000224C
:10052000C1F21202964215D00022C1F22102964277
:1005300010D02FE00022C1F2220296420AD00022FF
:10054000C1F23102964205D00022C1F23202964237
:1005500020D100BF8A684AB1012A14BFC0F814C074
:10056000C0F810C04FF0080B14E000BF4FF0040BB0
:1005700010E000BFCA6802F1040B0BE04FF0000B63
:1005800008E000BFCA6802F1080B03E0CA6802F184
:100590000C0B00BF02467446B9F5807F24BF0432BD
:1005A000203C166805FA04F726EA07070BFA04F65A
:1005B00037431760CA79D2067FF57EAF41F218073C
:1005C000C4F202073A684FF6084542F001023A6069
:1005D0003A68CFF6FF7502F001020192019A2AF003
:1005E00003021A440F2457590EF00C06B440A743D7
:1005F000009C04FA06F6374357514E6840F20C440B
:10060000F2029A6854BF22EA090242EA0902C4F2DD
:1006100001049A602268B70254BF22EA090242EA42
:10062000090222605A68B70354BF22EA090242EA6B
:1006300009025A600F251A68F70354BF22EA09021B
:1006400042EA09021A6037E702B0BDE8F08F000005
:10065000C26802EA0103914341EA03410161704724
:10066000002A08BF090401617047000041F64C20D0
:10067000C2F200000068704740F2000041F64C21D1
:10068000C2F20000C2F2000100780A68104408605B
:100690007047000080B542F20000C4F20200016819
:1006A00041F010010160032000F08CF80F2000F0F1
:1006B00005F800F027F8002080BD000070B540F27A
:1006C0000006C2F2000640F208013278C2F20001D0
:1006D0004FF47A730968B3FBF2F20446B1FBF2F10E
:1006E000084600F085FB0F2C4FF0010508D838B9FB
:1006F0004FF0FF3021460022002500F037F87460EB
:10070000284670BD82B041F21800C4F202000168B0
:10071000042241F001010160016801F00101019131
:100720000199416841F080514160406800F080507B
:10073000009000980420C4F20100016862F31A617D
:10074000016002B070470000002848BF704700F009
:100750001F01012202FA01F11C2202EAD0004EF22E
:100760000012CEF2000281507047000010B54EF624
:100770000C5CCEF2000CDCF80030C3F3022E8EF0DD
:100780000704042C28BF0424BEF103034FF0FF3EEE
:100790000EFA04F438BF0023A14399400EFA03F384
:1007A0009A43114300F00F0200F160430901043A3B
:1007B00003F564436244002848BF02F10C0319703A
:1007C00010BD00004EF60C51CEF200010A684FF643
:1007D000FF031A4060F30A2242F0806040F0FD708F
:1007E00008607047002804BF012070472DE9F043DE
:1007F00081B042F20008C4F202080446D8F80000B2
:100800000D4600F0070081420CD9D8F8000020F016
:1008100007002843C8F80000D8F8000000F00700DF
:10082000A8426CD1206841F204098107C4F2020990
:1008300017D5410705D5D9F8001041F4E061C9F892
:100840000010010705D5D9F8001041F46051C9F82E
:100850000010D9F80010A26821F0F0011143C9F886
:100860000010C00742D1D8F8000000F00700854210
:100870000CD2D8F8000020F007002843C8F8000088
:10088000D8F8000000F00700A84238D120684107DE
:1008900007D5D9F80010E26821F4E0611143C9F8E6
:1008A0000010000708D5D9F80000216920F4605035
:1008B00040EAC100C9F80000D9F8002002F00C009D
:1008C000082841F20020C0F27A004DD142F696038A
:1008D000C2F38341C0F60003595CD20338D440F61A
:1008E0000010C0F23D0048433EE000BF606859F888
:1008F000041C022808D0012826D1890306D401202F
:1009000001B0BDE8F08300BF8901F8D5D9F8001027
:1009100021F003010843C9F80000FFF7A7FE0646CF
:1009200041F28837D9F80000616800F00C00B0EBA4
:10093000810F98D0FFF79AFE801BB842F2D90320AE
:1009400001B0BDE8F08300BF8907D8D5DEE700BF5E
:10095000D9F8002042F69403C2F34042C0F60003E7
:100960009A5C4843B0FBF2F0D9F8001042F67C02E2
:10097000C1F30311C0F60002515C40F2080220FAF4
:1009800001F140F20400C2F200000068C2F200026D
:100990001160FFF793FE002001B0BDE8F083000076
:1009A00040F2080041F20401C2F20000C4F2020168
:1009B0000068096842F68C02C1F30221C0F6000209
:1009C000515CC8407047000040F2080041F2040149
:1009D000C2F20000C4F202010068096842F68C020B
:1009E000C1F3C221C0F60002515CC840704700004C
:1009F000002804BF012070472DE9F04182B0044671
:100A0000007841F20006C007C4F202060CD07068FC
:100A100000F00C00042840F081803068800303D58A
:100A20006068002800F04681207880071BD5706838
:100A300010F00C0F09D0706800F00C00082840F08E
:100A400087807068C00300F183803068800703D519
:100A50002069012840F02E813068616920F0F8009B
:100A600040EAC10030602078000713D420784007A6
:100A70002CD4E569002D00F01881706800F00C009E
:100A8000082840F0A780012D40F00481012002B029
:100A9000BDE8F081A069002800F084800020C4F245
:100AA00042200121C0F88014FFF7E0FD054600BF99
:100AB000706A800700F1B280FFF7D8FD401B022862
:100AC000F6D9032002B0BDE8F08100BFF0695FEA0B
:100AD000C00808D4F06940F08050F061F06900F07F
:100AE00080500090009847F20007C4F20007386871
:100AF000C00549D4386840F480703860FFF7B6FD0F
:100B0000054600BF3868C0053ED4FFF7AFFD401B67
:100B10006428F7D9032002B0BDE8F081706800F0C6
:100B20000C00082803D17068C0033FF576AF6168F8
:100B30003068002900F00C81B1F5A02F00F0008191
:100B4000B1F5803F40F01A8140F480301CE100BFD5
:100B50002069002840F20000C4F2422000F08880A2
:100B600001210160FFF782FD054600BF3068800764
:100B70003FF572AFFFF77AFD401B0228F6D903203C
:100B800002B0BDE8F08100BFE168306A002900F0E2
:100B90009D80052900F09280012940F0AF8040F04F
:100BA0000100B1E00020C4F242200021C0F880140E
:100BB000FFF75CFD054600BF706A80077FF556AF02
:100BC000FFF754FD401B0228F6D9032002B0BDE810
:100BD000F08100BF0027C4F2422700203866FFF7EB
:100BE00045FD022D05460DD13068800140F1DE80C3
:100BF000FFF73CFD401B02284FF00300F4D902B080
:100C0000BDE8F081306880014FD5FFF72FFD401B14
:100C100002284FF00300F5D9F1E700BF40F20800C9
:100C2000C2F20000006844F6D351C1F26201A0FB99
:100C30000101480A019000BF00BF0198411E002831
:100C400001913FF413AF00BF0198411E00280191AC
:100C50003FF40CAF00BF0198411E002801913FF402
:100C600005AF00BF0198411E00280191E4D1FDE6C7
:100C700000210160FFF7FAFC054600BF30688007DD
:100C80007FF5F1AEFFF7F2FC401B02284FF00300A6
:100C9000F4D9B4E77068216A00F480328A4209D13D
:100CA000616A00F47010884204D1002002B0BDE8EF
:100CB000F08100BF012002B0BDE8F08140F00400E7
:100CC0003062306A40F001001EE000BF20F00100F9
:100CD0003062306A20F004003062FFF7C7FC05463E
:100CE00041F28837306A800720D5FFF7BFFC401BF0
:100CF000B8424FF00300F5D981E700BF20F00100B2
:100D00003062306A20F004003062FFF7AFFC054625
:100D100041F28837306A800708D4FFF7A7FC401BF0
:100D2000B842F7D9032002B0BDE8F081B8F1000F56
:100D30003FF59FAEF06920F08050F06199E600BF6A
:100D400040F480203060306840F480301CE000BF08
:100D500020F480303060306820F480203060FFF76D
:100D600085FC0546306880037FF55EAEFFF77EFCAC
:100D7000401B64284FF00300F4D940E720F4803092
:100D80003060306820F480203060FFF76FFC05464B
:100D9000306880033FF548AEFFF768FC401B6428CD
:100DA000F6D9032002B0BDE8F08100BF206AB0F59B
:100DB000803F05D17168A26821F400311143716050
:100DC0007168626A21F47411114308437060012054
:100DD0003866FFF74BFC0446306880013FF565AF8D
:100DE000FFF744FC001B02284FF00300F4D906E78C
:100DF000411E0020B0EB116F1CBF012070474EF266
:100E00001002CEF2000251604EF62351CEF20001E4
:100E1000F0230B700721906011607047704700004D
:100E20007047000090F83C20012A4FF0020242D0A7
:100E300010B580F83D200268D2F804E0D2F808C06E
:100E40000C682EF07003234340F6FF34C4F2000414
:100E5000A242536010DCB2F1804F1FD040F2004339
:100E6000C4F200039A4219D040F60003C4F2000312
:100E70009A4213D017E000BF40F60043C4F20003CB
:100E80009A420BD043F20043C4F201039A4205D0C8
:100E900042F60043C4F201039A4204D149682CF09F
:100EA0008003194391600121002280F83D1080F8F1
:100EB0003C20BDE81040104670470000002804BFE9
:100EC0000120704710B5044690F83D0028B9002075
:100ED00084F83C00204600F01FF8022084F83D0012
:100EE0002068211D01F034FA012084F8460084F8BE
:100EF0003E0084F83F0084F8400084F8410084F804
:100F0000420084F8430084F8440084F8450084F8E3
:100F10003D00002010BD000080B586B0006841F2A1
:100F20000001C4F2000188424FF00001CDE9041134
:100F3000CDE9021148D040F20041C4F200018842DC
:100F400012D0B0F1804F3CD141F21C00C4F202003B
:100F5000016841F001010160006800F001000190AA
:100F6000019806B080BD00BF41F21C00C4F202002F
:100F7000016841F002010160016801F00201019184
:100F8000019950F8041C41F0040140F8041C50F889
:100F9000040C02A900F00400019001984020029086
:100FA0000020CDE9030040F60000C4F20100FFF785
:100FB0005BFA1D2000210022FFF7D8FB1D20FFF760
:100FC000C3FB06B080BD00BF41F21C00C4F20200AA
:100FD0000168002241F0100101600068002100F06A
:100FE0001000019001983620FFF7C0FB362006B0B4
:100FF000BDE88040FFF7A8BB90F83D1001291CBF59
:1010000001207047022180F83D10006840F6FF3251
:10101000C168C4F20002904241F00101C1600FDCDE
:10102000B0F1804F1ED040F20041C4F2000188426E
:1010300018D040F60001C4F20001884212D018E036
:1010400040F60041C4F2000188420BD043F2004157
:10105000C4F20101884205D042F60041C4F2010108
:10106000884206D1816801F00701062904BF0020EB
:101070007047016841F001010160002070470000E5
:1010800090F83C20012A4FF002026CD080B580F825
:101090003D20D0F800C04FF67772DCF8083023EA24
:1010A0000202CCF808200B684F2B29DC1F2B45DDF2
:1010B000202B46D0302B44D0402B40F0AF80D1F8CD
:1010C00004E0C968DCF82030DCF8202022F00102BE
:1010D000CCF82020DCF8182022F0F00242EA0111BE
:1010E00023F00A0242EA0E02CCF81810CCF82020B5
:1010F000DCF8081041F0470121F0300128E000BF82
:101100006F2B33DDB3F5005F74D0B3F5805F21D072
:10111000702B40F08380D1E901E3C968DCF8082036
:1011200043EA0E0322F47F4243EA01211143CCF843
:101130000810DCF8081041F0770109E00BB1102B22
:101140006CD1DCF8081021F07001194341F007015F
:10115000CCF808100022012180F83D10002180F811
:101160003C10BDE880401046704700BF502B21D096
:10117000602B53D1D1F804E0C968DCF82030DCF8EA
:10118000202022F01002CCF82020DCF8182022F4D5
:10119000704242EA013123F0A00242EA0E12CCF87A
:1011A0001810CCF82020DCF8081041F0670121F07D
:1011B0001001CDE7D1F804E0C968DCF82030DCF894
:1011C000202022F00102CCF82020DCF8182022F0A8
:1011D000F00242EA011123F00A0242EA0E02CCF8C0
:1011E0001810CCF82020DCF8081041F0570121F04D
:1011F0002001ADE7D1E901E3C968DCF8082043EA42
:101200000E0322F47F4243EA01211143CCF8081077
:10121000DCF8081041F480419AE700BF01229AE708
:101220007047000090F83C30012B04BF022070474B
:101230004FEAB202032A00F28D80F0B5DFE802F037
:10124000026428460368D1E900C5D1F80CE01C6AA5
:101250001A6A40F6FF3722F001021A621A4652F863
:10126000186FC4F20007BB427ADCB3F1804F00F084
:10127000898040F20047C4F20007BB4200F0828040
:1012800040F60007C4F20007BB427BD096E000BFE7
:101290000768D1E900C5D1E902313C6A3A6A61F3D5
:1012A000071522F480723A623A4652F81C6F26F013
:1012B000F30645EA06014FEA5C0666F3492411602D
:1012C0003C62116821F00C0111606CE00368D1E907
:1012D00000E6D1E902C11C6A1A6A360222F4805281
:1012E0001A621A4652F81C5F4FF2FF07BE4325F4FC
:1012F000734561F30F364FEA5E0746EA050167F36F
:101300004D3411601C621EE00368D1E900E6D1E9AA
:1013100002C11C6A1A6A360222F010021A621A46C8
:1013200052F8185F4FF2FF07BE4325F4734561F38F
:101330000F3624F0A0040EF00A0746EA050144EA3D
:10134000071711601F6211684FEA0C2321F44061F6
:10135000116028E00121002280F83C2008467047F7
:1013600040F60047C4F20007BB420BD043F20047EF
:10137000C4F20107BB4205D042F60047C4F20107A0
:10138000BB421BD126F00306354324F00A070CF0BC
:101390000A066EF3071537449D611F629F6927F0A7
:1013A0000C079F618B681168194311600021BDE82B
:1013B000F040002280F83C200846704746F00105C6
:1013C000E3E70000002804BF0120704710B5044681
:1013D00090F83D0028B9002084F83C00204600F039
:1013E0001FF8022084F83D002068211D00F0B0FFA6
:1013F000012084F8460084F83E0084F83F0084F819
:10140000400084F8410084F8420084F8430084F8E6
:10141000440084F8450084F83D00002010BD000021
:101420007047000070B504460068C5680669B107DA
:1014300016D515F0020113D06FF0020101610121F0
:1014400021778069800703D02046FFF7E9FE05E099
:10145000204600F08FF8204600F0ECF900202077BD
:10146000700719D515F0040016D020686FF004013C
:10147000016102212177806910F4407F04D0204669
:10148000FFF7CEFE06E000BF204600F073F82046CE
:1014900000F0D0F900202077300717D515F00800AC
:1014A00014D020686FF00801016104212177C06920
:1014B000800703D02046FFF7B3FE05E0204600F08A
:1014C00059F8204600F0B6F900202077F00619D52B
:1014D00015F0100016D020686FF01001016108218E
:1014E0002177C06910F4407F04D02046FFF798FEB2
:1014F00006E000BF204600F03DF8204600F09AF9D3
:1015000000202077F00718BF15F0010002D1300647
:1015100009D412E020686FF001010161204600F05B
:101520008BF9300609D515F0800006D020686FF0E1
:10153000800101612046FFF771FC700609D515F0A6
:10154000400006D020686FF040010161204600F0A5
:1015500093F9B00658BF70BD15F0200008D021687F
:101560006FF0200220460A61BDE87040FFF758BCCA
:1015700070BD00007047000090F83C30012B04BFA4
:10158000022070474FEAB202032A00F21D812DE9C2
:10159000F041DFE802F003C7479100BF036843F260
:1015A00000461D6A1A6A25F0020522F001021A623D
:1015B0001A465C6852F818CF8F68D1F800E0C4F280
:1015C0000106B34245EA070505D042F60047C4F2DA
:1015D0000107BB4205D1CF6825F00C0527F00407B1
:1015E0003D43B34205D042F60046C4F20106B34281
:1015F00005D1D1E9056724F4407434433C432CF011
:10160000730747EA0E075C609F614F6809695F6373
:101610001D629F6947F008079F619F6927F00407D3
:101620009F61C6E0036843F200461D6A1A6A25F40A
:10163000007522F480721A621A46D3F804C052F878
:101640001CEF8F68D1F80080C4F20106B34245EA6E
:10165000072505D042F60047C4F20107BB4208D176
:10166000CF6840F2FF443F0225F4406527EA0404B6
:101670002543B34205D042F60044C4F20104A3421C
:1016800006D1D1E905462CF44057264347EA061C0B
:101690002EF0730747EA0807C3F804C0DF614F68FC
:1016A0000969DF631D62DF6947F00807DF61DF69F1
:1016B00027F00407DF617CE0036843F20047D3F8BA
:1016C00020C01A6AC4F2010722F480521A621A4634
:1016D0005C6852F81C5FD1F800E08E68BB4205D010
:1016E00042F60047C4F20107BB4204D14F6924F41B
:1016F000804444EA87142CF4005747EA063725F45F
:10170000E64646EA0E265C60DE614E6809691E64A4
:101710001F62DF6947F40067DF61DF6927F48067D4
:10172000DF6145E0036843F200481D6A1A6A25F04C
:10173000200522F010021A621A465C6852F818CF8F
:101740008F68D1F800E0C4F20108434545EA071567
:1017500005D042F60047C4F20107BB4207D1CF686B
:101760006FF0400625F0C00506EA071635434345ED
:1017700005D042F60046C4F20106B34206D1D1E9D3
:10178000056724F440643E4344EA86042CF4E647AB
:1017900047EA0E275C609F614F6809699F631D627D
:1017A0009F6947F400679F619F6927F480679F6185
:1017B00009021368194311600021BDE8F0410022BD
:1017C00080F83C20084670470121002280F83C2028
:1017D00008467047002804BF0120704710B5044632
:1017E00090F83D0028B9002084F83C00204600F025
:1017F0001FF8022084F83D002068211D00F0A8FD9C
:10180000012084F8460084F83E0084F83F0084F804
:10181000400084F8410084F8420084F8430084F8D2
:10182000440084F8450084F83D00002010BD00000D
:10183000704700007047000010B540F60044C4F245
:1018400001040068A4F57C41884218BF10BD204601
:101850004FF480410122FEF703FF20464FF4804100
:101860000022FEF7FDFE40F27000C2F2000040F2DE
:101870000111018010BD000070470000704700009A
:1018800070470000B0B582B001680A68CC684B6947
:1018900002F02F05202D04F0200505D125B102B05E
:1018A000BDE8B04000F0CABD5FEA027C1EBF03F095
:1018B000010E04F4907313EB0E0341D1036BD506B4
:1018C00018D5012B16D114F0100313D00022019269
:1018D0000A6801924A680192019A496949064BD403
:1018E000818DC28DC38D002B18BF914240F0F481D1
:1018F00002B0B0BD13062DD514F080032AD090F8A5
:101900004120212AF4D18268B2F5805F03D10269B7
:10191000002A00F06782026A531C036212784A6050
:10192000C28C013A1304C284E2D1C86820F080005E
:10193000C860C86840F04000C86002B0B0BD00BFD9
:10194000D30718BF14F4807340F0D080530700F120
:10195000D380D8E05206CBD514F04002C8D0CA6874
:1019600022F04002CA60202180F8411002B0BDE898
:10197000B04000F01FBB00BFC16B0A68526893B251
:10198000002BB5D0858DAB42B2D2C28589692029A2
:1019900000F0A180016851E8031F026821F4807102
:1019A00042E80313DBB1016851E8031F026821F428
:1019B000807142E8031393B1016851E8031F026884
:1019C00021F4807142E803134BB1016851E8031F11
:1019D000026821F4807142E80313002BDAD1016818
:1019E00051E8051F026821F0010142E80513C3B365
:1019F000016851E8051F026821F0010142E8051362
:101A00007BB3016851E8051F026821F0010142E83B
:101A1000051333B3016851E8051F026821F0010185
:101A200042E80513002BDAD11BE000BF016851E842
:101A3000051F026821F0400142E80513DBB101688F
:101A400051E8051F026821F0400142E8051393B1F7
:101A5000016851E8051F026821F0400142E80513C2
:101A60004BB1016851E8051F026821F0400142E8CE
:101A70000513002BDAD1202180F8421000210163E8
:101A8000016851E8031F026821F0100142E80313C6
:101A9000DBB1016851E8031F026821F0100142E840
:101AA000031393B1016851E8031F026821F010018C
:101AB00042E803134BB1016851E8031F026821F0AB
:101AC000100142E80313002BDAD1C16B044608462B
:101AD000FEF7FAFB204602214163818DC28D891AEF
:101AE00089B202B0BDE8B040FFF7C8BE436C43F016
:101AF00001034364530706D5BEF1000F03D0436CC6
:101B000043F002034364930706D5BEF1000F03D0F0
:101B1000436C43F004034364BCF1000F06D55EEA56
:101B2000050303D0436C43F008034364436C002B6C
:101B30003FF4DEAE920605D525B1044600F07EFCEA
:101B4000216820464969426C01F0400102F0080218
:101B5000891800F0B98000BF016851E8031F0268CE
:101B600021F4907142E80313BBB3016851E8031FED
:101B7000026821F4907142E8031373B3016851E8DD
:101B8000031F026821F4907142E803132BB301682C
:101B900051E8031F026821F4907142E80313002BFF
:101BA000DAD11AE0016851E8051F026821F001014D
:101BB00042E80513DBB1016851E8051F026821F016
:101BC000010142E8051393B1016851E8051F02685D
:101BD00021F0010142E805134BB1016851E8051FEE
:101BE000026821F0010142E80513002BDAD1016BF4
:101BF000012924D1016851E8031F026821F0100176
:101C000042E80313DBB1016851E8031F026821F0C9
:101C1000100142E8031393B1016851E8031F026801
:101C200021F0100142E803134BB1016851E8031F92
:101C3000026821F0100142E80313002BDAD12021C1
:101C400080F842100021016301684969490640F1AA
:101C5000C380016851E8051F026821F0400142E895
:101C60000513DBB1016851E8051F026821F040014E
:101C700042E8051393B1016851E8051F026821F09D
:101C8000400142E805134BB1016851E8051F0268A5
:101C900021F0400142E80513002BDAD1C16B002985
:101CA00000F09A8042F23142C0F600020446084633
:101CB0004A63FEF72DFB00283FF41AAEE06B416B40
:101CC00002B0BDE8B04008470446FFF7D9FD002048
:101CD000606402B0B0BD00BF891A00BF026852E85C
:101CE000032F036822F4907243E80325BDB3026812
:101CF00052E8032F036822F4907243E8032575B37A
:101D0000026852E8032F036822F4907243E8032527
:101D10002DB3026852E8032F036822F4907243E85F
:101D20000325002DDAD11AE0026852E8052F036876
:101D300022F0010243E80525DDB1026852E8052FD3
:101D4000036822F0010243E8052595B1026852E8D4
:101D5000052F036822F0010243E805254DB1026812
:101D600052E8052F036822F0010243E80525002D03
:101D7000DAD1202280F8422000220263026852E871
:101D8000032F036822F0100243E80325DDB1026847
:101D900052E8032F036822F0100243E8032595B1AF
:101DA000026852E8032F036822F0100243E803257B
:101DB0004DB1026852E8032F036822F0100243E895
:101DC0000325002DDAD1022289B2426302B0BDE8B8
:101DD000B040FFF753BD00BF02B0BDE8B040FFF711
:101DE0004FBD00BF026A32F8023B6FF35F234B60C6
:101DF000026295E5002804BF0120704710B5044633
:101E000090F8410028B9002084F84000204600F0F6
:101E100063F8242084F841002068D4E90212C368E2
:101E200023F40053C360036923F440531A4302614F
:101E3000D4E904231143C268194341F20C639A4365
:101E40001143C1604169A26921F44071114343F615
:101E50000002C4F201029042416103D0FEF7A0FDEE
:101E600002E000BFFEF7B0FDD4E90023192148438A
:101E70009900B0FBF1F048F21F5CC5F2EB1CA0FB2F
:101E80000C314FF69C734909C0F6FF7301FB030048
:101E9000322303EB0010A0FB0C03F02000EA5310E8
:101EA00000EB0110C3F34311084490601069202136
:101EB00020F490401061506920F02A005061D068F1
:101EC00040F40050D0600020606484F8411084F831
:101ED0004210606310BD0000F0B585B0006844F2A8
:101EE0000041C4F2000188424FF00001CDE9031126
:101EF000CDE9011122D043F60001C4F2010188426C
:101F000053D141F21800C4F202000168252441F4C3
:101F10008041016001684FF4806701F480410091C5
:101F20000099016841F004010160006800F00400BC
:101F3000009000984FF4007019E000BF41F21800C3
:101F4000C4F202004168262441F400314160416836
:101F5000082701F4003100910099016841F0040163
:101F60000160006800F004000090009804200190D7
:101F7000022040F6000502900320C4F2010501AEE4
:101F8000049028463146FEF76FFA0020CDE90200A2
:101F9000284631460197FEF767FA204600210022C5
:101FA000FEF7E4FB2046FEF7CFFB05B0F0BD0000D6
:101FB0007047000070470000FEE700002DE9F04781
:101FC00086B0002741F21800CDE90477CDE9027709
:101FD000C4F20200016840F6004941F004010160CA
:101FE0000168C4F2010901F004010191019901683D
:101FF000A9F5806541F0080101600068A12100F0A9
:1020000008000190019828460022A124FEF728FB31
:1020100048464FF4604100224FF46048FEF720FB31
:1020200002AE029401244FF0020A28463146CDE95F
:102030000347CDF814A0FEF717FA48463146CDE91C
:1020400002470494FEF710FA0620CDE9020748463D
:1020500031460497FEF708FA48463146CDE9028436
:10206000CDE9047AFEF700FA06B0BDE8F08700007B
:1020700010B594B041F6A4000021C2F20000312452
:102080000E91CDE90C110991CDE90711CDE90511AA
:10209000CDE90311CDE901114FF080424723C0E99A
:1020A000021401618021C0E900238161FEF706FF6F
:1020B000002818BFFEF702F94FF480500B9041F64C
:1020C000A400C2F200000BA9FEF7DAFF002818BF37
:1020D000FEF7F4F841F6A400C2F20000FFF77AFB25
:1020E000002818BFFEF7EAF841F6A4000024C2F267
:1020F000000008A9CDE90844FEF794FE002818BFA7
:10210000FEF7DCF86020CDE901040394059441F664
:10211000A404C2F2000401A920460022FFF72CFA11
:10212000002818BFFEF7CAF821680020B1F1804FDF
:10213000CDE912001190109002D014B010BD00BF74
:1021400041F21800C4F20200016841F0040101608C
:10215000006810A900F004000F900F984FF40040A1
:10216000109002201190139040F60000C4F201007C
:10217000FEF77AF90420C4F2010001684FF6FF422D
:10218000CFF6FF02114041F0E06141F4807101603F
:1021900014B010BD10B58AB041F6EC0040F2004218
:1021A0000021C2F20000C4F2000247234FF6FF7480
:1021B0000991CDE90711CDE90411CDE90211CDE96D
:1021C0000011C0E90023C0E9021401618161FEF73A
:1021D00075FE002818BFFEF771F84FF48050069086
:1021E00041F6EC00C2F2000006A9FEF749FF002804
:1021F00018BFFEF763F841F6EC00C2F20000FFF7EB
:10220000E1F8002818BFFEF759F841F6EC00002469
:10221000C2F2000004A9CDE90444FEF703FE002841
:1022200018BFFEF74BF80120CDE9010441F6EC00A0
:10223000C2F200006946002200940394FEF7F2FF08
:10224000002818BFFEF73AF80AB010BD80B582B07A
:1022500041F6341041F200020021C2F20000C4F243
:10226000000247234FF0630CCDE90011C0E90023C1
:10227000C0E9021C8161FEF721FE002818BFFEF7AD
:102280001DF841F63410C2F200006946FEF7CAFD9F
:10229000002818BFFEF712F802B080BD10B543F653
:1022A000000441F67C10C4F20104C2F200004FF4B5
:1022B0007A3100220C23C0E90041C0E90222C0E9C2
:1022C0000423C0E90622FFF795FD002818BFFDF79B
:1022D000F5FF2046BDE8104000F050B910B544F2BB
:1022E000004441F6C41044F24021C4F20004C2F29A
:1022F0000000C0F20F0100220C23C0E90041C0E938
:102300000222C0E90423C0E90622FFF773FD00287A
:1023100018BFFDF7D3FF2046BDE8104000F02EB9EE
:10232000FEE70000FEE70000704700007047000075
:10233000FEF7A2B97047000041F6EC00C2F20000BF
:10234000FFF770B841F63410C2F20000FFF76AB828
:1023500010B540F6FF320368C4F2000240F6004EAA
:1023600043F2004C9042C4F2000EC4F2010C21DC96
:10237000B0F1804F28D040F20044C4F20004A042E3
:1023800022D040F60004C4F20004A0421CD09042C7
:1023900020DCB0F1804F27D040F20042C4F20002AE
:1023A000904221D040F60002C4F2000290421BD0BD
:1023B0001EE000BF704507D0604505D042F60044DE
:1023C000C4F20104A042E2D14C6823F0700323431D
:1023D0009042DEDD704507D0604505D042F60042F0
:1023E000C4F20102904203D1CA6823F4407313433C
:1023F0004C6923F08002D1F800E08B6822436045ED
:102400000260C362C0F828E005D042F60042C4F280
:102410000102904201D10969016301214161016911
:10242000C90708BF10BD016921F00101016110BD9C
:10243000406A0021C185C184FFF722BA81B090F8BB
:102440004210222921D183680246B3F5805F09D169
:1024500052F8281F52F8183C002B63D003685B68C1
:102460000AE000BF52F8281F13B90369002BF5D00A
:1024700003685B6803F07F030B7011680131116022
:10248000C18D01390A04C18502D001B0704700BF77
:102490000168CA6822F02002CA60CA6822F4807209
:1024A000CA604A6922F001024A61202180F8421084
:1024B00000214163026B012A3CD10163016851E8AC
:1024C000031F026821F0100142E80313DBB1016829
:1024D00051E8031F026821F0100142E8031393B191
:1024E000016851E8031F026821F0100142E803135C
:1024F0004BB1016851E8031F026821F0100142E866
:102500000313002BDAD101680A68D20606D500222F
:1025100000920A680092496800910099818D01B08B
:10252000FFF7ACB9026852686FF35F2221F8022B03
:102530008162A5E701B0FFF73BBD000080B543F61F
:102540000000C4F2010000F073F841F67C10C2F202
:102550000000BDE88040FFF795B9000080B544F267
:102560000040C4F2000000F063F841F6C410C2F26B
:102570000000BDE88040FFF785B9000043F6000188
:10258000C4F20101884240F27401C2F2000111D08C
:1025900044F60002C4F20002904209D044F2004224
:1025A000C4F20002904218BF704701F5016101E0DA
:1025B00001F5815100220860A1F80624A1F8042445
:1025C000A1F80A28A1F80828012281F80C28C1687E
:1025D00041F02001C160704743F60001C4F20101DF
:1025E000884240F27401C2F2000111D044F60002A8
:1025F000C4F20002904209D044F20042C4F2000248
:10260000904213D101F5016102E000BF01F5815153
:1026100091F80C08002808BF7047EFF3108072B6DD
:102620000020A1F80604A1F8040462B67047000077
:1026300043F60001C4F20101884240F27401C2F283
:1026400000010ED044F60002C4F20002904233D0E2
:1026500044F20042C4F20002904218BF704701F5F4
:10266000016110B591F80C0818B308680268930668
:1026700011D5D0F804C0B1F80434B1F806E45C1CFC
:102680006FF39F24744506D0B1F804340B4483F8EB
:1026900004C0A1F80444C3681A40120609D5B1F871
:1026A0000A28B1F808389A420ED1C16821F0800199
:1026B000C160BDE81040704701F5815110B591F837
:1026C0000C080028D1D1F4E7B1F80A280A4492F89E
:1026D00008244260B1F80A0801306FF39F20A1F886
:1026E0000A08BDE810407047B0B543F60003C4F2D5
:1026F000010340F2740E9842C2F2000E10D044F66C
:102700000003C4F20003984208D044F20043C4F22C
:10271000000398423AD10EF5016E01E00EF5815E9C
:10272000002A4FF0000018BF002901D180B2B0BDCF
:102730009EF80C38002BF9D0EFF3108072B60EF52E
:10274000816C0020BEF80838BEF80A4801336FF3E8
:102750009F23A3420AD00C5CBEF808580130824285
:102760000CF80540AEF80838ECD11046BEF8081851
:10277000BEF80A28914205D0DEF80010CA6842F07F
:102780008002CA6062B680B2B0BD00BF002080B2D5
:10279000B0BD0000FEE70000B0B543F60005C4F28E
:1027A000010504462846FFF717FF41F60C21C2F247
:1027B0000001FA2008709120A4F175034C70887014
:1027C00028460422CB70BDE8B040FFF78DBF000063
:1027D00090B0FDF75FFF00240120CDE90B44CDE967
:1027E000094406900A904FF4E0104FF4803102251E
:1027F0000F9006A8CDE90714CDE90D51FEF7F8F8C2
:1028000020B1EFF3108072B6FEE700BF0F20CDE9D4
:1028100001054FF48060CDE9040401A8022103946E
:10282000FDF7E0FF20B1EFF3108072B6FEE700BFC6
:10283000FFF7C4FBFFF71CFCFFF7ACFCFFF706FD3E
:10284000FFF72CFDFFF74AFD41F63410C2F20000FD
:10285000FEF7D2FB6420FDF7F3FD0320FFF79CFF9A
:1028600040F60044C4F201044FF47A70FDF7E8FD2D
:1028700020464FF40051FDF7EBFEF5E700000000A5
:102880000000000001020304060708090000000020
:1028900001020304010202030405060708090A0BEA
:1028A0000C0D0E0F10100000C828000800000020BA
:1028B0001000000094010008D82800081000002033
:1028C00040200000B40100080100000010000000DA
:0828D00000127A000000000074
:0400000508000131BD
:00000001FF
