:020000040800F2
:1000000058200020CD010008992200083D1F00085B
:100010009522000889020008092800080000000055
:10002000000000000000000000000000A122000805
:100030008D020008000000009D220008A522000893
:10004000E7010008E7010008E7010008E7010008F0
:10005000E7010008E7010008E7010008E7010008E0
:10006000E7010008E7010008E7010008E7010008D0
:10007000E7010008E7010008E7010008E7010008C0
:10008000E7010008E7010008E7010008E7010008B0
:10009000E7010008E7010008E7010008E7010008A0
:1000A000E7010008E7010008E7010008E701000890
:1000B000E7010008AD220008E7010008E701000899
:1000C000E7010008E7010008E7010008E701000870
:1000D000E7010008B9240008D9240008E701000856
:1000E000E7010008E7010008E7010008E701000850
:1000F000E7010008E7010008E7010008E701000840
:10010000E7010008E7010008E7010008E70100082F
:10011000E7010008E7010008B9220008E70100082C
:10012000E7010008E7010008E7010008E70100080F
:1001300000F002F800F03AF80AA090E8000C8244BF
:100140008344AAF10107DA4501D100F02FF8AFF29C
:10015000090EBAE80F0013F0010F18BFFB1A43F0A5
:1001600001031847D4280000F4280000103A24BFE7
:1001700078C878C1FAD8520724BF30C830C144BF0C
:1001800004680C607047000000230024002500264E
:10019000103A28BF78C1FBD8520728BF30C148BFEA
:1001A0000B6070471FB51FBD10B510BD00F031F8D2
:1001B0001146FFF7F7FF02F07BFB00F04FF803B4A6
:1001C000FFF7F2FF03BC00F057F800000948804732
:1001D00009480047FEE7FEE7FEE7FEE7FEE7FEE729
:1001E000FEE7FEE7FEE7FEE704480549054A064B41
:1001F00070470000A922000831010008581A0020A9
:1002000058200020581C0020581C002070477047C0
:100210007047754600F02CF8AE4605006946534617
:1002200020F00700854618B020B5FFF7DDFFBDE8D8
:1002300020404FF000064FF000074FF000084FF04D
:10024000000BAC46ACE8C009ACE8C009ACE8C0099A
:10025000ACE8C00921F007018D46704710B504468F
:10026000AFF300802046BDE81040FFF7A8BF0000B4
:10027000004870471000002001491820ABBEFEE77F
:100280002600020070470000FEE7000070470000F3
:10029000EFF3108072B600BFFEE70000014690F851
:1002A0002100022816D10868D1E90FC3026822F0A4
:1002B0000E020260026822F001020260012000FAD0
:1002C00003F2CCF8042081F821000020002281F8FC
:1002D00020207047042088630120002281F820201C
:1002E0007047000080B590F82110022928D10268DB
:1002F00040F2040C1368C4F2020C23F00E031360E6
:1003000013680CF17C018A4223F0010111601BD9B2
:1003100040F20841C4F202018A4249D040F21C4135
:10032000C4F202018A4247D040F23041C4F20201D5
:100330008A4245D14FF48073CCF800345DE000BFB1
:1003400004218163012080BD4321C4F202018A425D
:100350000EDD6B21C4F202018A421BDC4421C4F28F
:1003600002018A423CD05821C4F202018A4233E0A1
:100370000821C4F202018A4236D01C21C4F20201D3
:100380008A4237D03021C4F202018A4224D14FF48C
:10039000807230E06C21C4F202018A4226D08021B2
:1003A000C4F202018A4217D14FF0807223E000BFED
:1003B0000123CCF8003420E01023CCF800341CE0FA
:1003C0000CF588614FF480338A4208BF4FF48053A4
:1003D000CCF8003411E000BF4FF480320BE000BFD6
:1003E0004FF4805207E000BF012204E04FF4801276
:1003F00001E000BF1022CCF80020012180F821107C
:10040000426B002180F820100AB190470021084675
:1004100080BD0000B0B5044600F01AF9054640F270
:100420000000C2F200000078611C18BF044400BF45
:1004300000F00EF9401BA042FAD3B0BD2DE9F04FF9
:1004400082B0D1F800C0BCF1000F00F0F180A0F143
:10045000804241F60045A2F58432C4F2010540F223
:10046000004E4FEAB2240627A842C4F2010E08BF8C
:100470000527052C4FF000044FF001084FF00F0343
:100480004FF0000A4FF0000B38BF4FEAB227009739
:100490000AE000BFD1F800C00AF1010A3CFA0AF2F2
:1004A00004F1040400F0C48008FA0AF91CEA090FF8
:1004B000F0D04E684FF6FF72C1F21002964211DC86
:1004C000122E55D8DFE806F0340A444854545454E8
:1004D0005454545454545454544C5000D1F80CB007
:1004E00046E000BF4FF6FF72C1F2210296420FDCD8
:1004F0000022C1F2110296421AD00022C1F2120269
:10050000964215D00022C1F22102964210D02FE06F
:100510000022C1F2220296420AD00022C1F2310228
:10052000964205D00022C1F23202964220D100BF8D
:100530008A684AB1012A14BFC0F81490C0F810901C
:100540004FF0080B14E000BF4FF0040B10E000BFA9
:10055000CA6802F1080B0BE04FF0000B08E000BF87
:10056000CA6802F1040B03E0CA6802F10C0B00BF79
:1005700022460646BAF1080F24BF203A04363768EF
:1005800003FA02F5AF430BFA02F23A433260CA793A
:10059000D2067FF57FAF41F21807C4F202073A682E
:1005A0004FF6084342F001023A603A68CFF6FF7313
:1005B00002F001020192019A2AF0030272440F250F
:1005C000D75804F00C06B540AF43009D05FA06F677
:1005D0003743D7504E6840F20C45F202DEF808204F
:1005E00054BF22EA090242EA0902CEF80820C4F206
:1005F00001052A68B70254BF22EA090242EA090249
:100600002A60DEF80420B70354BF22EA090242EA56
:100610000902CEF804200F23DEF80020F70354BFB0
:1006200022EA090242EA0902CEF8002032E700BFBE
:1006300002B0BDE8F08F00008068084018BF0120BC
:1006400070470000002A08BF0904016170470000DC
:1006500041F65020C2F200000068704740F20000EE
:1006600041F65021C2F20000C2F2000100780A688F
:10067000104408607047000080B542F20000C4F2E8
:100680000200016841F010010160032000F08EF8C3
:100690000F2000F005F800F027F8002080BD0000D2
:1006A00070B540F20006C2F2000640F2080132784E
:1006B000C2F200014FF47A730968B3FBF2F2044608
:1006C000B1FBF2F1084600F063FB0F2C4FF001057F
:1006D00008D838B94FF0FF3021460022002500F03D
:1006E00039F87460284670BD82B041F21800C4F237
:1006F00002000168042241F001010160016801F07B
:10070000010101910199416841F0805141604068C7
:1007100000F08050009000980420C4F201000168AD
:1007200062F31A61016002B070470000002848BF00
:100730007047C1B200F01F00012202FA00F04EF231
:100740000012CEF2000242EAD10121F0030108605A
:100750007047000010B54EF60C5CCEF2000CDCF8D1
:100760000030C3F3022E8EF00704042C28BF0424AB
:10077000BEF103034FF0FF3E0EFA04F438BF00232E
:10078000A14399400EFA03F39A43114300F00F027C
:1007900000F160430901043A03F564436244002810
:1007A00048BF02F10C03197010BD00004EF60C5149
:1007B000CEF200010A684FF6FF031A4060F30A22E6
:1007C00042F0806040F0FD70086070472DE9F04312
:1007D00081B0002800F0858042F20008C4F20208CF
:1007E0000446D8F800000D4600F0070088420CD2FD
:1007F000D8F8000020F007002843C8F80000D8F817
:10080000000000F00700A8426BD1206841F2040903
:100810008107C4F2020917D5410705D5D9F80010A0
:1008200041F4E061C9F80010010705D5D9F80010BE
:1008300041F46051C9F80010D9F80010A26821F005
:10084000F0011143C9F80010C00741D1D8F80000E9
:1008500000F00700A8420CD9D8F8000020F00700EB
:100860002843C8F80000D8F8000000F00700A842AC
:1008700037D12068410707D5D9F80010E26821F484
:10088000E0611143C9F80010000708D5D9F800004D
:10089000216920F4605040EAC100C9F80000D9F88D
:1008A000002002F00C00082841F20020C0F27A007B
:1008B00050D142F62823C2F38341C0F60003595CAD
:1008C000D2033BD440F60010C0F23D00484341E063
:1008D000606802280AD001282AD159F8041C89032B
:1008E00008D4012001B0BDE8F08300BF59F8041C12
:1008F0008901F6D5D9F8001021F003010843C9F8A1
:100900000000FFF7A5FE064641F28837D9F800003F
:10091000616800F00C00B0EB810F97D0FFF798FEF4
:10092000801BB842F2D9032001B0BDE8F08300BFBC
:1009300059F8041C8907D4D5DCE700BFD9F800209A
:1009400042F62623C2F34042C0F600039A5C4843B5
:10095000B0FBF2F0D9F8001042F60E22C1F30311F9
:10096000C0F60002515C40F2080220FA01F140F2A8
:100970000400C2F200000068C2F200021160FFF73A
:100980008FFE002001B0BDE8F083000040F20800B7
:1009900041F20401C2F20000C4F2020100680968D9
:1009A00042F61E22C1F30221C0F60002515CC8408B
:1009B0007047000040F2080041F20401C2F200005A
:1009C000C4F202010068096842F61E22C1F3C22186
:1009D000C0F60002515CC840704700002DE9F041AC
:1009E00082B0002868D00446007841F20006C007B3
:1009F000C4F2020625D0706800F00C0004281BD059
:100A0000706800F00C00082802D17068C00313D48D
:100A10006068002800F06881B0F5A02F00F07C81AC
:100A2000B0F5803F00F07C81306820F48030306089
:100A3000306820F4802076E13068800301D560685A
:100A4000D0B32078800718D5706810F00C0F07D04D
:100A5000706800F00C0008286ED17068C0036BD479
:100A60003068800702D52069012825D13068616986
:100A700020F0F80040EAC1003060207800071FD461
:100A80002078400732D4E56995B1706800F00C0019
:100A9000082840F08F80012D0ED07068216A00F484
:100AA00080328A4208D1616A00F47010884203D112
:100AB000002002B0BDE8F081012002B0BDE8F08165
:100AC000A069002862D00020C4F242200121C0F8B1
:100AD0008014FFF7BDFD0546706A800700F18C8029
:100AE000FFF7B6FD401B0228F6D92AE1F06910F0A5
:100AF000805808D1F06940F08050F061F06900F052
:100B000080500090009847F20007C4F20007386850
:100B1000C00529D4386840F480703860FFF798FD2C
:100B2000054600BF3868C0051ED4FFF791FD401B85
:100B30006428F7D905E100BF2069002840F20000D1
:100B4000C4F2422000F0828001210160FFF780FDA5
:100B5000054600BF306880073FF588AFFFF778FD96
:100B6000401B0228F6D9ECE0E068002800F0808005
:100B7000052800F09780012800F09880306A20F066
:100B800001003062306A20F0040092E00020C4F2DC
:100B900042200021C0F88014FFF75AFD054600BF2F
:100BA000706A80077FF56CAFFFF752FD401B02288B
:100BB000F6D9C6E00027C4F2422700203866FFF7C6
:100BC00047FD022D05460BD13068800140F1BE8003
:100BD000FFF73EFD401B02284FF00300F4D968E701
:100BE000306880017FF564AFFFF732FD401B0228BB
:100BF0004FF00300F4D95CE740F20800C2F20000B5
:100C0000006844F6D351C1F26201A0FB0101480A19
:100C1000019000BF00BF0198411E002801913FF4E0
:100C20002FAF00BF0198411E002801913FF428AF6B
:100C300000BF0198411E002801913FF421AF00BF81
:100C40000198411E00280191E4D119E700210160BB
:100C5000FFF7FEFC054600BF306880077FF50DAF4B
:100C6000FFF7F6FC401B02284FF00300F4D920E701
:100C7000306A20F001003062306A20F004003062F7
:100C8000FFF7E6FC054641F2883700BF306A80076F
:100C900020D5FFF7DDFC401BB8424FF00300F5D92B
:100CA00007E700BF306A40F004003062306A40F06D
:100CB00001003062FFF7CCFC054641F2883700BFE7
:100CC000306A800706D4FFF7C3FC401BB842F7D94F
:100CD00037E000BFB8F1000F7FF4D5AEF06920F027
:100CE0008050F061CFE600BF306820F48030306083
:100CF000306820F480203060FFF7AAFC054600BF72
:100D0000306880037FF59DAEFFF7A2FC401B64288E
:100D10004FF00300F4D9CCE6306840F48020306016
:100D2000306840F480303060FFF792FC054600BF29
:100D3000306880033FF585AEFFF78AFC401B6428CE
:100D4000F6D9032002B0BDE8F08100BF206AB0F5FB
:100D5000803F05D17168A26821F4003111437160B0
:100D60007168626A21F474111143084370600120B4
:100D70003866FFF76DFC0446306880013FF598AE99
:100D8000FFF766FC001B02284FF00300F4D990E641
:100D9000411E0020B0EB116F1CBF012070474EF2C6
:100DA0001002CEF2000251604EF62351CEF2000145
:100DB000F0230B70072190601160704770470000AE
:100DC0007047000010B590F83C20012A4FF0020255
:100DD0003FD080F83D200268D2F804E0D2F808C085
:100DE0000C682EF07003234340F6FF34C4F2000475
:100DF000A242536010DCB2F1804F1FD040F200439A
:100E0000C4F200039A4219D040F60003C4F2000372
:100E10009A4213D017E000BF40F60043C4F200032B
:100E20009A420BD043F20043C4F201039A4205D028
:100E300042F60043C4F201039A4204D149682CF0FF
:100E40008003194391600121002280F83D1080F851
:100E50003C20104610BD0000002804BF0120704750
:100E600010B5044690F83D0028B9002084F83C00F5
:100E7000204600F01FF8022084F83D002068211D64
:100E800001F020FA012084F8460084F83E0084F83E
:100E90003F0084F8400084F8410084F8420084F860
:100EA000430084F8440084F8450084F83D000020A5
:100EB00010BD000080B586B0006841F20002C4F2A7
:100EC000000200219042059118D040F20041C4F286
:100ED000000188422AD0B0F1804F54D141F21C0069
:100EE000C4F20200016841F001010160006800F0F5
:100EF00001000190019806B080BD00BF41F21C00C6
:100F0000C4F202000168002241F010010160006893
:100F1000002100F01000019001983620FFF71AFC24
:100F2000362006B0BDE88040FFF700BC41F21C004F
:100F3000C4F20200016841F002010160016801F0A1
:100F400002010191019950F8041C41F0040140F89C
:100F5000041C50F8040C02A900F004000190019850
:100F6000402002900020CDE9030040F60000C4F2CA
:100F70000100FFF763FA1D2000210022FFF7EAFBC2
:100F80001D20FFF7D3FB06B080BD000090F83D1098
:100F900001291CBF01207047022180F83D10006824
:100FA00040F6FF32C168C4F20002904241F00101F4
:100FB000C1600FDCB0F1804F1ED040F20041C4F29E
:100FC0000001884218D040F60001C4F200018842B6
:100FD00012D018E040F60041C4F2000188420BD064
:100FE00043F20041C4F20101884205D042F60041BB
:100FF000C4F20101884206D1816801F00701062987
:1010000004BF00207047016841F001010160002029
:101010007047000080B590F83C20012A4FF0020292
:1010200000F0C28080F83D20D0F800C04FF6777203
:10103000DCF8083023EA0202CCF808200B684F2BBA
:1010400028DC1F2B44DD202B45D0302B43D0402BF8
:1010500040F0AC80D1F804E0C968DCF82030DCF85E
:10106000202022F00102CCF82020DCF8182022F009
:10107000F00242EA011123F00A0242EA0E02CCF821
:101080001810CCF82020DCF8081041F0470121F0BE
:10109000300180E06F2B27DDB3F5005F48D0B3F55A
:1010A000805F7AD0702B40F08180D1E901E3C9687C
:1010B000DCF8082043EA0E0322F47F4243EA0121D0
:1010C0001143CCF80810DCF8081041F0770162E019
:1010D0000BB1102B6AD1DCF8081021F07001194314
:1010E00041F0070157E000BF502B35D0602B5DD198
:1010F000D1F804E0C968DCF82030DCF8202022F0C8
:101100001002CCF82020DCF8182022F4704242EAC9
:10111000013123F0A00242EA0E12CCF81810CCF8EC
:101120002020DCF8081041F0670121F0100132E0C6
:10113000D1E901E3C968DCF8082043EA0E0322F490
:101140007F4243EA01211143CCF80810DCF8081073
:1011500041F480411FE000BFD1F804E0C968DCF829
:101160002030DCF8202022F00102CCF82020DCF82E
:10117000182022F0F00242EA011123F00A0242EAAA
:101180000E02CCF81810CCF82020DCF8081041F042
:10119000570121F02001CCF808100022012180F82D
:1011A0003D10002180F83C10104680BD0122F5E77B
:1011B00070470000F0B590F83C30012B04BF0220CE
:1011C000F0BD4FEAB202032A2AD8DFE802F0032F6B
:1011D0004F6D00BF0368D1E900C5D1F80CE01C6A6F
:1011E0001A6A40F6FF3722F001021A621A4652F8D4
:1011F000186FC4F20007BB427ADCB3F1804F00F0F5
:10120000898040F20047C4F20007BB4200F08280B0
:1012100040F60007C4F20007BB427BD094E000BF59
:101220000121002280F83C200846F0BD0368D1E986
:1012300000E6D1E902C11C6A1A6A360222F01002E5
:101240001A621A4652F8185F4FF2FF07BE4325F4A0
:10125000734561F30F3624F0A0040EF00A0746EA46
:10126000050144EA071711601F623AE00768D1E9F7
:1012700000C5D1E902313C6A3A6A61F3071522F4EC
:1012800080723A623A4652F81C6F26F0F30645EA3D
:1012900006014FEA5C0666F3492411603C6211685E
:1012A00021F00C01116046E00368D1E900E6D1E9C4
:1012B00002C11C6A1A6A360222F480521A621A4665
:1012C00052F81C5F4FF2FF07BE4325F4734561F3EC
:1012D0000F364FEA5E0746EA050167F34D341160A9
:1012E0001C6211684FEA0C2321F44061116022E076
:1012F00040F60047C4F20007BB420BD043F2004760
:10130000C4F20107BB4205D042F60047C4F2010710
:10131000BB4219D126F00306354324F00A070CF02E
:101320000A066EF3071537449D611F629F6927F017
:101330000C079F618B68116819431160002100221E
:1013400080F83C200846F0BD46F00105E5E70000C6
:10135000002804BF0120704710B5044690F83D00F6
:1013600028B9002084F83C00204600F01FF8022035
:1013700084F83D002068211D00F0A4FF012084F8BE
:10138000460084F83E0084F83F0084F8400084F86A
:10139000410084F8420084F8430084F8440084F853
:1013A000450084F83D00002010BD0000704700009B
:1013B00070B504460068C5680669B10716D515F012
:1013C000020113D06FF002010161012121778069D0
:1013D000800703D02046FFF7EBFE05E0204600F033
:1013E0008FF8204600F0F0F900202077700719D51B
:1013F00015F0040016D020686FF00401016102218D
:101400002177806910F4407F04D02046FFF7D0FE9A
:1014100006E000BF204600F073F8204600F0D4F943
:1014200000202077300717D515F0080014D0206869
:101430006FF00801016104212177C069800703D0A2
:101440002046FFF7B5FE05E0204600F059F820469B
:1014500000F0BAF900202077F00619D515F0100039
:1014600016D020686FF01001016108212177C06952
:1014700010F4407F04D02046FFF79AFE06E000BF3C
:10148000204600F03DF8204600F09EF9002020772D
:10149000F00718BF15F0010002D1300609D412E0A0
:1014A00020686FF001010161204600F08FF93006DD
:1014B00009D515F0800006D020686FF08001016129
:1014C0002046FFF77BFC700609D515F0400006D0DA
:1014D00020686FF040010161204600F097F9B006E6
:1014E00058BF70BD15F0200008D021686FF02002B1
:1014F00020460A61BDE87040FFF762BC70BD000085
:10150000704700002DE9F04190F83C30012B04BFFA
:101510000220BDE8F0814FEAB202032A00F21C81EA
:10152000DFE802F0024690DA036843F200461D6AE3
:101530001A6A25F0020522F001021A621A465C6856
:1015400052F818EF8F68D1F800C0C4F20106B34218
:1015500045EA070505D042F60047C4F20107BB4241
:1015600005D1CF6825F00C0527F004073D43B342B1
:1015700005D042F60046C4F20106B34205D1D1E9D6
:10158000056724F4407434433C432EF0730747EA64
:101590000C075C609F614F6809695F631D629F690A
:1015A00047F008079F619F6927F004079F61C9E022
:1015B000036843F200461D6A1A6A25F0200522F0EE
:1015C00010021A621A46D3F804C052F8188F8F68B6
:1015D000D1F800E0C4F20106B34245EA071505D090
:1015E00042F60047C4F20107BB4207D1CF686FF053
:1015F000400425F0C00504EA07142543B34205D092
:1016000042F60044C4F20104A34206D1D1E90546E2
:101610002CF44067264347EA860C28F4E64444EA63
:101620000E27C3F804C09F614F6809699F631D625C
:101630009F6947F400679F619F6927F480679F61F6
:101640007FE000BF036843F200461D6A1A6A25F472
:10165000007522F480721A621A46D3F804C052F858
:101660001CEF8F68D1F80080C4F20106B34245EA4E
:10167000072505D042F60047C4F20107BB4208D156
:10168000CF6840F2FF443F0225F4406527EA040496
:101690002543B34205D042F60044C4F20104A342FC
:1016A00006D1D1E905462CF44057264347EA061CEB
:1016B0002EF0730747EA0807C3F804C0DF614F68DC
:1016C0000969DF631D62DF6947F00807DF61DF69D1
:1016D00027F00407DF6135E0036843F20047D3F8E1
:1016E00020C01A6AC4F2010722F480521A621A4614
:1016F0005C6852F81C5FD1F800E08E68BB4205D0F0
:1017000042F60047C4F20107BB4204D14F6924F4FA
:10171000804444EA87142CF4005747EA063725F43E
:10172000E64646EA0E265C60DE614E6809691E6484
:101730001F62DF6947F40067DF61DF6927F48067B4
:10174000DF6109021368194311600021002280F84B
:101750003C200846BDE8F0810121002280F83C20B1
:101760000846BDE8F0810000002804BF0120704752
:1017700010B5044690F83D0028B9002084F83C00DC
:10178000204600F01FF8022084F83D002068211D4B
:1017900000F098FD012084F8460084F83E0084F8AB
:1017A0003F0084F8400084F8410084F8420084F847
:1017B000430084F8440084F8450084F83D0000208C
:1017C00010BD0000704700007047000010B540F6E3
:1017D0000044C4F201040068A4F57C41884218BFAB
:1017E00010BD20464FF480410122FEF72BFF20461A
:1017F0004FF480410022FEF725FF40F27000C2F254
:10180000000040F20111018010BD0000704700008F
:101810007047000070470000B0B582B00446006811
:101820000168C368426901F02F05202D03F02005EF
:1018300006D12DB1204602B0BDE8B04000F0BCBDDD
:101840005FEA017C1EBF02F0010E03F4907212EBFE
:101850000E0253D1226B012A05D111F0100218BFDC
:1018600013F0100236D10A0622D513F080021FD0E1
:1018700094F8411021293FD1A168B1F5805F03D1CF
:101880002169002900F07082216A4A1C22620978CD
:101890004160E18C01390A04E1842DD1C16821F055
:1018A0008001C160C16841F04001C16002B0B0BDBB
:1018B000490621D513F040011ED0C16821F0400136
:1018C000C1602021204684F8411002B0BDE8B0403C
:1018D00000F032BB00210191016801914168019142
:1018E00001994069400613D4A08DE18DE28D002A54
:1018F00018BF884240F0BA8102B0B0BDCA0718BF15
:1019000013F4807240F0B6804A0700F1B980BEE05F
:10191000E06B016849688AB2002AEDD0A38D9A4233
:10192000EAD2E1858069202800F09C80206850E898
:10193000030F216820F4807041E80302DAB12068C7
:1019400050E8030F216820F4807041E8030292B14F
:10195000206850E8030F216820F4807041E80302FA
:101960004AB1206850E8030F216820F4807041E8F4
:101970000302002ADAD1206850E8050F216820F020
:10198000010041E80502DAB1206850E8050F21683E
:1019900020F0010041E8050292B1206850E8050FEF
:1019A000216820F0010041E805024AB1206850E8B2
:1019B000050F216820F0010041E80502002ADAD174
:1019C000206850E8050F216820F0400041E805023A
:1019D000DAB1206850E8050F216820F0400041E8A6
:1019E000050292B1206850E8050F216820F0400000
:1019F00041E805024AB1206850E8050F216820F04F
:101A0000400041E80502002ADAD1202084F8420093
:101A100000202063206850E8030F216820F01000A8
:101A200041E80302DAB1206850E8030F216820F092
:101A3000100041E8030292B1206850E8030F2168CA
:101A400020F0100041E803024AB1206850E8030F7B
:101A5000216820F0100041E80302002ADAD1E06B8F
:101A6000FEF71CFC02206063A08DE18D401A81B25C
:101A7000204674E1626C42F0010262644A0706D5B6
:101A8000BEF1000F03D0626C42F0020262648A076A
:101A900006D5BEF1000F03D0626C42F0040262640E
:101AA000BCF1000F09D545EA0E02B2FA82F25209E2
:101AB00003D1626C42F008026264626C002A3FF457
:101AC0001BAF11F0200118BF002D03D0204600F0FD
:101AD00073FC20684069616C00F0400001F008016F
:101AE000401800F0B58000BF206850E8030F21685F
:101AF00020F4907041E80302BAB3206850E8030F65
:101B0000216820F4907041E8030272B3206850E825
:101B1000030F216820F4907041E803022AB3206883
:101B200050E8030F216820F4907041E80302002A76
:101B3000DAD11AE0206850E8050F216820F0010092
:101B400041E80502DAB1206850E8050F216820F06D
:101B5000010041E8050292B1206850E8050F2168B4
:101B600020F0010041E805024AB1206850E8050F65
:101B7000216820F0010041E80502002ADAD1206B3B
:101B8000012824D1206850E8030F216820F01000BC
:101B900041E80302DAB1206850E8030F216820F021
:101BA000100041E8030292B1206850E8030F216859
:101BB00020F0100041E803024AB1206850E8030F0A
:101BC000216820F0100041E80302002ADAD1202029
:101BD00084F84200002020632068406940063FD519
:101BE000206850E8050F216820F0400041E8050218
:101BF000DAB1206850E8050F216820F0400041E884
:101C0000050292B1206850E8050F216820F04000DD
:101C100041E805024AB1206850E8050F216820F02C
:101C2000400041E80502002ADAD1E06BC0B142F27F
:101C3000AD31C0F600014163FEF754FB00283FF4CC
:101C40005BAEE06B416B02B0BDE8B040084700BF3F
:101C50002046FFF7DFFD0020606402B0B0BD00BF8A
:101C6000204602B0BDE8B040FFF7D4BD401A21685D
:101C700051E8031F226821F4907142E80313DBB19D
:101C8000216851E8031F226821F4907142E8031390
:101C900093B1216851E8031F226821F4907142E852
:101CA00003134BB1216851E8031F226821F490719E
:101CB00042E80313002BDAD1216851E8051F22689E
:101CC00021F0010142E80513DBB1216851E8051F4D
:101CD000226821F0010142E8051393B1216851E81F
:101CE000051F226821F0010142E805134BB121686C
:101CF00051E8051F226821F0010142E80513002B7D
:101D0000DAD1202184F8421000212163216851E8B2
:101D1000031F226821F0100142E80313DBB12168A0
:101D200051E8031F226821F0100142E8031393B128
:101D3000216851E8031F226821F0100142E80313D3
:101D40004BB1216851E8031F226821F0100142E8DD
:101D50000313002BDAD1022281B22046626302B063
:101D6000BDE8B040FFF754BD216A31F8022B6FF394
:101D70005F22426021628CE5002804BF0120704789
:101D800010B5044690F8410028B9002084F84000BE
:101D9000204600F063F8242084F841002068D4E94C
:101DA0000212C36823F40053C360036923F4405351
:101DB0001A430261D4E904231143C268194341F272
:101DC0000C639A431143C1604169A26921F44071D7
:101DD000114343F60002C4F201029042416103D074
:101DE000FEF7D4FD02E000BFFEF7E4FD62681921B2
:101DF00048439100B0FBF1F048F21F51C5F2EB11DE
:101E0000A0FB01235A094FF69C73C0F6FF7302FB37
:101E10000300322303EB0010A0FB0101F02303EACF
:101E20005113206803EB0212C1F343111144816086
:101E3000016921F490410161416921F02A01416168
:101E4000C16841F40051C16000202021606484F821
:101E5000411084F84210606310BD0000F0B585B0F9
:101E6000006844F20041C4F2000188424FF00001D2
:101E7000CDE90311CDE9011122D043F60001C4F2EE
:101E80000101884253D141F21800C4F202000168F6
:101E9000252441F48041016001684FF4806701F41A
:101EA000804100910099016841F0040101600068DF
:101EB00000F00400009000984FF4007019E000BF9B
:101EC00041F21800C4F202004168262441F40031B6
:101ED00041604168082701F40031009100990168D0
:101EE00041F004010160006800F0040000900098D7
:101EF00004200190022040F6000502900320C4F265
:101F0000010501AE049028463146FEF797FA0020FD
:101F1000CDE90200284631460197FEF78FFA2046A8
:101F200000210022FEF716FC2046FEF7FFFB05B05D
:101F3000F0BD00007047000070470000FEE70000A1
:101F40002DE9F04784B041F21800C4F202000168A4
:101F500040F6004941F0040101600168C4F2010942
:101F600001F00401009100990168A9F5806541F034
:101F7000080101600068A12100F0080000900098AD
:101F800028460022A1240027FEF75CFB48464FF4B8
:101F9000604100224FF46048FEF754FB6E46009407
:101FA00001244FF0020A28463146CDE90147CDF819
:101FB0000CA0FEF743FA48463146CDE900470294AB
:101FC000FEF73CFA0620CDE9000748463146029765
:101FD000FEF734FA48463146CDE90084CDE9027A6D
:101FE000FEF72CFA04B0BDE8F087000010B594B0FD
:101FF00041F6A8000021C2F2000031240E91CDE983
:102000000C110991CDE90711CDE90511CDE90311B5
:10201000CDE901114FF080424723C0E9021401616C
:102020008021C0E900238161FEF716FF002818BF58
:10203000FEF72EF94FF480500B9041F6A800C2F243
:1020400000000BA9FEF7E6FF002818BFFEF720F9F5
:1020500041F6A800C2F20000FFF786FB002818BF77
:10206000FEF716F941F6A8000024C2F2000008A904
:10207000CDE90844FEF7A6FE002818BFFEF708F9D0
:102080006020CDE901040394059441F6A804C2F24E
:10209000000401A920460022FFF734FA002818BFE7
:1020A000FEF7F6F820680021B0F1804F129101D0C0
:1020B00014B010BD41F21800C4F20200016841F0F2
:1020C00004010160006810A900F004000F900F984F
:1020D0004FF40040109002201190139040F6000041
:1020E000C4F20100FEF7AAF90420C4F2010001685D
:1020F0004FF6FF42CFF6FF02114041F0E06141F49C
:102100008071016014B010BD10B58AB041F6F000C6
:1021100040F200420021C2F20000C4F20002472354
:102120004FF6FF740991CDE90711CDE90411CDE90E
:102130000211CDE90011C0E90023C0E902140161D8
:102140008161FEF789FE002818BFFEF7A1F84FF461
:102150008050069041F6F000C2F2000006A9FEF79A
:1021600059FF002818BFFEF793F841F6F000C2F2BD
:102170000000FFF7EDF8002818BFFEF789F841F6D8
:10218000F0000024C2F2000004A9CDE90444FEF7E7
:1021900019FE002818BFFEF77BF80120CDE90104E5
:1021A00041F6F000C2F20000694600220094039458
:1021B000FFF700F8002818BFFEF76AF80AB010BD54
:1021C00080B582B041F6381041F200020021C2F21F
:1021D0000000C4F2000247234FF0630CCDE9001168
:1021E000C0E90023C0E9021C8161FEF735FE00282A
:1021F00018BFFEF74DF841F63810C2F200006946EC
:10220000FEF7E0FD002818BFFEF742F802B080BDDF
:1022100010B543F6000441F68010C4F20104C2F286
:1022200000004FF47A3100220C23C0E90041C0E9DC
:102230000222C0E90423C0E90622FFF79DFD002821
:1022400018BFFEF725F82046BDE8104000F054B94D
:1022500010B544F2004441F6C81044F24021C4F2E3
:102260000004C2F20000C0F20F0100220C23C0E9FA
:102270000041C0E90222C0E90423C0E90622FFF7B9
:102280007BFD002818BFFEF703F82046BDE810408C
:1022900000F032B9FEE70000FEE7000070470000E2
:1022A00070470000FEF7DAB97047000041F6F00011
:1022B000C2F20000FFF77CB841F63810C2F200000D
:1022C000FFF776B810B540F6FF3E0368C4F2000E83
:1022D00043F2004C7045C4F2010C21DCB0F1804F98
:1022E0002CD040F20042C4F20002904226D040F6C8
:1022F0000002C4F20002904220D0704524DCB0F10C
:10230000804F2FD040F20042C4F20002904229D008
:1023100040F60002C4F20002904223D026E000BF43
:1023200040F60042C4F20002904207D0604505D05A
:1023300042F60042C4F201029042DED14A6823F024
:10234000700313437045DADD40F60042C4F2000228
:10235000904207D0604505D042F60042C4F2010227
:10236000904203D1CA6823F44073134323F08002E0
:102370004B69D1F800E08C681A4360450260C46282
:10238000C0F828E005D042F60042C4F201029042B3
:1023900001D109690163012141610169C90708BFD0
:1023A00010BD016921F00101016110BD406A0021E9
:1023B000C185C184FFF72EBA81B090F8421022295E
:1023C00021D183680246B3F5805F09D152F8281FF6
:1023D00052F8183C002B63D003685B680AE000BF2A
:1023E00052F8281F13B90369002BF5D003685B6806
:1023F00003F07F030B70116801311160C18D013949
:102400000A04C18502D001B0704700BF0168CA68E4
:1024100022F02002CA60CA6822F48072CA604A6947
:1024200022F001024A61202180F84210002141631C
:10243000026B012A3CD10163016851E8031F026865
:1024400021F0100142E80313DBB1016851E8031FDA
:10245000026821F0100142E8031393B1016851E8CA
:10246000031F026821F0100142E803134BB1016819
:1024700051E8031F026821F0100142E80313002B0A
:10248000DAD101680A68D20606D5002200920A68ED
:102490000092496800910099818D01B0FFF7B8B9A9
:1024A000026852686FF35F2221F8022B8162A5E770
:1024B00001B0FFF73FBD000080B543F60000C4F255
:1024C000010000F073F841F68010C2F20000BDE890
:1024D0008040FFF7A1B9000080B544F20040C4F28B
:1024E000000000F063F841F6C810C2F20000BDE839
:1024F0008040FFF791B9000043F60001C4F20101EA
:10250000884240F27401C2F2000111D044F6000288
:10251000C4F20002904209D044F20042C4F2000228
:10252000904218BF704701F5016101E001F581514A
:1025300000220860A1F80624A1F80424A1F80A28C2
:10254000A1F80828012281F80C28C16841F0200177
:10255000C160704743F60001C4F20101884240F2B5
:102560007401C2F2000111D044F60002C4F200026C
:10257000904209D044F20042C4F20002904213D1CA
:1025800001F5016102E000BF01F5815191F80C08ED
:10259000002808BF7047EFF3108072B60020A1F842
:1025A0000604A1F8040462B67047000010B543F6B3
:1025B0000001C4F20101884240F27401C2F200013C
:1025C0000DD044F60002C4F2000290420CD044F256
:1025D0000042C4F20002904204D101F5016191F879
:1025E0000C0838B910BD00BF01F5815191F80C08F5
:1025F0000028F7D008680468A30611D5D0F804C0F5
:10260000B1F80434B1F806E401336FF39F23734546
:1026100006D0B1F804240A4482F804C0A1F80434B6
:10262000C2681206DED514F0800208BF10BDB1F8F2
:102630000A28B1F808389A4204D1C16821F0800113
:10264000C16010BDB1F80A280A4492F8082442601B
:10265000B1F80A0801306FF39F20A1F80A0810BDF5
:1026600043F60002C4F20102904240F274024FF6B7
:10267000FF71C2F200020DD044F60003C4F2000361
:1026800098420DD044F20043C4F20003984204D1B2
:1026900002F5016292F80C0840B908B2704700BF19
:1026A00002F5815292F80C080028F6D0EFF3108062
:1026B00072B6B2F80404B2F8063498420AD0B2F8FE
:1026C000060410440179B2F8060401306FF39F202C
:1026D000A2F8060462B608B27047000043F6000193
:1026E000C4F20101884240F27401C2F200010DD02F
:1026F00044F60002C4F2000290421DD044F20042AF
:10270000C4F2000290421DD101F5016191F80C085C
:10271000C0B1EFF3108072B6B1F80404B1F806242A
:10272000904213D2B1F80604B1F80414081A00F567
:10273000806080B262B6704701F5815191F80C0853
:102740000028E6D1002080B2704700BFB1F8040431
:10275000B1F80614401A80B262B6704710B543F65D
:102760000003C4F2010340F2740C9842C2F2000C60
:1027700010D044F60003C4F20003984208D044F29B
:102780000043C4F2000398423AD10CF5016C01E019
:102790000CF5815C002A4FF0000018BF002901D120
:1027A00080B210BD9CF80C38002BF9D0EFF31080EC
:1027B00072B60020BCF80838BCF80AE801336FF3A1
:1027C0009F2373450CD011F800E0BCF80848013095
:1027D0006444824284F808E4ACF80838EAD1104630
:1027E000BCF80818BCF80A28914205D0DCF80010A3
:1027F000CA6842F08002CA6062B680B210BD00BFF3
:10280000002080B210BD0000FEE70000B0B543F626
:102810000005C4F2010504462846FFF79BFE41F679
:102820001021C2F20001FA2008709120A4F1750372
:102830004C70887028460422CB70BDE8B040FFF78A
:102840008DBF000080B540F27000C2F20000017838
:10285000002908BF80BD0021017040F60040C4F28D
:1028600001000121FDF7E8FE41F6A401C2F20001DA
:10287000002818BF0120087080BD000040F27103DD
:10288000C2F200031878002808BF704741F6A40080
:10289000C2F20000027840F600404FF0000CC4F293
:1028A00001004FF4005183F800C0FDF7CBBE0000DB
:1028B00090B0FDF7E1FE00240120CDE90B44CDE905
:1028C000094406900A904FF4E0104FF4803102253D
:1028D0000F9006A8CDE90714CDE90D51FEF77EF85B
:1028E00020B1EFF3108072B6FEE700BF0F20CDE9F4
:1028F00001054FF48060CDE9040401A8022103948E
:10290000FDF764FF20B1EFF3108072B6FEE700BF61
:10291000FFF716FBFFF76AFBFFF7F6FBFFF750FC2C
:10292000FFF776FCFFF794FC41F63810C2F2000086
:10293000FEF72CFB6420FDF76DFD0320FFF766FF1B
:1029400000F010F8012807D00A20FDF763FD00F021
:1029500009F80128F8D100BFFFF774FFFFF78EFFD9
:10296000FAE700002DE9F04381B043F60008C4F215
:1029700001084046FFF7B2FEC6B2052E4FF0000533
:1029800035D30027002405E00125FB240137F8B2E8
:10299000B0422BD24046FFF763FE2906C1B208BF02
:1029A000FB29F1D0EAB2013A032AEFD8DFE802F0BE
:1029B000020A1014C81EB0FA80F040090C44450009
:1029C000E4E700BF00250C44912908BF0325DDE79B
:1029D0000C4404258146D9E7E0B2884204D15FFA6D
:1029E00089F048B102280DD00025CFE70025284600
:1029F00001B0BDE8F08300BF0225284601B0BDE864
:102A0000F08300BF0125284601B0BDE8F083000037
:102A1000000000000000010203040607080900008E
:102A2000000001020304010202030405060708096D
:102A30000A0B0C0D0E0F1010582A00080000002081
:102A4000100000006C010008682A00081000002037
:102A5000482000008801000801000000100000006C
:082A600000127A0000000000E2
:0400000508000131BD
:00000001FF
