:020000040800F2
:10000000B0200020CD01000805230008A91F00082A
:10001000012300088902000875280008000000007C
:100020000000000000000000000000000D23000898
:100030008D020008000000000923000811230008B9
:10004000E7010008E7010008E7010008E7010008F0
:10005000E7010008E7010008E7010008E7010008E0
:10006000E7010008E7010008E7010008E7010008D0
:10007000E7010008E7010008E7010008E7010008C0
:10008000E7010008E7010008E7010008E7010008B0
:10009000E7010008E7010008E7010008E7010008A0
:1000A000E7010008E7010008E7010008E701000890
:1000B000E701000819230008E7010008E70100082C
:1000C000E7010008E7010008E7010008E701000870
:1000D000E7010008E701000825250008452500087C
:1000E000E7010008E7010008E7010008E701000850
:1000F000E7010008E7010008E7010008E701000840
:10010000E7010008E7010008E7010008E70100082F
:10011000E7010008E701000825230008E7010008BF
:10012000E7010008E7010008E7010008E70100080F
:1001300000F002F800F03AF80AA090E8000C8244BF
:100140008344AAF10107DA4501D100F02FF8AFF29C
:10015000090EBAE80F0013F0010F18BFFB1A43F0A5
:1001600001031847B42C0000D42C0000103A24BF1F
:1001700078C878C1FAD8520724BF30C830C144BF0C
:1001800004680C607047000000230024002500264E
:10019000103A28BF78C1FBD8520728BF30C148BFEA
:1001A0000B6070471FB51FBD10B510BD00F031F8D2
:1001B0001146FFF7F7FF02F095FB00F04FF803B48C
:1001C000FFF7F2FF03BC00F057F800000948804732
:1001D00009480047FEE7FEE7FEE7FEE7FEE7FEE729
:1001E000FEE7FEE7FEE7FEE704480549054A064B41
:1001F000704700001523000831010008B01A0020E4
:10020000B0200020B01C0020B01C002070477047B8
:100210007047754600F02CF8AE4605006946534617
:1002200020F00700854618B020B5FFF7DDFFBDE8D8
:1002300020404FF000064FF000074FF000084FF04D
:10024000000BAC46ACE8C009ACE8C009ACE8C0099A
:10025000ACE8C00921F007018D46704710B504468F
:10026000AFF300802046BDE81040FFF7A8BF0000B4
:10027000004870471000002001491820ABBEFEE77F
:100280002600020070470000FEE7000070470000F3
:10029000EFF3108072B600BFFEE70000014690F851
:1002A0002100022816D10868D1E90FC3026822F0A4
:1002B0000E020260026822F001020260012000FAD0
:1002C00003F2CCF8042081F821000020002281F8FC
:1002D00020207047042088630120002281F820201C
:1002E0007047000080B590F82110022928D10268DB
:1002F00040F2040C1368C4F2020C23F00E031360E6
:1003000013680CF17C018A4223F0010111601BD9B2
:1003100040F20841C4F202018A4249D040F21C4135
:10032000C4F202018A4247D040F23041C4F20201D5
:100330008A4245D14FF48073CCF800345DE000BFB1
:1003400004218163012080BD4321C4F202018A425D
:100350000EDD6B21C4F202018A421BDC4421C4F28F
:1003600002018A423CD05821C4F202018A4233E0A1
:100370000821C4F202018A4236D01C21C4F20201D3
:100380008A4237D03021C4F202018A4224D14FF48C
:10039000807230E06C21C4F202018A4226D08021B2
:1003A000C4F202018A4217D14FF0807223E000BFED
:1003B0000123CCF8003420E01023CCF800341CE0FA
:1003C0000CF588614FF480338A4208BF4FF48053A4
:1003D000CCF8003411E000BF4FF480320BE000BFD6
:1003E0004FF4805207E000BF012204E04FF4801276
:1003F00001E000BF1022CCF80020012180F821107C
:10040000426B002180F820100AB190470021084675
:1004100080BD0000B0B5044600F01AF9054640F270
:100420000000C2F200000078611C18BF044400BF45
:1004300000F00EF9401BA042FAD3B0BD2DE9F04FF9
:1004400082B0D1F800C0BCF1000F00F0F180A0F143
:10045000804241F60045A2F58432C4F2010540F223
:10046000004E4FEAB2240627A842C4F2010E08BF8C
:100470000527052C4FF000044FF001084FF00F0343
:100480004FF0000A4FF0000B38BF4FEAB227009739
:100490000AE000BFD1F800C00AF1010A3CFA0AF2F2
:1004A00004F1040400F0C48008FA0AF91CEA090FF8
:1004B000F0D04E684FF6FF72C1F21002964211DC86
:1004C000122E55D8DFE806F0340A444854545454E8
:1004D0005454545454545454544C5000D1F80CB007
:1004E00046E000BF4FF6FF72C1F2210296420FDCD8
:1004F0000022C1F2110296421AD00022C1F2120269
:10050000964215D00022C1F22102964210D02FE06F
:100510000022C1F2220296420AD00022C1F2310228
:10052000964205D00022C1F23202964220D100BF8D
:100530008A684AB1012A14BFC0F81490C0F810901C
:100540004FF0080B14E000BF4FF0040B10E000BFA9
:10055000CA6802F1080B0BE04FF0000B08E000BF87
:10056000CA6802F1040B03E0CA6802F10C0B00BF79
:1005700022460646BAF1080F24BF203A04363768EF
:1005800003FA02F5AF430BFA02F23A433260CA793A
:10059000D2067FF57FAF41F21807C4F202073A682E
:1005A0004FF6084342F001023A603A68CFF6FF7313
:1005B00002F001020192019A2AF0030272440F250F
:1005C000D75804F00C06B540AF43009D05FA06F677
:1005D0003743D7504E6840F20C45F202DEF808204F
:1005E00054BF22EA090242EA0902CEF80820C4F206
:1005F00001052A68B70254BF22EA090242EA090249
:100600002A60DEF80420B70354BF22EA090242EA56
:100610000902CEF804200F23DEF80020F70354BFB0
:1006200022EA090242EA0902CEF8002032E700BFBE
:1006300002B0BDE8F08F00008068084018BF0120BC
:1006400070470000002A08BF0904016170470000DC
:1006500041F6A820C2F200000068704740F2000096
:1006600041F6A821C2F20000C2F2000100780A6837
:10067000104408607047000080B542F20000C4F2E8
:100680000200016841F010010160032000F08EF8C3
:100690000F2000F005F800F027F8002080BD0000D2
:1006A00070B540F20006C2F2000640F2080132784E
:1006B000C2F200014FF47A730968B3FBF2F2044608
:1006C000B1FBF2F1084600F063FB0F2C4FF001057F
:1006D00008D838B94FF0FF3021460022002500F03D
:1006E00039F87460284670BD82B041F21800C4F237
:1006F00002000168042241F001010160016801F07B
:10070000010101910199416841F0805141604068C7
:1007100000F08050009000980420C4F201000168AD
:1007200062F31A61016002B070470000002848BF00
:100730007047C1B200F01F00012202FA00F04EF231
:100740000012CEF2000242EAD10121F0030108605A
:100750007047000010B54EF60C5CCEF2000CDCF8D1
:100760000030C3F3022E8EF00704042C28BF0424AB
:10077000BEF103034FF0FF3E0EFA04F438BF00232E
:10078000A14399400EFA03F39A43114300F00F027C
:1007900000F160430901043A03F564436244002810
:1007A00048BF02F10C03197010BD00004EF60C5149
:1007B000CEF200010A684FF6FF031A4060F30A22E6
:1007C00042F0806040F0FD70086070472DE9F04312
:1007D00081B0002800F0858042F20008C4F20208CF
:1007E0000446D8F800000D4600F0070088420CD2FD
:1007F000D8F8000020F007002843C8F80000D8F817
:10080000000000F00700A8426BD1206841F2040903
:100810008107C4F2020917D5410705D5D9F80010A0
:1008200041F4E061C9F80010010705D5D9F80010BE
:1008300041F46051C9F80010D9F80010A26821F005
:10084000F0011143C9F80010C00741D1D8F80000E9
:1008500000F00700A8420CD9D8F8000020F00700EB
:100860002843C8F80000D8F8000000F00700A842AC
:1008700037D12068410707D5D9F80010E26821F484
:10088000E0611143C9F80010000708D5D9F800004D
:10089000216920F4605040EAC100C9F80000D9F88D
:1008A000002002F00C00082841F20020C0F27A007B
:1008B00050D142F60863C2F38341C0F60003595C8D
:1008C000D2033BD440F60010C0F23D00484341E063
:1008D000606802280AD001282AD159F8041C89032B
:1008E00008D4012001B0BDE8F08300BF59F8041C12
:1008F0008901F6D5D9F8001021F003010843C9F8A1
:100900000000FFF7A5FE064641F28837D9F800003F
:10091000616800F00C00B0EB810F97D0FFF798FEF4
:10092000801BB842F2D9032001B0BDE8F08300BFBC
:1009300059F8041C8907D4D5DCE700BFD9F800209A
:1009400042F60663C2F34042C0F600039A5C484395
:10095000B0FBF2F0D9F8001042F6EE52C1F30311E9
:10096000C0F60002515C40F2080220FA01F140F2A8
:100970000400C2F200000068C2F200021160FFF73A
:100980008FFE002001B0BDE8F083000040F20800B7
:1009900041F20401C2F20000C4F2020100680968D9
:1009A00042F6FE52C1F30221C0F60002515CC8407B
:1009B0007047000040F2080041F20401C2F200005A
:1009C000C4F202010068096842F6FE52C1F3C22176
:1009D000C0F60002515CC840704700002DE9F041AC
:1009E00082B0002868D00446007841F20006C007B3
:1009F000C4F2020625D0706800F00C0004281BD059
:100A0000706800F00C00082802D17068C00313D48D
:100A10006068002800F06881B0F5A02F00F07C81AC
:100A2000B0F5803F00F07C81306820F48030306089
:100A3000306820F4802076E13068800301D560685A
:100A4000D0B32078800718D5706810F00C0F07D04D
:100A5000706800F00C0008286ED17068C0036BD479
:100A60003068800702D52069012825D13068616986
:100A700020F0F80040EAC1003060207800071FD461
:100A80002078400732D4E56995B1706800F00C0019
:100A9000082840F08F80012D0ED07068216A00F484
:100AA00080328A4208D1616A00F47010884203D112
:100AB000002002B0BDE8F081012002B0BDE8F08165
:100AC000A069002862D00020C4F242200121C0F8B1
:100AD0008014FFF7BDFD0546706A800700F18C8029
:100AE000FFF7B6FD401B0228F6D92AE1F06910F0A5
:100AF000805808D1F06940F08050F061F06900F052
:100B000080500090009847F20007C4F20007386850
:100B1000C00529D4386840F480703860FFF798FD2C
:100B2000054600BF3868C0051ED4FFF791FD401B85
:100B30006428F7D905E100BF2069002840F20000D1
:100B4000C4F2422000F0828001210160FFF780FDA5
:100B5000054600BF306880073FF588AFFFF778FD96
:100B6000401B0228F6D9ECE0E068002800F0808005
:100B7000052800F09780012800F09880306A20F066
:100B800001003062306A20F0040092E00020C4F2DC
:100B900042200021C0F88014FFF75AFD054600BF2F
:100BA000706A80077FF56CAFFFF752FD401B02288B
:100BB000F6D9C6E00027C4F2422700203866FFF7C6
:100BC00047FD022D05460BD13068800140F1BE8003
:100BD000FFF73EFD401B02284FF00300F4D968E701
:100BE000306880017FF564AFFFF732FD401B0228BB
:100BF0004FF00300F4D95CE740F20800C2F20000B5
:100C0000006844F6D351C1F26201A0FB0101480A19
:100C1000019000BF00BF0198411E002801913FF4E0
:100C20002FAF00BF0198411E002801913FF428AF6B
:100C300000BF0198411E002801913FF421AF00BF81
:100C40000198411E00280191E4D119E700210160BB
:100C5000FFF7FEFC054600BF306880077FF50DAF4B
:100C6000FFF7F6FC401B02284FF00300F4D920E701
:100C7000306A20F001003062306A20F004003062F7
:100C8000FFF7E6FC054641F2883700BF306A80076F
:100C900020D5FFF7DDFC401BB8424FF00300F5D92B
:100CA00007E700BF306A40F004003062306A40F06D
:100CB00001003062FFF7CCFC054641F2883700BFE7
:100CC000306A800706D4FFF7C3FC401BB842F7D94F
:100CD00037E000BFB8F1000F7FF4D5AEF06920F027
:100CE0008050F061CFE600BF306820F48030306083
:100CF000306820F480203060FFF7AAFC054600BF72
:100D0000306880037FF59DAEFFF7A2FC401B64288E
:100D10004FF00300F4D9CCE6306840F48020306016
:100D2000306840F480303060FFF792FC054600BF29
:100D3000306880033FF585AEFFF78AFC401B6428CE
:100D4000F6D9032002B0BDE8F08100BF206AB0F5FB
:100D5000803F05D17168A26821F4003111437160B0
:100D60007168626A21F474111143084370600120B4
:100D70003866FFF76DFC0446306880013FF598AE99
:100D8000FFF766FC001B02284FF00300F4D990E641
:100D9000411E0020B0EB116F1CBF012070474EF2C6
:100DA0001002CEF2000251604EF62351CEF2000145
:100DB000F0230B70072190601160704770470000AE
:100DC0007047000010B590F83C20012A4FF0020255
:100DD0003FD080F83D200268D2F804E0D2F808C085
:100DE0000C682EF07003234340F6FF34C4F2000475
:100DF000A242536010DCB2F1804F1FD040F200439A
:100E0000C4F200039A4219D040F60003C4F2000372
:100E10009A4213D017E000BF40F60043C4F200032B
:100E20009A420BD043F20043C4F201039A4205D028
:100E300042F60043C4F201039A4204D149682CF0FF
:100E40008003194391600121002280F83D1080F851
:100E50003C20104610BD0000002804BF0120704750
:100E600010B5044690F83D0028B9002084F83C00F5
:100E7000204600F01FF8022084F83D002068211D64
:100E800001F056FA012084F8460084F83E0084F808
:100E90003F0084F8400084F8410084F8420084F860
:100EA000430084F8440084F8450084F83D000020A5
:100EB00010BD000080B586B0006841F20002C4F2A7
:100EC000000200219042059118D040F20041C4F286
:100ED000000188422AD0B0F1804F54D141F21C0069
:100EE000C4F20200016841F001010160006800F0F5
:100EF00001000190019806B080BD00BF41F21C00C6
:100F0000C4F202000168002241F010010160006893
:100F1000002100F01000019001983620FFF71AFC24
:100F2000362006B0BDE88040FFF700BC41F21C004F
:100F3000C4F20200016841F002010160016801F0A1
:100F400002010191019950F8041C41F0040140F89C
:100F5000041C50F8040C02A900F004000190019850
:100F6000402002900020CDE9030040F60000C4F2CA
:100F70000100FFF763FA1D2003210022FFF7EAFBBF
:100F80001D20FFF7D3FB06B080BD000090F83D1098
:100F900001291CBF01207047022180F83D10006824
:100FA00040F6FF32C168C4F20002904241F00101F4
:100FB000C1600FDCB0F1804F1ED040F20041C4F29E
:100FC0000001884218D040F60001C4F200018842B6
:100FD00012D018E040F60041C4F2000188420BD064
:100FE00043F20041C4F20101884205D042F60041BB
:100FF000C4F20101884206D1816801F00701062987
:1010000004BF00207047016841F001010160002029
:101010007047000080B590F83C20012A4FF0020292
:1010200000F0C28080F83D20D0F800C04FF6777203
:10103000DCF8083023EA0202CCF808200B684F2BBA
:1010400028DC1F2B44DD202B45D0302B43D0402BF8
:1010500040F0AC80D1F804E0C968DCF82030DCF85E
:10106000202022F00102CCF82020DCF8182022F009
:10107000F00242EA011123F00A0242EA0E02CCF821
:101080001810CCF82020DCF8081041F0470121F0BE
:10109000300180E06F2B27DDB3F5005F48D0B3F55A
:1010A000805F7AD0702B40F08180D1E901E3C9687C
:1010B000DCF8082043EA0E0322F47F4243EA0121D0
:1010C0001143CCF80810DCF8081041F0770162E019
:1010D0000BB1102B6AD1DCF8081021F07001194314
:1010E00041F0070157E000BF502B35D0602B5DD198
:1010F000D1F804E0C968DCF82030DCF8202022F0C8
:101100001002CCF82020DCF8182022F4704242EAC9
:10111000013123F0A00242EA0E12CCF81810CCF8EC
:101120002020DCF8081041F0670121F0100132E0C6
:10113000D1E901E3C968DCF8082043EA0E0322F490
:101140007F4243EA01211143CCF80810DCF8081073
:1011500041F480411FE000BFD1F804E0C968DCF829
:101160002030DCF8202022F00102CCF82020DCF82E
:10117000182022F0F00242EA011123F00A0242EAAA
:101180000E02CCF81810CCF82020DCF8081041F042
:10119000570121F02001CCF808100022012180F82D
:1011A0003D10002180F83C10104680BD0122F5E77B
:1011B00070470000F0B590F83C30012B04BF0220CE
:1011C000F0BD4FEAB202032A2AD8DFE802F0032F6B
:1011D0004F6D00BF0368D1E900C5D1F80CE01C6A6F
:1011E0001A6A40F6FF3722F001021A621A4652F8D4
:1011F000186FC4F20007BB427ADCB3F1804F00F0F5
:10120000898040F20047C4F20007BB4200F08280B0
:1012100040F60007C4F20007BB427BD094E000BF59
:101220000121002280F83C200846F0BD0368D1E986
:1012300000E6D1E902C11C6A1A6A360222F01002E5
:101240001A621A4652F8185F4FF2FF07BE4325F4A0
:10125000734561F30F3624F0A0040EF00A0746EA46
:10126000050144EA071711601F623AE00768D1E9F7
:1012700000C5D1E902313C6A3A6A61F3071522F4EC
:1012800080723A623A4652F81C6F26F0F30645EA3D
:1012900006014FEA5C0666F3492411603C6211685E
:1012A00021F00C01116046E00368D1E900E6D1E9C4
:1012B00002C11C6A1A6A360222F480521A621A4665
:1012C00052F81C5F4FF2FF07BE4325F4734561F3EC
:1012D0000F364FEA5E0746EA050167F34D341160A9
:1012E0001C6211684FEA0C2321F44061116022E076
:1012F00040F60047C4F20007BB420BD043F2004760
:10130000C4F20107BB4205D042F60047C4F2010710
:10131000BB4219D126F00306354324F00A070CF02E
:101320000A066EF3071537449D611F629F6927F017
:101330000C079F618B68116819431160002100221E
:1013400080F83C200846F0BD46F00105E5E70000C6
:10135000002804BF0120704710B5044690F83D00F6
:1013600028B9002084F83C00204600F01FF8022035
:1013700084F83D002068211D00F0DAFF012084F888
:10138000460084F83E0084F83F0084F8400084F86A
:10139000410084F8420084F8430084F8440084F853
:1013A000450084F83D00002010BD0000704700009B
:1013B00070B504460068C5680669B10716D515F012
:1013C000020113D06FF002010161012121778069D0
:1013D000800703D02046FFF7EBFE05E0204600F033
:1013E0008FF8204600F0F0F900202077700719D51B
:1013F00015F0040016D020686FF00401016102218D
:101400002177806910F4407F04D02046FFF7D0FE9A
:1014100006E000BF204600F073F8204600F0D4F943
:1014200000202077300717D515F0080014D0206869
:101430006FF00801016104212177C069800703D0A2
:101440002046FFF7B5FE05E0204600F059F820469B
:1014500000F0BAF900202077F00619D515F0100039
:1014600016D020686FF01001016108212177C06952
:1014700010F4407F04D02046FFF79AFE06E000BF3C
:10148000204600F03DF8204600F09EF9002020772D
:10149000F00718BF15F0010002D1300609D412E0A0
:1014A00020686FF001010161204600F08FF93006DD
:1014B00009D515F0800006D020686FF08001016129
:1014C0002046FFF77BFC700609D515F0400006D0DA
:1014D00020686FF040010161204600F0B5F9B006C8
:1014E00058BF70BD15F0200008D021686FF02002B1
:1014F00020460A61BDE87040FFF762BC70BD000085
:10150000704700002DE9F04190F83C30012B04BFFA
:101510000220BDE8F0814FEAB202032A00F21C81EA
:10152000DFE802F0024690DA036843F200461D6AE3
:101530001A6A25F0020522F001021A621A465C6856
:1015400052F818EF8F68D1F800C0C4F20106B34218
:1015500045EA070505D042F60047C4F20107BB4241
:1015600005D1CF6825F00C0527F004073D43B342B1
:1015700005D042F60046C4F20106B34205D1D1E9D6
:10158000056724F4407434433C432EF0730747EA64
:101590000C075C609F614F6809695F631D629F690A
:1015A00047F008079F619F6927F004079F61C9E022
:1015B000036843F200461D6A1A6A25F0200522F0EE
:1015C00010021A621A46D3F804C052F8188F8F68B6
:1015D000D1F800E0C4F20106B34245EA071505D090
:1015E00042F60047C4F20107BB4207D1CF686FF053
:1015F000400425F0C00504EA07142543B34205D092
:1016000042F60044C4F20104A34206D1D1E90546E2
:101610002CF44067264347EA860C28F4E64444EA63
:101620000E27C3F804C09F614F6809699F631D625C
:101630009F6947F400679F619F6927F480679F61F6
:101640007FE000BF036843F200461D6A1A6A25F472
:10165000007522F480721A621A46D3F804C052F858
:101660001CEF8F68D1F80080C4F20106B34245EA4E
:10167000072505D042F60047C4F20107BB4208D156
:10168000CF6840F2FF443F0225F4406527EA040496
:101690002543B34205D042F60044C4F20104A342FC
:1016A00006D1D1E905462CF44057264347EA061CEB
:1016B0002EF0730747EA0807C3F804C0DF614F68DC
:1016C0000969DF631D62DF6947F00807DF61DF69D1
:1016D00027F00407DF6135E0036843F20047D3F8E1
:1016E00020C01A6AC4F2010722F480521A621A4614
:1016F0005C6852F81C5FD1F800E08E68BB4205D0F0
:1017000042F60047C4F20107BB4204D14F6924F4FA
:10171000804444EA87142CF4005747EA063725F43E
:10172000E64646EA0E265C60DE614E6809691E6484
:101730001F62DF6947F40067DF61DF6927F48067B4
:10174000DF6109021368194311600021002280F84B
:101750003C200846BDE8F0810121002280F83C20B1
:101760000846BDE8F0810000002804BF0120704752
:1017700010B5044690F83D0028B9002084F83C00DC
:10178000204600F01FF8022084F83D002068211D4B
:1017900000F0CEFD012084F8460084F83E0084F875
:1017A0003F0084F8400084F8410084F8420084F847
:1017B000430084F8440084F8450084F83D0000208C
:1017C00010BD00007047000070470000B0B540F643
:1017D0000044C4F201040068A4F57C41884218BFAB
:1017E000B0BD20464FF4804101220125FEF72AFFBB
:1017F00020464FF4804100220024FEF723FF40F2F0
:10180000B400C2F20000826840F2011101808180C0
:10181000511C42F210729142816024BF8460857035
:10182000C1790131CAB2142AC17122BF0121C1702C
:10183000C18040F27001C2F200010978C26800293B
:1018400018BF511CC160B0BD704700007047000058
:1018500070470000B0B582B0044600680168C368F4
:10186000426901F02F05202D03F0200506D12DB18E
:10187000204602B0BDE8B04000F0D4BD5FEA017C74
:101880001EBF02F0010E03F4907212EB0E0253D150
:10189000226B012A05D111F0100218BF13F01002BB
:1018A00036D10A0622D513F080021FD094F84110D9
:1018B00021293FD1A168B1F5805F03D121690029B9
:1018C00000F07082216A4A1C226209784160E18C32
:1018D00001390A04E1842DD1C16821F08001C16081
:1018E000C16841F04001C16002B0B0BD490621D5D8
:1018F00013F040011ED0C16821F04001C1602021D9
:10190000204684F8411002B0BDE8B04000F04ABB68
:10191000002101910168019141680191019940699B
:10192000400613D4A08DE18DE28D002A18BF8842B5
:1019300040F0BA8102B0B0BDCA0718BF13F480727C
:1019400040F0B6804A0700F1B980BEE0E06B016864
:1019500049688AB2002AEDD0A38D9A42EAD2E18585
:101960008069202800F09C80206850E8030F2168DF
:1019700020F4807041E80302DAB1206850E8030FD8
:10198000216820F4807041E8030292B1206850E899
:10199000030F216820F4807041E803024AB12068F7
:1019A00050E8030F216820F4807041E80302002A08
:1019B000DAD1206850E8050F216820F0010041E8E5
:1019C0000502DAB1206850E8050F216820F0010017
:1019D00041E8050292B1206850E8050F216820F027
:1019E000010041E805024AB1206850E8050F21686E
:1019F00020F0010041E80502002ADAD1206850E811
:101A0000050F216820F0400041E80502DAB12068A6
:101A100050E8050F216820F0400041E8050292B12E
:101A2000206850E8050F216820F0400041E80502D9
:101A30004AB1206850E8050F216820F0400041E8D5
:101A40000502002ADAD1202084F842000020206319
:101A5000206850E8030F216820F0100041E80302DD
:101A6000DAB1206850E8030F216820F0100041E847
:101A7000030292B1206850E8030F216820F01000A3
:101A800041E803024AB1206850E8030F216820F0C2
:101A9000100041E80302002ADAD1E06BFEF7FEFBFA
:101AA00002206063A08DE18D401A81B2204674E16E
:101AB000626C42F0010262644A0706D5BEF1000F73
:101AC00003D0626C42F0020262648A0706D5BEF15E
:101AD000000F03D0626C42F004026264BCF1000F9C
:101AE00009D545EA0E02B2FA82F2520903D1626CBC
:101AF00042F008026264626C002A3FF41BAF11F0EE
:101B0000200118BF002D03D0204600F08BFC206878
:101B10004069616C00F0400001F00801401800F0DD
:101B2000B58000BF206850E8030F216820F4907052
:101B300041E80302BAB3206850E8030F216820F49B
:101B4000907041E8030272B3206850E8030F2168E7
:101B500020F4907041E803022AB3206850E8030F94
:101B6000216820F4907041E80302002ADAD11AE0DB
:101B7000206850E8050F216820F0010041E80502C7
:101B8000DAB1206850E8050F216820F0010041E833
:101B9000050292B1206850E8050F216820F001008D
:101BA00041E805024AB1206850E8050F216820F09D
:101BB000010041E80502002ADAD1206B012824D176
:101BC000206850E8030F216820F0100041E803026C
:101BD000DAB1206850E8030F216820F0100041E8D6
:101BE000030292B1206850E8030F216820F0100032
:101BF00041E803024AB1206850E8030F216820F051
:101C0000100041E80302002ADAD1202084F84200C3
:101C1000002020632068406940063FD5206850E8D6
:101C2000050F216820F0400041E80502DAB1206884
:101C300050E8050F216820F0400041E8050292B10C
:101C4000206850E8050F216820F0400041E80502B7
:101C50004AB1206850E8050F216820F0400041E8B3
:101C60000502002ADAD1E06BC0B142F21941C0F698
:101C700000014163FEF736FB00283FF45BAEE06BEA
:101C8000416B02B0BDE8B040084700BF2046FFF7F7
:101C9000DFFD0020606402B0B0BD00BF204602B08E
:101CA000BDE8B040FFF7D4BD401A216851E8031FDA
:101CB000226821F4907142E80313DBB1216851E8F6
:101CC000031F226821F4907142E8031393B1216845
:101CD00051E8031F226821F4907142E803134BB1CD
:101CE000216851E8031F226821F4907142E8031330
:101CF000002BDAD1216851E8051F226821F001018B
:101D000042E80513DBB1216851E8051F226821F084
:101D1000010142E8051393B1216851E8051F2268CB
:101D200021F0010142E805134BB1216851E8051F7C
:101D3000226821F0010142E80513002BDAD12021AD
:101D400084F8421000212163216851E8031F2268B2
:101D500021F0100142E80313DBB1216851E8031FB1
:101D6000226821F0100142E8031393B1216851E881
:101D7000031F226821F0100142E803134BB12168D0
:101D800051E8031F226821F0100142E80313002BE1
:101D9000DAD1022281B22046626302B0BDE8B040CF
:101DA000FFF754BD216A31F8022B6FF35F224260C6
:101DB00021628CE5002804BF0120704710B504465D
:101DC00090F8410028B9002084F84000204600F037
:101DD00063F8242084F841002068D4E90212C36823
:101DE00023F40053C360036923F440531A43026190
:101DF000D4E904231143C268194341F20C639A43A6
:101E00001143C1604169A26921F44071114343F655
:101E10000002C4F201029042416103D0FEF7B6FD18
:101E200002E000BFFEF7C6FD626819214843910039
:101E3000B0FBF1F048F21F51C5F2EB11A0FB0123FA
:101E40005A094FF69C73C0F6FF7302FB030032235E
:101E500003EB0010A0FB0101F02303EA51132068FB
:101E600003EB0212C1F3431111448160016921F4B3
:101E700090410161416921F02A014161C16841F449
:101E80000051C16000202021606484F8411084F872
:101E90004210606310BD000070B586B0006844F663
:101EA0000001C4F20001002688420596CDE90366D0
:101EB000029639D044F20041C4F2000188426DD14B
:101EC00041F21800C4F20200416840F6000441F4F7
:101ED000003141604168C4F2010401F40031019114
:101EE0000199016802AD41F00401016000682946D2
:101EF00000F0040001900198042002900220039059
:101F0000032005902046FEF799FA08200290002051
:101F1000CDE9030020462946FEF790FA262002214B
:101F20000022262435E000BF41F21800C4F202006E
:101F3000416802AD41F480214160416801F4802193
:101F400001910199016841F008010160006829468A
:101F500000F00800019001984FF480600290022088
:101F600003900320059040F60000C4F2010000F544
:101F700080642046FEF762FA4FF40060CDE9020665
:101F8000204629460496FEF759FA2720012100220F
:101F90002724FEF7DFFB2046FEF7C8FB06B070BD26
:101FA0007047000070470000FEE700002DE9F04791
:101FB00084B041F21800C4F20200016840F6004407
:101FC00041F0040101600168C4F2010401F0040160
:101FD000009100990168A4F5806541F00801016055
:101FE0000068A12100F00800009000982846002217
:101FF000A1264FF00009FEF725FB20464FF4604173
:1020000000224FF46048FEF71DFB00966E46012744
:102010004FF0020A28463146CDE90179CDF80CA0EF
:10202000FEF70CFA20463146CDE900790297FEF71B
:1020300005FA06208DE8010620463146FEF7FEF936
:1020400020463146CDE90087CDE9029AFEF7F6F940
:1020500004B0BDE8F087000010B594B041F6F4007C
:102060000021C2F2000031240E91CDE90C1109913A
:10207000CDE90711CDE90511CDE90311CDE9011134
:102080004FF080424723C0E9021401618021C0E97A
:1020900000238161FEF7E0FE002818BFFEF7F8F884
:1020A0004FF480500B9041F6F400C2F200000BA9EF
:1020B000FEF7B0FF002818BFFEF7EAF841F6F4007B
:1020C000C2F20000FFF750FB002818BFFEF7E0F84F
:1020D00041F6F4000024C2F2000008A9CDE908444A
:1020E000FEF770FE002818BFFEF7D2F86020CDE999
:1020F00001040394059441F6F404C2F2000401A91A
:1021000020460022FFF7FEF9002818BFFEF7C0F8AE
:1021100020680021B0F1804F129101D014B010BDA1
:1021200041F21800C4F20200016841F004010160AC
:10213000006810A900F004000F900F984FF40040C1
:10214000109002201190139040F60000C4F201009C
:10215000FEF774F90420C4F2010001684FF6FF4253
:10216000CFF6FF02114041F0E06141F4807101605F
:1021700014B010BD10B58AB041F63C1040F20042D8
:102180000021C2F20000C4F2000247234FF6FF74A0
:102190000991CDE90711CDE90411CDE90211CDE98D
:1021A0000011C0E90023C0E9021401618161FEF75A
:1021B00053FE002818BFFEF76BF84FF480500690CE
:1021C00041F63C10C2F2000006A9FEF723FF0028EA
:1021D00018BFFEF75DF841F63C10C2F20000FFF7B1
:1021E000B7F8002818BFFEF753F841F63C1000245A
:1021F000C2F2000004A9CDE90444FEF7E3FD002883
:1022000018BFFEF745F80120CDE9010441F63C1066
:10221000C2F200006946002200940394FEF7CAFF50
:10222000002818BFFEF734F80AB010BD80B582B0A0
:1022300041F6841041F200020021C2F20000C4F213
:10224000000247234FF0630CCDE90011C0E90023E1
:10225000C0E9021C8161FEF7FFFD002818BFFEF7F0
:1022600017F841F68410C2F200006946FEF7AAFD95
:10227000002818BFFEF70CF802B080BD10B544F27C
:10228000004441F6CC1044F24021C4F20004C2F2F2
:102290000000C0F20F0100220C23C0E90041C0E998
:1022A0000222C0E90423C0E90622FFF783FD0028CB
:1022B00018BFFDF7EDFF2046BDE8104000F052B911
:1022C00010B544F6000441F61420C4F20004C2F232
:1022D00000004FF47A3100220C23C0E90041C0E92C
:1022E0000222C0E90423C0E90622FFF763FD0028AB
:1022F00018BFFDF7CDFF2046BDE8104000F032B911
:10230000FEE70000FEE70000704700007047000095
:10231000FEF7A4B97047000041F63C10C2F200007D
:10232000FFF746B841F68410C2F20000FFF740B84C
:1023300010B540F6FF3E0368C4F2000E43F2004CB5
:102340007045C4F2010C21DCB0F1804F2CD040F27A
:102350000042C4F20002904226D040F60002C4F2CD
:102360000002904220D0704524DCB0F1804F2FD085
:1023700040F20042C4F20002904229D040F600022E
:10238000C4F20002904223D026E000BF40F6004293
:10239000C4F20002904207D0604505D042F60042E8
:1023A000C4F201029042DED14A6823F07003134365
:1023B0007045DADD40F60042C4F20002904207D0D8
:1023C000604505D042F60042C4F20102904203D1BA
:1023D000CA6823F44073134323F080024B69D1F899
:1023E00000E08C681A4360450260C462C0F828E0CF
:1023F00005D042F60042C4F20102904201D10969BF
:102400000163012141610169C90708BF10BD01696C
:1024100021F00101016110BD406A0021C185C18424
:10242000FFF716BA81B090F84210222921D18368B3
:102430000246B3F5805F09D152F8281F52F8183CC4
:10244000002B63D003685B680AE000BF52F8281FC6
:1024500013B90369002BF5D003685B6803F07F03B1
:102460000B70116801311160C18D01390A04C185F9
:1024700002D001B0704700BF0168CA6822F0200294
:10248000CA60CA6822F48072CA604A6922F00102F6
:102490004A61202180F8421000214163026B012A29
:1024A0003CD10163016851E8031F026821F010016B
:1024B00042E80313DBB1016851E8031F026821F011
:1024C000100142E8031393B1016851E8031F026849
:1024D00021F0100142E803134BB1016851E8031FDA
:1024E000026821F0100142E80313002BDAD10168E1
:1024F0000A68D20606D5002200920A68009249684E
:1025000000910099818D01B0FFF7A0B9026852686F
:102510006FF35F2221F8022B8162A5E701B0FFF77C
:102520003FBD000080B544F20040C4F2000000F05E
:1025300073F841F6CC10C2F20000BDE88040FFF70E
:1025400089B9000080B544F60000C4F2000000F034
:1025500063F841F61420C2F20000BDE88040FFF7A6
:1025600079B9000043F60001C4F20101884240F24B
:10257000C401C2F2000111D044F60002C4F200020C
:10258000904209D044F20042C4F20002904218BFC7
:10259000704701F5016101E001F5815100220860F9
:1025A000A1F80624A1F80424A1F80A28A1F8082813
:1025B000012281F80C28C16841F02001C1607047F8
:1025C00043F60001C4F20101884240F2C401C2F2A4
:1025D000000111D044F60002C4F20002904209D07A
:1025E00044F20042C4F20002904213D101F50161AD
:1025F00002E000BF01F5815191F80C08002808BFE6
:102600007047EFF3108072B60020A1F80604A1F81D
:10261000040462B67047000010B543F60001C4F22E
:102620000101884240F2C401C2F200010DD044F61B
:102630000002C4F2000290420CD044F20042C4F204
:102640000002904204D101F5016191F80C0838B9FB
:1026500010BD00BF01F5815191F80C080028F7D09A
:1026600008680468A30611D5D0F804C0B1F8043492
:10267000B1F806E401336FF39F23734506D0B1F838
:1026800004240A4482F804C0A1F80434C268120683
:10269000DED514F0800208BF10BDB1F80A28B1F8E9
:1026A00008389A4204D1C16821F08001C16010BD90
:1026B000B1F80A280A4492F808244260B1F80A08DE
:1026C00001306FF39F20A1F80A0810BD43F6000205
:1026D000C4F20102904240F2C4024FF6FF71C2F20E
:1026E00000020DD044F60003C4F2000398420DD05E
:1026F00044F20043C4F20003984204D102F501629F
:1027000092F80C0840B908B2704700BF02F5815238
:1027100092F80C080028F6D0EFF3108072B6B2F8E9
:102720000404B2F8063498420AD0B2F80604104401
:102730000179B2F8060401306FF39F20A2F8060475
:1027400062B608B27047000043F60001C4F201010E
:10275000884240F2C401C2F200010DD044F60002EA
:10276000C4F2000290421DD044F20042C4F20002C2
:1027700090421DD101F5016191F80C08C0B1EFF351
:10278000108072B6B1F80404B1F80624904213D256
:10279000B1F80604B1F80414081A00F5806080B29C
:1027A00062B6704701F5815191F80C080028E6D116
:1027B000002080B2704700BFB1F80404B1F80614DD
:1027C000401A80B262B6704710B543F60003C4F2F7
:1027D000010340F2C40C9842C2F2000C10D044F63F
:1027E0000003C4F20003984208D044F20043C4F24C
:1027F000000398423AD10CF5016C01E00CF5815CC4
:10280000002A4FF0000018BF002901D180B210BD8E
:102810009CF80C38002BF9D0EFF3108072B6002032
:10282000BCF80838BCF80AE801336FF39F237345FE
:102830000CD011F800E0BCF8084801306444824232
:1028400084F808E4ACF80838EAD11046BCF8081857
:10285000BCF80A28914205D0DCF80010CA6842F0A2
:102860008002CA6062B680B210BD00BF002080B294
:1028700010BD0000FEE7000080B540F2B900C2F2D2
:1028800000000078002808BF80BD40F60040C4F278
:1028900001000221FDF7D0FE40F27001C2F20001FA
:1028A000002818BF0120087080BD0000B0B544F6B4
:1028B0000005C4F2000504462846FFF781FE41F6F4
:1028C0006521C2F20001FA2008709120A4F175037D
:1028D0004C70887028460422CB70BDE8B040FFF7EA
:1028E00073BF000090B0FDF7C7FE00240120CDE9C2
:1028F0000B44CDE9094406900A904FF4E0104FF4E0
:10290000803102250F9006A8CDE90714CDE90D51BD
:10291000FEF764F820B1EFF3108072B6FEE700BF57
:102920000F20CDE901054FF48060CDE9040401A832
:1029300002210394FDF74AFF20B1EFF3108072B635
:10294000FEE700BFFFF732FBFFF786FBFFF712FC45
:10295000FFF76CFCFFF792FCFFF7B2FC41F6841026
:10296000C2F20000FEF712FB0320FFF79FFF00F00A
:10297000C9F8012807D000BF0A20FDF74BFD00F081
:10298000C1F80128F8D141F28830FDF743FD03205A
:1029900000F0E0F900F00CF9012806D00A20FDF75C
:1029A00039FD00F005F90128F8D14FF47A70FDF7F0
:1029B00031FD03204FF4FA7132224FF4C86300F066
:1029C00063F841F28830FDF725FD00BFFFF754FFA3
:1029D00000F038F800F004F800F0D8F9F6E700004D
:1029E000B0B540F2B700C2F20000017841F66424AD
:1029F000C2F2000471B140F27001C2F20001097824
:102A000041B100250570032000F088F901202070F5
:102A100004E000BF2078B0FA80F0450940F2B80029
:102A2000C2F20000017859B1002D18BFB0BD0021DD
:102A30000170032000F012F9B0FA80F04009207014
:102A4000B0BD000080B540F2B600C2F200000178CF
:102A5000002908BF80BD41F65C2CC2F2000C9CF836
:102A60000020002182F0010E40F61C430170012A73
:102A700008BF642303204FF47A7196228CF800E09B
:102A8000BDE88040AFF3008080B540F6B83C6145BA
:102A900038BF8C4641F66521C2F20001487000EB58
:102AA0001C2060444FF0FA0E104481F800E04FF013
:102AB000FE0E00EB136081F802E04FEA1C2E00EBE3
:102AC000134081F803E04FEA136E00EB132081F806
:102AD00006E04FEA134E184481F807E04FEA132E40
:102AE0004B72A0F1080344F6000081F804C04A715B
:102AF00081F808E0C4F200000B228B72BDE8804030
:102B0000FFF762BE2DE9F04381B044F60008C4F23D
:102B100000084046FFF718FEC6B2052E4FF000052C
:102B200035D30027002405E00125FB240137F8B246
:102B3000B0422BD24046FFF7C9FD2906C1B208BFFB
:102B4000FB29F1D0EAB2013A032AEFD8DFE802F01C
:102B5000020A1014C81EB0FA80F040090C44450067
:102B6000E4E700BF00250C44912908BF0325DDE7F9
:102B70000C4404258146D9E7E0B2884204D15FFACB
:102B800089F048B102280DD00025CFE7002528465E
:102B900001B0BDE8F08300BF0225284601B0BDE8C2
:102BA000F08300BF0125284601B0BDE8F083000096
:102BB0002DE9F04381B044F60008C4F20008404615
:102BC000FFF7C2FDC6B2052E4FF0000535D3002732
:102BD000002405E00125FB240137F8B2B0422BD2D6
:102BE0004046FFF773FD2906C1B208BFFB29F1D0AB
:102BF000EAB2013A032AEFD8DFE802F0020A101421
:102C0000C81EB0FA80F040090C444500E4E700BF5C
:102C100000250C44922908BF0325DDE70C44042558
:102C20008146D9E7E0B2884204D15FFA89F048B121
:102C300001280DD00025CFE70025284601B0BDE8CA
:102C4000F08300BF0225284601B0BDE8F08300BF35
:102C50000125284601B0BDE8F08300002DE9F047CA
:102C600084B044F6000AC4F2000A81465046FFF7D9
:102C70006BFD00F0FE010A294FF000043BD3C7B200
:102C80000DF106080025002606E000BFFB25012601
:102C90000134E0B2B8422DD25046FFF717FDF2B230
:102CA000002AC1B208BFFB29F0D0022A0AD0012AAB
:102CB0000ED1A1EB0900B0FA80F040090D444600A6
:102CC000E6E700BF0D440026312908BF0326DFE7F1
:102CD000F31EDBB2052B05D808F802000D440136BF
:102CE000D6E700BF092AD3D1E8B2884208D000262F
:102CF000CEE700BF0024204604B0BDE8F08700BF47
:102D0000DDF80B0041F6602100BAC2F20001086054
:102D10000124204604B0BDE8F0870000B0B544F6B9
:102D20000005C4F2000504462846FFF749FC41F6B9
:102D30006521C2F20001FA200870312004F12B0352
:102D40004C70887028460422CB70BDE8B040FFF775
:102D50003BBD0000B0B544F60005C4F200050446D2
:102D60002846FFF72DFC41F66521C2F20001FA204A
:102D700008709220A4F174034C70887028460422D5
:102D8000CB70BDE8B040FFF71FBD0000B0B540F20A
:102D9000BA00C2F200000178002908BFB0BD40F2BD
:102DA0007004C2F20004217801B344F2004500210E
:102DB000C4F2000501702846FFF702FCFF2040F234
:102DC000C00124F8010F41F66020C2F20001C2F2F6
:102DD000000009680368C4F80210284621460A2248
:102DE000C4F80630BDE8B040FFF7EEBCB0BD00004F
:102DF00000000000000001020304060708090000AB
:102E00000000010203040102020304050607080989
:102E10000A0B0C0D0E0F1010382E000800000020B9
:102E2000100000006C010008482E0008100000206F
:102E3000A020000088010008010000001000000030
:082E400000127A0000000000FE
:0400000508000131BD
:00000001FF
