:020000040800F2
:10000000986A002035020008392300081D200008E6
:10001000352300082D0400089D2A00080000000078
:100020000000000000000000000000001D24000887
:1000300031040008000000003D23000821240008CE
:100040004F0200084F0200084F0200084F0200084C
:100050004F0200084F0200084F0200084F0200083C
:100060004F0200084F0200084F0200084F0200082C
:100070004F0200084F0200084F0200084F0200081C
:100080004F0200084F0200084F0200080000000065
:100090000000000000000000000000004F02000807
:1000A0004F0200084F0200084F0200084F020008EC
:1000B000392400084F0200084F0200084F020008D0
:1000C0004F0200084F0200084F0200084F020008CC
:1000D0004F0200084F0200084527000800000000FA
:1000E0004F0200084F0200084F0200080000000005
:1000F0000000000000000000000000004F020008A7
:10010000000000004F020008452400084F020008CC
:1001100000000000000000000000000000000000DF
:100120004F0200084F0200084F0200084F0200086B
:100130004F02000800000000000000000000000066
:100140000000000000000000000000004F02000856
:100150004F0200084F0200084F0200086527000800
:100160004F0200084F0200080000000000000000DD
:10017000000000000000000000000000000000007F
:10018000000000004F020008000000000000000016
:100190004F02000800F002F800F03CF80AA090E8D6
:1001A000000C82448344AAF10107DA4501D100F032
:1001B00031F8AFF2090EBAE80F0013F0010F18BFC3
:1001C000FB1A43F001031847AC2B0000CC2B0000B6
:1001D000103A24BF78C878C1FAD8520724BF30C873
:1001E00030C144BF04680C60704700000023002445
:1001F00000250026103A28BF78C1FBD8520728BF37
:1002000030C148BF0B6070471FB502F09AFD1FBD9B
:1002100010B510BD00F0D0F81146FFF7F5FF02F061
:100220005BFC00F0EEF803B4FFF7F2FF03BC00F054
:10023000F5F800000948804709480047FEE7FEE757
:10024000FEE7FEE7FEE7FEE7FEE7FEE7FEE7FEE786
:1002500004480549054A064B70470000252400085C
:100260009501000898640020986A00209866002094
:100270009866002053EA020C00F069802DE9F04BEB
:100280004FF00006002B1FBFB3FA83F503FA05F405
:1002900024FA05F65E4012BF1643B2FA82F502FA5E
:1002A00005F4C5F120051EBF22FA05FC44EA0C0442
:1002B000203556EA044C4FEA144418BF641C4FF032
:1002C00000084FF00009904271EB030C39D300296C
:1002D00019BFB1FA81F701FA07F6B0FA80F700FA10
:1002E00007F6C7F120071EBF20FA07FC46EA0C06F6
:1002F0002037B6FBF4FCA7EB0507103F07F01F0BF8
:10030000CBF120062CFA06F60CFA0BFB44BFB346E1
:100310000026202FA4BF5E464FF0000B5BEA060CC0
:1003200008BF4FF0010B19EB0B0948EB0608ABFBBC
:10033000027C06FB02CC0BFB03CCC01B71EB0C0157
:10034000C1E70B46024641464846BDE8F08B13B56F
:10035000084318BF4FF0FF300146AFF30080BDE8FF
:100360001C4070474FF0000200B513469446964675
:10037000203922BFA0E80C50A0E80C50B1F12001B8
:10038000BFF4F7AF090728BFA0E80C5048BF0CC066
:100390005DF804EB890028BF40F8042B08BF7047C4
:1003A00048BF20F8022B11F0804F18BF00F8012B36
:1003B0007047704770477047754600F02BF8AE469F
:1003C00005006946534620F00700854618B020B561
:1003D000FFF73EFFBDE820404FF000064FF000075A
:1003E0004FF000084FF0000BAC46ACE8C009ACE899
:1003F000C009ACE8C009ACE8C00921F007018D468E
:10040000704710B50446AFF300802046BDE81040A9
:10041000FFF709BF00487047180000200149182065
:10042000ABBEFEE72600020070470000FEE70000BA
:100430007047000072B600BFFEE7000080B500F014
:100440009FF940F29C01C2F20001B1F8D02001EB0B
:1004500082029060B1F8D00048F21F520130C5F21C
:10046000EB12A0FB02231A09322302FB1300A1F8AE
:10047000D000B1F8D200312804D8B1F8D200013050
:10048000A1F8D200086842F6BC7C013008604868D8
:1004900041F26F730130486051F80C209A4211D834
:1004A0004FF43F528A584FF6FA739A4251F80C3083
:1004B00088BF6FF00402581C41F80C0001EB4300A8
:1004C000A0F8DC204FF43F5000220A5080BD00000D
:1004D00040F29C00C2F200004FF43F5142580132FA
:1004E000425041584FF6FB72914238BF704742F676
:1004F000BC71425841F26F739A4208D84258531C5B
:10050000435000EB42014FF6FB72A1F8DC204FF4A0
:100510003F5100224250704770B5866D044600F08E
:100520002FF994F83510022928D105462068216C4E
:10053000026822F016020260426922F080024261E3
:1005400009B9A16C19B1016821F0080101600168C5
:1005500021F00101016000BF20680068C00715D0CC
:1005600000F00EF9401B0628F6D32020606503201A
:1005700084F83500002184F8341070BD8020606557
:100580000120002184F8341070BD00BFE06D3F21D0
:1005900001FA00F0B060012084F83500002000214D
:1005A00084F8341070BD000090F83510022909D18C
:1005B000052180F835100068016821F00101016013
:1005C0000020704780214165012070472DE9F04FE0
:1005D00082B000F13E4241F2000502F1FF77C4F221
:1005E0000205072243F6004E4FEAB726A84208BF8D
:1005F0000422C4F2010E042E38BF4FEAB7220125AF
:10060000002600274FF00008009208E008F10108DA
:100610000437B8F1100F06F1020600F0A7800C684D
:1006200005FA08F914EA090FF0D0D1F804B0032252
:100630000BF0030CACF10104B240012C6FEA020A8A
:1006400010D88268CC6802EA0A02B4402243826071
:100650004268CBF3001422EA090204FA08F42243A8
:10066000426005E0BCF1030F02D14FF0030C20E023
:10067000C2688C6802EA0A02B4402243BCF1020F4D
:10068000C26016D16FF0030202EA58020244D2F8A7
:1006900020C007F01C050F230C69AB402CEA0303B4
:1006A00004FA05F52B431362D1F804B001250BF0D1
:1006B000030C02680CFA06F302EA0A021A431BF45E
:1006C000403F0260A2D0002243F644030192C4F2EC
:1006D00002031A684FF6084C42F480421A601A6806
:1006E000CFF6FF7C02F480420192019A28F00302C7
:1006F000724452F80C3007F00C050F24AC40A343B1
:10070000009C04FA05F52B4342F80C30DEF8082073
:100710004B6842EA090543F60C4CDC0258BF22EA5A
:100720000905CEF80850C4F2010CDCF800209C0248
:1007300042EA090558BF22EA0905CCF80050DEF864
:1007400004209C0342EA090558BF22EA0905CEF8B5
:100750000450DEF80020DB0342EA090558BF22EA14
:100760000905CEF80050012550E700BF02B0BDE8F2
:10077000F08F0000002A08BF090481617047000063
:1007800046F29440C2F200000068704740F2000058
:1007900046F29441C2F20000C2F2000100780A68F9
:1007A000104408607047000080B543F60040C4F272
:1007B0000200016841F400710160016841F4806148
:1007C0000160016841F480710160032000F088F845
:1007D0000F2000F005F800F027F8002080BD000091
:1007E00070B540F20006C2F2000640F2080132780D
:1007F000C2F200014FF47A730968B3FBF2F20446C7
:10080000B1FBF2F1084600F043FB0F2C4FF001055D
:1008100008D838B94FF0FF3021460022002500F0FB
:1008200033F87460284670BD82B0002043F6400162
:100830000190C4F202014A6842F480424A604A6868
:1008400002F480420192019A0090086840F08050C2
:100850000860086800F080500090009802B070476F
:10086000002848BF7047C1B200F01F00012202FA01
:1008700000F04EF20012CEF2000242EAD10121F065
:10088000030108607047000010B54EF60C5CCEF214
:10089000000CDCF80030C3F3022E8EF00704042CA9
:1008A00028BF0424BEF103034FF0FF3E0EFA04F408
:1008B00038BF0023A14399400EFA03F39A43114332
:1008C00000F00F0200F160430901043A03F56443AC
:1008D0006244002848BF02F10C03197010BD0000EB
:1008E0004EF60C51CEF200010A684FF6FF031A4093
:1008F00060F30A2242F0806040F0FD7008607047AB
:100900002DE9F041002800F08B8043F60808C4F27E
:1009100002080446D8F8F8030D4600F007008842A4
:1009200007D288F8F853D8F8F80300F00700A84277
:1009300076D12068810717D5410705D5D8F8001072
:1009400041F4E051C8F80010010705D5D8F80010AF
:1009500041F46041C8F80010D8F80010A26821F0F6
:10096000F0011143C8F80010C0073FD1D8F8F803D0
:1009700000F00700A84207D988F8F853D8F8F80320
:1009800000F00700A8424BD12068410707D5D8F8EE
:100990000010E26821F4E0511143C8F8001000078C
:1009A00008D5D8F80000216920F4604040EAC10071
:1009B000C8F8000000F07CF8D8F8001042F65C524D
:1009C000C1F30311C0F60002515C40F2080220FAA4
:1009D00001F140F20400C2F200000068C2F200021D
:1009E0001160FFF7FDFE0020BDE8F0816068811E08
:1009F000022907D258F8081C89015CBF0120BDE814
:100A0000F08111E0012807D158F8081C89035CBF68
:100A10000120BDE8F08107E058F8081C890703D4DD
:100A20000120BDE8F08100BFD8F8001021F00301DB
:100A30000843C8F80000FFF7A3FE064641F28837D6
:100A4000D8F80000616800F00C00B0EB810F8DD089
:100A5000FFF796FE801BB842F2D90320BDE8F08173
:100A600040F2080043F60801C2F20000C4F202019D
:100A70000068096842F66C52C1F38221C0F6000298
:100A8000515CC8407047000040F2080043F608017E
:100A9000C2F20000C4F202010068096842F66C521A
:100AA000C1F34231C0F60002515CC84070470000FB
:100AB00010B543F60404C4F20204606800F00C00B0
:100AC00008280BD0042819BF42F20040C0F2F400FD
:100AD00047F64000C0F27D1010BD00BF20682168BD
:100AE0002368490247F64001C0F27D1100F03F0241
:100AF000C3F388105CBF42F20041C0F2F401A1FBD5
:100B000000010023FFF7B6FB21680222C1F3014177
:100B100002EB4101B0FBF1F010BD00002DE9F04106
:100B200082B0002868D00446007843F60006C0076B
:100B3000C4F202060BD0B06800F00C00042840F0AC
:100B40009F803068800302D56068002854D02078E8
:100B500080071AD5B06810F00C0F09D0B06800F00B
:100B60000C00082840F0A6807068400200F1A280C6
:100B70003068800702D5E06801283DD130682169DE
:100B800020F0F80040EAC10030602078000737D438
:100B9000207840074CD4A56955B3B06800F00C002C
:100BA000082840F0BB80012D26D07068E16900F470
:100BB00080028A4220D1216A00F03F028A421BD182
:100BC00047F6C071626A0140B1EB821F14D1A16A7D
:100BD0004FF6FF73C903994300F44032A1F5803109
:100BE0008A4209D1E16A00F07060B0EB016F03D175
:100BF000002002B0BDE8F081012002B0BDE8F08124
:100C00006069002840F20000C4F2472076D001213C
:100C1000C0F8801EFFF7B4FD054600BF706F800767
:100C2000B6D4FFF7ADFD401B0228F7D9DDE000BFC9
:100C3000306C10F080580AD100200190306C40F0E8
:100C400080503064306C00F080500190019847F281
:100C50000007C4F200073868C00541D4386840F482
:100C600080703860FFF78CFD054600BF3868C0050E
:100C700036D4FFF785FD401B0228F7D9B5E000BF49
:100C8000B06800F00C00082803D1706840023FF5FE
:100C900058AF6068B0F5803F07D0B0F5A02F40F0A6
:100CA0008D80306840F480203060306840F48030BF
:100CB00030608DE0E068002852D00020C4F2472068
:100CC00001210160FFF75CFD054600BF3068800729
:100CD0003FF554AFFFF754FD401B0228F6D984E0DE
:100CE000A068012805D005284ED1306F40F00400DF
:100CF0003067306F40F0010030674FE00021C0F8EE
:100D0000801EFFF73DFD0546706F80077FF540AF01
:100D1000FFF736FD401B0228F6D966E00027C4F233
:100D2000472700203866FFF72BFD022D05460BD123
:100D3000306880015ED5FFF723FD401B02284FF08D
:100D40000300F5D955E700BF306880017FF550AF4B
:100D5000FFF716FD401B02284FF00300F4D948E7C7
:100D60000020C4F2472000210160FFF709FD05467D
:100D7000306880077FF509AFFFF702FD401B0228AE
:100D80004FF00300F4D934E7316F002821F001015E
:100D90003167316F21F0040131674DD0FFF7F0FC6E
:100DA000054641F2883700BF306F800756D4FFF701
:100DB000E7FC401BB842F7D917E000BF31680028B4
:100DC00021F480313160316821F4802131604FD0CD
:100DD000FFF7D6FC054600BF306880033FF5B7AE8D
:100DE000FFF7CEFC401B6428F6D9032002B0BDE813
:100DF000F08100BF04F11C052FCD084340EA8210AA
:100E0000D9034FF6FF729143A1F5803140EA0560A6
:100E10000843706001203866FFF7B2FC044600BF4B
:100E2000306880013FF5E4AEFFF7AAFC001B022802
:100E30004FF00300F4D9DCE6FFF7A2FC054641F2CF
:100E4000883700BF306F800708D5FFF799FC401B3B
:100E5000B8424FF00300F5D9CBE600BFB8F1000F60
:100E60007FF499AE306C20F08050306493E600BF80
:100E7000FFF786FC054600BF306880037FF567AE4C
:100E8000FFF77EFC401B64284FF00300F4D9B0E666
:100E9000411E0020B0EB116F1CBF012070474EF2C5
:100EA0001002CEF2000251604EF62351CEF2000144
:100EB000F0230B70072190601160704770470000AD
:100EC0007047000010B590F83C20012A4FF0020254
:100ED0003ED080F83D200268D2F804E0D2F808C085
:100EE0000C682EF07003234340F6FF34C4F2000474
:100EF000A242536010DCB2F1804F1ED040F200439A
:100F0000C4F200039A4218D040F60003C4F2000372
:100F10009A4212D016E000BF40F60043C4F200032C
:100F20009A420AD044F20003C4F201039A4204D068
:100F30000023C4F201039A4204D149682CF08003D3
:100F4000194391600121002280F83D1080F83C2077
:100F5000104610BD002804BF0120704710B504469C
:100F600090F83D0028B9002084F83C00204600F0AD
:100F70001FF8022084F83D002068211D01F068FA66
:100F8000012084F8460084F83E0084F83F0084F88D
:100F9000400084F8410084F8420084F8430084F85B
:100FA000440084F8450084F83D00002010BD000096
:100FB00080B586B0006840F60041C4F20001884266
:100FC00022D040F20041C4F20001884250D0B0F17A
:100FD000804F4AD10020019043F64000C4F2020045
:100FE0000168002241F0010101600068002100F069
:100FF0000100019001981C20FFF746FC1C2006B060
:10100000BDE88040FFF72CBC002043F64001019072
:10101000C4F202010A6842F008020A600A6802F09B
:1010200008020192019A019051F8102C42F001023D
:1010300041F8102C51F8101C01F0010101910199A7
:10104000012101910221CDE90210CDE90401002026
:10105000C4F2020001A9FFF7B9FA322000210022F0
:10106000FFF712FC3220FFF7FBFB06B080BD00BF8C
:101070000020019043F64000C4F20200016841F0F4
:1010800002010160006800F002000190019806B0C2
:1010900080BD000090F83D1001291CBF0120704761
:1010A000022180F83D10006840F6FF32C168C4F2AA
:1010B0000002904241F00101C1600FDCB0F1804FAD
:1010C0001DD040F20041C4F20001884217D040F622
:1010D0000001C4F20001884211D017E040F600413F
:1010E000C4F2000188420AD044F20001C4F20101B6
:1010F000884204D00021C4F20101884206D18168EF
:1011000001F00701062904BF00207047016841F083
:10111000010101600020704780B590F83C20012A51
:101120004FF0020200F0C28080F83D20D0F800C0ED
:101130004FF67772DCF8083023EA0202CCF8082078
:101140000B684F2B28DC1F2B44DD202B45D0302B88
:1011500043D0402B40F0AC80D1F804E0C968DCF803
:101160002030DCF8202022F00102CCF82020DCF82E
:10117000182022F0F00242EA011123F00A0242EAAA
:101180000E02CCF81810CCF82020DCF8081041F042
:10119000470121F0300180E06F2B27DDB3F5005FC0
:1011A00048D0B3F5805F7AD0702B40F08180D1E9D0
:1011B00001E3C968DCF8082043EA0E0322F47F4209
:1011C00043EA01211143CCF80810DCF8081041F083
:1011D000770162E00BB1102B6AD1DCF8081021F026
:1011E0007001194341F0070157E000BF502B35D083
:1011F000602B5DD1D1F804E0C968DCF82030DCF860
:10120000202022F01002CCF82020DCF8182022F454
:10121000704242EA013123F0A00242EA0E12CCF8F9
:101220001810CCF82020DCF8081041F0670121F0FC
:10123000100132E0D1E901E3C968DCF8082043EA93
:101240000E0322F47F4243EA01211143CCF8081037
:10125000DCF8081041F480411FE000BFD1F804E041
:10126000C968DCF82030DCF8202022F00102CCF83C
:101270002020DCF8182022F0F00242EA011123F0CD
:101280000A0242EA0E02CCF81810CCF82020DCF852
:10129000081041F0570121F02001CCF8081000227D
:1012A000012180F83D10002180F83C10104680BDDF
:1012B0000122F5E7016840F60042C4F200029142C3
:1012C00018BF7047007F012808BFFFF7B7B8704705
:1012D000F0B590F83C30012B04BF0220F0BD4FEA7E
:1012E000B202032A2CD8DFE802F003314F6F00BFAF
:1012F0000368D1E900C5D1F80CE01C6A1A6A40F60F
:10130000FF3722F001021A621A4652F8186FC4F22F
:101310000007BB4200F37E80B3F1804F00F08B806A
:1013200040F20047C4F20007BB4200F0848040F660
:101330000007C4F20007BB4200F07D8096E000BFCA
:101340000121002280F83C200846F0BD0368D1E965
:1013500000E6D1E902C11C6A1A6A360222F01002C4
:101360001A621A4652F8185F4FF2FF07BE4325F47F
:10137000734561F30F3624F0A0040EF00A0746EA25
:10138000050144EA07173CE00768D1E900C5D1E947
:1013900002313C6A3A6A61F3071522F480723A62BC
:1013A0003A4652F81C6F26F0F30645EA060124F48B
:1013B00020660CF00A0546EA052611603E621168B7
:1013C00021F00C01116047E00368D1E900E6D1E9A2
:1013D00002C11C6A1A6A360222F480521A621A4644
:1013E00052F81C5F4FF2FF07BE4325F4734561F3CB
:1013F0000F3624F420440EF00A0746EA050144EAB9
:10140000073711601F6211684FEA0C2321F4406115
:10141000116021E040F60047C4F20007BB420AD049
:1014200044F20007C4F20107BB4204D00027C4F213
:101430000107BB421AD126F00306354324F00A0700
:101440000CF00A066EF3071537449D611F629F6911
:1014500027F00C079F618B68116819431160002108
:10146000002280F83C200846F0BD00BF46F0010590
:10147000E4E70000002804BF0120704710B50446CF
:1014800090F83D0028B9002084F83C00204600F088
:101490001FF8022084F83D002068211D00F0D8FFCD
:1014A000012084F8460084F83E0084F83F0084F868
:1014B000400084F8410084F8420084F8430084F836
:1014C000440084F8450084F83D00002010BD000071
:1014D0007047000070B504460068C5680669B1072A
:1014E00016D515F0020113D06FF002010161012140
:1014F00021778069800703D02046FFF7DBFE05E0F7
:10150000204600F08FF8204600F0C0F90020207738
:10151000700719D515F0040016D020686FF004018B
:10152000016102212177806910F4407F04D02046B8
:10153000FFF7C0FE06E000BF204600F073F820462B
:1015400000F0A4F900202077300717D515F0080027
:1015500014D020686FF00801016104212177C0696F
:10156000800703D02046FFF7A5FE05E0204600F0E7
:1015700059F8204600F08AF900202077F00619D5A6
:1015800015F0100016D020686FF0100101610821DD
:101590002177C06910F4407F04D02046FFF78AFE0F
:1015A00006E000BF204600F03DF8204600F06EF94E
:1015B00000202077F00718BF15F0010002D1300697
:1015C00009D412E020686FF001010161204600F0AB
:1015D0005FF9300609D515F0800006D020686FF05D
:1015E000800101612046FFF769FC700609D515F0FE
:1015F000400006D020686FF040010161204600F0F5
:10160000ABF9B00658BF70BD15F0200008D02168B6
:101610006FF0200220460A61BDE87040FFF750BC21
:1016200070BD0000704700002DE9F04390F83C3099
:10163000012B04BF0220BDE8F0834FEAB202032A67
:101640003AD8DFE802F003417DB900BF0368002605
:101650001D6A1A6AC4F2010622F001021A621A46D1
:101660005C6852F818CFB3428E68D1F800E025F0DC
:10167000020545EA06050CD1CE68D1E9057824F4C7
:10168000407425F00C0526F004063C43354344EA3B
:1016900008042CF0730747EA0E075C609F614F68EF
:1016A00009695F631D629F6947F008079F619F6931
:1016B00027F004079F61AEE00121002280F83C2062
:1016C0000846BDE8F08300BF036800261D6A1A6A59
:1016D000C4F2010622F010021A621A46D3F804C0BE
:1016E00052F8184FB3428E68D1F800E025F020057B
:1016F00045EA061510D1CE68D1E9058725F0C00965
:101700006FF0400505EA06152CF4406647EA080725
:1017100045EA090546EA870C24F4E64444EA0E2724
:10172000C3F804C09F614F6809699F631D629F6988
:1017300047F400679F619F6927F480679F6169E0B4
:10174000036800261D6A1A6AC4F2010622F4807238
:101750001A621A46D3F804C052F81CEFB3428E68DE
:101760000C6825F4007545EA062511D1CE68D1E94B
:10177000058725F44069360240F2FF4526EA050553
:101780002CF4405647EA080745EA090546EA071CD3
:101790002EF073072743C3F804C0DF614F6809695F
:1017A000DF631D62DF6947F00807DF61DF6927F04B
:1017B0000407DF612FE000BF03680027D3F820C0D3
:1017C0001A6AC4F2010722F480521A621A465C684F
:1017D00052F81C5FD1F800E08E68BB4204D14F691B
:1017E00024F4804444EA87142CF4005747EA06376F
:1017F00025F4E64646EA0E265C60DE614E6809691D
:101800001E641F62DF6947F40067DF61DF6927F448
:101810008067DF610902136819431160002100220B
:1018200080F83C200846BDE8F0830000002804BF93
:101830000120704710B5044690F83D0028B90020FB
:1018400084F83C00204600F01FF8022084F83D0098
:101850002068211D00F0FCFD012084F8460084F87A
:101860003E0084F83F0084F8400084F8410084F88A
:10187000420084F8430084F8440084F8450084F86A
:101880003D00002010BD00007047000070470000C0
:10189000B0B50068B0F1804F18BFB0BD43F28020F2
:1018A000C2F20000016801310160FEF711FE40F252
:1018B0000044C4F2020420464FF480410122012575
:1018C000FEF758FF20464FF4804100220024FEF727
:1018D00051FF40F28000C2F2000005704570C570F3
:1018E0000571816842F2107201319142816043F2C8
:1018F000600124BF84608570C2F200010A8940F251
:101900000C0301320A81C2F200031B6892B29342B7
:1019100003D800220A8101224A6046F2E421C2F281
:1019200000010A88013293B2B3F57A7F0A8007D3A7
:1019300000220A8040F27801C2F2000101220A70FE
:1019400040F21001C2F200010978C268002918BFF4
:10195000511CC160B0BD000070470000704700001E
:1019600070470000B0B582B0044600680168C368E3
:10197000426901F02F05202D03F0200506D12DB17D
:10198000204602B0BDE8B04000F0E4BD5FEA017C53
:101990001EBF02F0010E03F4907212EB0E0253D13F
:1019A000226B012A05D111F0100218BF13F01002AA
:1019B00036D10A0622D513F080021FD094F84110C8
:1019C00021293FD1A168B1F5805F03D121690029A8
:1019D00000F08282216A4A1C226209784160E18C0F
:1019E00001390A04E1842DD1C16821F08001C16070
:1019F000C16841F04001C16002B0B0BD490621D5C7
:101A000013F040011ED0C16821F04001C1602021C7
:101A1000204684F8411002B0BDE8B04000F0FCBAA6
:101A2000002101910168019141680191019940698A
:101A3000400613D4A08DE18DE28D002A18BF8842A4
:101A400040F0CC8102B0B0BDCA0718BF13F4807259
:101A500040F0BE804A0700F1C180C6E0E06B01683B
:101A60004A68A38D91B2002900F0A881994280F0C4
:101A7000A581E285C069B0F5807F00F09D80206877
:101A800050E8030F216820F4807041E80302DAB1C6
:101A9000206850E8030F216820F4807041E80302B9
:101AA00092B1206850E8030F216820F4807041E86B
:101AB00003024AB1206850E8030F216820F48070C7
:101AC00041E80302002ADAD1206850E8050F2168B6
:101AD00020F0010041E80502BAB3206850E8050F84
:101AE000216820F0010041E8050272B3206850E847
:101AF000050F216820F0010041E805022AB32068A3
:101B000050E8050F216820F0010041E80502002A95
:101B1000DAD11AE0206850E8050F216820F0400073
:101B200041E80502DAB1206850E8050F216820F08D
:101B3000400041E8050292B1206850E8050F216895
:101B400020F0400041E805024AB1206850E8050F46
:101B5000216820F0400041E80502002ADAD1202067
:101B600084F8420000202063206850E8030F2168B9
:101B700020F0100041E80302DAB1206850E8030FBA
:101B8000216820F0100041E8030292B1206850E87B
:101B9000030F216820F0100041E803024AB12068D9
:101BA00050E8030F216820F0100041E80302002AEA
:101BB000DAD1E06BFEF7B0FC02206063A08DE18D0E
:101BC000401A81B2204602B0BDE8B040FFF7C6BE61
:101BD000626C42F0010262644A0706D5BEF1000F52
:101BE00003D0626C42F0020262648A0706D5BEF13D
:101BF000000F03D0626C42F004026264BCF1000F7B
:101C000009D545EA0E02B2FA82F2520903D1626C9A
:101C100042F008026264626C002A3FF413AF11F0D4
:101C2000200118BF002D03D0204600F093FC20684F
:101C30004069616C00F0400001F00801401800F0BC
:101C4000B58000BF206850E8030F216820F4907031
:101C500041E80302BAB3206850E8030F216820F47A
:101C6000907041E8030272B3206850E8030F2168C6
:101C700020F4907041E803022AB3206850E8030F73
:101C8000216820F4907041E80302002ADAD11AE0BA
:101C9000206850E8050F216820F0010041E80502A6
:101CA000DAB1206850E8050F216820F0010041E812
:101CB000050292B1206850E8050F216820F001006C
:101CC00041E805024AB1206850E8050F216820F07C
:101CD000010041E80502002ADAD1206B012824D155
:101CE000206850E8030F216820F0100041E803024B
:101CF000DAB1206850E8030F216820F0100041E8B5
:101D0000030292B1206850E8030F216820F0100010
:101D100041E803024AB1206850E8030F216820F02F
:101D2000100041E80302002ADAD1202084F84200A2
:101D30000020206320684069400649D5206850E8AB
:101D4000050F216820F0400041E80502DAB1206863
:101D500050E8050F216820F0400041E8050292B1EB
:101D6000206850E8050F216820F0400041E8050296
:101D70004AB1206850E8050F216820F0400041E892
:101D80000502002ADAD1E06B10B342F24951C0F6E5
:101D900000010165FEF708FC00283FF453AEE06B3C
:101DA000016D02B0BDE8B040084700BF2046FFF714
:101DB000D7FD0020606402B0B0BD00BF8B427FF44D
:101DC00041AEC069B0F5807F7FF43CAE02227CE07A
:101DD000204602B0BDE8B040FFF7C2BD401A2168FE
:101DE00051E8031F226821F4907142E80313DBB12C
:101DF000216851E8031F226821F4907142E803131F
:101E000093B1216851E8031F226821F4907142E8E0
:101E100003134BB1216851E8031F226821F490712C
:101E200042E80313002BDAD1216851E8051F22682C
:101E300021F0010142E80513DBB1216851E8051FDB
:101E4000226821F0010142E8051393B1216851E8AD
:101E5000051F226821F0010142E805134BB12168FA
:101E600051E8051F226821F0010142E80513002B0B
:101E7000DAD1202184F8421000212163216851E841
:101E8000031F226821F0100142E80313DBB121682F
:101E900051E8031F226821F0100142E8031393B1B7
:101EA000216851E8031F226821F0100142E8031362
:101EB0004BB1216851E8031F226821F0100142E86C
:101EC0000313002BDAD1022281B22046626302B0F2
:101ED000BDE8B040FFF742BD216A31F8022B6FF335
:101EE0005F22426021627AE5002804BF012070472A
:101EF00010B5044690F8410028B9002084F840004D
:101F0000204600F021F8242084F841002068C168B0
:101F100021F40051C160204600F09CFB206801695B
:101F200021F490410161416921F02A014161C168B8
:101F300041F40051C16000202021606484F8411008
:101F400084F84210606310BD10B586B0006841F29D
:101F50000042C4F2010200219042CDE90411CDE912
:101F60000211019122D044F20041C4F200018842E2
:101F70004ED1002043F630010090C4F202010A69FC
:101F8000262442F400320A610A6902F40032009207
:101F9000009A0090086840F00100086008680C2171
:101FA00000F001000090009807201BE043F630008D
:101FB0000091C4F202004269472442F020024261CB
:101FC000426902F020020092009A0091016841F0FB
:101FD0000101016000684FF4C05100F00100009061
:101FE0000098082001910221029100210391032110
:101FF000CDE904100020C4F2020001A9FEF7E6FAC0
:10200000204600210022FEF73FFC2046FEF728FC78
:1020100006B010BD7047000070470000FEE70000EA
:1020200070B586B0002543F6300005950095C4F2E2
:102030000200016840F2004441F0010101600168C2
:10204000C4F2020401F001010091009900950168B9
:10205000002241F002010160006840F2064100F0F8
:10206000020000900098204640F20646FEF782FBF0
:102070000120CDE9020501A9204601960495FEF74D
:10208000A5FA06B070BD000080B586B046F2E82023
:102090000021C2F200004FF080420F234FF0630C8A
:1020A0000591CDE90311CDE90011C0E90023C0E994
:1020B000021C01618161FEF74DFF002818BFFEF789
:1020C000B9F94FF48050029046F2E820C2F20000C5
:1020D00002A9FFF721F8002818BFFEF7ABF946F276
:1020E000E820C2F200006946FEF7ECFE002818BFA7
:1020F000FEF7A0F906B080BDB0B594B040F200453F
:1021000046F23030C4F200050021C2F200000F2276
:1021100063230E91CDE90C110991CDE90711CDE9A9
:102120000511CDE90311CDE90111C0E90052C0E963
:10213000021301618161FEF70DFF002818BFFEF751
:1021400079F94FF480500B9046F23030C2F2000023
:102150000BA9FEF7E1FF002818BFFEF76BF946F266
:102160003030C2F20000FFF761FB002818BFFEF715
:1021700061F946F230300024C2F2000008A9CDE92E
:102180000844FEF79FFE002818BFFEF753F96020B1
:10219000CDE901040394059446F23034C2F2000400
:1021A00001A920460022FFF73FFA002818BFFEF7DA
:1021B00041F92068A84201D014B0B0BD002043F618
:1021C00030010F90C4F202010A6842F002020A6074
:1021D000096801F002010F910F9910210F9102215E
:1021E000CDE91010CDE9120105F500300FA9FEF779
:1021F000EDF914B0B0BD000010B58AB046F27830E9
:1022000040F600420021C2F20000C4F2000240F693
:102210007F434FF0FF340991CDE90711CDE9041157
:10222000CDE90211CDE90011C0E90023C0E9021493
:1022300001618161FEF78EFE002818BFFEF7FAF8F3
:102240004FF48050069046F27830C2F2000006A9A2
:10225000FEF762FF002818BFFEF7ECF846F2783070
:10226000C2F20000FFF706F9002818BFFEF7E2F8F7
:1022700046F278300024C2F2000004A9CDE90444FB
:10228000FEF720FE002818BFFEF7D4F80120CDE9A4
:10229000010446F27830C2F2000069460022009440
:1022A0000394FFF715F8002818BFFEF7C3F80AB02B
:1022B00010BD000010B544F2004446F2C030C4F234
:1022C0000004C2F200004FF47A3100220C23C0E96E
:1022D0000041C0E90222C0E90423C0E90622FFF759
:1022E00003FE002818BFFEF7A5F82046BDE8104001
:1022F00000F048BA10B541F2004446F20840C4F27A
:102300000104C2F200004FF47A3100220C23C0E92C
:102310000041C0E90222C0E90423C0E90622FFF718
:10232000E3FD002818BFFEF785F82046BDE8104001
:1023300000F028BAFEE70000FEE70000704700004A
:1023400070B543F2802040F29004C2F20000C2F265
:1023500000040568217804290CD8DFE801F0030F98
:1023600021374900032000F09BFB012065602070AD
:1023700070BD00BF0020207070BD00BF00F01AFCCF
:102380000128F9D1022340F200406560C4F2020046
:10239000022101222370BDE87040FEF7EBB900BFB7
:1023A00060684CF25031281A8842E5D340F2004070
:1023B000C4F2020004210122FEF7DCF90320032607
:1023C00000F0A4FC6560267070BD00BF00F048FC02
:1023D0000128D1D140F20040C4F202004FF48061E4
:1023E0000122FEF7C7F904206560207070BD00BFB0
:1023F00061684CF25032691A914238BF70BD46F2A2
:102400005041C2F20001097811B10320607070BD23
:10241000012161700068A06070BD0000704700007D
:10242000FEF7B4B94EF68850CEF20000016841F4D0
:10243000700101607047000046F2E820C2F200001F
:10244000FFF748B846F27830C2F20000FFF742B812
:10245000B0B540F2FF7E0568C4F2000E40F2000CF9
:102460007045C4F2010C1DDD40F60003C4F2000308
:10247000984220D060451ED040F60043C4F20003CD
:10248000984218D04FF6FF73C4F2000398421DDC47
:10249000704527DCB0F1804F3CD040F20043C4F2DD
:1024A000000335E0B0F1804F05D040F20043C4F2A4
:1024B00000039842E6D14B6825F0700243EA02051A
:1024C0004FF6FF73C4F200039842E1DD44F2FF339C
:1024D000C4F20103984211DC60451BD044F20003B2
:1024E00014E000BF40F60003C4F20003984211D08C
:1024F00040F60043C4F200030AE000BF44F60003C4
:10250000C4F20103984205D044F20043C4F201032F
:10251000984204D1CB6825F4407243EA02050A6868
:102520008C684B696045C462826202D10969CCF84B
:102530003010026825F0800142F004021943026065
:10254000012242610160B0BD806B0021C185FFF7AF
:1025500007BA000081B090F84210222921D1836887
:102560000246B3F5805F09D152F8281F52F8183C93
:10257000002B63D003685B680AE000BF52F8281F95
:1025800013B90369002BF5D003685B6803F07F0380
:102590000B70116801311160C18D01390A04C185C8
:1025A00002D001B0704700BF0168CA6822F0200263
:1025B000CA60CA6822F48072CA604A6922F00102C5
:1025C0004A61202180F8421000214163026B012AF8
:1025D0003CD10163016851E8031F026821F010013A
:1025E00042E80313DBB1016851E8031F026821F0E0
:1025F000100142E8031393B1016851E8031F026818
:1026000021F0100142E803134BB1016851E8031FA8
:10261000026821F0100142E80313002BDAD10168AF
:102620000A68D20606D5002200920A68009249681C
:1026300000910099818D01B0FFF790B9026852684E
:102640006FF35F2221F8022B8162A5E701B0FFF74B
:10265000E1BC000010B504460068D4E902C2236959
:10266000016921F4405111430161626943EA0C019F
:10267000E3691143C268194349F20C639A43114359
:10268000C1604169A26921F4407141F200431143E4
:1026900040F48062C4F201039A42416102D1FEF724
:1026A000F3F901E0FEF7DCF9E16963681922B1F59D
:1026B000004FA0FB020123D15A00DB0FFDF7DAFD2A
:1026C00048F21F51C5F2EB11A0FB01235A094FF646
:1026D0009C73C0F6FF7303F1805302FB03003223A7
:1026E00003EBC000A0FB01014FF4F87000EA1110E9
:1026F00000EB0210C1F3421108442168886010BD4C
:102700009A009B0FFDF7B6FD48F21F51C5F2EB1181
:10271000A0FB01235A094FF69C73C0F6FF7302FB1E
:102720000300322303EB0010A0FB0101F02000EABC
:10273000511000EB0210C1F3431108442168886076
:1027400010BD000080B544F20040C4F2000000F06B
:1027500071F846F2C030C2F20000BDE88040FFF7D9
:1027600001B9000080B541F20040C4F2010000F060
:1027700061F846F20840C2F20000BDE88040FFF771
:10278000F1B8000041F20041C4F20101884243F275
:102790008421C2F200010FD041F20002C4F2010212
:1027A00090420BD044F20042C4F20002904218BFA3
:1027B000704701F5016101E001F5815100220860D7
:1027C000A1F80624A1F80424A1F80A28A1F80828F1
:1027D000012281F80C28C16841F02001C1607047D6
:1027E00041F20041C4F20101884243F28421C2F265
:1027F00000010FD041F20002C4F2010290420BD05E
:1028000044F20042C4F20002904211D101F501618C
:1028100002E000BF01F5815191F80C08002808BFC3
:102820007047002072B6A1F80604A1F8040462B64D
:102830007047000010B581B041F20041C4F20101BF
:10284000884243F28421C2F2000113D041F2000217
:10285000C4F20102904207D044F20042C4F20002E6
:10286000904204D101F5016191F80C0840B901B022
:1028700010BD00BF01F5815191F80C080028F6D079
:1028800008680468A30611D5D0F804C0B1F8043470
:10289000B1F806E401336FF39F23734506D0B1F816
:1028A00004240A4482F804C0A1F80434C268120661
:1028B0000CD514F0800209D0B1F80A28B1F8083814
:1028C0009A4207D1C16821F08001C1602107CED5AD
:1028D0000FE000BFB1F80A280A4492F808244260C9
:1028E000B1F80A2801326FF39F22A1F80A282107C4
:1028F000BDD540688DF803009DF8030001B010BD00
:1029000041F20042C4F20102904243F284224FF6A7
:10291000FF71C2F2000213D041F20003C4F20103BE
:10292000984207D044F20043C4F20003984204D115
:1029300002F5016292F80C0840B908B2704700BF76
:1029400002F5815292F80C080028F6D072B6B2F85F
:102950000404B2F8063498420AD0B2F806041044CF
:102960000179B2F8060401306FF39F20A2F8060443
:1029700062B608B27047000041F20041C4F20101A2
:10298000884243F28421C2F2000121D041F20002C8
:10299000C4F20102904207D044F20042C4F20002A5
:1029A00090421BD101F5016191F80C08B0B172B6EB
:1029B000B1F80404B1F80624904213D2B1F8060429
:1029C000B1F80414081A00F5806062B680B270474E
:1029D00001F5815191F80C080028E8D1002080B25F
:1029E000704700BFB1F80404B1F80614401A62B68B
:1029F00080B2704710B541F20043C4F2010343F2C4
:102A0000842C9842C2F2000C0ED041F20003C4F2B2
:102A1000010398420AD044F20043C4F200039842F2
:102A200038D10CF5016C01E00CF5815C002A4FF007
:102A3000000018BF002901D180B210BD9CF80C38ED
:102A4000002BF9D072B60020BCF80838BCF80AE8B0
:102A500001336FF39F2373450CD011F800E0BCF8ED
:102A6000084801306444824284F808E4ACF808382D
:102A7000EAD11046BCF80818BCF80A28914205D0E3
:102A8000DCF80010CA6842F08002CA6062B680B208
:102A900010BD00BF002080B210BD0000FEE70000A6
:102AA000B0B544F20045C4F2000504462846FFF7DD
:102AB00097FE46F25141C2F20001FA2008709120BF
:102AC000A4F175034C70887028460422CB70BDE8D1
:102AD000B040FFF78FBF000092B047F20005C4F28C
:102AE0000005FDF761FE06AC201D2C21FDF73AFC28
:102AF000002643F640000596CDE90366CDE9016660
:102B00000096C4F20200016841F080510160006843
:102B1000022100F08050009000980096286861F330
:102B20008F302860286800F4404000900098012011
:102B3000099010200A90204606910C96FDF7EEFFB2
:102B400010B172B6FEE700BF0F20CDE9010601A863
:102B50000021CDE903660596FDF7D2FE10B172B6ED
:102B6000FEE700BFFFF75CFAFFF78EFAFFF7C4FA43
:102B7000FFF742FBFFF79EFBFFF7BCFB46F2E820A6
:102B8000C2F20000FEF786FA05F5CA34204602219B
:102B90000022FDF7EFFD204604210022FDF7EAFDAB
:102BA00020464FF480610022FDF7E4FDFFF7C8FBEB
:102BB000FCE700002DE9F04744F20049C4F20009A7
:102BC0004846FFF7D9FEC6B2052E4FF0000503D2E6
:102BD0002846BDE8F08700BF4FF0FF3800270024EB
:102BE00006E000BF0125FB240137F8B2B0422BD22A
:102BF0004846FFF785FE2906C1B208BFFB29F1D080
:102C000058FA85F2032AEFD8DFE802F0020A10141E
:102C1000C81EB0FA80F040090C444500E4E700BF4C
:102C200000250C44912908BF0325DDE70C44042549
:102C30008246D9E7E0B2884204D15FFA8AF038B11F
:102C4000022809D00025CFE70020BDE8F08700BFAB
:102C500002252846BDE8F0870120BDE8F087000086
:102C60002DE9F04744F20049C4F200094846FFF755
:102C700083FEC6B2052E4FF0000503D22846BDE8FC
:102C8000F08700BF4FF0FF380027002406E000BFA8
:102C90000125FB240137F8B2B0422BD24846FFF79A
:102CA0002FFE2906C1B208BFFB29F1D058FA85F2E0
:102CB000032AEFD8DFE802F0020A1014C81EB0FAA7
:102CC00080F040090C444500E4E700BF00250C44B7
:102CD000922908BF0325DDE70C4404258246D9E785
:102CE000E0B2884204D15FFA8AF038B1012809D0F5
:102CF0000025CFE70020BDE8F08700BF0225284669
:102D0000BDE8F0870120BDE8F0870000B0B544F2CF
:102D10000045C4F2000504462846FFF761FD46F26F
:102D20005141C2F20001FA2008709220A4F174030C
:102D30004C70887028460422CB70BDE8B040FFF785
:102D400059BEF1EE100A4FF6FF71C0F2C03120EA11
:102D5000010040F04070E1EE100A704700000000F2
:102D6000000000000102030406070809000000003B
:102D700001020304982D0008000000201800000044
:102D8000D0010008B02D000818000020806A000063
:102D9000EC0100080000000001000000100000002D
:102DA0000024F400640000000100000000000000A6
:040000050800019559
:00000001FF
