:020000040800F2
:10000000986B002035020008013600080531000811
:10001000FD3500081D0500086D3D000800000000CA
:100020000000000000000000000000000936000889
:10003000A50D00080000000005360008D1360008B4
:100040004F0200084F0200084F0200084F0200084C
:100050004F0200084F0200084F0200084F0200083C
:100060004F0200084F0200084F0200084F0200082C
:100070004F0200084F0200084F0200084F0200081C
:100080004F0200084F0200084F0200080000000065
:100090000000000000000000000000004F02000807
:1000A0004F0200084F0200084F0200084F020008EC
:1000B000E93600084F0200084F0200084F0200080E
:1000C0004F0200084F0200084F0200084F020008CC
:1000D0004F020008F5390008153A0008000000003A
:1000E0004F0200084F0200084F0200080000000005
:1000F0000000000000000000000000004F020008A7
:10010000000000004F020008F53600084F0200080A
:1001100000000000000000000000000000000000DF
:100120004F0200084F0200084F0200084F0200086B
:100130004F02000800000000000000000000000066
:100140000000000000000000000000004F02000856
:100150004F0200084F0200084F020008353A00081D
:100160004F0200084F0200080000000000000000DD
:10017000000000000000000000000000000000007F
:10018000000000004F020008000000000000000016
:100190004F02000800F002F800F03CF80AA090E8D6
:1001A000000C82448344AAF10107DA4501D100F032
:1001B00031F8AFF2090EBAE80F0013F0010F18BFC3
:1001C000FB1A43F001031847304100005041000082
:1001D000103A24BF78C878C1FAD8520724BF30C873
:1001E00030C144BF04680C60704700000023002445
:1001F00000250026103A28BF78C1FBD8520728BF37
:1002000030C148BF0B6070471FB504F04BF81FBDED
:1002100010B510BD00F047F91146FFF7F5FF03F0E8
:1002200045FE00F065F903B4FFF7F2FF03BC00F0F0
:100230006DF900000948804709480047FEE7FEE7DE
:10024000FEE7FEE7FEE7FEE7FEE7FEE7FEE7FEE786
:1002500004480549054A064B70470000D53600089A
:100260009501000898650020986B00209867002091
:100270009867002053EA020C00F069802DE9F04BEA
:100280004FF00006002B1FBFB3FA83F503FA05F405
:1002900024FA05F65E4012BF1643B2FA82F502FA5E
:1002A00005F4C5F120051EBF22FA05FC44EA0C0442
:1002B000203556EA044C4FEA144418BF641C4FF032
:1002C00000084FF00009904271EB030C39D300296C
:1002D00019BFB1FA81F701FA07F6B0FA80F700FA10
:1002E00007F6C7F120071EBF20FA07FC46EA0C06F6
:1002F0002037B6FBF4FCA7EB0507103F07F01F0BF8
:10030000CBF120062CFA06F60CFA0BFB44BFB346E1
:100310000026202FA4BF5E464FF0000B5BEA060CC0
:1003200008BF4FF0010B19EB0B0948EB0608ABFBBC
:10033000027C06FB02CC0BFB03CCC01B71EB0C0157
:10034000C1E70B46024641464846BDE8F08B13B56F
:10035000084318BF4FF0FF300146AFF30080BDE8FF
:100360001C407047032A40F2308010F0030C00F06C
:10037000158011F8013BBCF1020F624498BF11F8DF
:1003800001CB00F8013B38BF11F8013BA2F1040298
:1003900098BF00F801CB38BF00F8013B11F0030310
:1003A00000F04F80083AC0F0088051F8043B083A4A
:1003B00051F804CBA0E80810F5E7121D5CBF51F816
:1003C000043B40F8043BAFF30080D20724BF11F890
:1003D000013B11F801CB48BF11F8012B24BF00F8F5
:1003E000013B00F801CB48BF00F8012B70474FF0EC
:1003F000000200B5134694469646203922BFA0E875
:100400000C50A0E80C50B1F12001BFF4F7AF090780
:1004100028BFA0E80C5048BF0CC05DF804EB890071
:1004200028BF40F8042B08BF704748BF20F8022BB4
:1004300011F0804F18BF00F8012B704770477047CC
:10044000704710B5203AC0F00B80B1E81850A0E812
:100450001850B1E81850A0E81850203ABFF4F5AF92
:100460005FEA027C24BFB1E81850A0E8185044BFEE
:1004700018C918C0BDE810405FEA827C24BF51F85B
:10048000043B40F8043B08BF7047D20728BF31F84F
:10049000023B48BF11F8012B28BF20F8023B48BFA0
:1004A00000F8012B7047754600F02CF8AE460500A9
:1004B0006946534620F00700854618B020B5FFF77F
:1004C000C7FEBDE820404FF000064FF000074FF098
:1004D00000084FF0000BAC46ACE8C009ACE8C0091E
:1004E000ACE8C009ACE8C00921F007018D467047AF
:1004F00010B50446AFF300802046BDE81040FFF77A
:1005000092BE0000004870472800002001491820D2
:10051000ABBEFEE72600020070470000FEE70000C9
:1005200080B540F2A401C2F20001002200280A8135
:10053000086108BF80BD03F0BBFA00F0D1FA0A20C1
:10054000BDE8804000F02CBF2DE9F04FA3B040F291
:10055000A409C2F20009D9F81000002800F078823E
:1005600003F072FB002800F0738246F2C8484FF097
:10057000000A0226C2F2000809E000BF89F802A0C2
:10058000D9F8100003F060FB002800F06182D9F870
:10059000100003F01DFB002800F15A8299F80210A8
:1005A0000529EBD8DFE801F0040C1218263600BF4D
:1005B000C0B2A52804BF012089F80200E0E700BF0F
:1005C00089F8030089F80260DAE700BF89F80400BF
:1005D000032089F80200D3E7010689F8050089F8AD
:1005E00006A013D0C0B28028C8D8042089F8020021
:1005F000C6E700BF99F8061099F805204B1CDFB23A
:10060000974289F8063008F80100B9D3052089F827
:100610000200B5E799F803C099F805E099F804B02D
:10062000BEF1000F8BEA0C0330D0AEF10107032FAF
:1006300004D200241EF003071AD127E00EF0FC07B5
:100640007F426FF0030400BF08EB04052A796E793E
:10065000A9795A40ED797240043451403A19043274
:1006600085EA0103F0D1043402261EF003070DD001
:1006700018F80450012F83EA050307D04444657835
:10068000022F83EA05031CBFA7787B40C0B2DBB210
:10069000834240F0898043F2B020C2F2000000683B
:1006A000ACF11000332800F27F80DFE810F0350055
:1006B000C9007D007D007D007D007D007D007D0006
:1006C0007D007D007D007D007D007D007D00DD00E2
:1006D000F5007D007D007D007D007D007D007D00BA
:1006E0007D007D007D007D007D007D007D007D0022
:1006F0007D007D007D007D007D007D007D007D0012
:100700007D007D007D007D007D007D007D007D0001
:10071000FD000101430100BF02F07AFF012840F013
:10072000968099F805000528C0F0918098F804504B
:10073000B8F8004040F21C022946C2F20002B8F8A4
:100740000200002D18BF0121148040F22602C2F2DF
:100750000002108040F22500C2F20000017043F256
:10076000B020C2F2000000680DF10602010A8DF807
:1007700006008DF80710010C000E8DF808108DF89A
:10078000090099F804100120ADF80A001220062390
:1007900003F0EEFAD9F8142012B1A0B2294690471E
:1007A00002F04AFFF0E000BF40F22500C2F2000074
:1007B0000078002800F0E880D9F81000002800F048
:1007C000E38040F22500C2F200000078002800F02B
:1007D000DB8043F2B020C2F20000046802F018FF90
:1007E000D9F81010002900F0CF80220E8DF80D20CE
:1007F0008BEA04028DF80E00504080EA142080EA53
:10080000144040F2A52580EA1460230C270AADF8B5
:100810000650052580F002008DF808B08DF80950CB
:100820008DF80A408DF80B708DF80C308DF80F00A4
:1008300008460DF106010A2203F044FAA4E000BFC5
:1008400002F0E6FE033810F1020F80F08F8040F2D4
:100850002500C2F200000078002800F0958099F889
:10086000040000F095F98FE0BEF1040F74D3D8F8BE
:10087000000000F013FD40F22501C2F200010978EA
:10088000002900F08180014699F80400002979D1FF
:1008900000F07EF978E000BFBEF1040F5CD3D8F819
:1008A000000000F013FD65E0012089F8000001E080
:1008B00089F8006040F22500C2F2000000780028AC
:1008C00062D0D9F8100000285ED040F22500C2F2B4
:1008D00000000078002857D043F2B020C2F2000098
:1008E000046802F095FED9F8101000294CD0220EB1
:1008F0008DF80D208BEA04028DF80E00504080EA3E
:10090000142040F2A51580EA1440230C270AADF804
:100910000650052580EA14608DF808B08DF809505E
:100920008DF80A408DF80B708DF80C3080F00100C6
:100930007CE700BFBEF1040F0ED3D8F80000C9F861
:100940000C00032089F8000040F22500C2F20000EC
:100950000078C8B1584615E040F22500C2F2000008
:10096000007888B1584600F013F90DE099F80500B9
:1009700002280FD240F22500C2F20000007818B120
:1009800099F8040000F068F889F802A0A9F805A019
:10099000F6E500BF0022002105E000BF56FA81F213
:1009A0008242CAB2E6D84B1CDBB218F803308F1C67
:1009B00053FA87F18142DDD818F80220551E042D24
:1009C000ECD8FAB2DFE805F004101C28340000BFB0
:1009D000022B4FF00206E1D138F8022040F2260344
:1009E000C2F200031A80D9E7022B4FF00206D5D1DC
:1009F00038F8022040F21C03C2F200031A80CDE74F
:100A0000042B4FF00206C9D158F8022040F210031F
:100A1000C2F200031A60C1E7042B4FF00206BDD1F9
:100A200058F8022040F20C03C2F200031A60B5E746
:100A3000012B4FF00206B1D118F8022040F2080352
:100A4000C2F20003002A18BF01221A70A6E700BFF5
:100A500023B0BDE8F08F000070B5A2B040F2A4064C
:100A6000C2F200063169C9B3044640F22500C2F261
:100A70000000007890B343F2B020C2F20000056895
:100A800002F0C6FD32694AB340F2A511ADF802107A
:100A900005218DF8051085EA040181EA152181EA16
:100AA000154181EA15618DF80A00484080F0010087
:100AB0004FEA156C2B0C2E0A8DF80B000DF102017C
:100AC00010460A228DF804408DF806508DF8076014
:100AD0008DF808308DF809C003F0F4F822B070BD2D
:100AE0002DE9F043A3B040F2A406C2F2000630693B
:100AF000002849D002F08CFD044643F2B020C2F237
:100B000000000568002C14BF002002F07FFDB6F83D
:100B100008C0B6F808E03189013131817178326955
:100B20004B1C737082B341F2A5364FEA1E23ADF819
:100B3000066008268DF809601B065FFA8CF643EA0A
:100B4000064343EA00234FEA15284FEA1549234498
:100B50002F0ECDF80E3088EA09037B406B4083EA04
:100B60000C0383EA1E238DF8081059406140484069
:100B700080F013008DF812000DF1060110460D22D1
:100B8000CDF80A5003F09EF823B0BDE8F0830000D2
:100B900070B5A2B040F2A406C2F200063169C9B332
:100BA000044640F22500C2F20000007890B343F200
:100BB000B020C2F20000056802F02AFD32694AB393
:100BC00040F2A521ADF8021005218DF8051085EA47
:100BD000040181EA152181EA154181EA15618DF848
:100BE0000A00484080F002004FEA156C2B0C2E0AD8
:100BF0008DF80B000DF1020110460A228DF8044019
:100C00008DF806508DF807608DF808308DF809C012
:100C100003F058F822B070BD2DE9F041A2B040F2C7
:100C2000A408C2F20008D8F8100000287BD043F2D4
:100C3000B020C2F20000076800F0BAF8044600F0E5
:100C4000BFF846F24C51C2F200010E68054602F0B0
:100C5000DFFC014698F80120D8F81000531C00284A
:100C600088F801305FD08DF804207A4082EA17229C
:100C700082EA174282EA17628DF80A10514040F268
:100C8000A5336140ADF80230152381EA14218DF8B7
:100C900005303B0A81EA14418DF807303B0C81EAAC
:100CA00014618DF808303B0E69408DF80930230A35
:100CB00081EA15218DF80C30230C81EA15418DF85D
:100CC0000D30230E81EA15618DF80E302B0A71402C
:100CD0008DF810302B0C81EA16218DF811302B0E77
:100CE00081EA16418DF81230330A81EA16618DF8D7
:100CF0001430330C002281F003018DF81530330ECF
:100D0000CDF817208DF81B100DF102011A228DF875
:100D100016308DF806708DF80B408DF80F508DF859
:100D2000136002F0CFFF22B0BDE8F081B0B543F20E
:100D3000B020C2F20000046840F21C00C2F20000C1
:100D4000008840F2A405C2F2000500EB80010028F3
:100D5000A8694FEA4101A4EB000008BF41F28831C5
:100D6000884202D3AC61FFF7BBFE02F051FC0438AD
:100D700010F1020F0ED340F22600C2F200000088EC
:100D8000002808BFB0BDE96900EB8000611AB1EB33
:100D9000400F01D2B0BD00BFEC61BDE8B040FFF72D
:100DA0003BBF00007047000072B600BFFEE70000C6
:100DB00040F2CC00C2F20000D0F8D400704700002E
:100DC00040F2CC00C2F20000D0F8D800704700001A
:100DD00080B500F0D3FB40F2CC01C2F20001B1F8C3
:100DE000D02001EB82029060B1F8D00048F21F528F
:100DF0000130C5F2EB12A0FB02231A09322302FBD9
:100E00001300A1F8D000B1F8D200312804D8B1F80D
:100E1000D2000130A1F8D200086842F6BC7C013053
:100E20000860486841F26F730130486051F80C2047
:100E30009A4211D84FF43F528A584FF6FA739A42A9
:100E400051F80C3088BF6FF00402581C41F80C00B8
:100E500001EB4300A0F8DC204FF43F5000220A5081
:100E600080BD000040F2CC00C2F200004FF43F51C0
:100E700042580132425041584FF6FB72914238BFFE
:100E8000704742F6BC71425841F26F739A4208D8DB
:100E90004258531C435000EB42014FF6FB72A1F83D
:100EA000DC204FF43F510022425070472DE9F04FB3
:100EB0008BB040F2CC0972B6C2F20009B9F8D25038
:100EC000B9F8D04062B6002D00F0C18000F056FBAA
:100ED000611B48F21F523231C5F2EB1251FB02F294
:100EE000130903EBD272322302FB131164381FFA89
:100EF00081F8691E0590032905F003000490CDE9EF
:100F0000028509D2DDF814C048F21F5A00270022DA
:100F1000C5F2EB1A5AE000BF25F0030009EB880286
:100F20000A9002F11000099002F10C00089002F101
:100F30001400DDF814C048F21F5A08F1020308F14A
:100F40000101079008F1030502F1080000276FF086
:100F5000C7090022C5F2EB1A069000BFA3FB0ABE28
:100F6000A1FB0A64A5FB0A6BA8FB0A60069E0009A8
:100F700000FB0960240950F82700089E604504FB27
:100F8000096403F1040354F8270028BF0132099EC5
:100F900060454FEA1E1000FB0960079C4FEA1B16D4
:100FA00006FB094650F8270028BF0132604556F875
:100FB000270028BF0132604528BF01320A98043754
:100FC00004310435B84208F10408C7D104995446E5
:100FD000DDF808A040F2CC09C2F20009A1B30AEB87
:100FE000070EAEFB04373F09322307FB13E709EB7B
:100FF0008707BF68674528BF0132012924D048F21E
:101000001F500EF10107C5F2EB10A7FB00652E097A
:1010100006FB137348F21F5409EB83039B68C5F268
:10102000EB14634528BF013202290DD00EF10201F5
:10103000A1FB04373B09322703FB171109EB8101A0
:101040008968614528BF013290B2022806D200208B
:10105000C9F8D4000BB0BDE8F08F00BF039A012A95
:1010600098BF0122511E032902F00301CDE90010AF
:1010700006D24FF0FF3E00264FF000098CE000BF83
:1010800022F0030009EB8A01089001F1100007909B
:1010900001F10C00069001F114000AF1020B0AF1B3
:1010A000010304900AF1030801F108004FF0FF3E2C
:1010B00000264FF000090390ABFB04100990A3FB3E
:1010C0000410A8FB04C10A91AAFB0417039A39096A
:1010D0006FF0C70701FB0721DDF814C051F8261097
:1010E0007446714538BF0C4649454D4688BF0D468C
:1010F000614506994FEA101000FB071038BF4D46B6
:1011000050F8260038BF7446A042224638BF024637
:10111000A8422F4688BF07466045099807994FEABD
:1011200010106FF0C70E00FB0E1038BF2F4650F89E
:10113000260038BF22469042114638BF0146B842C9
:101140003D4688BF054660450A98049C4FEA10104A
:1011500000FB0E4038BF3D4650F8260038BF114610
:1011600088428E46A94638BF8646A84288BF814637
:10117000604538BFA94638BF8E46089848F21F54CC
:101180000436C5F2EB140BF1040B043308F1040828
:10119000B0420AF1040A8FD1009D002D49D0029877
:1011A00073468119A1FB04021009322200FB1210C0
:1011B00040F2CC06C2F2000606EB800080684F4683
:1011C000704538BF0346484588BF0746604524BF81
:1011D000B9469E46012D2CD0481CA0FB04373B0984
:1011E00003FB1200724606EB800080684B46704598
:1011F00038BF0246484588BF0346604524BF99462C
:101200009646022D15D0881CA0FB0412110932222B
:1012100001FB1200714606EB800080684A4670456B
:1012200038BF0146484588BF0246604524BF914605
:101230008E4601994FF47A70484344F6D711A0F5D1
:101240007A70CBF25421A0FB0101080B4EF660210D
:10125000B9EB0E02A0FB01014FF0000308BF012211
:10126000FFF708F840F2CC09C2F20009C9F8D4002F
:101270000BB0BDE8F08F000040F2CC00C2F20000DD
:1012800041684FF47A72514344F6D712CBF254229C
:10129000A1FB0212110BC0F8D810704743F2900C5A
:1012A000C2F2000CBCF81C12BCF81E325A1C02F030
:1012B0007F028A4204BF002070470CEB8301C861A3
:1012C0000120BFF35F8FACF81E22704743F29000FD
:1012D000C2F20000002172B6A0F81C12A0F81E1283
:1012E000A0F81E1262B601207047000070B5866D2E
:1012F000044600F043F994F83510022928D1054638
:101300002068216C026822F016020260426922F015
:101310008002426109B9A16C19B1016821F008018C
:101320000160016821F00101016000BF20680068D0
:10133000C00715D000F022F9401B0628F6D3202064
:101340006065032084F83500002184F8341070BDF6
:10135000802060650120002184F8341070BD00BF3A
:10136000E06D3F2101FA00F0B060012084F8350003
:101370000020002184F8341070BD000090F8351072
:10138000022909D1052180F835100068016821F093
:1013900001010160002070478021416501207047F4
:1013A000B0B5044600F0EAF8054640F20000C2F28B
:1013B00000000078611C18BF044400BF00F0DEF894
:1013C000401BA042FAD3B0BD2DE9F04F82B000F12E
:1013D0003E4241F2000502F1FF77C4F20205072206
:1013E00043F6004E4FEAB726A84208BF0422C4F2D3
:1013F000010E042E38BF4FEAB72201250026002730
:101400004FF00008009208E008F101080437B8F135
:10141000100F06F1020600F0A7800C6805FA08F923
:1014200014EA090FF0D0D1F804B003220BF0030C3A
:10143000ACF10104B240012C6FEA020A10D88268B4
:10144000CC6802EA0A02B440224382604268CBF3CD
:10145000001422EA090204FA08F42243426005E07B
:10146000BCF1030F02D14FF0030C20E0C2688C687E
:1014700002EA0A02B4402243BCF1020FC26016D154
:101480006FF0030202EA58020244D2F820C007F0CB
:101490001C050F230C69AB402CEA030304FA05F585
:1014A0002B431362D1F804B001250BF0030C026842
:1014B0000CFA06F302EA0A021A431BF4403F0260E8
:1014C000A2D0002243F644030192C4F202031A6838
:1014D0004FF6084C42F480421A601A68CFF6FF7C3F
:1014E00002F480420192019A28F00302724452F8F9
:1014F0000C3007F00C050F24AC40A343009C04FA09
:1015000005F52B4342F80C30DEF808204B6842EA20
:10151000090543F60C4CDC0258BF22EA0905CEF857
:101520000850C4F2010CDCF800209C0242EA0905D4
:1015300058BF22EA0905CCF80050DEF804209C03CD
:1015400042EA090558BF22EA0905CEF80450DEF840
:101550000020DB0342EA090558BF22EA0905CEF85C
:101560000050012550E700BF02B0BDE8F08F000039
:10157000002A08BF090481617047000046F29450B8
:10158000C2F200000068704740F2000046F2945139
:10159000C2F20000C2F2000100780A68104408603C
:1015A0007047000080B543F60040C4F202000168B5
:1015B00041F400710160016841F4806101600168DB
:1015C00041F480710160032000F088F80F2000F0E2
:1015D00005F800F027F8002080BD000070B540F24B
:1015E0000006C2F2000640F214013278C2F2000195
:1015F0004FF47A730968B3FBF2F20446B1FBF2F1DF
:10160000084600F043FB0F2C4FF0010508D838B90D
:101610004FF0FF3021460022002500F033F87460BF
:10162000284670BD82B0002043F640010190C4F20C
:1016300002014A6842F480424A604A6802F48042E9
:101640000192019A0090086840F080500860086894
:1016500000F080500090009802B07047002848BF0A
:101660007047C1B200F01F00012202FA00F04EF2F2
:101670000012CEF2000242EAD10121F0030108601B
:101680007047000010B54EF60C5CCEF2000CDCF892
:101690000030C3F3022E8EF00704042C28BF04246C
:1016A000BEF103034FF0FF3E0EFA04F438BF0023EF
:1016B000A14399400EFA03F39A43114300F00F023D
:1016C00000F160430901043A03F5644362440028D1
:1016D00048BF02F10C03197010BD00004EF60C510A
:1016E000CEF200010A684FF6FF031A4060F30A22A7
:1016F00042F0806040F0FD70086070472DE9F041D5
:10170000002800F08B8043F60808C4F20208044663
:10171000D8F8F8030D4600F00700884207D288F891
:10172000F853D8F8F80300F00700A84276D12068F3
:10173000810717D5410705D5D8F8001041F4E051CD
:10174000C8F80010010705D5D8F8001041F4604131
:10175000C8F80010D8F80010A26821F0F001114379
:10176000C8F80010C0073FD1D8F8F80300F0070010
:10177000A84207D988F8F853D8F8F80300F0070012
:10178000A8424BD12068410707D5D8F80010E2687D
:1017900021F4E0511143C8F80010000708D5D8F82B
:1017A0000000216920F4604040EAC100C8F8000050
:1017B00000F07CF8D8F8001044F2BE22C1F3031107
:1017C000C0F60002515C40F2140220FA01F140F22E
:1017D0000400C2F200000068C2F200021160FFF7CC
:1017E000FDFE0020BDE8F0816068811E022907D25D
:1017F00058F8081C89015CBF0120BDE8F08111E0A8
:10180000012807D158F8081C89035CBF0120BDE8F6
:10181000F08107E058F8081C890703D40120BDE8CF
:10182000F08100BFD8F8001021F003010843C8F888
:101830000000FFF7A3FE064641F28837D8F8000003
:10184000616800F00C00B0EB810F8DD0FFF796FEC1
:10185000801BB842F2D90320BDE8F08140F21400A9
:1018600043F60801C2F20000C4F2020100680968F0
:1018700044F2CE22C1F38221C0F60002515CC8407E
:101880007047000040F2140043F60801C2F2000065
:10189000C4F202010068096844F2CE22C1F3423169
:1018A000C0F60002515CC8407047000010B543F616
:1018B0000404C4F20204606800F00C0008280BD095
:1018C000042819BF42F20040C0F2F40047F640007D
:1018D000C0F27D1010BD00BF206821682368490256
:1018E00047F64001C0F27D1100F03F02C3F38810BB
:1018F0005CBF42F20041C0F2F401A1FB00010023F1
:10190000FEF7B8FC21680222C1F3014102EB41015C
:10191000B0FBF1F010BD00002DE9F04182B00028CD
:1019200068D00446007843F60006C007C4F20206F9
:101930000BD0B06800F00C00042840F09F803068A5
:10194000800302D56068002854D0207880071AD51B
:10195000B06810F00C0F09D0B06800F00C00082837
:1019600040F0A6807068400200F1A28030688007D5
:1019700002D5E06801283DD13068216920F0F800E7
:1019800040EAC10030602078000737D42078400753
:101990004CD4A56955B3B06800F00C00082840F09D
:1019A000BB80012D26D07068E16900F480028A4274
:1019B00020D1216A00F03F028A421BD147F6C07154
:1019C000626A0140B1EB821F14D1A16A4FF6FF7326
:1019D000C903994300F44032A1F580318A4209D10C
:1019E000E16A00F07060B0EB016F03D1002002B03B
:1019F000BDE8F081012002B0BDE8F08160690028F7
:101A000040F20000C4F2472076D00121C0F8801EC9
:101A1000FFF7B4FD054600BF706F8007B6D4FFF72F
:101A2000ADFD401B0228F7D9DDE000BF306C10F09F
:101A300080580AD100200190306C40F08050306412
:101A4000306C00F080500190019847F20007C4F21A
:101A500000073868C00541D4386840F480703860A9
:101A6000FFF78CFD054600BF3868C00536D4FFF788
:101A700085FD401B0228F7D9B5E000BFB06800F033
:101A80000C00082803D1706840023FF558AF606829
:101A9000B0F5803F07D0B0F5A02F40F08D803068C2
:101AA00040F480203060306840F4803030608DE059
:101AB000E068002852D00020C4F2472001210160D4
:101AC000FFF75CFD054600BF306880073FF554AF67
:101AD000FFF754FD401B0228F6D984E0A0680128D6
:101AE00005D005284ED1306F40F004003067306FCC
:101AF00040F0010030674FE00021C0F8801EFFF782
:101B00003DFD0546706F80077FF540AFFFF736FD5E
:101B1000401B0228F6D966E00027C4F247270020C0
:101B20003866FFF72BFD022D05460BD1306880018A
:101B30005ED5FFF723FD401B02284FF00300F5D9C7
:101B400055E700BF306880017FF550AFFFF716FD05
:101B5000401B02284FF00300F4D948E70020C4F2EC
:101B6000472000210160FFF709FD05463068800726
:101B70007FF509AFFFF702FD401B02284FF003007D
:101B8000F4D934E7316F002821F001013167316F5A
:101B900021F0040131674DD0FFF7F0FC054641F21A
:101BA000883700BF306F800756D4FFF7E7FC401B33
:101BB000B842F7D917E000BF3168002821F480311E
:101BC0003160316821F4802131604FD0FFF7D6FCBD
:101BD000054600BF306880033FF5B7AEFFF7CEFC87
:101BE000401B6428F6D9032002B0BDE8F08100BF95
:101BF00004F11C052FCD084340EA8210D9034FF6AB
:101C0000FF729143A1F5803140EA0560084370609E
:101C100001203866FFF7B2FC044600BF306880013F
:101C20003FF5E4AEFFF7AAFC001B02284FF00300CB
:101C3000F4D9DCE6FFF7A2FC054641F2883700BF85
:101C4000306F800708D5FFF799FC401BB8424FF072
:101C50000300F5D9CBE600BFB8F1000F7FF499AED1
:101C6000306C20F08050306493E600BFFFF786FCB4
:101C7000054600BF306880037FF567AEFFF77EFC46
:101C8000401B64284FF00300F4D9B0E6411E002049
:101C9000B0EB116F1CBF012070474EF21002CEF264
:101CA000000251604EF62351CEF20001F0230B707A
:101CB0000721906011607047704700007047000076
:101CC00010B590F83C20012A4FF002023ED080F877
:101CD0003D200268D2F804E0D2F808C00C682EF06B
:101CE0007003234340F6FF34C4F20004A242536061
:101CF00010DCB2F1804F1ED040F20043C4F200036A
:101D00009A4218D040F60003C4F200039A4212D05F
:101D100016E000BF40F60043C4F200039A420AD026
:101D200044F20003C4F201039A4204D00023C4F237
:101D300001039A4204D149682CF080031943916051
:101D40000121002280F83D1080F83C20104610BD93
:101D5000002804BF0120704710B5044690F83D00EC
:101D600028B9002084F83C00204600F01FF802202B
:101D700084F83D002068211D01F0C2FC012084F898
:101D8000460084F83E0084F83F0084F8400084F860
:101D9000410084F8420084F8430084F8440084F849
:101DA000450084F83D00002010BD000080B586B0DD
:101DB000006840F60041C4F20001884222D040F29F
:101DC0000041C4F20001884250D0B0F1804F4AD1A6
:101DD0000020019043F64000C4F202000168002296
:101DE00041F0010101600068002100F00100019054
:101DF00001981C20FFF746FC1C2006B0BDE880407F
:101E0000FFF72CBC002043F640010190C4F2020110
:101E10000A6842F008020A600A6802F008020192A9
:101E2000019A019051F8102C42F0010241F8102C57
:101E300051F8101C01F0010101910199012101915A
:101E40000221CDE90210CDE904010020C4F2020014
:101E500001A9FFF7B9FA322000210022FFF712FC96
:101E60003220FFF7FBFB06B080BD00BF00200190D1
:101E700043F64000C4F20200016841F00201016033
:101E8000006800F002000190019806B080BD0000DB
:101E900090F83D1001291CBF01207047022180F8F5
:101EA0003D10006840F6FF32C168C4F20002904263
:101EB00041F00101C1600FDCB0F1804F1DD040F254
:101EC0000041C4F20001884217D040F60001C4F27C
:101ED0000001884211D017E040F60041C4F2000131
:101EE00088420AD044F20001C4F20101884204D0C1
:101EF0000021C4F20101884206D1816801F0070186
:101F0000062904BF00207047016841F0010101600B
:101F10000020704780B590F83C20012A4FF0020263
:101F200000F0C28080F83D20D0F800C04FF67772F4
:101F3000DCF8083023EA0202CCF808200B684F2BAB
:101F400028DC1F2B44DD202B45D0302B43D0402BE9
:101F500040F0AC80D1F804E0C968DCF82030DCF84F
:101F6000202022F00102CCF82020DCF8182022F0FA
:101F7000F00242EA011123F00A0242EA0E02CCF812
:101F80001810CCF82020DCF8081041F0470121F0AF
:101F9000300180E06F2B27DDB3F5005F48D0B3F54B
:101FA000805F7AD0702B40F08180D1E901E3C9686D
:101FB000DCF8082043EA0E0322F47F4243EA0121C1
:101FC0001143CCF80810DCF8081041F0770162E00A
:101FD0000BB1102B6AD1DCF8081021F07001194305
:101FE00041F0070157E000BF502B35D0602B5DD189
:101FF000D1F804E0C968DCF82030DCF8202022F0B9
:102000001002CCF82020DCF8182022F4704242EABA
:10201000013123F0A00242EA0E12CCF81810CCF8DD
:102020002020DCF8081041F0670121F0100132E0B7
:10203000D1E901E3C968DCF8082043EA0E0322F481
:102040007F4243EA01211143CCF80810DCF8081064
:1020500041F480411FE000BFD1F804E0C968DCF81A
:102060002030DCF8202022F00102CCF82020DCF81F
:10207000182022F0F00242EA011123F00A0242EA9B
:102080000E02CCF81810CCF82020DCF8081041F033
:10209000570121F02001CCF808100022012180F81E
:1020A0003D10002180F83C10104680BD0122F5E76C
:1020B000016840F60042C4F20002914218BF704726
:1020C000007F012808BFFEF783BE7047F0B590F887
:1020D0003C30012B04BF0220F0BD4FEAB202032ABC
:1020E0002CD8DFE802F003314F6F00BF0368D1E95D
:1020F00000C5D1F80CE01C6A1A6A40F6FF3722F0DE
:1021000001021A621A4652F8186FC4F20007BB4265
:1021100000F37E80B3F1804F00F08B8040F20047E7
:10212000C4F20007BB4200F0848040F60007C4F20E
:102130000007BB4200F07D8096E000BF0121002235
:1021400080F83C200846F0BD0368D1E900E6D1E9FB
:1021500002C11C6A1A6A360222F010021A621A467A
:1021600052F8185F4FF2FF07BE4325F4734561F341
:102170000F3624F0A0040EF00A0746EA050144EAEF
:1021800007173CE00768D1E900C5D1E902313C6A94
:102190003A6A61F3071522F480723A623A4652F8BD
:1021A0001C6F26F0F30645EA060124F420660CF0C5
:1021B0000A0546EA052611603E62116821F00C010D
:1021C000116047E00368D1E900E6D1E902C11C6A69
:1021D0001A6A360222F480521A621A4652F81C5FBA
:1021E0004FF2FF07BE4325F4734561F30F3624F425
:1021F00020440EF00A0746EA050144EA0737116059
:102200001F6211684FEA0C2321F44061116021E044
:1022100040F60047C4F20007BB420AD044F2000770
:10222000C4F20107BB4204D00027C4F20107BB423D
:102230001AD126F00306354324F00A070CF00A06EB
:102240006EF3071537449D611F629F6927F00C07E5
:102250009F618B681168194311600021002280F88A
:102260003C200846F0BD00BF46F00105E4E7000051
:10227000002804BF0120704710B5044690F83D00C7
:1022800028B9002084F83C00204600F01FF8022006
:1022900084F83D002068211D01F032FA012084F805
:1022A000460084F83E0084F83F0084F8400084F83B
:1022B000410084F8420084F8430084F8440084F824
:1022C000450084F83D00002010BD0000704700006C
:1022D00051B308290AD0042919BF00F1410200F1C5
:1022E000450300F13F0200F1430303E000F1400227
:1022F00000F1440312781B78012A4FF0010208BF55
:10230000012B01D0104670470222082922D004294F
:102310002CD180F83F2080F843204FEAB103032BF3
:102320004FF00102EED82BE090F83E2090F84230BA
:10233000012A4FF0010208BF012BE3D1022280F8ED
:102340003E2080F842204FEAB103032B4FF00102F8
:10235000D8D815E080F8402080F844204FEAB10337
:10236000032B4FF00102CDD80AE000BF80F84120D6
:1023700080F845204FEAB103032B4FF00102C1D88A
:1023800044F2D82C0068C0F6000C5CF823C0C36887
:1023900001F01F0143EA0C03C360036A02FA01F172
:1023A00023EA01020262026A114340F6FF32C4F2DC
:1023B0000002904201620FDCB0F1804F1DD040F26C
:1023C0000041C4F20001884217D040F60001C4F277
:1023D0000001884211D017E040F60041C4F200012C
:1023E00088420AD044F20001C4F20101884204D0BC
:1023F0000021C4F20101884206D1816801F0070181
:10240000062904BF002070470168002241F0010145
:10241000016010467047000070B504460068C5684A
:102420000669B10716D515F0020113D06FF002014D
:102430000161012121778069800703D02046FFF7E1
:1024400037FE05E0204600F08FF8204600F0C0F986
:1024500000202077700719D515F0040016D02068E9
:102460006FF00401016102212177806910F4407F3F
:1024700004D02046FFF71CFE06E000BF204600F017
:1024800073F8204600F0A4F900202077300717D514
:1024900015F0080014D020686FF0080101610421D4
:1024A0002177C069800703D02046FFF701FE05E0D1
:1024B000204600F059F8204600F08AF900202077E5
:1024C000F00619D515F0100016D020686FF0100135
:1024D000016108212177C06910F4407F04D02046B3
:1024E000FFF7E6FD06E000BF204600F03DF820467D
:1024F00000F06EF900202077F00718BF15F00100FA
:1025000002D1300609D412E020686FF001010161A8
:10251000204600F0D9F9300609D515F0800006D024
:1025200020686FF0800101612046FFF7C5FB70064F
:1025300009D515F0400006D020686FF04001016118
:10254000204600F02FFAB00658BF70BD15F02000ED
:1025500008D021686FF0200220460A61BDE8704073
:10256000FFF7ACBB70BD0000704700002DE9F043E1
:1025700090F83C30012B04BF0220BDE8F0834FEA05
:10258000B202032A3AD8DFE802F003417DB900BF66
:10259000036800261D6A1A6AC4F2010622F00102CD
:1025A0001A621A465C6852F818CFB3428E68D1F8A6
:1025B00000E025F0020545EA06050CD1CE68D1E918
:1025C000057824F4407425F00C0526F004063C43FD
:1025D000354344EA08042CF0730747EA0E075C60B1
:1025E0009F614F6809695F631D629F6947F0080733
:1025F0009F619F6927F004079F61AEE001210022DF
:1026000080F83C200846BDE8F08300BF0368002640
:102610001D6A1A6AC4F2010622F010021A621A46F2
:10262000D3F804C052F8184FB3428E68D1F800E0D6
:1026300025F0200545EA061510D1CE68D1E90587B9
:1026400025F0C0096FF0400505EA06152CF4406638
:1026500047EA080745EA090546EA870C24F4E644F8
:1026600044EA0E27C3F804C09F614F6809699F635D
:102670001D629F6947F400679F619F6927F4806727
:102680009F6169E0036800261D6A1A6AC4F20106A8
:1026900022F480721A621A46D3F804C052F81CEF72
:1026A000B3428E680C6825F4007545EA062511D101
:1026B000CE68D1E9058725F44069360240F2FF452E
:1026C00026EA05052CF4405647EA080745EA0905BD
:1026D00046EA071C2EF073072743C3F804C0DF61E6
:1026E0004F680969DF631D62DF6947F00807DF6132
:1026F000DF6927F00407DF612FE000BF03680027D0
:10270000D3F820C01A6AC4F2010722F480521A6278
:102710001A465C6852F81C5FD1F800E08E68BB4234
:1027200004D14F6924F4804444EA87142CF4005700
:1027300047EA063725F4E64646EA0E265C60DE6187
:102740004E6809691E641F62DF6947F40067DF6134
:10275000DF6927F48067DF6109021368194311609C
:102760000021002280F83C200846BDE8F0830000EC
:10277000002804BF0120704710B5044690F83D00C2
:1027800028B9002084F83C00204600F01FF8022001
:1027900084F83D002068211D00F0B2FF012084F87C
:1027A000460084F83E0084F83F0084F8400084F836
:1027B000410084F8420084F8430084F8440084F81F
:1027C000450084F83D00002010BD00007047000067
:1027D0007047000041B1082910D0042914BF00F14E
:1027E000410200F13F020BE090F83E20012A1CBF9D
:1027F00001207047022280F83E2013E000F14002E1
:102800001278012A1CBF012070470222082907D034
:10281000042914BF80F8412080F83F2002E000BF67
:1028200080F84020006801F01F010122036A8A40FD
:1028300023EA02010162036A4421C4F201011A433E
:10284000A1F144039842026216D040F6FF31C4F26F
:10285000000188421ADCB0F1804F28D040F20041DC
:10286000C4F20001884222D040F60001C4F2000107
:1028700088421CD022E000BF0A6842F400420A608D
:1028800040F6FF31C4F200018842E4DD40F6004129
:10289000C4F2000188420AD044F20001C4F20101EE
:1028A000884204D00021C4F20101884206D1816827
:1028B00001F00701062904BF00207047016841F0BC
:1028C0000101016000207047B0B50068B0F1804F91
:1028D00018BFB0BD43F2B020C2F200000168013160
:1028E0000160FEF7BFFA40F20044C4F20204204641
:1028F0004FF4804101220125FEF73AFE20464FF4B5
:10290000804100220024FEF733FE40F29400C2F220
:1029100000000570457005714571816842F21072C2
:1029200001319142816024BF8460857081790131D9
:10293000CAB2642A817103D3002181710121C1705F
:1029400043F29001C2F200010A8940F220030132F1
:102950000A81C2F200031B6892B2934203D800229C
:102960000A8101224A6046F21431C2F200010A884B
:10297000013293B2B3F57A7F0A8007D300220A802E
:1029800040F28C01C2F2000101220A7040F22401DF
:10299000C2F200010978C268002918BF511CC16049
:1029A000B0BD000070470000704700007047000095
:1029B000B0B582B0044600680168C368426901F09E
:1029C0002F05202D03F0200506D12DB1204602B0A1
:1029D000BDE8B04000F016BF5FEA017C1EBF02F008
:1029E000010E03F4907212EB0E0253D1226B012AF6
:1029F00005D111F0100218BF13F0100236D10A06EB
:102A000022D513F080021FD094F8411021293FD124
:102A1000A168B1F5805F03D12169002900F08282AD
:102A2000216A4A1C226209784160E18C01390A045A
:102A3000E1842DD1C16821F08001C160C16841F0FD
:102A40004001C16002B0B0BD490621D513F040017C
:102A50001ED0C16821F04001C1602021204684F8C9
:102A6000411002B0BDE8B04000F04ABB0021019126
:102A7000016801914168019101994069400613D4B0
:102A8000A08DE18DE28D002A18BF884240F0CC81F4
:102A900002B0B0BDCA0718BF13F4807240F0BE8008
:102AA0004A0700F1C180C6E0E06B01684A68A38D67
:102AB00091B2002900F0A881994280F0A581E285B9
:102AC000C069B0F5807F00F09D80206850E8030F5A
:102AD000216820F4807041E80302DAB1206850E8F0
:102AE000030F216820F4807041E8030292B120684E
:102AF00050E8030F216820F4807041E803024AB1D6
:102B0000206850E8030F216820F4807041E8030238
:102B1000002ADAD1206850E8050F216820F0010072
:102B200041E80502BAB3206850E8050F216820F09B
:102B3000010041E8050272B3206850E8050F2168E2
:102B400020F0010041E805022AB3206850E8050F93
:102B5000216820F0010041E80502002ADAD11AE0DC
:102B6000206850E8050F216820F0400041E8050288
:102B7000DAB1206850E8050F216820F0400041E8F4
:102B8000050292B1206850E8050F216820F040004E
:102B900041E805024AB1206850E8050F216820F09D
:102BA000400041E80502002ADAD1202084F84200E2
:102BB00000202063206850E8030F216820F01000F7
:102BC00041E80302DAB1206850E8030F216820F0E1
:102BD000100041E8030292B1206850E8030F216819
:102BE00020F0100041E803024AB1206850E8030FCA
:102BF000216820F0100041E80302002ADAD1E06BDE
:102C0000FEF774FB02206063A08DE18D401A81B253
:102C1000204602B0BDE8B040FFF7C6BE626C42F08D
:102C2000010262644A0706D5BEF1000F03D0626C50
:102C300042F0020262648A0706D5BEF1000F03D09B
:102C4000626C42F004026264BCF1000F09D545EAEF
:102C50000E02B2FA82F2520903D1626C42F008020B
:102C60006264626C002A3FF413AF11F0200118BFB8
:102C7000002D03D0204600F0C5FD20684069616C3E
:102C800000F0400001F00801401800F0B58000BFDE
:102C9000206850E8030F216820F4907041E8030297
:102CA000BAB3206850E8030F216820F4907041E81F
:102CB000030272B3206850E8030F216820F490707B
:102CC00041E803022AB3206850E8030F216820F48A
:102CD000907041E80302002ADAD11AE0206850E837
:102CE000050F216820F0010041E80502DAB12068F3
:102CF00050E8050F216820F0010041E8050292B17B
:102D0000206850E8050F216820F0010041E8050225
:102D10004AB1206850E8050F216820F0010041E821
:102D20000502002ADAD1206B012824D1206850E85E
:102D3000030F216820F0100041E80302DAB1206897
:102D400050E8030F216820F0100041E8030292B11F
:102D5000206850E8030F216820F0100041E80302CA
:102D60004AB1206850E8030F216820F0100041E8C4
:102D70000302002ADAD1202084F8420000202063D8
:102D800020684069400649D5206850E8050F216851
:102D900020F0400041E80502DAB1206850E8050F54
:102DA000216820F0400041E8050292B1206850E817
:102DB000050F216820F0400041E805024AB1206873
:102DC00050E8050F216820F0400041E80502002A84
:102DD000DAD1E06B10B343F2F971C0F6000101657E
:102DE000FEF7CCFA00283FF453AEE06B016D02B061
:102DF000BDE8B040084700BF2046FFF7D7FD0020E0
:102E0000606402B0B0BD00BF8B427FF441AEC069C8
:102E1000B0F5807F7FF43CAE02227CE0204602B019
:102E2000BDE8B040FFF7C2BD401A216851E8031F5A
:102E3000226821F4907142E80313DBB1216851E864
:102E4000031F226821F4907142E8031393B12168B3
:102E500051E8031F226821F4907142E803134BB13B
:102E6000216851E8031F226821F4907142E803139E
:102E7000002BDAD1216851E8051F226821F00101F9
:102E800042E80513DBB1216851E8051F226821F0F3
:102E9000010142E8051393B1216851E8051F22683A
:102EA00021F0010142E805134BB1216851E8051FEB
:102EB000226821F0010142E80513002BDAD120211C
:102EC00084F8421000212163216851E8031F226821
:102ED00021F0100142E80313DBB1216851E8031F20
:102EE000226821F0100142E8031393B1216851E8F0
:102EF000031F226821F0100142E803134BB121683F
:102F000051E8031F226821F0100142E80313002B4F
:102F1000DAD1022281B22046626302B0BDE8B0403D
:102F2000FFF742BD216A31F8022B6FF35F22426046
:102F300021627AE5002804BF0120704710B50446DD
:102F400090F8410028B9002084F84000204600F0A5
:102F500021F8242084F841002068C16821F4005140
:102F6000C160204600F0CEFC2068016921F4904148
:102F70000161416921F02A014161C16841F40051B8
:102F8000C16000202021606484F8411084F8421060
:102F9000606310BD2DE9F04186B0006844F2004244
:102FA000C4F2000200219042CDE90411CDE90211E2
:102FB00001914BD041F20041C4F20101884267D037
:102FC00041F20001C4F20101884240F093800025E3
:102FD00043F630000095C4F202004169002441F03C
:102FE000100141614169C4F2020401F01001009135
:102FF0000099009501684FF0020841F0010101605D
:103000000168032701F00101009100990095016812
:10301000072641F002010160006801A900F00200EA
:10302000009000984FF4007001902046CDE9028591
:1030300004970596FEF7C8F98020CDE90108CDE98F
:103040000357059604F58060252448E043F63000D8
:103050000091C4F202000269262442F400320261A7
:10306000026902F400320092009A0091026842F074
:1030700001020260006800F00100009000980C203E
:1030800001900220CDE9020103200490072022E0F4
:10309000002043F630010090C4F202014A6947243F
:1030A00042F020024A614A6902F020020092009A2E
:1030B00000900A6842F001020A60096801F001010B
:1030C000009100994FF4C05101910221CDE9021005
:1030D00003200490082005900020C4F2020001A9FA
:1030E000FEF772F9204600210022FEF7CBFA2046B7
:1030F000FEF7B4FA06B0BDE8F081000070470000AA
:1031000070470000FEE7000040F2CC0C43F2900252
:10311000C2F2000C0021C2F2000246F2603072B628
:10312000CCF80010CCF80410ACF8D010ACF8D210E9
:10313000CCF8D410CCF8D8101160C2F200000068AE
:1031400040F20C03416342F6BC70516011814CF8AF
:1031500000104FF43F504CF8001040F21000C2F243
:103160000000C2F2000300681B68C2E90503116198
:1031700062B60023D0188033B3F5007FC1610162CD
:1031800041628162C162016341638163C163016421
:1031900041648164C164016541658165C165016601
:1031A00041668166C166016741678167C167C0F892
:1031B0008010C0F88410C0F88810C0F88C10C0F8D7
:1031C0009010C0F89410C0F89810D3D100204FF69A
:1031D000FC71A2F81C02A2F81E02D060CCF8081004
:1031E000CCF80C10CCF81010CCF81410CCF8181047
:1031F000CCF81C10CCF82010CCF82410CCF82810F7
:10320000CCF82C10CCF83010CCF83410CCF83810A6
:10321000CCF83C10CCF84010CCF84410CCF8481056
:10322000CCF84C10CCF85010CCF85410CCF8581006
:10323000CCF85C10CCF86010CCF86410CCF86810B6
:10324000CCF86C10CCF87010CCF87410CCF8781066
:10325000CCF87C10CCF88010CCF88410CCF8881016
:10326000CCF88C10CCF89010CCF89410CCF89810C6
:10327000CCF89C10CCF8A010CCF8A410CCF8A81076
:10328000CCF8AC10CCF8B010CCF8B410CCF8B81026
:10329000CCF8BC10CCF8C010CCF8C410CCF8C810D6
:1032A000CCF8CC107047000070B586B0002543F60E
:1032B000300005950095C4F20200016840F2004418
:1032C00041F0010101600168C4F2020401F0010152
:1032D0000091009900950168002241F0020101600F
:1032E000006840F2064100F002000090009820467D
:1032F00040F20646FEF73CF90120CDE9020501A99E
:10330000204601960495FEF75FF806B070BD0000F8
:1033100080B586B046F218300021C2F200004FF0AE
:1033200080420F234FF0630C0591CDE90311CDE9E5
:103330000011C0E90023C0E9021C01618161FEF7B0
:1033400007FD002818BFFDF72FFD4FF480500290B5
:1033500046F21830C2F2000002A9FEF7DBFD002899
:1033600018BFFDF721FD46F21830C2F20000694691
:10337000FEF7A6FC002818BFFDF716FD06B080BDBD
:10338000B0B594B040F2004546F26030C4F200059A
:103390000021C2F200000F2263230E91CDE90C112F
:1033A0000991CDE90711CDE90511CDE90311CDE969
:1033B0000111C0E90052C0E9021301618161FEF709
:1033C000C7FC002818BFFDF7EFFC4FF480500B90AE
:1033D00046F26030C2F200000BA9FEF79BFD002808
:1033E00018BFFDF7E1FC46F26030C2F20000FFF7C3
:1033F000BFF9002818BFFDF7D7FC46F26030002463
:10340000C2F2000008A9CDE90844FEF759FC0028E3
:1034100018BFFDF7C9FC6020CDE9010403940594B1
:1034200046F26034C2F2000401A920460022FFF7F0
:103430009DF8002818BFFDF7B7FC2068A84201D00E
:1034400014B0B0BD002043F630010F90C4F2020169
:103450000A6842F002020A60096801F002010F9155
:103460000F9910210F910221CDE91010CDE9120121
:1034700005F500300FA9FDF7A7FF14B0B0BD00009F
:1034800010B58AB046F2A83040F600420021C2F2E0
:103490000000C4F2000240F67F434FF0FF34099170
:1034A000CDE90711CDE90411CDE90211CDE90011F3
:1034B000C0E90023C0E9021401618161FEF748FC04
:1034C000002818BFFDF770FC4FF48050069046F2BC
:1034D000A830C2F2000006A9FEF71CFD002818BFA4
:1034E000FDF762FC46F2A830C2F20000FEF7C0FE13
:1034F000002818BFFDF758FC46F2A8300024C2F29D
:10350000000004A9CDE90444FEF7DAFB002818BF47
:10351000FDF74AFC0120CDE9010446F2A830C2F2D1
:1035200000006946002200940394FEF7CFFD0028B6
:1035300018BFFDF739FC0AB010BD000010B541F20C
:10354000000446F2F030C4F20104C2F200004FF46D
:103550007A3100220C23C0E90041C0E90222C0E90F
:103560000423C0E90622FFF7E5FC002818BFFDF799
:103570001BFC2046BDE8104000F06CBA10B544F2C8
:10358000004446F23840C4F20004C2F200004FF496
:103590007A3100220C23C0E90041C0E90222C0E9CF
:1035A0000423C0E90622FFF7C5FC002818BFFDF779
:1035B000FBFB2046BDE8104000F04CBA10B541F2CC
:1035C000004446F28040C4F20104C2F200004FF40D
:1035D0007A3100220C23C0E90041C0E90222C0E98F
:1035E0000423C0E90622FFF7A5FC002818BFFDF759
:1035F000DBFB2046BDE8104000F02CBAFEE70000DF
:10360000FEE7000070470000704700000020704790
:1036100040F2C400C2F200000078704740F2C400DB
:10362000C2F20000002143F2B0220170C2F2000297
:10363000126841607047000040F2C400C2F200000E
:103640000178012904BF02210170704780B543F25F
:10365000B02240F2C400C2F20002C2F200001168BF
:103660000378022B0ED0012B14D04BB946F24851EF
:10367000C2F20001097839BB012101701168416073
:1036800080BD00BFFDF712FCFDF7F6FDBDE88040F0
:1036900000F0A0BD426840F21803002A04BF416058
:1036A0000A46C2F20003D3F800C04FF47A730CFB51
:1036B00003FC48F21F53C5F2EB13ACFB033C891A21
:1036C000B1EB5C1F38BF80BD0321017080BD0000DD
:1036D000FDF75ABF4EF68850CEF20000016841F463
:1036E000700101607047000046F21830C2F200001D
:1036F000FEF792BE46F2A830C2F20000FEF78CBE82
:10370000B0B540F2FF7E0568C4F2000E40F2000C36
:103710007045C4F2010C1DDD40F60003C4F2000345
:10372000984220D060451ED040F60043C4F200030A
:10373000984218D04FF6FF73C4F2000398421DDC84
:10374000704527DCB0F1804F3CD040F20043C4F21A
:10375000000335E0B0F1804F05D040F20043C4F2E1
:1037600000039842E6D14B6825F0700243EA020557
:103770004FF6FF73C4F200039842E1DD44F2FF33D9
:10378000C4F20103984211DC60451BD044F20003EF
:1037900014E000BF40F60003C4F20003984211D0C9
:1037A00040F60043C4F200030AE000BF44F6000301
:1037B000C4F20103984205D044F20043C4F201036D
:1037C000984204D1CB6825F4407243EA02050A68A6
:1037D0008C684B696045C462826202D10969CCF889
:1037E0003010026825F0800142F0040219430260A3
:1037F000012242610160B0BD806B0021C185FFF7ED
:10380000D5B8000081B090F84210222921D18368F8
:103810000246B3F5805F09D152F8281F52F8183CD0
:10382000002B63D003685B680AE000BF52F8281FD2
:1038300013B90369002BF5D003685B6803F07F03BD
:103840000B70116801311160C18D01390A04C18505
:1038500002D001B0704700BF0168CA6822F02002A0
:10386000CA60CA6822F48072CA604A6922F0010202
:103870004A61202180F8421000214163026B012A35
:103880003CD10163016851E8031F026821F0100177
:1038900042E80313DBB1016851E8031F026821F01D
:1038A000100142E8031393B1016851E8031F026855
:1038B00021F0100142E803134BB1016851E8031FE6
:1038C000026821F0100142E80313002BDAD10168ED
:1038D0000A68D20606D5002200920A68009249685A
:1038E00000910099818D01B0FFF75EB802685268BF
:1038F0006FF35F2221F8022B8162A5E701B0FFF789
:10390000FDBB000010B504460068D4E902C223697B
:10391000016921F4405111430161626943EA0C01DC
:10392000E3691143C268194349F20C639A43114396
:10393000C1604169A26921F4407141F20043114321
:1039400040F48062C4F201039A42416102D1FDF762
:1039500099FF01E0FDF782FFE16963681922B1F583
:10396000004FA0FB020123D15A00DB0FFCF782FCC1
:1039700048F21F51C5F2EB11A0FB01235A094FF683
:103980009C73C0F6FF7303F1805302FB03003223E4
:1039900003EBC000A0FB01014FF4F87000EA111026
:1039A00000EB0210C1F3421108442168886010BD89
:1039B0009A009B0FFCF75EFC48F21F51C5F2EB1119
:1039C000A0FB01235A094FF69C73C0F6FF7302FB5C
:1039D0000300322303EB0010A0FB0101F02000EAFA
:1039E000511000EB0210C1F34311084421688860B4
:1039F00010BD000080B541F20000C4F2010000F0EB
:103A000081F846F2F030C2F20000BDE88040FEF7D7
:103A1000CFBF000080B544F20040C4F2000000F0C7
:103A200071F846F23840C2F20000BDE88040FEF76F
:103A3000BFBF000080B541F20040C4F2010000F0B9
:103A400061F846F28040C2F20000BDE88040FEF717
:103A5000AFBF000041F20041C4F20101884243F2CD
:103A6000B421C2F200010FD041F20002C4F20102FF
:103A700090420BD044F20042C4F20002904218BFC0
:103A8000704701F5016101E001F5815100220860F4
:103A9000A1F80624A1F80424A1F80A28A1F808280E
:103AA000012281F80C28C16841F02001C1607047F3
:103AB00041F20041C4F20101884243F2B421C2F252
:103AC00000010FD041F20002C4F2010290420BD07B
:103AD00044F20042C4F20002904211D101F50161AA
:103AE00002E000BF01F5815191F80C08002808BFE1
:103AF0007047002072B6A1F80604A1F8040462B66B
:103B00007047000010B581B041F20041C4F20101DC
:103B1000884243F2B421C2F2000113D041F2000204
:103B2000C4F20102904207D044F20042C4F2000203
:103B3000904204D101F5016191F80C0840B901B03F
:103B400010BD00BF01F5815191F80C080028F6D096
:103B500008680468A30611D5D0F804C0B1F804348D
:103B6000B1F806E401336FF39F23734506D0B1F833
:103B700004240A4482F804C0A1F80434C26812067E
:103B80000CD514F0800209D0B1F80A28B1F8083831
:103B90009A4207D1C16821F08001C1602107CED5CA
:103BA0000FE000BFB1F80A280A4492F808244260E6
:103BB000B1F80A2801326FF39F22A1F80A282107E1
:103BC000BDD540688DF803009DF8030001B010BD1D
:103BD00041F20042C4F20102904243F2B4224FF695
:103BE000FF71C2F2000213D041F20003C4F20103DC
:103BF000984207D044F20043C4F20003984204D133
:103C000002F5016292F80C0840B908B2704700BF93
:103C100002F5815292F80C080028F6D072B6B2F87C
:103C20000404B2F8063498420AD0B2F806041044EC
:103C30000179B2F8060401306FF39F20A2F8060460
:103C400062B608B27047000041F20041C4F20101BF
:103C5000884243F2B421C2F2000121D041F20002B5
:103C6000C4F20102904207D044F20042C4F20002C2
:103C700090421BD101F5016191F80C08B0B172B608
:103C8000B1F80404B1F80624904213D2B1F8060446
:103C9000B1F80414081A00F5806062B680B270476B
:103CA00001F5815191F80C080028E8D1002080B27C
:103CB000704700BFB1F80404B1F80614401A62B6A8
:103CC00080B2704710B541F20043C4F2010343F2E1
:103CD000B42C9842C2F2000C0ED041F20003C4F2A0
:103CE000010398420AD044F20043C4F20003984210
:103CF00038D10CF5016C01E00CF5815C002A4FF025
:103D0000000018BF002901D180B210BD9CF80C380A
:103D1000002BF9D072B60020BCF80838BCF80AE8CD
:103D200001336FF39F2373450CD011F800E0BCF80A
:103D3000084801306444824284F808E4ACF808384A
:103D4000EAD11046BCF80818BCF80A28914205D000
:103D5000DCF80010CA6842F08002CA6062B680B225
:103D600010BD00BF002080B210BD0000FEE70000C3
:103D70002DE9F043A3B0914640F2A402C2F2000242
:103D8000D2F81080B8F1000F32D01E460F4604461C
:103D9000A520B9F1000F8DF804008DF805408DF8CD
:103DA00006108DF8073015D001A804304946324678
:103DB000FCF7D8FA87EA040276B1711E06F1040E08
:103DC000032906F0030C17D20023BCF1000F2DD1FC
:103DD00004E000BF87EA04024FF0040E0EF1010375
:103DE0005FFA8EF001A90A54DAB24046FFF76AFF83
:103DF00023B0BDE8F08300BF06F0FC035B4209F18D
:103E000001066FF0030700BFF419E17820796579A6
:103E10005140A479484004376840D919043184EAF4
:103E20000002F1D13B1DBCF1000FD7D019F803708F
:103E3000BCF1010F82EA0702D0D04B445F78BCF19D
:103E4000020F82EA07021CBF99784A40C6E70000C9
:103E500040F28800C2F2000000210170417040F27F
:103E60008C00C2F20000017046F21430C2F2000071
:103E700001807047B0B544F20045C4F20005044625
:103E80002846FFF715FE46F25151C2F20001FA2012
:103E900008709120A4F175034C70887028460422A4
:103EA000CB70BDE8B040FFF70DBF000092B047F205
:103EB0000005C4F20005FDF775FB06AC201D2C21A2
:103EC000FCF795FA002643F640000596CDE9036617
:103ED000CDE901660096C4F20200016841F080510C
:103EE00001600068022100F0805000900098009668
:103EF000286861F38F302860286800F44040009003
:103F000000980120099010200A90204606910C96F6
:103F1000FDF702FD10B172B6FEE700BF0F20CDE93C
:103F2000010601A80021CDE903660596FDF7E6FB31
:103F300010B172B6FEE700BFFFF7B6F9FFF7E8F978
:103F4000FFF71EFAFFF79CFAFFF738FBFFF716FBA7
:103F5000FFF7F4FA46F21830C2F20000FDF798FFBE
:103F600046F26030C2F200000021FEF733FC46F258
:103F7000A830C2F200000021FEF7AAF9FFF7C4F84A
:103F8000FFF766FFFFF74AFB05F520442046FCF7E4
:103F9000C7FA2046FFF78CFD05F5CA3420460221FA
:103FA0000022FDF7E5FA204604210022FDF7E0FAA1
:103FB00020464FF480610022FDF7DAFAFCF7C4FADC
:103FC000FFF744FBFCF7B2FE00F002F8F6E7000052
:103FD00070B540F29700C2F20000017846F25054EA
:103FE000C2F2000439B3002540F2A4060570C2F203
:103FF0000006307803281DD8DFE800F002080C1214
:10400000032000F0CBF80120207014E00320FFF71C
:1040100031FF0FE00320642132224FF4C86307E030
:1040200040F2B000C2F20000036803206421322293
:1040300000F016F8357040F29800C2F200000178E6
:1040400061B12178002908BF70BD002101700320F3
:1040500000F044F8B0FA80F04009207070BD000014
:1040600080B540F6B83C614538BF8C4646F25151A8
:10407000C2F20001487000EB1C2060444FF0FA0EC1
:10408000104481F800E04FF0FE0E00EB136081F861
:1040900002E04FEA1C2E00EB134081F803E04FEAE8
:1040A000136E00EB132081F806E04FEA134E18441C
:1040B00081F807E04FEA132E4B72A0F1080344F297
:1040C000004081F804C04A7181F808E0C4F20000A1
:1040D0000B228B72BDE88040FFF7F4BD2DE9F0475D
:1040E00084B044F2004AC4F2000A81465046FFF709
:1040F000ABFD00F0FE010A294FF000043BD3C7B22C
:104100000DF106080025002606E000BFFB2501266C
:104110000134E0B2B8422DD25046FFF759FDF2B259
:10412000002AC1B208BFFB29F0D0022A0AD0012A16
:104130000ED1A1EB0900B0FA80F040090D44460011
:10414000E6E700BF0D440026312908BF0326DFE75C
:10415000F31EDBB2052B05D808F802000D4401362A
:10416000D6E700BF092AD3D1E8B2884208D000269A
:10417000CEE700BF0024204604B0BDE8F08700BFB2
:10418000DDF80B0046F24C5100BAC2F200010860A3
:104190000124204604B0BDE8F0870000B0B544F229
:1041A0000045C4F2000504462846FFF781FC46F2AC
:1041B0005151C2F20001FA200870312004F12B03A2
:1041C0004C70887028460422CB70BDE8B040FFF7E1
:1041D00079BD000043F29000C2F20000416800295E
:1041E00008BF704700214160B0F81C12B0F81E22D1
:1041F000521A38BF8032120408D04A1C00EB8101E9
:10420000C96902F07F02C160A0F81C22C16840F2B7
:10421000CC01C2F20001D1F8D42090ED030A91ED57
:10422000351AB8EE400AB8EE411A30EE410A9FED59
:104230001A1A90ED042A20EE011A31EE021A80EDCE
:10424000041A90ED051A90ED062A90ED043A21EE3D
:10425000000A22EE032A30EE020A9FED112AB5EE83
:10426000400A9FED0E1AF1EE10FAB8BFB0EE410A07
:10427000B4EE420AF1EE10FAC8BFB0EE420ABCEE4C
:10428000C00A46F2603180ED000AC2F20001006807
:1042900009684863704700BF0AD7233C000000004C
:1042A0000000C642F1EE100A4FF6FF71C0F2C031B5
:1042B00020EA010040F04070E1EE100A7047000073
:1042C00000000000000001020304060708090000C6
:1042D00000000102030400000200000004000000CE
:1042E0000800000010000000FDFFFFFFFBFFFFFFC4
:1042F000F7FFFFFFEFFFFFFF18430008000000205B
:1043000028000000D00100084043000828000020D9
:10431000706B0000EC0100080100000010000000BC
:10432000010000006F12833A6F12033B0024F40077
:1043300030750000F40100006400000001010A0073
:040000050800019559
:00000001FF
