:020000040800F2
:10000000A052002061020008C1270008392300081F
:10001000BD27000859040008412D00080000000019
:10002000000000000000000000000000C9270008D8
:100030005D04000800000000C5270008CD27000867
:100040007B0200087B0200087B0200087B0200089C
:100050007B0200087B0200087B0200087B0200088C
:100060007B0200087B0200087B0200087B0200087C
:100070007B0200087B0200087B0200087B0200086C
:100080007B0200087B0200087B02000800000000E1
:100090000000000000000000000000007B020008DB
:1000A0007B0200087B0200087B0200087B0200083C
:1000B000E52700087B0200087B0200087B0200089D
:1000C0007B0200087B0200087B0200087B0200081C
:1000D0007B0200087B020008E92A000800000000FB
:1000E0007B0200087B0200087B0200080000000081
:1000F0000000000000000000000000007B0200087B
:10010000000000007B020008F12700087B020008C5
:1001100000000000000000000000000000000000DF
:100120007B0200087B0200087B0200087B020008BB
:100130007B0200080000000000000000000000003A
:100140000000000000000000000000007B0200082A
:100150007B0200087B0200087B0200087B0200088B
:100160007B0200087B020008000000000000000085
:10017000000000000000000000000000000000007F
:10018000000000007B0200080000000000000000EA
:100190007B02000800F002F800F052F814A696E87E
:1001A000000CB244B344DA4501D100F049F8BAE892
:1001B0000F000FA696E83000A5EB040504EB060738
:1001C000AAEB0704A7F101074FEA15154FEA34140B
:1001D000A4F10104AC4201D300F032F813F0010F96
:1001E00018BFFB1A43F0010300F001F8DBE71847E2
:1001F0007C2F00009C2F0000103A24BF78C878C1E3
:10020000FAD8520724BF30C830C144BF04680C601C
:1002100070470000704700000023002400250026DE
:10022000103A28BF78C1FBD8520728BF30C148BF59
:100230000B6070471FB502F068FF1FBD10B510BD01
:1002400000F0D0F81146FFF7F5FF02F0A9FD00F02D
:10025000EEF803B4FFF7F2FF03BC00F0F5F800007E
:100260000948804709480047FEE7FEE7FEE7FEE74A
:10027000FEE7FEE7FEE7FEE7FEE7FEE70448054986
:10028000054A064B70470000D12700089501000879
:10029000A04C0020A0520020A04E0020A04E002024
:1002A00053EA020C00F069802DE9F04B4FF0000694
:1002B000002B1FBFB3FA83F503FA05F424FA05F601
:1002C0005E4012BF1643B2FA82F502FA05F4C5F198
:1002D00020051EBF22FA05FC44EA0C04203556EA2C
:1002E000044C4FEA144418BF641C4FF000084FF050
:1002F0000009904271EB030C39D3002919BFB1FA00
:1003000081F701FA07F6B0FA80F700FA07F6C7F1AD
:1003100020071EBF20FA07FC46EA0C062037B6FB72
:10032000F4FCA7EB0507103F07F01F0BCBF12006ED
:100330002CFA06F60CFA0BFB44BFB3460026202F1E
:10034000A4BF5E464FF0000B5BEA060C08BF4FF0FF
:10035000010B19EB0B0948EB0608ABFB027C06FB13
:1003600002CC0BFB03CCC01B71EB0C01C1E70B46AD
:10037000024641464846BDE8F08B13B5084318BF16
:100380004FF0FF300146AFF30080BDE81C407047DE
:100390004FF0000200B5134694469646203922BF1E
:1003A000A0E80C50A0E80C50B1F12001BFF4F7AF69
:1003B000090728BFA0E80C5048BF0CC05DF804EB4B
:1003C000890028BF40F8042B08BF704748BF20F8B9
:1003D000022B11F0804F18BF00F8012B70477047B7
:1003E00070477047754600F02BF8AE460500694629
:1003F000534620F00700854618B020B5FFF73EFFB2
:10040000BDE820404FF000064FF000074FF0000815
:100410004FF0000BAC46ACE8C009ACE8C009ACE852
:10042000C009ACE8C00921F007018D46704710B53E
:100430000446AFF300802046BDE81040FFF709BF37
:10044000004870471000002001491820ABBEFEE7AD
:100450002600020070470000FEE700007047000021
:1004600072B600BFFEE7000080B500F0C5F940F2AB
:10047000CC01C2F20001B1F8D02001EB8202906001
:10048000B1F8D0004BF652020130C0F21E52A0FB70
:100490000223322203FB1200A1F8D000B1F8D200EF
:1004A000312804D8B1F8D2000130A1F8D200086890
:1004B00042F6BC7C01300860486841F26F7301303D
:1004C000486051F80C209A4211D84FF43F528A5894
:1004D0004FF6FA739A4251F80C3088BF6FF004025D
:1004E000581C41F80C0001EB4300A0F8DC204FF44D
:1004F0003F5000220A5080BD40F2CC00C2F2000002
:100500004FF43F5142580132425041584FF6FB726E
:10051000914238BF704742F6BC71425841F26F7346
:100520009A4208D84258531C435000EB42014FF600
:10053000FB72A1F8DC204FF43F510022425070477B
:1005400040F2C400C2F200000178002908BF7047E1
:10055000002101704278416832B101290CD8002194
:10056000416041700AE000BF0131632905D3632176
:1005700001224160427001E00139416044F62C30B3
:10058000C2F20000006841637047000070B5866DDC
:10059000044600F031F994F83510022928D10546B7
:1005A0002068216C026822F016020260426922F083
:1005B0008002426109B9A16C19B1016821F00801FA
:1005C0000160016821F00101016000BF206800683E
:1005D000C00715D000F010F9401B0628F6D32020E4
:1005E0006065032084F83500002184F8341070BD64
:1005F000802060650120002184F8341070BD00BFA8
:10060000E06D3F2101FA00F0B060012084F8350070
:100610000020002184F8341070BD000090F83510DF
:10062000022909D1052180F835100068016821F000
:100630000101016000207047802141650120704761
:100640002DE9F04F83B000F1200200F13E4741F266
:100650000005009207F1FF77C4F2020507224FEA76
:10066000B726A84208BF042200254FF000084FF02B
:100670000009042E38BF4FEAB72201920AE000BFFA
:1006800009F1010908F10208B9F1100F05F104059B
:1006900000F0A2800F68012202FA09FE17EA0E0A92
:1006A000EED0D1F804C003220CF003077E1E02FA3C
:1006B00008F4012E6FEA040B12D88468CE6804EAAD
:1006C0000B0406FA08F634438460446824EA0E06F4
:1006D000CCF3001404FA09F42643466004E000BF9A
:1006E000032F01D103271EE0C6688C6806EA0B06BB
:1006F00004FA08F42643022FC66014D16FF00302F7
:10070000009E02EA590756F807C005F01C040F22A4
:100710000B69A2402CEA0202A3401A43F251D1F81D
:1007200004C00CF00307026807FA08F302EA0B02A0
:100730001A431CF4403F0260A2D0002243F6440357
:100740000292C4F202031A6843F6004442F4804263
:100750001A601A68C4F2010402F480420292029AFA
:1007600029F003024FF6084C2244CFF6FF7C52F8E2
:100770000C3005F00C070F26BE40B343019E06FA6D
:1007800007F73B4342F80C30A2684B6842EA0A077D
:1007900043F60C4CDE0258BF22EA0A07A760C4F2F7
:1007A000010CDCF800209E0242EA0A0758BF22EA48
:1007B0000A07CCF8007062689E0342EA0A0758BF35
:1007C00022EA0A0767602268DB0342EA0A0758BF89
:1007D00022EA0A07276053E703B0BDE8F08F000064
:1007E0000069084018BF012070470000002A08BFB8
:1007F000090481617047000044F69840C2F200008D
:100800000068704740F2000044F69841C2F20000D0
:10081000C2F2000100780A681044086070470000C6
:1008200080B543F60040C4F20200016841F4007153
:100830000160016841F480610160016841F48071E8
:100840000160032000F086F80F2000F005F800F0AA
:1008500027F8002080BD000070B540F20006C2F20B
:10086000000640F208013278C2F200014FF47A73B8
:100870000968B3FBF2F20446B1FBF2F1084600F05E
:1008800061FB0F2C4FF0010508D838B94FF0FF304D
:1008900021460022002500F031F87460284670BD22
:1008A00082B0002043F640010190C4F202014A6880
:1008B00042F480424A604A6802F480420192019AFE
:1008C0000090086840F080500860086800F0805090
:1008D0000090009802B07047002848BF704700F0B1
:1008E0001F01012202FA01F11C2202EAD0004EF29D
:1008F0000012CEF2000281507047000010B54EF693
:100900000C5CCEF2000CDCF80030C3F3022E8EF04B
:100910000704042C28BF0424BEF103034FF0FF3E5C
:100920000EFA04F438BF0023A14399400EFA03F3F2
:100930009A43114300F00F0200F160430901043AA9
:1009400003F564436244002848BF02F10C031970A8
:1009500010BD00004EF60C51CEF200010A684FF6B1
:10096000FF031A4060F30A2242F0806040F0FD70FD
:1009700008607047002804BF012070472DE9F0414E
:1009800043F60808C4F202080446D8F8F8030D46F6
:1009900000F00700814207D988F8F853D8F8F80327
:1009A00000F00700A84277D12068810717D54107DA
:1009B00005D5D8F8001041F4E051C8F8001001073F
:1009C00005D5D8F8001041F46041C8F80010D8F8F7
:1009D0000010A26821F0F0011143C8F80010C00710
:1009E00040D1D8F8F80300F00700854207D288F814
:1009F000F853D8F8F80300F00700A8424CD120685B
:100A0000410707D5D8F80010E26821F4E0511143FE
:100A1000C8F80010000708D5D8F80000216920F4B4
:100A2000604040EAC100C8F8000000F07DF8D8F846
:100A3000001043F22412C1F30311C0F60002515C0E
:100A400040F2080220FA01F140F20400C2F2000074
:100A50000068C2F200021160FFF7FEFE0020BDE850
:100A6000F08100BF6068811E022907D258F8081C77
:100A700089015CBF0120BDE8F08111E0012807D1A8
:100A800058F8081C89035CBF0120BDE8F08107E02D
:100A900058F8081C890703D40120BDE8F08100BF85
:100AA000D8F8001021F003010843C8F80000FFF750
:100AB000A3FE064641F28837D8F80000616800F0CE
:100AC0000C00B0EB810F8CD0FFF796FE801BB84274
:100AD000F2D90320BDE8F08140F2080043F6080196
:100AE000C2F20000C4F202010068096843F2341245
:100AF000C1F38221C0F60002515CC840704700007B
:100B000040F2080043F60801C2F20000C4F20201FC
:100B10000068096843F23412C1F34231C0F60002A2
:100B2000515CC8407047000010B543F60404C4F29D
:100B300002046168C1F3810142F20040C0F2F40096
:100B4000DFE801F002040A0210BD00BF47F64000D2
:100B5000C0F27D1010BD00BF2068216823684902E3
:100B600047F64001C0F27D1100F03F02C3F3881048
:100B70005CBF42F20041C0F2F401A1FB000100237E
:100B8000FFF78EFB21680222C1F3014102EB410114
:100B9000B0FBF1F010BD0000002804BF0120704739
:100BA0002DE9F04182B00446007843F60006C00704
:100BB000C4F202060CD0B06800F00C00042840F02B
:100BC00081803068800303D56068002800F0688168
:100BD000207880071BD5B06810F00C0F09D0B068E2
:100BE00000F00C00082840F087807068400200F197
:100BF00083803068800703D5E068012840F0508189
:100C00003068216920F0F80040EAC10030602078A7
:100C1000000713D4207840072AD4A569002D00F0DE
:100C20003A81B06800F00C00082840F0A580012D42
:100C300040F00E81012002B0BDE8F081606900281B
:100C400000F082800020C4F247200121C0F8801EFD
:100C5000FFF7D2FD054600BF706F8007DAD4FFF7BB
:100C6000CBFD401B0228F7D9032002B0BDE8F0817C
:100C7000306C5FEAC0080AD400200190306C40F06C
:100C800080503064306C00F080500190019847F241
:100C90000007C4F200073868C00547D4386840F43C
:100CA00080703860FFF7A8FD054600BF3868C005B2
:100CB0003CD4FFF7A1FD401B0228F7D9032002B066
:100CC000BDE8F081B06800F00C00082803D170681E
:100CD00040023FF576AF61683068B1F5803F07D0DC
:100CE000B1F5A02F40F09A8040F480203060306849
:100CF00040F4803030609AE0E068002840F2000064
:100D0000C4F247205CD001210160FFF775FD054664
:100D1000306880073FF574AFFFF76EFD401B022877
:100D2000F6D9032002B0BDE8F08100BFA168306FA2
:100D3000012905D0052955D140F004003067306FF6
:100D400040F00100306756E00020C4F24720002147
:100D5000C0F8801EFFF750FD054600BF706F80078A
:100D60007FF558AFFFF748FD401B0228F6D9032056
:100D700002B0BDE8F08100BF0027C4F24727002081
:100D80003866FFF739FD022D05460DD13068800128
:100D900040F18A80FFF730FD401B02284FF003002E
:100DA000F4D902B0BDE8F0813068800173D5FFF757
:100DB00023FD401B02284FF00300F5D9F1E700BFE7
:100DC00000210160FFF718FD054600BF306880076D
:100DD0007FF51DAFFFF710FD401B02284FF0030009
:100DE000F4D9DEE720F001003067306F002920F0F1
:100DF000040030677AD0FFF7FFFC054641F28837E0
:100E0000306F800700F18480FFF7F6FC401BB8428A
:100E1000F6D9032002B0BDE8F08100BF20F4803095
:100E200030603068002920F4802030607AD0FFF7ED
:100E3000E3FC0546306880033FF5CAAEFFF7DCFCF3
:100E4000401B6428F6D9032002B0BDE8F08100BF42
:100E50007068E16900F480028A4221D1216A00F0C1
:100E60003F028A421CD147F6C071626A0140B1EB71
:100E7000821F15D1A16A4FF6FF73C903994300F48D
:100E80004032A1F580318A420AD1E16A00F07060F7
:100E9000B0EB016F04D1002002B0BDE8F08100BFCB
:100EA000012002B0BDE8F08104F11C052FCD0843FC
:100EB00040EA8210D9034FF6FF729143A1F58031C9
:100EC00040EA05600843706001203866FFF794FC33
:100ED000044600BF30688001DDD4FFF78DFC001BA5
:100EE00002284FF00300F5D95BE700BFFFF784FC51
:100EF000054641F2883700BF306F800708D5FFF7FD
:100F00007BFC401BB8424FF00300F5D949E700BF16
:100F1000B8F1000F3FF581AE306C20F080503064A6
:100F20007BE600BFFFF768FC054600BF3068800322
:100F30007FF54EAEFFF760FC401B64284FF00300C6
:100F4000F4D92EE7411E0020B0EB116F1CBF012029
:100F500070474EF21002CEF2000251604EF623515D
:100F6000CEF20001F0230B700721906011607047F2
:100F7000704700007047000090F83C20012A4FF0B5
:100F8000020241D010B580F83D200268D2F804E09A
:100F9000D2F808C00C682EF07003234340F6FF34EB
:100FA000C4F20004A242536010DCB2F1804F1ED0A4
:100FB00040F20043C4F200039A4218D040F6000306
:100FC000C4F200039A4212D016E000BF40F600437C
:100FD000C4F200039A420AD044F20003C4F20103AF
:100FE0009A4204D00023C4F201039A4204D1496812
:100FF0002CF08003194391600121002280F83D10FC
:1010000080F83C20BDE8104010467047002804BF1F
:101010000120704710B5044690F83D0028B9002023
:1010200084F83C00204600F01FF8022084F83D00C0
:101030002068211D01F0E2FB012084F8460084F8BD
:101040003E0084F83F0084F8400084F8410084F8B2
:10105000420084F8430084F8440084F8450084F892
:101060003D00002010BD000080B586B0006840F64D
:101070000042C4F2000200219042CDE90411CDE902
:101080000211019134D040F20041C4F200018842C3
:101090001CD0B0F1804F5BD10020009043F640009F
:1010A000C4F202000168002241F001010160006801
:1010B000002100F00100009000981C20FFF71EFCAA
:1010C0001C2006B0BDE88040FFF706BC0020009061
:1010D00043F64000C4F20200016841F002010160E1
:1010E000006800F002000090009806B080BD00BFCC
:1010F00043F640000091C4F20200026842F0080288
:101100000260026802F008020092009A009150F812
:10111000102C42F0010240F8102C50F8100C00F096
:10112000010000900098012001900220CDE9020109
:10113000CDE904100020C4F2020001A9FFF780FAF3
:10114000322000210022FFF7D9FB3220FFF7C4FB39
:1011500006B080BD90F83D1001291CBF01207047EA
:10116000022180F83D10006840F6FF32C168C4F2E9
:101170000002904241F00101C1600FDCB0F1804FEC
:101180001DD040F20041C4F20001884217D040F661
:101190000001C4F20001884211D017E040F600417E
:1011A000C4F2000188420AD044F20001C4F20101F5
:1011B000884204D00021C4F20101884206D181682E
:1011C00001F00701062904BF00207047016841F0C3
:1011D000010101600020704790F83C20012A4FF087
:1011E00002026CD080B580F83D20D0F800C04FF6E8
:1011F0007772DCF8083023EA0202CCF808200B688A
:101200004F2B29DC1F2B45DD202B46D0302B44D023
:10121000402B40F0AF80D1F804E0C968DCF8203002
:10122000DCF8202022F00102CCF82020DCF8182085
:1012300022F0F00242EA011123F00A0242EA0E0211
:10124000CCF81810CCF82020DCF8081041F0470149
:1012500021F0300128E000BF6F2B33DDB3F5005FD4
:1012600074D0B3F5805F21D0702B40F08380D1E93A
:1012700001E3C968DCF8082043EA0E0322F47F4248
:1012800043EA01211143CCF80810DCF8081041F0C2
:10129000770109E00BB1102B6CD1DCF8081021F0BC
:1012A0007001194341F00701CCF808100022012118
:1012B00080F83D10002180F83C10BDE880401046C9
:1012C000704700BF502B21D0602B53D1D1F804E0E0
:1012D000C968DCF82030DCF8202022F01002CCF8BD
:1012E0002020DCF8182022F4704242EA013123F079
:1012F000A00242EA0E12CCF81810CCF82020DCF83C
:10130000081041F0670121F01001CDE7D1F804E0A9
:10131000C968DCF82030DCF8202022F00102CCF88B
:101320002020DCF8182022F0F00242EA011123F01C
:101330000A0242EA0E02CCF81810CCF82020DCF8A1
:10134000081041F0570121F02001ADE7D1E901E398
:10135000C968DCF8082043EA0E0322F47F4243EA1E
:1013600001211143CCF80810DCF8081041F4804149
:101370009AE700BF01229AE7016840F60042C4F2F2
:101380000002914218BF7047007F012808BFFFF795
:101390006BB8704790F83C30012B04BF02207047B7
:1013A0004FEAB202032A00F29180F0B5DFE802F0C2
:1013B00002682A4A0368D1E900C5D1F80CE01C6A2A
:1013C0001A6A40F6FF3722F001021A621A4652F8F2
:1013D000186FC4F20007BB4200F37E80B3F1804F68
:1013E00000F08B8040F20047C4F20007BB4200F0DF
:1013F000848040F60007C4F20007BB4200F07D8005
:1014000098E000BF0768D1E900C5D1E902313C6A24
:101410003A6A61F3071522F480723A623A4652F84A
:101420001C6F26F0F30645EA060124F420660CF052
:101430000A0546EA052611603E62116821F00C019A
:1014400011606BE00368D1E900E6D1E902C11C6AD2
:101450001A6A360222F480521A621A4652F81C5F47
:101460004FF2FF07BE4325F4734561F30F3624F4B2
:1014700020440EF00A0746EA050144EA07371CE05B
:101480000368D1E900E6D1E902C11C6A1A6A360292
:1014900022F010021A621A4652F8185F4FF2FF0744
:1014A000BE4325F4734561F30F3624F0A0040EF01B
:1014B0000A0746EA050144EA071711601F6211682E
:1014C0004FEA0C2321F44061116027E00121002242
:1014D00080F83C200846704740F60047C4F20007F9
:1014E000BB420AD044F20007C4F20107BB4204D059
:1014F0000027C4F20107BB421CD126F00306354386
:1015000024F00A070CF00A066EF3071537449D61B4
:101510001F629F6927F00C079F618B681168194350
:1015200011600021BDE8F040002280F83C20084610
:10153000704700BF46F00105E2E70000002804BF45
:101540000120704710B5044690F83D0028B90020EE
:1015500084F83C00204600F01FF8022084F83D008B
:101560002068211D01F04AF9012084F8460084F822
:101570003E0084F83F0084F8400084F8410084F87D
:10158000420084F8430084F8440084F8450084F85D
:101590003D00002010BD00007047000031B3042959
:1015A00008D0082919BF4FF0450C41234FF0440CD7
:1015B000402302E04FF0430C3F23C25C10F80C3094
:1015C000012A4FF0010208BF012B65D10222082930
:1015D00022D0042956D180F83F2080F843204FEADA
:1015E000B103032B4FF0010220D955E090F83E20C3
:1015F00090F84230012A4FF0010208BF012B4BD175
:10160000022280F83E2080F842204FEAB103032BEB
:101610004FF001020AD93FE080F8402080F84420D2
:101620004FEAB103032B4FF0010235D843F23C1CC3
:101630000068C0F6000C5CF823C0C36801F01F010D
:1016400043EA0C03C360036A02FA01F123EA0102D0
:101650000262026A114340F6FF32C4F20002904275
:1016600001621BDCB0F1804F29D040F20041C4F28E
:101670000001884223D040F60001C4F200018842F4
:101680001DD023E080F8412080F845204FEAB103C7
:10169000032B4FF00102C9D91046704740F60041B4
:1016A000C4F2000188420AD044F20001C4F20101F0
:1016B000884204D00021C4F20101884206D1816829
:1016C00001F00701062904BF00207047016841F0BE
:1016D000010101600020704770B504460068C568CC
:1016E0000669B10716D515F0020113D06FF002019B
:1016F0000161012121778069800703D02046FFF72F
:101700003BFE05E0204600F08FF8204600F0BCF9D3
:1017100000202077700719D515F0040016D0206836
:101720006FF00401016102212177806910F4407F8C
:1017300004D02046FFF720FE06E000BF204600F060
:1017400073F8204600F0A0F900202077300717D565
:1017500015F0080014D020686FF008010161042121
:101760002177C069800703D02046FFF705FE05E01A
:10177000204600F059F8204600F086F90020207736
:10178000F00619D515F0100016D020686FF0100182
:10179000016108212177C06910F4407F04D0204600
:1017A000FFF7EAFD06E000BF204600F03DF82046C6
:1017B00000F06AF900202077F00718BF15F001004B
:1017C00002D1300609D412E020686FF001010161F6
:1017D000204600F0D3F9300609D515F0800006D078
:1017E00020686FF0800101612046FFF7C1FB7006A1
:1017F00009D515F0400006D020686FF04001016166
:10180000204600F023FAB00658BF70BD15F0200046
:1018100008D021686FF0200220460A61BDE87040C0
:10182000FFF7A8BB70BD00007047000090F83C3087
:10183000012B04BF022070474FEAB202032A00F2D4
:10184000ED802DE9F043DFE802F003A3397300BF18
:10185000036800261D6A1A6AC4F2010622F001021A
:101860001A621A465C6852F818CFB3428E68D1F8F3
:1018700000E025F0020545EA06050CD1CE68D1E965
:10188000057824F4407425F00C0526F004063C434A
:10189000354344EA08042CF0730747EA0E075C60FE
:1018A0009F614F6809695F631D629F6947F0080780
:1018B0009F619F6927F004079F61A4E003680026E9
:1018C0001D6A1A6AC4F2010622F480721A621A466C
:1018D000D3F804C052F81CEFB3428E680C6825F4AC
:1018E000007545EA06250FD1CE68D1E90598360284
:1018F00040F2FF4725F44065BE4335432CF4405782
:1019000048EA090647EA061C2EF073072743C3F886
:1019100004C0DF614F680969DF631D62DF6947F05A
:101920000807DF61DF6927F00407DF616BE000BFB4
:1019300003680027D3F820C01A6AC4F2010722F412
:1019400080521A621A465C6852F81C5FD1F800E0B7
:101950008E68BB4204D14F6924F4804444EA871462
:101960002CF4005747EA063725F4E64646EA0E26E9
:101970005C60DE614E6809691E641F62DF6947F4BE
:101980000067DF61DF6927F48067DF613AE000BF4D
:10199000036800261D6A1A6AC4F2010622F01002CA
:1019A0001A621A46D3F804C052F8184FB3428E6830
:1019B000D1F800E025F0200545EA06150FD1CE68E4
:1019C000D1E905986FF0400725F0C00507EA061633
:1019D00035432CF4406748EA090647EA860C24F4AC
:1019E000E64444EA0E27C3F804C09F614F680969C2
:1019F0009F631D629F6947F400679F619F6927F499
:101A000080679F6109021368194311600021BDE8D6
:101A1000F043002280F83C20084670470121002254
:101A200080F83C2008467047002804BF012070471A
:101A300010B5044690F83D0028B9002084F83C0019
:101A4000204600F01FF8022084F83D002068211D88
:101A500000F0D4FE012084F8460084F83E0084F8AB
:101A60003F0084F8400084F8410084F8420084F884
:101A7000430084F8440084F8450084F83D000020C9
:101A800010BD00007047000070470000C1B104297C
:101A900008D0082914BF41224022825C012A05D0C7
:101AA00016E000BF3F22825C012A11D102220829E0
:101AB00010D0042914BF80F8412080F83F200BE0AB
:101AC00090F83E20012A03D1022280F83E2003E054
:101AD0000120704780F84020006801F01F010122BA
:101AE000036A8A4023EA02010162036A4421C4F2C4
:101AF00001011A43A1F144039842026216D040F654
:101B0000FF31C4F2000188421ADCB0F1804F28D0C6
:101B100040F20041C4F20001884222D040F60001A8
:101B2000C4F2000188421CD022E000BF0A6842F4DF
:101B300000420A6040F6FF31C4F200018842E4DD51
:101B400040F60041C4F2000188420AD044F200018C
:101B5000C4F20101884204D00021C4F2010188428C
:101B600006D1816801F00701062904BF00207047F3
:101B7000016841F001010160002070470068B0F188
:101B8000804F18BF7047B0B5FEF7B6FC40F2004476
:101B9000C4F2020420464FF4804101220125FEF7E1
:101BA00025FE20464FF4804100220024FEF71EFE51
:101BB00040F27000C2F20000826840F20111018020
:101BC0008180511C42F210729142816024BF846076
:101BD0008570C1790131CAB2142AC171BDE8B04023
:101BE00022BF0121C170C18043F29001C2F2000105
:101BF0000A8940F20C0301320A81C2F200031B6819
:101C000092B2934203D800220A8101224A6044F62C
:101C1000E021C2F200010A88013293B2B3F57A7F63
:101C20000A8007D300220A8040F2C401C2F20001F8
:101C300001220A7040F28001C2F200010978C268F4
:101C4000002918BF511CC160704700007047000098
:101C50007047000070470000B0B582B001680A68A4
:101C6000CC684B6902F02F05202D04F0200505D12A
:101C700025B102B0BDE8B04000F042BE5FEA027C90
:101C80001EBF03F0010E04F4907313EB0E0341D159
:101C9000036BD50618D5012B16D114F0100313D001
:101CA000002201920A6801924A680192019A4969E8
:101CB00049064BD4818DC28DC38D002B18BF914234
:101CC00040F0068202B0B0BD13062DD514F080039B
:101CD0002AD090F84120212AF4D18268B2F5805FA1
:101CE00003D10269002A00F07982026A531C036260
:101CF00012784A60C28C013A1304C284E2D1C868E7
:101D000020F08000C860C86840F04000C86002B0A1
:101D1000B0BD00BFD30718BF14F4807340F0E28059
:101D2000530700F1E580EAE05206CBD514F04002FB
:101D3000C8D0CA6822F04002CA60202180F8411051
:101D400002B0BDE8B04000F0F5BA00BFC26B116848
:101D50004B68858D99B2002900F0B480A94280F0CB
:101D6000B180C385D169B1F5807F00F0A0800168A2
:101D700051E8031F026821F4807142E80313DBB1CC
:101D8000016851E8031F026821F4807142E80313DF
:101D900093B1016851E8031F026821F4807142E8A1
:101DA00003134BB1016851E8031F026821F48071ED
:101DB00042E80313002BDAD1016851E8051F0268DD
:101DC00021F0010142E80513BBB3016851E8051F8A
:101DD000026821F0010142E8051373B3016851E87C
:101DE000051F026821F0010142E805132BB30168C9
:101DF00051E8051F026821F0010142E80513002B9C
:101E0000DAD11AE0016851E8051F026821F04001AB
:101E100042E80513DBB1016851E8051F026821F0B3
:101E2000400142E8051393B1016851E8051F0268BB
:101E300021F0400142E805134BB1016851E8051F4C
:101E4000026821F0400142E80513002BDAD120217D
:101E500080F8421000210163016851E8031F026805
:101E600021F0100142E80313DBB1016851E8031FC0
:101E7000026821F0100142E8031393B1016851E8B0
:101E8000031F026821F0100142E803134BB10168FF
:101E900051E8031F026821F0100142E80313002BF0
:101EA000DAD1C16B04460846FEF770FB20460221DA
:101EB0004163818DC28D891A89B202B0BDE8B040FC
:101EC000FFF7C6BE8D427FF4FDAED269B2F5807FCA
:101ED0007FF4F8AE0222426302B0BDE8B040FFF7E3
:101EE000B7BE00BF436C43F001034364530706D5FC
:101EF000BEF1000F03D0436C43F002034364930729
:101F000006D5BEF1000F03D0436C43F004034364D5
:101F1000BCF1000F06D55EEA050303D0436C43F025
:101F200008034364436C002B3FF4CCAE920605D506
:101F300025B1044600F0E4FC216820464969426C62
:101F400001F0400102F00802891800F0B98000BFDA
:101F5000016851E8031F026821F4907142E80313FD
:101F6000BBB3016851E8031F026821F4907142E895
:101F7000031373B3016851E8031F026821F49071E1
:101F800042E803132BB3016851E8031F026821F4F0
:101F9000907142E80313002BDAD11AE0016851E88E
:101FA000051F026821F0010142E80513DBB1016859
:101FB00051E8051F026821F0010142E8051393B1C1
:101FC000016851E8051F026821F0010142E805138C
:101FD0004BB1016851E8051F026821F0010142E898
:101FE0000513002BDAD1016B012924D1016851E8D6
:101FF000031F026821F0100142E80313DBB10168FE
:1020000051E8031F026821F0100142E8031393B165
:10201000016851E8031F026821F0100142E8031330
:102020004BB1016851E8031F026821F0100142E83A
:102030000313002BDAD1202180F842100021016324
:1020400001684969490640F1C380016851E8051FEC
:10205000026821F0400142E80513DBB1016851E854
:10206000051F026821F0400142E8051393B10168A1
:1020700051E8051F026821F0400142E805134BB109
:10208000016851E8051F026821F0400142E805138C
:10209000002BDAD1C16B002900F09A8042F6F502DC
:1020A000C0F60002044608460A65FEF7B7FA0028A3
:1020B0003FF408AEE06B016D02B0BDE8B0400847E8
:1020C0000446FFF7C7FD0020606402B0B0BD00BF4A
:1020D000891A00BF026852E8032F036822F4907245
:1020E00043E80325BDB3026852E8032F036822F4D6
:1020F000907243E8032575B3026852E8032F036822
:1021000022F4907243E803252DB3026852E8032FAE
:10211000036822F4907243E80325002DDAD11AE017
:10212000026852E8052F036822F0010243E8052502
:10213000DDB1026852E8052F036822F0010243E88E
:10214000052595B1026852E8052F036822F00102C7
:1021500043E805254DB1026852E8052F036822F0D7
:10216000010243E80525002DDAD1202280F8422023
:1021700000220263026852E8032F036822F0100273
:1021800043E80325DDB1026852E8032F036822F01B
:10219000100243E8032595B1026852E8032F036853
:1021A00022F0100243E803254DB1026852E8032FE4
:1021B000036822F0100243E80325002DDAD1022241
:1021C00089B2426302B0BDE8B040FFF741BD00BF35
:1021D00002B0BDE8B040FFF73DBD00BF026A32F873
:1021E000023B6FF35F234B60026283E5002804BF6C
:1021F0000120704710B5044690F8410028B900202E
:1022000084F84000204600F021F8242084F84100A2
:102210002068C16821F40051C160204600F0F0FB45
:102220002068016921F490410161416921F02A018E
:102230004161C16841F40051C16000202021606407
:1022400084F8411084F84210606310BD80B586B0F8
:10225000006841F20042C4F2010200219042CDE93F
:102260000411CDE90211019138D044F20041C4F2C9
:10227000000188425AD1002043F630010090C4F298
:1022800002010A6942F400320A610A6902F400326A
:102290000092009A00900A6842F001020A60096800
:1022A00001F00101009100990C2101910221CDE979
:1022B000021003200490072005900020C4F20200C1
:1022C00001A9FEF7BDF9262000210022FEF716FB2A
:1022D0002620FEF701FB06B080BD00BF43F63000AC
:1022E0000091C4F20200426942F020024261426958
:1022F00002F020020092009A0091026842F001026E
:102300000260006800F00100009000984FF4C05097
:1023100001900220CDE902010320049008200590DD
:102320000020C4F2020001A9FEF78AF906B080BDC0
:102330007047000070470000FEE7000040F2CC0C40
:1023400043F29002C2F2000C0021C2F2000244F6F5
:102350002C3072B6CCF80010CCF80410ACF8D010C9
:10236000ACF8D210CCF8D410CCF8D8101160C2F26E
:10237000000000680023416342F6BC705160118187
:102380004CF800104FF43F504CF800104FF08040D4
:1023900050614FF07E509061116162B6D018803369
:1023A000B3F5007FC161016241628162C162016374
:1023B00041638163C163016441648164C1640165F7
:1023C00041658165C165016641668166C1660167D7
:1023D00041678167C167C0F88010C0F88410C0F8F9
:1023E0008810C0F88C10C0F89010C0F89410C0F895
:1023F0009810D3D100204FF6FC71A2F81C02A2F86D
:102400001E02D060CCF80810CCF80C10CCF81010DC
:10241000CCF81410CCF81810CCF81C10CCF8201004
:10242000CCF82410CCF82810CCF82C10CCF83010B4
:10243000CCF83410CCF83810CCF83C10CCF8401064
:10244000CCF84410CCF84810CCF84C10CCF8501014
:10245000CCF85410CCF85810CCF85C10CCF86010C4
:10246000CCF86410CCF86810CCF86C10CCF8701074
:10247000CCF87410CCF87810CCF87C10CCF8801024
:10248000CCF88410CCF88810CCF88C10CCF89010D4
:10249000CCF89410CCF89810CCF89C10CCF8A01084
:1024A000CCF8A410CCF8A810CCF8AC10CCF8B01034
:1024B000CCF8B410CCF8B810CCF8BC10CCF8C010E4
:1024C000CCF8C410CCF8C810CCF8CC107047000081
:1024D00082B0002043F630010190C4F202010A6884
:1024E00042F001020A600A6802F001020192019AB8
:1024F0000090086840F002000860086800F00200E0
:102500000090009802B0704780B586B044F6E42091
:102510000021C2F200004FF080420F234FF0630C05
:102520000591CDE90311CDE90011C0E90023C0E90F
:10253000021C01618161FEF769FD002818BFFDF7EB
:102540008FFF4FF48050029044F6E420C2F2000066
:1025500002A9FEF741FE002818BFFDF781FF44F6EF
:10256000E420C2F200006946FEF706FD002818BF0D
:10257000FDF776FF06B080BDB0B594B040F20045DF
:1025800044F62C30C4F200050021C2F200000F22F4
:1025900063230D91CDE90B110991CDE90711CDE927
:1025A0000511CDE90311CDE90111C0E90052C0E9DF
:1025B000021301618161FEF729FD002818BFFDF7B4
:1025C0004FFF4FF480500A9044F62C30C2F20000C6
:1025D0000AA9FEF701FE002818BFFDF741FF44F6E7
:1025E0002C30C2F20000FFF71FFA002818BFFDF7D9
:1025F00037FF44F62C300024C2F2000008A9CDE9D0
:102600000844FEF7B9FC002818BFFDF729FF602039
:10261000CDE901040394059444F62C34C2F200047D
:1026200001A920460022FFF701F9002818BFFDF795
:1026300017FF21680020A9421390CDE911001090E6
:102640000F9001D014B0B0BD43F630010E90C4F22B
:1026500002010A6842F002020A60096801F0020100
:102660000E910E9910210F910221CDE91010CDE9A4
:10267000120105F500300FA9FDF7E2FF14B0B0BD5F
:1026800010B58AB044F6743040F600420021C2F220
:102690000000C4F2000240F67F434FF0FF3409917E
:1026A000CDE90711CDE90411CDE90211CDE9001101
:1026B000C0E90023C0E9021401618161FEF7A6FCB4
:1026C000002818BFFDF7CCFE4FF48050069044F66A
:1026D0007430C2F2000006A9FEF77EFD002818BF84
:1026E000FDF7BEFE44F67430C2F20000FEF726FF8E
:1026F000002818BFFDF7B4FE44F674300024C2F27F
:10270000000004A9CDE90444FEF736FC002818BFF8
:10271000FDF7A6FE0120CDE9010444F67430C2F2B3
:1027200000006946002200940394FEF733FE00285F
:1027300018BFFDF795FE0AB010BD000010B544F2B9
:10274000004444F6BC3044F24021C4F20004C2F21A
:102750000000C0F20F0100220C23C0E90041C0E9D3
:102760000222C0E90423C0E90622FFF73FFD00284A
:1027700018BFFDF775FE2046BDE8104000F0BAB95D
:1027800080B544F6044041F20041C2F20000C4F2B8
:10279000010100234FF00C0C4FF47A3280E80E0058
:1027A000C0E90333C0E905C3C361FFF71FFD00287B
:1027B00008BF80BDBDE88040FDF752BEFEE70000C7
:1027C000FEE700007047000070470000FEF71AB8EF
:1027D0004EF68850CEF20000016841F470010160AD
:1027E0007047000044F6E420C2F20000FEF774BF18
:1027F00044F67430C2F20000FEF76EBFB0B540F28E
:10280000FF7E0568C4F2000E40F2000C7045C4F271
:10281000010C1DDD40F60003C4F20003984220D0F5
:1028200060451ED040F60043C4F20003984218D021
:102830004FF6FF73C4F2000398421DDC704527DC9D
:10284000B0F1804F3CD040F20043C4F2000335E0C9
:10285000B0F1804F05D040F20043C4F2000398422B
:10286000E6D14B6825F0700243EA02054FF6FF738C
:10287000C4F200039842E1DD44F2FF33C4F20103E5
:10288000984211DC60451BD044F2000314E000BF05
:1028900040F60003C4F20003984211D040F6004312
:1028A000C4F200030AE000BF44F60003C4F20103CF
:1028B000984205D044F20043C4F20103984204D187
:1028C000CB6825F4407243EA02050A688C684B69BC
:1028D0006045C462826202D10969CCF83010026896
:1028E00025F0800142F00402194302600122426196
:1028F0000160B0BD806B0021C185FFF7ABB900005E
:1029000081B090F84210222921D183680246B3F5A4
:10291000805F09D152F8281F52F8183C002B63D071
:1029200003685B680AE000BF52F8281F13B9036907
:10293000002BF5D003685B6803F07F030B70116810
:1029400001311160C18D01390A04C18502D001B085
:10295000704700BF0168CA6822F02002CA60CA68D6
:1029600022F48072CA604A6922F001024A61202181
:1029700080F8421000214163026B012A3CD10163BF
:10298000016851E8031F026821F0100142E80313B7
:10299000DBB1016851E8031F026821F0100142E831
:1029A000031393B1016851E8031F026821F010017D
:1029B00042E803134BB1016851E8031F026821F09C
:1029C000100142E80313002BDAD101680A68D2062D
:1029D00006D5002200920A68009249680091009989
:1029E000818D01B0FFF734B9026852686FF35F223E
:1029F00021F8022B8162A5E701B0FFF799BC000026
:102A0000B0B50446006804F108030ECB056919430C
:102A100025F440552A4302616269E3691143C268A3
:102A2000194349F20C639A431143C1604169A26999
:102A300021F4407141F20043114340F48062C4F23A
:102A400001039A42416103D1FEF75AF802E000BF48
:102A5000FEF742F8E1694FF69C7563681922C0F6EB
:102A6000FF75B1F5004FA0FB02011FD15A00DB0F2B
:102A7000FDF716FC48F21F51C5F2EB11A0FB012334
:102A80005A0905F1805302FB0300322303EBC00017
:102A9000A0FB01014FF4F87000EA111000EB0210E6
:102AA000C1F34211084421688860B0BD9A009B0FB1
:102AB000FDF7F6FB48F21F51C5F2EB11A0FB012315
:102AC0005A0902FB0500322303EB0010A0FB0101B1
:102AD000F02000EA511000EB0210C1F3431108444A
:102AE00021688860B0BD000044F6BC30C2F200002E
:102AF000FFF7B2B841F20041C4F20101884243F24B
:102B0000B021C2F200010FD041F20002C4F2010272
:102B100090420BD044F20042C4F20002904218BF2F
:102B2000704701F5016101E001F581510022086063
:102B3000A1F80624A1F80424A1F80A28A1F808287D
:102B4000012281F80C28C16841F02001C160704762
:102B500041F20041C4F20101884243F2B021C2F2C5
:102B600000010FD041F20002C4F2010290420BD0EA
:102B700044F20042C4F20002904211D101F5016119
:102B800002E000BF01F5815191F80C08002808BF50
:102B90007047002072B6A1F80604A1F8040462B6DA
:102BA0007047000041F20042C4F20102904243F239
:102BB000B0224FF6FF71C2F2000213D041F20003BF
:102BC000C4F20103984207D044F20043C4F2000368
:102BD000984204D102F5016292F80C0840B908B29B
:102BE000704700BF02F5815292F80C080028F6D019
:102BF00072B6B2F80404B2F8063498420AD0B2F8B9
:102C0000060410440179B2F8060401306FF39F20E6
:102C1000A2F8060462B608B27047000041F2004113
:102C2000C4F20101884243F2B021C2F2000121D076
:102C300041F20002C4F20102904207D044F2004285
:102C4000C4F2000290421BD101F5016191F80C0819
:102C5000B0B172B6B1F80404B1F80624904213D2B0
:102C6000B1F80604B1F80414081A00F5806062B6E1
:102C700080B2704701F5815191F80C080028E8D125
:102C8000002080B2704700BFB1F80404B1F8061408
:102C9000401A62B680B27047B0B541F20043C4F248
:102CA000010343F2B02E9842C2F2000E0ED041F260
:102CB0000003C4F2010398420AD044F20043C4F274
:102CC0000003984238D10EF5016E01E00EF5815EE9
:102CD000002A4FF0000018BF002901D180B2B0BD1A
:102CE0009EF80C38002BF9D072B60EF5816C00BF3F
:102CF000BEF80838BEF80A4801336FF39F23A34299
:102D00000AD00C5CBEF80858013082420CF805402D
:102D1000AEF80838ECD11046BEF80818BEF80A28FC
:102D2000914205D0DEF80010CA6842F08002CA6005
:102D300062B680B2B0BD00BF002080B2B0BD00005E
:102D4000FEE7000040F27500C2F2000000780128A2
:102D500018BF704780B540F20040C4F20200022163
:102D6000FDF73EFD40F28001C2F20001002818BFCD
:102D700001200870BDE880407047000081B040F23B
:102D8000C4010020C2F200018DF803008DF802009A
:102D9000087044F6E021C2F20001088001B07047DB
:102DA00092B0FDF73DFD06AC20463021FDF7F0FA6C
:102DB000002543F640000595CDE90355CDE90155C1
:102DC0000095C4F202000168022241F080510160C6
:102DD000006800F080500090009847F200000095D5
:102DE000C4F20000016862F38F310160006800F4F2
:102DF0004040009000980120099010200A90204641
:102E000006920C95FDF7C8FE10B172B6FEE700BF42
:102E10000F20CDE9010501A80021CDE90355059555
:102E2000FDF7A8FD10B172B6FEE700BFFFF750FB3B
:102E3000FFF76AFBFFF7A0FBFFF722FCFFF77EFC22
:102E4000FFF79EFC44F6E420C2F20000FEF782F990
:102E500044F62C30C2F200000021FEF717FE44F6C3
:102E60007430C2F200000021FEF798FBFFF766FA0B
:102E7000FFF784FFFFF766FF00F03CF800F006F86C
:102E800000F010F9FDF75CFBF4E7000010B540F22C
:102E90007300C2F200000178012911D140F28001D3
:102EA000C2F20001097801290AD100210170032032
:102EB00000F0DCF844F65440C2F200000121017039
:102EC00040F27400C2F200000178012910D144F6EA
:102ED0005444C2F200042178012918BF10BD00211A
:102EE0000170032000F066F8B0FA80F0400920700D
:102EF00010BD000040F27200C2F20000017801290A
:102F000018BF704780B544F64C4CC2F2000C9CF8D8
:102F10000020002182F0010E64230170002A08BF06
:102F200040F61C4303204FF47A7196228CF800E09F
:102F3000BDE88040AFF3008080B540F6B83C614505
:102F400038BF8C4644F65541C2F20001487000EB90
:102F50001C2060444FF0FA0E104481F800E04FF05E
:102F6000FE0E00EB136081F802E04FEA1C2E00EB2E
:102F7000134081F803E04FEA136E00EB132081F851
:102F800006E04FEA134E184481F807E04FEA132E8B
:102F90004B72A0F1080341F2004081F804C04A716D
:102FA00081F808E0C4F201000B228B72BDE880407A
:102FB000FFF772BE2DE9F04784B041F2004AC4F237
:102FC000010A81465046FFF729FEC7B20A2F4FF08B
:102FD000000438D30DF106080025002605E000BFE7
:102FE000FB2501260134A7422CD95046FFF7DAFD14
:102FF000F2B2002AC1B208BFFB29F1D0022A09D0DF
:10300000012A0DD1A9EB0100B0FA80F040090D446E
:103010004600E7E70D440026312908BF0326E1E713
:10302000F31EDBB2052B05D808F802000D4401366B
:10303000D8E700BF092AD5D1E8B2884208D00026D7
:10304000D0E700BF0024204604B0BDE8F08700BFF1
:10305000DDF80B0044F6504100BAC2F200010860EE
:103060000124204604B0BDE8F0870000B0B541F26D
:103070000045C4F2010504462846FFF769FD44F601
:103080005541C2F20001FA200870312004F12B03EF
:103090004C70887028460422CB70BDE8B040FFF722
:1030A000FBBD0000B0B540F27600C2F2000001782E
:1030B000012918BFB0BD40F28004C2F2000421789B
:1030C000012921D144F200450021C4F2000501701C
:1030D0002846FFF73DFDFF2040F27C0124F8010F58
:1030E00044F65040C2F20001C2F2000009680368D1
:1030F000C4F80210284621460A22C4F80630BDE86A
:10310000B040FFF7C9BD00BFB0BDF1EE100A4FF6E9
:10311000FF71C0F2C03120EA010040F04070E1EEE2
:10312000100A7047000000000000000001020304C4
:103130000607080900000000010203040200000065
:10314000040000000800000010000000FDFFFFFF69
:10315000FBFFFFFFF7FFFFFFEFFFFFFFFFFDFFFF9D
:10316000FFFBFFFFFFF7FFFFFFEFFFFF90310008BE
:103170000000002010000000F8010008A031000845
:10318000100000209052000018020008000000000B
:1031900001000000100000000024F40064000000A2
:040000050800019559
:00000001FF
