:020000040800F2
:10000000386C002035020008693A0008A135000864
:10001000653A00081D05000845430008000000007F
:10002000000000000000000000000000713A00081D
:100030004D100008000000006D3A0008793C0008EF
:100040004F0200084F0200084F0200084F0200084C
:100050004F0200084F0200084F0200084F0200083C
:100060004F0200084F0200084F0200084F0200082C
:100070004F0200084F0200084F0200084F0200081C
:100080004F0200084F0200084F0200080000000065
:100090000000000000000000000000004F02000807
:1000A0004F0200084F0200084F0200084F020008EC
:1000B000913C00084F0200084F0200084F02000860
:1000C0004F0200084F0200084F0200084F020008CC
:1000D0004F0200089D3F0008BD3F000800000000DF
:1000E0004F0200084F0200084F0200080000000005
:1000F0000000000000000000000000004F020008A7
:10010000000000004F0200089D3C00084F0200085C
:1001100000000000000000000000000000000000DF
:100120004F0200084F0200084F0200084F0200086B
:100130004F02000800000000000000000000000066
:100140000000000000000000000000004F02000856
:100150004F0200084F0200084F020008DD3F000870
:100160004F0200084F0200080000000000000000DD
:10017000000000000000000000000000000000007F
:10018000000000004F020008000000000000000016
:100190004F02000800F002F800F03CF80AA090E8D6
:1001A000000C82448344AAF10107DA4501D100F032
:1001B00031F8AFF2090EBAE80F0013F0010F18BFC3
:1001C000FB1A43F0010318477044000090440000FC
:1001D000103A24BF78C878C1FAD8520724BF30C873
:1001E00030C144BF04680C60704700000023002445
:1001F00000250026103A28BF78C1FBD8520728BF37
:1002000030C148BF0B6070471FB504F0EBF91FBD4C
:1002100010B510BD00F047F91146FFF7F5FF04F0E7
:10022000C7F800F065F903B4FFF7F2FF03BC00F074
:100230006DF900000948804709480047FEE7FEE7DE
:10024000FEE7FEE7FEE7FEE7FEE7FEE7FEE7FEE786
:1002500004480549054A064B704700007D3C0008EC
:100260009501000838660020386C002038680020AE
:100270003868002053EA020C00F069802DE9F04B49
:100280004FF00006002B1FBFB3FA83F503FA05F405
:1002900024FA05F65E4012BF1643B2FA82F502FA5E
:1002A00005F4C5F120051EBF22FA05FC44EA0C0442
:1002B000203556EA044C4FEA144418BF641C4FF032
:1002C00000084FF00009904271EB030C39D300296C
:1002D00019BFB1FA81F701FA07F6B0FA80F700FA10
:1002E00007F6C7F120071EBF20FA07FC46EA0C06F6
:1002F0002037B6FBF4FCA7EB0507103F07F01F0BF8
:10030000CBF120062CFA06F60CFA0BFB44BFB346E1
:100310000026202FA4BF5E464FF0000B5BEA060CC0
:1003200008BF4FF0010B19EB0B0948EB0608ABFBBC
:10033000027C06FB02CC0BFB03CCC01B71EB0C0157
:10034000C1E70B46024641464846BDE8F08B13B56F
:10035000084318BF4FF0FF300146AFF30080BDE8FF
:100360001C407047032A40F2308010F0030C00F06C
:10037000158011F8013BBCF1020F624498BF11F8DF
:1003800001CB00F8013B38BF11F8013BA2F1040298
:1003900098BF00F801CB38BF00F8013B11F0030310
:1003A00000F04F80083AC0F0088051F8043B083A4A
:1003B00051F804CBA0E80810F5E7121D5CBF51F816
:1003C000043B40F8043BAFF30080D20724BF11F890
:1003D000013B11F801CB48BF11F8012B24BF00F8F5
:1003E000013B00F801CB48BF00F8012B70474FF0EC
:1003F000000200B5134694469646203922BFA0E875
:100400000C50A0E80C50B1F12001BFF4F7AF090780
:1004100028BFA0E80C5048BF0CC05DF804EB890071
:1004200028BF40F8042B08BF704748BF20F8022BB4
:1004300011F0804F18BF00F8012B704770477047CC
:10044000704710B5203AC0F00B80B1E81850A0E812
:100450001850B1E81850A0E81850203ABFF4F5AF92
:100460005FEA027C24BFB1E81850A0E8185044BFEE
:1004700018C918C0BDE810405FEA827C24BF51F85B
:10048000043B40F8043B08BF7047D20728BF31F84F
:10049000023B48BF11F8012B28BF20F8023B48BFA0
:1004A00000F8012B7047754600F02CF8AE460500A9
:1004B0006946534620F00700854618B020B5FFF77F
:1004C000C7FEBDE820404FF000064FF000074FF098
:1004D00000084FF0000BAC46ACE8C009ACE8C0091E
:1004E000ACE8C009ACE8C00921F007018D467047AF
:1004F00010B50446AFF300802046BDE81040FFF77A
:1005000092BE000000487047680000200149182092
:10051000ABBEFEE72600020070470000FEE70000C9
:1005200040F20811C2F200010028886008BF70473D
:1005300003F092BD2DE9F04F81B040F20819C2F2EC
:100540000009D9F80800002800F0AE8003F050FE42
:10055000002800F0A98046F2B05A4FF0000B4FF08F
:1005600001080224C2F2000A09E000BF89F800B0C5
:10057000D9F8080003F03CFE002800F09580D9F877
:10058000080003F0F9FD002800F18E8099F80010B2
:100590000529EBD8DFE801F0040A1016243400BF67
:1005A000C0B2A52808BF89F80080E1E789F80100FA
:1005B00089F80040DCE700BF89F80200032089F8D1
:1005C0000000D5E7010689F8030089F804B013D0CC
:1005D000C0B28028CAD8042089F80000C8E700BF4C
:1005E00099F8041099F803204B1CDFB2974289F860
:1005F00004300AF80100BBD3052089F80000B7E7F2
:1006000099F801C099F8033099F8021081EA0C07B3
:10061000ABB35A1E032A05D2002613F0030220D1E1
:100620002DE000BF03F0FC02C2F1000E6FF00306E4
:100630000AEB06042579627994F806807D40E47916
:100640006A40043682EA08020EEB0605043584EAA5
:100650000207EDD104364FF00108022413F0030223
:100660000DD01AF80650012A87EA050707D056442C
:100670007578022A87EA05071CBFB2785740C0B2D6
:10068000FAB282420AD143F21830C2F20000006886
:10069000D9F80C7017B160465246B84789F800B0D7
:1006A000A9F803B064E700BF01B0BDE8F08F000017
:1006B00040F20811C2F20001C86070472DE9F04312
:1006C000A3B0914640F20812C2F20002D2F80880AC
:1006D000B8F1000F6ED01E460F460446A520B9F1B2
:1006E000000F8DF804008DF805408DF806108DF888
:1006F000073018BF002E17D1002E87EA04004DD016
:1007000044F2FE514FF0040CC0F60001B9F1000FA5
:1007100008BF8946721E032A06F0030E13D2002377
:10072000BEF1000F28D13BE001A804304946324613
:10073000FFF718FE06F1040C87EA0400721E032A74
:1007400006F0030EEBD306F0FC035B4209F1010651
:100750006FF00307F419E178227965794840A479AC
:10076000504004376840D919043180EA0400F1D1BF
:100770003B1DBEF1000F13D019F80310BEF1010F9D
:1007800080EA01000CD04B445978BEF1020F80EA98
:1007900001001CBF9978484002E000BF4FF0040CF4
:1007A0000CF101025FFA8CF301A9C854D2B24046A1
:1007B00003F05CFD23B0BDE8F08300002DE9F04FAD
:1007C00081B000284FF0000800F0C8810C460229D3
:1007D000C0F0C48140F2F00940F2060B054600204B
:1007E0000227C2F20009C2F2000B00214FF00008FC
:1007F0000EE000BF29184320324698474FF0010809
:1008000006EB0A0157FA81F0A042C8B200F2A681B5
:100810004A1CD2B2AE5C01F1020A56FA8AF1A14238
:1008200000F29C81285C411E4229E9D85FFA8AF0D7
:10083000DFE811F0460058006A007C008E00A2003C
:10084000B600D200E600FA00160128013C0156016C
:100850004400440044004400440044004400440078
:100860004400440044004400440044004400440068
:100870004400440044004400440044004400440058
:100880004400440044004400440044004400440048
:100890004400440044004400440044004400440038
:1008A0004400440044004400440044004400440028
:1008B000440044006E017A01840100BFA0E700BF3C
:1008C000022E7FF49DAF295A40F26402C2F2000268
:1008D0001180D9F80830002B3FF490AF291801207F
:1008E000022211E1022E7FF48BAF295A40F26002FE
:1008F000C2F200021180D9F80830002B3FF47EAF1D
:1009000029180220022278E7042E7FF479AFD9F863
:100910000830295843F2F002002BC2F20002516164
:100920003FF46CAF29180320042266E7042E7FF4FD
:1009300067AFD9F80830295843F2F002002BC2F211
:10094000000291613FF45AAF29180420042254E7B1
:10095000012E7FF455AF295C40F20002C2F2000282
:10096000002918BF01211170D9F80830002B3FF47D
:1009700045AF29180520C6E0012E7FF441AF295C60
:1009800040F21812C2F20002002918BF01211170B2
:10099000D9F80830002B3FF431AF29180620B2E017
:1009A000022E7FF42DAF295A40F20202C2F2000259
:1009B00011801188D9F8083001EB810140F20C0256
:1009C0004900002BC2F2000211603FF417AF291852
:1009D0000720022211E700BF012E7FF411AF295C2E
:1009E00040F21912C2F20002002918BF0121117051
:1009F000D9F80830002B3FF401AF2918082082E015
:100A0000012E7FF4FDAE295C40F21A12C2F2000200
:100A1000002918BF01211170D9F80830002B3FF4CC
:100A2000EDAE291809206EE0022E7FF4E9AE295AB6
:100A300040F20402C2F2000211801188D9F8083095
:100A400001EB810140F208024900002BC2F20002D2
:100A500011603FF4D3AE29180A200222CDE600BF70
:100A6000042E7FF4CDAE295840F21402C2F20002E7
:100A70001160D9F80830002B3FF4C0AE29180B20C4
:100A80000422BAE6012E7FF4BBAE295C40F21C12B0
:100A9000C2F20002002918BF01211170D9F80830F4
:100AA000002B3FF4ABAE29180C202CE0022E7FF473
:100AB000A7AE295A40F21002ABF80010BBF80010A4
:100AC000D9F8083001EB81014900002BC2F2000285
:100AD00011603FF493AE29180D2002228DE600BF6D
:100AE000012E7FF48DAE295C40F21B12C2F200028F
:100AF000002918BF01211170D9F80830002B3FF4EC
:100B00007DAE29180E2001224FF00108984777E6A4
:100B1000D9F808304FF00108002B89F800803FF425
:100B20006FAE2918412067E6D9F8083089F80070BF
:100B3000002B3FF463AE291842205DE6042EFFF43B
:100B40005FAE2968D9F80830C9F80C10002B4FF0B7
:100B5000030189F800107FF44DAE4FE608F0010064
:100B600001B0BDE8F08F000040F2F00272B6C2F2B0
:100B7000000293780F2B12D8D37846F27C3CC2F255
:100B8000000C4CF83300D0780CEBC0004160D078FA
:100B9000013000F00F00D07090780130907062B694
:100BA00070470000B0B582B040F2F005C2F2000517
:100BB0000024EC80FFF7B4FC40F62D40C0F60000A6
:100BC000FFF776FD02F088FF43F21831C2F2000110
:100BD00009684FEA11228DF800108DF801204FEAC4
:100BE00011424FEA11618DF802208DF803108DF843
:100BF000040010B902F06EFF04468DF80540E88845
:100C00006A468DF80600E8880823000A8DF8070078
:100C1000E8880130E8806978481C68701320FFF785
:100C20004DFD0A2000F0DEFD02B0B0BDF0B583B08E
:100C3000103821280C4600F271801E461546DFE868
:100C400000F011576D6D6D6D6D6D6D6D6D6D6D6D30
:100C50006D6D8D9F6D6D6D6D6D6D6D6D6D6D6D6D72
:100C60006D6DA5C902F038FF012840F0D180052E36
:100C7000C0F0CE802E792F8840F260023146C2F259
:100C800000026888002E18BF0121178040F264021C
:100C9000C2F20002108040F26300C2F20000017054
:100CA00043F21830C2F2000000680DF10602010A9A
:100CB0008DF806008DF80710010C000E8DF8090064
:100CC00001208DF80810ADF80A00122021460623F5
:100CD000FFF7F4FC46F2FC30C2F20000026812B1E9
:100CE000B8B23146904702F00BFF03B0F0BD00BF31
:100CF00002F0F2FE043810F1040F40F28980284619
:100D00003146FFF75BFD40F26301C2F200010A7851
:100D1000002800F099807ABB9AE000BF40F263009F
:100D2000C2F200000178002900F0928000780028CB
:100D300000F08E8043F21830C2F200000068CDF857
:100D4000060002F0C9FE8DF80A000DF1060202202D
:100D500021460523FFF7B2FC7AE000BF042E57D3EB
:100D6000286800F091FC40F26301C2F200010A78A9
:100D7000002A6DD000286DD00878C8BB68E000BF9D
:100D8000042E45D3286800F097FC29E0002E3FD0C0
:100D900002F0A2FE011F11F1030F39D9297843F2A5
:100DA000F002632928BF6321C2F20002116040F201
:100DB0001D11C2F2000101230B70116846F2484276
:100DC000C2F2000212680228516309D102F052FEF9
:100DD00006E000BF02F080FE032819D102F054FEA5
:100DE00040F26300C2F20000017889B3007878B362
:100DF00043F21830C2F200000068CDF8060002F09D
:100E00006BFE8DF80A000DF10602012016E000BF0E
:100E100040F26300C2F200000178C9B10078B8B1B5
:100E200043F21830C2F200000068CDF8060002F06C
:100E300053FE8DF80A000DF106020220214605231B
:100E4000FFF73CFC03B0F0BD12B108780028E7D1F1
:100E500003B0F0BD204603B0BDE8F04000F002B89A
:100E6000FFF768BB10B582B040F26301C2F2000127
:100E7000097891B1044643F21830C2F200000068CC
:100E8000CDF8030002F028FE8DF807000DF10302F3
:100E9000022021460523FFF711FC02B010BD00001F
:100EA0002DE9F04385B043F2183840F26000C2F2F9
:100EB0000008C2F20000D8F80090008840F2F00666
:100EC000C2F2000600EB8001002830694FEA4101C0
:100ED000A9EB000008BF41F2883188422FD3C6F841
:100EE000109002F0F9FDD8F8001000284FEA112206
:100EF0008DF807108DF808204FEA11424FEA116172
:100F00008DF809208DF80A108DF80B0014BF002011
:100F100002F0E0FD8DF80C00F0880DF107028DF86D
:100F20000D00F0880823000A8DF80E00F0880130CB
:100F3000F0807178481C70701320FFF7BFFB40F2FF
:100F40001B10C2F200000078C8B302F0C5FD0328F0
:100F500035D1B07898B346F27C35C2F200050DF178
:100F6000070400BF307955F83000317905EBC10135
:100F70004F6872B63179013101F00F013171B178EA
:100F80000139B17062B6CDF8070002F0A5FD8DF809
:100F90000B00380A8DF80D00380C71788DF80E00B2
:100FA000380E8DF80F00481C70703220224609233D
:100FB0008DF80C70FFF782FBB0780028D2D102F0D8
:100FC0008BFD053810F1030F3CD340F26400C2F2F0
:100FD00000000088B0B3716900EB8000A9EB01014B
:100FE000B1EB400F2ED3C6F81490D8F8007000F083
:100FF000D5F8044600F0DAF80546CDF8077002F09F
:101000006BFD8DF80B00200A8DF80D00200C8DF87B
:101010000E00200E8DF80F00280A8DF81100280C04
:1010200071788DF81200280E8DF81300481C70702E
:101030000DF1070203200D238DF80C408DF81050A0
:10104000FFF73CFB05B0BDE8F083000070470000EF
:10105000F0B591B040F21A10C2F200000078E8B189
:1010600041F20004C4F20104204603F0C1F8054631
:10107000C0B298B1402888BF4025280609D001A8F1
:10108000EEB2471E204603F077F8013E07F8010F45
:10109000F8D1EAB201A9204603F0E8F811B0F0BD9A
:1010A00072B600BFFEE70000F0B540F21801C2F2D0
:1010B00000010A68002A41D049680B68834241D286
:1010C000A2F1010C51F83C3083423FD9BCF1000F32
:1010D00042D0C2F1000E0022202404E02034632616
:1010E000BC453A464BD00B1953F8203C834204D8F8
:1010F00001EBC205AD68854232D20EEB0207BB1C84
:101100002AD001EBC206B368834202D83569854212
:1011100028D2FB1C20D03369834202D8B5698542AE
:1011200026D23B1D18D0B369171D8342D6D80D595E
:101130008542D3D342F003021CE000BF0026B0B2C8
:10114000F0BD00BF8E88B0B2F0BD00BF01EBCC0097
:101150008688B0B2F0BD00BF6326B0B2F0BD00BF5C
:10116000571C07E042F0020742F0010202E000BF14
:10117000D71C023201EBC20296889D4202D1B0B266
:10118000F0BD00BF01EBC7018988C01A891BEA1AAC
:101190004843B0FBF2F00644B0B2F0BD40F22C1070
:1011A000C2F20000D0F8D4007047000040F22C10CA
:1011B000C2F20000D0F8D80070470000B0B500F0CF
:1011C00007FC40F22C15C2F20005B5F8D010044619
:1011D00005EB81008460B5F8D00048F21F51013062
:1011E000C5F2EB11A0FB01121109322201FB120022
:1011F000A5F8D000B5F8D200312804D8B5F8D2004F
:101200000130A5F8D20028680130286068680130F4
:10121000686040F21B10C2F20000007838B102F0A2
:101220005BFC032803D169682046FFF79DFC42F66A
:10123000BC70295841F26F7291420FD84FF43F5160
:1012400069584FF6FA7291422A5888BF6FF004012C
:10125000531C2B5005EB4200A0F8DC104FF43F501C
:1012600000212950B0BD000040F22C10C2F2000055
:101270004FF43F5142580132425041584FF6FB72F1
:10128000914238BF704742F6BC71425841F26F73C9
:101290009A4208D84258531C435000EB42014FF683
:1012A000FB72A1F8DC204FF43F51002242507047FE
:1012B0002DE9F04FBBB009A840F22C1848F21F5995
:1012C0001038C2F200083227C5F2EB19009000BFB7
:1012D00072B6B8F8D220B8F8D04062B6022AC0F090
:1012E000B781322A28BF3A46A01A00F13203A3FB85
:1012F0000916350905FB173E511E032901AB04925F
:1013000083E8124002D2002658E000BFA300A3EBFE
:101310008203C82705FB173302F03C01322208EB99
:10132000030605FB120C06F1D80007900CF13400FF
:1013300006F1D4020CF133050CF1350BF446DDF85F
:1013400000E008916FF0C701069206F1DC0206F199
:10135000D0080026059200BF4A46A0FB099A914694
:10136000A5FB0247ABFB0243ACFB0242120902FBA6
:1013700001823C0952F82620069F4EF8102F04FBEC
:1013800001741B0954F82620079F4FEA1A1404FB26
:101390000174059F54F8264003FB0173043053F891
:1013A0002630CEE90124089A043604350BF1040BEB
:1013B000B2420CF1040CCEF80C30CDD1DDF810B0F7
:1013C00040F22C18039C1BF0030AC2F200084FF0F5
:1013D00032072BD0A019A0FB0913190901FB170034
:1013E000BAF1010F08EB8000806809A941F82600D6
:1013F0001CD0701C2118A1FB09352B0903FB171108
:10140000BAF1020F08EB8101896809AA42F820109D
:101410000CD0B01C2118A1FB0936330903FB1711AE
:1014200009AA08EB8101896842F8201072B6B8F861
:10143000D210B8F8D00062B659457FF449AF02998E
:1014400088427FF445AF00F0C3FA40F2040EC2F2C6
:10145000000EBEF80010002900F0FA80019903295F
:1014600008D200254FF00009002700244FF0000BA0
:101470005AE000BF09A90BF03C0C01F1080300255C
:101480004FF00009002700244FF0000B0DE000BFD3
:10149000BBF1000F09F101094FF0010B08BF27460E
:1014A0000435AC4503F110033ED053F8086CBEF888
:1014B0000010821B8A4201D9264607E0BBF1000FCB
:1014C00009F101094FF0010B08BF374653F8044CEE
:1014D000BEF80010021B8A4202D9344608E000BF61
:1014E000BBF1000F09F101094FF0010B08BF2746BE
:1014F0001E68BEF80010821B8A4201D9264607E00A
:10150000BBF1000F09F101094FF0010B08BF37468D
:101510005C68BEF80010021B8A42B9D93446043513
:10152000AC4503F11003C0D1BAF1000FA44626D098
:1015300009A951F825C0BEF80060A0EB0C03B34226
:1015400012D9A446BAF1010F19D009A901EB8505FA
:101550006E68BEF80030841B9C421BD96646BAF107
:10156000020F22D130E000BFBBF1000F09F10109E9
:101570004FF0010B08BF6746BAF1010FE5D11FFA22
:1015800089F0022825D20020C8F8D4003BB0BDE87D
:10159000F08F00BFBBF1000F09F101094FF0010B03
:1015A00008BF3746BAF1020F0ED0AB68BEF8005044
:1015B000C01ABBF1000F394608BF1946A8429EBFAA
:1015C0001E460F4609F10109B4461FFA89F00228A8
:1015D000D9D3BC453CD040F21401C2F200010A68E4
:1015E000B2B3ACEB070100EE101A9FED1C1AB8EE77
:1015F000400A80EE010A013801EE100AB8EEC11A65
:1016000081EE000A9FED161A20EE010A01EE102A63
:10161000B8EE411A80EE010A10EE100A00F0FF4009
:10162000B0F1FF4F4FF00000AED0B5EE400AF1EE42
:1016300010FAA9DDB6EE001A30EE010ABCEEC00ABF
:1016400010EE100AC8F8D4003BB0BDE8F08F00BF20
:101650000020C8F8D4003BB0BDE8F08F00007A4409
:1016600000606A4740F22C10C2F2000040F21403FE
:101670004168C2F200034FF47A721B685143B1FB18
:10168000F3F1C0F8D810704743F2F00CC2F2000C2E
:10169000BCF81C12BCF81E325A1C02F07F028A42AF
:1016A00004BF002070470CEB8301C8610120BFF329
:1016B0005F8FACF81E22704743F2F001C2F20001C6
:1016C000002272B6A1F81C22A1F81E22C8610120D6
:1016D000A1F81E0262B601207047000040F22010FF
:1016E000C2F200000178002908BF70470021017094
:1016F00040F2C801C2F200010A78486832B10128FC
:101700000CD80020486008700AE000BF0130632850
:1017100005D36320012248600A7001E00138486067
:1017200046F24841C2F20001096848637047000070
:1017300070B5866D044600F04BF994F83510022917
:1017400028D105462068216C026822F0160202604A
:10175000426922F08002426109B9A16C19B10168A5
:1017600021F008010160016821F00101016000BF62
:1017700020680068C00715D000F02AF9401B062831
:10178000F6D320206065032084F83500002184F81A
:10179000341070BD802060650120002184F8341071
:1017A00070BD00BFE06D3F2101FA00F0B060012084
:1017B00084F835000020002184F8341070BD00004A
:1017C00090F83510022909D1052180F835100068FC
:1017D000016821F00101016000207047802141650E
:1017E00001207047B0B5044600F0F2F8054640F21B
:1017F0002000C2F200000078611C18BF044400BF42
:1018000000F0E6F8401BA042FAD3B0BD2DE9F04F3E
:1018100082B000F13E4241F2000502F1FF77C4F2CE
:101820000205072243F6004E4FEAB726A84208BF3A
:101830000422C4F2010E042E38BF4FEAB72201255C
:10184000002600274FF00008009208E008F1010888
:101850000437B8F1100F06F1020600F0A7800C68FB
:1018600005FA08F914EA090FF0D0D1F804B0032200
:101870000BF0030CACF10104B240012C6FEA020A38
:1018800010D88268CC6802EA0A02B440224382601F
:101890004268CBF3001422EA090204FA08F4224356
:1018A000426005E0BCF1030F02D14FF0030C20E0D1
:1018B000C2688C6802EA0A02B4402243BCF1020FFB
:1018C000C26016D16FF0030202EA58020244D2F855
:1018D00020C007F01C050F230C69AB402CEA030362
:1018E00004FA05F52B431362D1F804B001250BF07F
:1018F000030C02680CFA06F302EA0A021A431BF40C
:10190000403F0260A2D0002243F644030192C4F299
:1019100002031A684FF6084C42F480421A601A68B3
:10192000CFF6FF7C02F480420192019A28F0030274
:10193000724452F80C3007F00C050F24AC40A3435E
:10194000009C04FA05F52B4342F80C30DEF8082021
:101950004B6842EA090543F60C4CDC0258BF22EA08
:101960000905CEF80850C4F2010CDCF800209C02F6
:1019700042EA090558BF22EA0905CCF80050DEF812
:1019800004209C0342EA090558BF22EA0905CEF863
:101990000450DEF80020DB0342EA090558BF22EAC2
:1019A0000905CEF80050012550E700BF02B0BDE8A0
:1019B000F08F0000426902EA0103914341EA0341CA
:1019C00081617047002A08BF0904816170470000E7
:1019D00046F23460C2F200000068704740F2200016
:1019E00046F23461C2F20000C2F2000100780A68D7
:1019F000104408607047000080B543F60040C4F210
:101A00000200016841F400710160016841F48061E5
:101A10000160016841F480710160032000F088F8E2
:101A20000F2000F005F800F027F8002080BD00002E
:101A300070B540F22006C2F2000640F2580132783A
:101A4000C2F200014FF47A730968B3FBF2F2044664
:101A5000B1FBF2F1084600F043FB0F2C4FF00105FB
:101A600008D838B94FF0FF3021460022002500F099
:101A700033F87460284670BD82B0002043F6400100
:101A80000190C4F202014A6842F480424A604A6806
:101A900002F480420192019A0090086840F0805060
:101AA0000860086800F080500090009802B070470D
:101AB000002848BF7047C1B200F01F00012202FA9F
:101AC00000F04EF20012CEF2000242EAD10121F003
:101AD000030108607047000010B54EF60C5CCEF2B2
:101AE000000CDCF80030C3F3022E8EF00704042C47
:101AF00028BF0424BEF103034FF0FF3E0EFA04F4A6
:101B000038BF0023A14399400EFA03F39A431143CF
:101B100000F00F0200F160430901043A03F5644349
:101B20006244002848BF02F10C03197010BD000088
:101B30004EF60C51CEF200010A684FF6FF031A4030
:101B400060F30A2242F0806040F0FD700860704748
:101B50002DE9F041002800F08B8043F60808C4F21C
:101B600002080446D8F8F8030D4600F00700884242
:101B700007D288F8F853D8F8F80300F00700A84215
:101B800076D12068810717D5410705D5D8F8001010
:101B900041F4E051C8F80010010705D5D8F800104D
:101BA00041F46041C8F80010D8F80010A26821F094
:101BB000F0011143C8F80010C0073FD1D8F8F8036E
:101BC00000F00700A84207D988F8F853D8F8F803BE
:101BD00000F00700A8424BD12068410707D5D8F88C
:101BE0000010E26821F4E0511143C8F8001000072A
:101BF00008D5D8F80000216920F4604040EAC1000F
:101C0000C8F8000000F07CF8D8F8001044F2006238
:101C1000C1F30311C0F60002515C40F2580220FAF1
:101C200001F140F22400C2F200000068C2F200029A
:101C30001160FFF7FDFE0020BDE8F0816068811EA5
:101C4000022907D258F8081C89015CBF0120BDE8B1
:101C5000F08111E0012807D158F8081C89035CBF06
:101C60000120BDE8F08107E058F8081C890703D47B
:101C70000120BDE8F08100BFD8F8001021F0030179
:101C80000843C8F80000FFF7A3FE064641F2883774
:101C9000D8F80000616800F00C00B0EB810F8DD027
:101CA000FFF796FE801BB842F2D90320BDE8F08111
:101CB00040F2580043F60801C2F20000C4F20201EB
:101CC0000068096844F21062C1F38221C0F6000284
:101CD000515CC8407047000040F2580043F60801CC
:101CE000C2F20000C4F202010068096844F2106206
:101CF000C1F34231C0F60002515CC8407047000099
:101D000010B543F60404C4F20204606800F00C004D
:101D100008280BD0042819BF42F20040C0F2F4009A
:101D200047F64000C0F27D1010BD00BF206821685A
:101D30002368490247F64001C0F27D1100F03F02DE
:101D4000C3F388105CBF42F20041C0F2F401A1FB72
:101D500000010023FEF78EFA21680222C1F301413F
:101D600002EB4101B0FBF1F010BD00002DE9F041A4
:101D700082B0002868D00446007843F60006C00709
:101D8000C4F202060BD0B06800F00C00042840F04A
:101D90009F803068800302D56068002854D0207886
:101DA00080071AD5B06810F00C0F09D0B06800F0A9
:101DB0000C00082840F0A6807068400200F1A28064
:101DC0003068800702D5E06801283DD1306821697C
:101DD00020F0F80040EAC10030602078000737D4D6
:101DE000207840074CD4A56955B3B06800F00C00CA
:101DF000082840F0BB80012D26D07068E16900F40E
:101E000080028A4220D1216A00F03F028A421BD11F
:101E100047F6C071626A0140B1EB821F14D1A16A1A
:101E20004FF6FF73C903994300F44032A1F58031A6
:101E30008A4209D1E16A00F07060B0EB016F03D112
:101E4000002002B0BDE8F081012002B0BDE8F081C1
:101E50006069002840F20000C4F2472076D00121DA
:101E6000C0F8801EFFF7B4FD054600BF706F800705
:101E7000B6D4FFF7ADFD401B0228F7D9DDE000BF67
:101E8000306C10F080580AD100200190306C40F086
:101E900080503064306C00F080500190019847F21F
:101EA0000007C4F200073868C00541D4386840F420
:101EB00080703860FFF78CFD054600BF3868C005AC
:101EC00036D4FFF785FD401B0228F7D9B5E000BFE7
:101ED000B06800F00C00082803D1706840023FF59C
:101EE00058AF6068B0F5803F07D0B0F5A02F40F044
:101EF0008D80306840F480203060306840F480305D
:101F000030608DE0E068002852D00020C4F2472005
:101F100001210160FFF75CFD054600BF30688007C6
:101F20003FF554AFFFF754FD401B0228F6D984E07B
:101F3000A068012805D005284ED1306F40F004007C
:101F40003067306F40F0010030674FE00021C0F88B
:101F5000801EFFF73DFD0546706F80077FF540AF9F
:101F6000FFF736FD401B0228F6D966E00027C4F2D1
:101F7000472700203866FFF72BFD022D05460BD1C1
:101F8000306880015ED5FFF723FD401B02284FF02B
:101F90000300F5D955E700BF306880017FF550AFE9
:101FA000FFF716FD401B02284FF00300F4D948E765
:101FB0000020C4F2472000210160FFF709FD05461B
:101FC000306880077FF509AFFFF702FD401B02284C
:101FD0004FF00300F4D934E7316F002821F00101FC
:101FE0003167316F21F0040131674DD0FFF7F0FC0C
:101FF000054641F2883700BF306F800756D4FFF79F
:10200000E7FC401BB842F7D917E000BF3168002851
:1020100021F480313160316821F4802131604FD06A
:10202000FFF7D6FC054600BF306880033FF5B7AE2A
:10203000FFF7CEFC401B6428F6D9032002B0BDE8B0
:10204000F08100BF04F11C052FCD084340EA821047
:10205000D9034FF6FF729143A1F5803140EA056044
:102060000843706001203866FFF7B2FC044600BFE9
:10207000306880013FF5E4AEFFF7AAFC001B0228A0
:102080004FF00300F4D9DCE6FFF7A2FC054641F26D
:10209000883700BF306F800708D5FFF799FC401BD9
:1020A000B8424FF00300F5D9CBE600BFB8F1000FFE
:1020B0007FF499AE306C20F08050306493E600BF1E
:1020C000FFF786FC054600BF306880037FF567AEEA
:1020D000FFF77EFC401B64284FF00300F4D9B0E604
:1020E000411E0020B0EB116F1CBF012070474EF263
:1020F0001002CEF2000251604EF62351CEF20001E2
:10210000F0230B700721906011607047704700004A
:102110007047000010B590F83C20012A4FF00202F1
:102120003ED080F83D200268D2F804E0D2F808C022
:102130000C682EF07003234340F6FF34C4F2000411
:10214000A242536010DCB2F1804F1ED040F2004337
:10215000C4F200039A4218D040F60003C4F2000310
:102160009A4212D016E000BF40F60043C4F20003CA
:102170009A420AD044F20003C4F201039A4204D006
:102180000023C4F201039A4204D149682CF0800371
:10219000194391600121002280F83D1080F83C2015
:1021A000104610BD002804BF0120704710B504463A
:1021B00090F83D0028B9002084F83C00204600F04B
:1021C0001FF8022084F83D002068211D01F06CFDFD
:1021D000012084F8460084F83E0084F83F0084F82B
:1021E000400084F8410084F8420084F8430084F8F9
:1021F000440084F8450084F83D00002010BD000034
:1022000080B586B0006840F60041C4F20001884203
:1022100022D040F20041C4F20001884250D0B0F117
:10222000804F4AD10020019043F64000C4F20200E2
:102230000168002241F0010101600068002100F006
:102240000100019001981C20FFF746FC1C2006B0FD
:10225000BDE88040FFF72CBC002043F64001019010
:10226000C4F202010A6842F008020A600A6802F039
:1022700008020192019A019051F8102C42F00102DB
:1022800041F8102C51F8101C01F001010191019945
:10229000012101910221CDE90210CDE904010020C4
:1022A000C4F2020001A9FFF7B1FA32200021002296
:1022B000FFF712FC3220FFF7FBFB06B080BD00BF2A
:1022C0000020019043F64000C4F20200016841F092
:1022D00002010160006800F002000190019806B060
:1022E00080BD000090F83D1001291CBF01207047FF
:1022F000022180F83D10006840F6FF32C168C4F248
:102300000002904241F00101C1600FDCB0F1804F4A
:102310001DD040F20041C4F20001884217D040F6BF
:102320000001C4F20001884211D017E040F60041DC
:10233000C4F2000188420AD044F20001C4F2010153
:10234000884204D00021C4F20101884206D181688C
:1023500001F00701062904BF00207047016841F021
:10236000010101600020704780B590F83C20012AEF
:102370004FF0020200F0C28080F83D20D0F800C08B
:102380004FF67772DCF8083023EA0202CCF8082016
:102390000B684F2B28DC1F2B44DD202B45D0302B26
:1023A00043D0402B40F0AC80D1F804E0C968DCF8A1
:1023B0002030DCF8202022F00102CCF82020DCF8CC
:1023C000182022F0F00242EA011123F00A0242EA48
:1023D0000E02CCF81810CCF82020DCF8081041F0E0
:1023E000470121F0300180E06F2B27DDB3F5005F5E
:1023F00048D0B3F5805F7AD0702B40F08180D1E96E
:1024000001E3C968DCF8082043EA0E0322F47F42A6
:1024100043EA01211143CCF80810DCF8081041F020
:10242000770162E00BB1102B6AD1DCF8081021F0C3
:102430007001194341F0070157E000BF502B35D020
:10244000602B5DD1D1F804E0C968DCF82030DCF8FD
:10245000202022F01002CCF82020DCF8182022F4F2
:10246000704242EA013123F0A00242EA0E12CCF897
:102470001810CCF82020DCF8081041F0670121F09A
:10248000100132E0D1E901E3C968DCF8082043EA31
:102490000E0322F47F4243EA01211143CCF80810D5
:1024A000DCF8081041F480411FE000BFD1F804E0DF
:1024B000C968DCF82030DCF8202022F00102CCF8DA
:1024C0002020DCF8182022F0F00242EA011123F06B
:1024D0000A0242EA0E02CCF81810CCF82020DCF8F0
:1024E000081041F0570121F02001CCF8081000221B
:1024F000012180F83D10002180F83C10104680BD7D
:102500000122F5E7016840F60042C4F20002914260
:1025100018BF7047007F012808BFFEF74FBE704705
:10252000F0B590F83C30012B04BF0220F0BD4FEA1B
:10253000B202032A2CD8DFE802F003314F6F00BF4C
:102540000368D1E900C5D1F80CE01C6A1A6A40F6AC
:10255000FF3722F001021A621A4652F8186FC4F2CD
:102560000007BB4200F37E80B3F1804F00F08B8008
:1025700040F20047C4F20007BB4200F0848040F6FE
:102580000007C4F20007BB4200F07D8096E000BF68
:102590000121002280F83C200846F0BD0368D1E903
:1025A00000E6D1E902C11C6A1A6A360222F0100262
:1025B0001A621A4652F8185F4FF2FF07BE4325F41D
:1025C000734561F30F3624F0A0040EF00A0746EAC3
:1025D000050144EA07173CE00768D1E900C5D1E9E5
:1025E00002313C6A3A6A61F3071522F480723A625A
:1025F0003A4652F81C6F26F0F30645EA060124F429
:1026000020660CF00A0546EA052611603E62116854
:1026100021F00C01116047E00368D1E900E6D1E93F
:1026200002C11C6A1A6A360222F480521A621A46E1
:1026300052F81C5F4FF2FF07BE4325F4734561F368
:102640000F3624F420440EF00A0746EA050144EA56
:10265000073711601F6211684FEA0C2321F44061B3
:10266000116021E040F60047C4F20007BB420AD0E7
:1026700044F20007C4F20107BB4204D00027C4F2B1
:102680000107BB421AD126F00306354324F00A079E
:102690000CF00A066EF3071537449D611F629F69AF
:1026A00027F00C079F618B681168194311600021A6
:1026B000002280F83C200846F0BD00BF46F001052E
:1026C000E4E70000002804BF0120704710B504466D
:1026D00090F83D0028B9002084F83C00204600F026
:1026E0001FF8022084F83D002068211D01F0DCFA6B
:1026F000012084F8460084F83E0084F83F0084F806
:10270000400084F8410084F8420084F8430084F8D3
:10271000440084F8450084F83D00002010BD00000E
:102720007047000051B308290AD0042919BF00F1ED
:10273000410200F1450300F13F0200F1430303E0D1
:1027400000F1400200F1440312781B78012A4FF097
:10275000010208BF012B01D0104670470222082950
:1027600022D004292CD180F83F2080F843204FEA62
:10277000B103032B4FF00102EED82BE090F83E207E
:1027800090F84230012A4FF0010208BF012BE3D13B
:10279000022280F83E2080F842204FEAB103032B4A
:1027A0004FF00102D8D815E080F8402080F844208E
:1027B0004FEAB103032B4FF00102CDD80AE000BF6E
:1027C00080F8412080F845204FEAB103032B4FF0F9
:1027D0000102C1D844F2186C0068C0F6000C5CF825
:1027E00023C0C36801F01F0143EA0C03C360036AFE
:1027F00002FA01F123EA01020262026A114340F681
:10280000FF32C4F20002904201620FDCB0F1804F4F
:102810001DD040F20041C4F20001884217D040F6BA
:102820000001C4F20001884211D017E040F60041D7
:10283000C4F2000188420AD044F20001C4F201014E
:10284000884204D00021C4F20101884206D1816887
:1028500001F00701062904BF00207047016800222B
:1028600041F00101016010467047000070B5044658
:102870000068C5680669B10716D515F0020113D0C6
:102880006FF002010161012121778069800703D087
:102890002046FFF737FE05E0204600F08FF820467F
:1028A00000F0C0F900202077700719D515F004005A
:1028B00016D020686FF00401016102212177806940
:1028C00010F4407F04D02046FFF71CFE06E000BF56
:1028D000204600F073F8204600F0A4F9002020778D
:1028E000300717D515F0080014D020686FF00801E4
:1028F000016104212177C069800703D02046FFF7DA
:1029000001FE05E0204600F059F8204600F08AF963
:1029100000202077F00619D515F0100016D0206899
:102920006FF01001016108212177C06910F4407F28
:1029300004D02046FFF7E6FD06E000BF204600F089
:102940003DF8204600F06EF900202077F00718BF10
:1029500015F0010002D1300609D412E020686FF0B2
:1029600001010161204600F0D9F9300609D515F0C2
:10297000800006D020686FF0800101612046FFF7DB
:10298000C5FB700609D515F0400006D020686FF031
:1029900040010161204600F053FAB00658BF70BDF7
:1029A00015F0200008D021686FF0200220460A614F
:1029B000BDE87040FFF7ACBB70BD00007047000081
:1029C0002DE9F04390F83C30012B04BF0220BDE814
:1029D000F0834FEAB202032A3AD8DFE802F003415B
:1029E0007DB900BF036800261D6A1A6AC4F2010699
:1029F00022F001021A621A465C6852F818CFB342FC
:102A00008E68D1F800E025F0020545EA06050CD1F4
:102A1000CE68D1E9057824F4407425F00C0526F041
:102A200004063C43354344EA08042CF0730747EAA4
:102A30000E075C609F614F6809695F631D629F6953
:102A400047F008079F619F6927F004079F61AEE088
:102A50000121002280F83C200846BDE8F08300BF39
:102A6000036800261D6A1A6AC4F2010622F01002E9
:102A70001A621A46D3F804C052F8184FB3428E684F
:102A8000D1F800E025F0200545EA061510D1CE6802
:102A9000D1E9058725F0C0096FF0400505EA061564
:102AA0002CF4406647EA080745EA090546EA870C20
:102AB00024F4E64444EA0E27C3F804C09F614F683B
:102AC00009699F631D629F6947F400679F619F6961
:102AD00027F480679F6169E0036800261D6A1A6A0F
:102AE000C4F2010622F480721A621A46D3F804C0B6
:102AF00052F81CEFB3428E680C6825F4007545EA65
:102B0000062511D1CE68D1E9058725F44069360242
:102B100040F2FF4526EA05052CF4405647EA08072F
:102B200045EA090546EA071C2EF073072743C3F858
:102B300004C0DF614F680969DF631D62DF6947F028
:102B40000807DF61DF6927F00407DF612FE000BFBE
:102B500003680027D3F820C01A6AC4F2010722F4E0
:102B600080521A621A465C6852F81C5FD1F800E085
:102B70008E68BB4204D14F6924F4804444EA871430
:102B80002CF4005747EA063725F4E64646EA0E26B7
:102B90005C60DE614E6809691E641F62DF6947F48C
:102BA0000067DF61DF6927F48067DF61090213686E
:102BB000194311600021002280F83C200846BDE83E
:102BC000F0830000002804BF0120704710B50446C0
:102BD00090F83D0028B9002084F83C00204600F021
:102BE0001FF8022084F83D002068211D01F05CF8E8
:102BF000012084F8460084F83E0084F83F0084F801
:102C0000400084F8410084F8420084F8430084F8CE
:102C1000440084F8450084F83D00002010BD000009
:102C2000704700007047000041B1082910D0042906
:102C300014BF00F1410200F13F020BE090F83E208A
:102C4000012A1CBF01207047022280F83E2013E0B9
:102C500000F140021278012A1CBF012070470222B5
:102C6000082907D0042914BF80F8412080F83F20AC
:102C700002E000BF80F84020006801F01F0101223F
:102C8000036A8A4023EA02010162036A4421C4F212
:102C900001011A43A1F144039842026216D040F6A2
:102CA000FF31C4F2000188421ADCB0F1804F28D015
:102CB00040F20041C4F20001884222D040F60001F7
:102CC000C4F2000188421CD022E000BF0A6842F42E
:102CD00000420A6040F6FF31C4F200018842E4DDA0
:102CE00040F60041C4F2000188420AD044F20001DB
:102CF000C4F20101884204D00021C4F201018842DB
:102D000006D1816801F00701062904BF0020704741
:102D1000016841F00101016000207047B0B5006812
:102D2000B0F1804F18BFB0BD43F21830C2F20000BE
:102D3000016801310160FEF797FA40F20044C4F2E5
:102D4000020420464FF4804101220125FEF73AFE9D
:102D500020464FF4804100220024FEF733FE40F26B
:102D6000D000C2F20000057045700571457181798F
:102D70000131CAB2642A817124BF8471C57081682F
:102D800042F2107201319142816003D300218160CF
:102D90000121817040F21811C2F20001097889B155
:102DA00040F20C020169C2F2000212680131914244
:102DB000016107D30021016140F22111C2F200013B
:102DC00001220A7043F2F001C2F200010A8940F2C6
:102DD000100301320A81C2F200031B6892B29342CF
:102DE00003D800220A8101224A60D1F8242201324C
:102DF000642AC1F8242205D30022C1F8242201222A
:102E000081F8202240F22411C2F200010A88013226
:102E100093B2B3F57A7F0A8007D300220A8040F28A
:102E20002011C2F2000101220A7040F26201C2F2D6
:102E300000010978C268002918BF511CC160B0BDEB
:102E4000704700007047000070470000B0B582B0C6
:102E5000044600680168C368426901F02F05202D0F
:102E600003F0200506D12DB1204602B0BDE8B040E8
:102E700000F09CBF5FEA017C1EBF02F0010E03F46C
:102E8000907212EB0E0253D1226B012A05D111F080
:102E9000100218BF13F0100236D10A0622D513F023
:102EA00080021FD094F8411021293FD1A168B1F5CB
:102EB000805F03D12169002900F08282216A4A1CC7
:102EC000226209784160E18C01390A04E1842DD144
:102ED000C16821F08001C160C16841F04001C1605A
:102EE00002B0B0BD490621D513F040011ED0C16823
:102EF00021F04001C1602021204684F8411002B039
:102F0000BDE8B04000F04ABB002101910168019189
:102F10004168019101994069400613D4A08DE18D6B
:102F2000E28D002A18BF884240F0CC8102B0B0BDCB
:102F3000CA0718BF13F4807240F0BE804A0700F140
:102F4000C180C6E0E06B01684A68A38D91B2002998
:102F500000F0A881994280F0A581E285C069B0F5B2
:102F6000807F00F09D80206850E8030F216820F4E6
:102F7000807041E80302DAB1206850E8030F21684D
:102F800020F4807041E8030292B1206850E8030FFA
:102F9000216820F4807041E803024AB1206850E8BB
:102FA000030F216820F4807041E80302002ADAD17F
:102FB000206850E8050F216820F0010041E8050273
:102FC000BAB3206850E8050F216820F0010041E8FD
:102FD000050272B3206850E8050F216820F0010057
:102FE00041E805022AB3206850E8050F216820F067
:102FF000010041E80502002ADAD11AE0206850E811
:10300000050F216820F0400041E80502DAB1206890
:1030100050E8050F216820F0400041E8050292B118
:10302000206850E8050F216820F0400041E80502C3
:103030004AB1206850E8050F216820F0400041E8BF
:103040000502002ADAD1202084F842000020206303
:10305000206850E8030F216820F0100041E80302C7
:10306000DAB1206850E8030F216820F0100041E831
:10307000030292B1206850E8030F216820F010008D
:1030800041E803024AB1206850E8030F216820F0AC
:10309000100041E80302002ADAD1E06BFEF748FB9A
:1030A00002206063A08DE18D401A81B2204602B0FB
:1030B000BDE8B040FFF7C6BE626C42F00102626438
:1030C0004A0706D5BEF1000F03D0626C42F002023F
:1030D00062648A0706D5BEF1000F03D0626C42F02D
:1030E00004026264BCF1000F09D545EA0E02B2FA8F
:1030F00082F2520903D1626C42F008026264626C8F
:10310000002A3FF413AF11F0200118BF002D03D0A7
:10311000204600F04BFE20684069616C00F04000E2
:1031200001F00801401800F0B58000BF206850E8A9
:10313000030F216820F4907041E80302BAB32068BD
:1031400050E8030F216820F4907041E8030272B345
:10315000206850E8030F216820F4907041E80302D2
:103160002AB3206850E8030F216820F4907041E8EA
:103170000302002ADAD11AE0206850E8050F21681E
:1031800020F0010041E80502DAB1206850E8050F9F
:10319000216820F0010041E8050292B1206850E862
:1031A000050F216820F0010041E805024AB12068BE
:1031B00050E8050F216820F0010041E80502002ACF
:1031C000DAD1206B012824D1206850E8030F216850
:1031D00020F0100041E80302DAB1206850E8030F44
:1031E000216820F0100041E8030292B1206850E805
:1031F000030F216820F0100041E803024AB1206863
:1032000050E8030F216820F0100041E80302002A73
:10321000DAD1202084F84200002020632068406931
:10322000400649D5206850E8050F216820F040008D
:1032300041E80502DAB1206850E8050F216820F066
:10324000400041E8050292B1206850E8050F21686E
:1032500020F0400041E805024AB1206850E8050F1F
:10326000216820F0400041E80502002ADAD1E06B35
:1032700010B343F6A151C0F600010165FEF7A0FAB4
:1032800000283FF453AEE06B016D02B0BDE8B040E2
:10329000084700BF2046FFF7D7FD0020606402B05A
:1032A000B0BD00BF8B427FF441AEC069B0F5807FF6
:1032B0007FF43CAE02227CE0204602B0BDE8B04084
:1032C000FFF7C2BD401A216851E8031F226821F4AC
:1032D000907142E80313DBB1216851E8031F2268B3
:1032E00021F4907142E8031393B1216851E8031F60
:1032F000226821F4907142E803134BB1216851E830
:10330000031F226821F4907142E80313002BDAD1E5
:10331000216851E8051F226821F0010142E80513E8
:10332000DBB1216851E8051F226821F0010142E864
:10333000051393B1216851E8051F226821F00101AE
:1033400042E805134BB1216851E8051F226821F0BE
:10335000010142E80513002BDAD1202184F8421044
:1033600000212163216851E8031F226821F0100128
:1033700042E80313DBB1216851E8031F226821F002
:10338000100142E8031393B1216851E8031F22683A
:1033900021F0100142E803134BB1216851E8031FEB
:1033A000226821F0100142E80313002BDAD1022237
:1033B00081B22046626302B0BDE8B040FFF742BD73
:1033C000216A31F8022B6FF35F22426021627AE5B5
:1033D000002804BF0120704710B5044690F8410052
:1033E00028B9002084F84000204600F021F824206D
:1033F00084F841002068C16821F40051C160204672
:1034000000F054FD2068016921F490410161416997
:1034100021F02A014161C16841F40051C1600020DE
:103420002021606484F8411084F84210606310BD6C
:103430002DE9F04186B0006844F20042C4F2000277
:1034400000219042CDE90411CDE9021101914BD048
:1034500041F20041C4F20101884267D041F200010B
:10346000C4F20101884240F09380002543F6300009
:103470000095C4F202004169002441F0100141614D
:103480004169C4F2020401F0100100910099009515
:1034900001684FF0020841F0010101600168032753
:1034A00001F001010091009900950168072641F0A3
:1034B00002010160006801A900F00200009000987C
:1034C0004FF4007001902046CDE9028504970596DF
:1034D000FEF79CF98020CDE90108CDE90357059658
:1034E00004F58060252448E043F630000091C4F2E2
:1034F00002000269262442F400320261026902F4E9
:1035000000320092009A0091026842F001020260CB
:10351000006800F00100009000980C20019002204B
:10352000CDE9020103200490072022E0002043F6A9
:1035300030010090C4F202014A69472442F020029F
:103540004A614A6902F020020092009A00900A68DB
:1035500042F001020A60096801F00101009100993E
:103560004FF4C05101910221CDE9021003200490D3
:10357000082005900020C4F2020001A9FEF746F9D8
:10358000204600210022FEF7A7FA2046FEF790FA17
:1035900006B0BDE8F08100007047000070470000F1
:1035A000FEE70000B0B540F22C1043F2F004C2F286
:1035B00000000021C2F2000446F2484272B60160E7
:1035C0004160A0F8D010A0F8D210C0F8D410C0F814
:1035D000D8102160C2F200021268516342F6BC7238
:1035E0006160218181504FF43F5281504CF6CD42B1
:1035F000C3F64C526261A261216162B6002200BF33
:10360000A3188032B2F5007FD961196259629962BC
:10361000D962196359639963D963196459649964C8
:10362000D964196559659965D965196659669966A8
:10363000D966196759679967D967C3F88010C3F8C5
:103640008410C3F88810C3F88C10C3F89010C3F826
:103650009410C3F89810D3D100254FF6FC71A4F84C
:103660001C52A4F81E52E5608160C1600161416195
:103670008161C161016241628162C1620163416332
:103680008163C163016441648164C1640165416512
:103690008165C165016641668166C16601674167F2
:1036A0008167C167C0F88010C0F88410C0F8881026
:1036B000C0F88C10C0F89010C0F89410C0F89810A2
:1036C000C0F89C10C0F8A010C0F8A410C0F8A81052
:1036D000C0F8AC10C0F8B010C0F8B410C0F8B81002
:1036E000C0F8BC10C0F8C010C0F8C410C0F8C810B2
:1036F000C0F8CC1040F20040C4F202004FF48051F8
:103700000022FEF75FF984F82052C4F82452B0BDBD
:1037100070B586B0002543F6300005950095C4F2DB
:103720000200016840F2004441F0010101600168BB
:10373000C4F2020401F001010091009900950168B2
:10374000002241F002010160006841F2064100F0F0
:10375000020000900098204641F20646FEF732F93A
:103760000120CDE9020501A9204601960495FEF746
:103770004DF806B070BD000080B586B046F200403E
:103780000021C2F200004FF080420F234FF0630C83
:103790000591CDE90311CDE90011C0E90023C0E98D
:1037A000021C01618161FEF7FDFC002818BFFDF7D6
:1037B00077FC4FF48050029046F20040C2F20000C5
:1037C00002A9FEF7D1FD002818BFFDF769FC46F2FB
:1037D0000040C2F200006946FEF79CFC002818BFBA
:1037E000FDF75EFC06B080BDB0B594B040F2004578
:1037F00046F24840C4F200050021C2F200000F2248
:1038000063230E91CDE90C110991CDE90711CDE9A2
:103810000511CDE90311CDE90111C0E90052C0E95C
:10382000021301618161FEF7BDFC002818BFFDF79E
:1038300037FC4FF480500B9046F24840C2F2000033
:103840000BA9FEF791FD002818BFFDF729FC46F2F1
:103850004840C2F20000FFF7B5F9002818BFFDF795
:103860001FFC46F248400024C2F2000008A9CDE93E
:103870000844FEF74FFC002818BFFDF711FC60203C
:10388000CDE901040394059446F24844C2F20004D1
:1038900001A920460022FFF793F8002818BFFDF782
:1038A000FFFB2068A84201D014B0B0BD002043F651
:1038B00030010F90C4F202010A6842F002020A606D
:1038C000096801F002010F910F9910210F91022157
:1038D000CDE91010CDE9120105F500300FA9FDF773
:1038E00095FF14B0B0BD000010B58AB046F290400C
:1038F00040F600420021C2F20000C4F2000240F68D
:103900007F434FF0FF340991CDE90711CDE9041150
:10391000CDE90211CDE90011C0E90023C0E902148C
:1039200001618161FEF73EFC002818BFFDF7B8FB7E
:103930004FF48050069046F29040C2F2000006A973
:10394000FEF712FD002818BFFDF7AAFB46F29040D3
:10395000C2F20000FEF7B6FE002818BFFDF7A0FB7C
:1039600046F290400024C2F2000004A9CDE90444CC
:10397000FEF7D0FB002818BFFDF792FB0120CDE930
:10398000010446F29040C2F2000069460022009411
:103990000394FEF7C5FD002818BFFDF781FB0AB0B0
:1039A00010BD000010B541F2000446F2D840C4F248
:1039B0000104C2F200004FF47A3100220C23C0E966
:1039C0000041C0E90222C0E90423C0E90622FFF752
:1039D000FFFC002818BFFDF763FB2046BDE8104040
:1039E00000F00CBB10B544F2004446F22050C4F283
:1039F0000004C2F200004FF47A3100220C23C0E927
:103A00000041C0E90222C0E90423C0E90622FFF711
:103A1000DFFC002818BFFDF743FB2046BDE810403F
:103A200000F0ECBA10B541F2004446F26850C4F21E
:103A30000104C2F200004FF47A3100220C23C0E9E5
:103A40000041C0E90222C0E90423C0E90622FFF7D1
:103A5000BFFC002818BFFDF723FB2046BDE810403F
:103A600000F0CCBAFEE70000FEE70000704700005F
:103A70007047000040F2E400C2F200000178022921
:103A800004BF03210170704740F2E400C2F200005D
:103A90000178032918BF704740F21911C2F20001E2
:103AA00000220A7040F21A11C2F200010A7040F2BC
:103AB0001D11C2F200010A7040F22211C2F200018F
:103AC0000A7046F24841C2F2000109684A630221C5
:103AD000017070470020704740F2E400C2F200001D
:103AE0000078704740F2E400C2F20000002143F287
:103AF00018320170C2F20002126841607047000083
:103B000040F2E400C2F200000178012904BF022162
:103B10000170704770B543F2183540F2E404C2F208
:103B20000005C2F2000428682178032900F292807F
:103B3000DFE801F0020E284846F23060C2F20000D1
:103B40000078E0B9012020702868606082E000BF42
:103B5000616840F25C02002904BF60600146C2F265
:103B6000000212684FF47A735A4348F21F53C5F2A9
:103B7000EB13A2FB0323401AB0EB531F6AD30420BC
:103B8000207070BD40F21915C2F20005287890B976
:103B900040F21810C2F20000007860B940F21A102A
:103BA000C2F20000007830B940F21D16C2F20006E1
:103BB0003078002850D0207802284BD10320207084
:103BC00070BD00BF00F0A6FBFDF772FBFDF74AFDDC
:103BD00040F21D10C2F20000007858B143F2F0002C
:103BE00046F24841C2F20000C2F2000100680968D2
:103BF000486308E040F21910C2F200000078002883
:103C000018BFFDF76BFD40F21A10C2F200000078F9
:103C1000002818BFFDF71CFA40F22210C2F2000083
:103C20000078B8B12A68A06842F21071002804BF79
:103C3000A2601046101A884238BF70BD40F20040A2
:103C4000C4F202004FF48051A260BDE87040FDF75D
:103C5000B1BE00BF70BD00BFFDF72AFBFDF702FD3E
:103C6000287820B93078002808BF00F031FCBDE882
:103C7000704000F04FBB0000FDF7B0BE4EF688501C
:103C8000CEF20000016841F470010160704700004D
:103C900046F20040C2F20000FEF7E8BD46F2904056
:103CA000C2F20000FEF7E2BDB0B540F2FF7E05684B
:103CB000C4F2000E40F2000C7045C4F2010C1DDD90
:103CC00040F60003C4F20003984220D060451ED0A5
:103CD00040F60043C4F20003984218D04FF6FF7339
:103CE000C4F2000398421DDC704527DCB0F1804F20
:103CF0003CD040F20043C4F2000335E0B0F1804F05
:103D000005D040F20043C4F200039842E6D14B686C
:103D100025F0700243EA02054FF6FF73C4F2000378
:103D20009842E1DD44F2FF33C4F20103984211DC12
:103D300060451BD044F2000314E000BF40F60003CE
:103D4000C4F20003984211D040F60043C4F20003CD
:103D50000AE000BF44F60003C4F20103984205D014
:103D600044F20043C4F20103984204D1CB6825F425
:103D7000407243EA02050A688C684B696045C46278
:103D8000826202D10969CCF83010026825F0800106
:103D900042F0040219430260012242610160B0BD99
:103DA000806B0021C185FFF74FB8000081B090F80B
:103DB0004210222921D183680246B3F5805F09D1E0
:103DC00052F8281F52F8183C002B63D003685B6838
:103DD0000AE000BF52F8281F13B90369002BF5D081
:103DE00003685B6803F07F030B7011680131116099
:103DF000C18D01390A04C18502D001B0704700BFEE
:103E00000168CA6822F02002CA60CA6822F480727F
:103E1000CA604A6922F001024A61202180F84210FA
:103E200000214163026B012A3CD10163016851E822
:103E3000031F026821F0100142E80313DBB101689F
:103E400051E8031F026821F0100142E8031393B107
:103E5000016851E8031F026821F0100142E80313D2
:103E60004BB1016851E8031F026821F0100142E8DC
:103E70000313002BDAD101680A68D20606D50022A6
:103E800000920A680092496800910099818D01B002
:103E9000FEF7D8BF026852686FF35F2221F8022B49
:103EA0008162A5E701B0FFF777BB000010B50446BB
:103EB0000068D4E902C22369016921F44051114329
:103EC0000161626943EA0C01E3691143C268194365
:103ED00049F20C639A431143C1604169A26921F41C
:103EE000407141F20043114340F48062C4F2010387
:103EF0009A42416102D1FDF7EFFE01E0FDF7D8FEE5
:103F0000E16963681922B1F5004FA0FB020123D1DA
:103F10005A00DB0FFCF7AEF948F21F51C5F2EB1166
:103F2000A0FB01235A094FF69C73C0F6FF7303F1FF
:103F3000805302FB0300322303EBC000A0FB01010E
:103F40004FF4F87000EA111000EB0210C1F34211B7
:103F500008442168886010BD9A009B0FFCF78AF91D
:103F600048F21F51C5F2EB11A0FB01235A094FF68D
:103F70009C73C0F6FF7302FB0300322303EB0010B7
:103F8000A0FB0101F02000EA511000EB0210C1F388
:103F9000431108442168886010BD000080B541F2DB
:103FA0000000C4F2010000F081F846F2D840C2F2ED
:103FB0000000BDE88040FEF749BF000080B544F234
:103FC0000040C4F2000000F071F846F22050C2F246
:103FD0000000BDE88040FEF739BF000080B541F227
:103FE0000040C4F2010000F061F846F26850C2F2ED
:103FF0000000BDE88040FEF729BF000041F200410B
:10400000C4F20101884243F21C31C2F200010FD018
:1040100041F20002C4F2010290420BD044F200428D
:10402000C4F20002904218BF704701F5016101E03F
:1040300001F5815100220860A1F80624A1F80424AA
:10404000A1F80A28A1F80828012281F80C28C168E3
:1040500041F02001C160704741F20041C4F201010A
:10406000884243F21C31C2F200010FD041F200023B
:10407000C4F2010290420BD044F20042C4F20002AA
:10408000904211D101F5016102E000BF01F58151BB
:1040900091F80C08002808BF7047002072B6A1F8FC
:1040A0000604A1F8040462B67047000010B581B0A0
:1040B00041F20041C4F20101884243F21C31C2F2D4
:1040C000000113D041F20002C4F20102904207D075
:1040D00044F20042C4F20002904204D101F50161B1
:1040E00091F80C0840B901B010BD00BF01F5815135
:1040F00091F80C080028F6D008680468A30611D5CA
:10410000D0F804C0B1F80434B1F806E401336FF319
:104110009F23734506D0B1F804240A4482F804C0F2
:10412000A1F80434C26812060CD514F0800209D03C
:10413000B1F80A28B1F808389A4207D1C16821F0CD
:104140008001C1602107CED50FE000BFB1F80A2879
:104150000A4492F808244260B1F80A2801326FF349
:104160009F22A1F80A282107BDD540688DF80300D9
:104170009DF8030001B010BD41F20042C4F20102FB
:10418000904243F21C324FF6FF71C2F2000213D08C
:1041900041F20003C4F20103984207D044F2004305
:1041A000C4F20003984204D102F5016292F80C08AF
:1041B00040B908B2704700BF02F5815292F80C086E
:1041C0000028F6D072B6B2F80404B2F80634984269
:1041D0000AD0B2F8060410440179B2F8060401309E
:1041E0006FF39F20A2F8060462B608B27047000081
:1041F00041F20041C4F20101884243F21C31C2F293
:10420000000121D041F20002C4F20102904207D025
:1042100044F20042C4F2000290421BD101F5016158
:1042200091F80C08B0B172B6B1F80404B1F80624E4
:10423000904213D2B1F80604B1F80414081A00F53C
:10424000806062B680B2704701F5815191F80C0828
:104250000028E8D1002080B2704700BFB1F8040404
:10426000B1F80614401A62B680B2704710B541F238
:104270000043C4F2010343F21C3C9842C2F2000C1A
:104280000ED041F20003C4F2010398420AD044F276
:104290000043C4F20003984238D10CF5016C01E0F0
:1042A0000CF5815C002A4FF0000018BF002901D1F5
:1042B00080B210BD9CF80C38002BF9D072B60020EB
:1042C000BCF80838BCF80AE801336FF39F23734544
:1042D0000CD011F800E0BCF8084801306444824278
:1042E00084F808E4ACF80838EAD11046BCF808189D
:1042F000BCF80A28914205D0DCF80010CA6842F0E8
:104300008002CA6062B680B210BD00BF002080B2D9
:1043100010BD000043F2F000C2F2000090F820123D
:10432000002908BF7047002180F82012026840F27F
:104330000040C4F202004FF48051002A18BF01224D
:10434000FDF740BBFEE7000080B540F2181040F2D8
:104350000002C2F200000021C2F20002C8238171F3
:10436000C1718172417201705380FA234170817072
:10437000C170938041F2F86353610A23D380417185
:104380000161938803EB830C53884FEA4C0C03EBD9
:10439000830ED3884FEA4E0E03EB83035B00136159
:1043A0000123C2E902CE017281811370017180BDC7
:1043B00092B047F20005C4F20005FDF71DFB06AC04
:1043C000201D2C21FCF713F8002643F6400005962B
:1043D000CDE90366CDE901660096C4F202000168EA
:1043E00041F0805101600068022100F0805000908F
:1043F00000980096286861F38F302860286800F4E0
:104400004040009000980120099010200A9020461A
:1044100006910C96FDF7AAFC10B172B6FEE700BF3C
:104420000F20CDE9010601A80021CDE9036605961C
:10443000FDF78EFB10B172B6FEE700BFFFF768F91B
:10444000FFF79AF9FFF7D0F9FFF74EFAFFF7EAFA0C
:10445000FFF7C8FAFFF7A6FA46F20040C2F20000E2
:10446000FDF740FF46F24840C2F200000021FEF78F
:10447000DBFB46F29040C2F200000021FEF752F949
:10448000FFF790F8FFF760FFFFF72CFB05F52044DE
:104490002046FCF787FB2046FFF7DEFD05F5CA3412
:1044A000204602210022FDF78DFA20460421002239
:1044B000FDF788FA20464FF480610022FDF782FA6A
:1044C000FCF7CEFCFFF726FBFCF7EAFCF8E7000060
:1044D000B0B543F2F004C2F200046068002808BFDF
:1044E000B0BD00206060B4F81C02B4F81E12091AB6
:1044F00038BF8031090408D0411C04EB8000C0693A
:1045000001F07F01E060A4F81C1240F22C1540F28B
:104510001C12C2F20005C2F20002E068D5F8D41005
:1045200012784AB1401A48BF4042B0F5FA7F03D32F
:10453000E068FCF7B9FD206040F20000C2F2000024
:104540000078002840D040F20600C2F2000094ED4E
:10455000030A95ED351A00889FED1F3A02EE100A06
:10456000B8EE422A82EE032AB8EE400AB8EE411AAB
:1045700030EE410A94ED041A20EE022A32EE011ABE
:1045800084ED041A94ED051A94ED062A94ED043A8C
:1045900021EE000A22EE032A30EE020A9FED102AD5
:1045A000B5EE400A9FED0D1AF1EE10FAB8BFB0EE6D
:1045B000410AB4EE420AF1EE10FAC8BFB0EE420A68
:1045C000BCEEC00A84ED000A46F24841C2F2000186
:1045D000206809684863B0BD00007A44000000000C
:1045E0000000C642F1EE100A4FF6FF71C0F2C03172
:1045F00020EA010040F04070E1EE100A7047000030
:104600000000000000000000010203040607080982
:10461000000000000102030402000000040000008A
:104620000800000010000000FDFFFFFFFBFFFFFF80
:10463000F7FFFFFFEFFFFFFF5846000800000020D4
:1046400068000000D0010008C04600086800002093
:10465000D06B0000EC0100080100C800FA000A005D
:10466000C4090000D007000064000000F816000034
:1046700006000000280000200100000010000000DB
:104680000000000000000000020000000A0000001E
:104690000500000014000000080000001E000000DB
:1046A0000C000000280000000F0000003100000096
:1046B0000024F40030750000F4010101C80000007E
:040000050800019559
:00000001FF
