:020000040800F2
:100000007858002019020008954500085D40000856
:1000100091450008710C00083161000800000000E3
:100020000000000000000000000000009D450008E6
:10003000AD0C00080000000099450008A14500082B
:1000400033020008330200083302000833020008BC
:1000500033020008330200083302000833020008AC
:10006000330200083302000833020008330200089C
:10007000330200083302000833020008330200088C
:10008000330200083302000833020008330200087C
:100090001D5C000833020008330200083302000828
:1000A000330200083302000833020008330200085C
:1000B00033020008A9450008330200083302000893
:1000C000330200083302000833020008330200083C
:1000D0003302000833020008AD470008CD4700088E
:1000E000330200083302000833020008330200081C
:1000F000330200083302000833020008330200080C
:1001000033020008330200083302000833020008FB
:100110003302000833020008B54500083302000826
:1001200033020008330200083302000833020008DB
:1001300000F002F800F060F814A696E8000CB24453
:10014000B344DA4501D100F057F8BAE80F000FA622
:1001500096E83000A5EB040504EB0607AAEB0704BC
:10016000A7F101074FEA15154FEA3414A4F1010471
:10017000AC4201D300F040F813F0010F18BFFB1A96
:1001800043F0010300F001F8DBE71847CC740000EE
:10019000EC740000103A24BF78C878C1FAD852072E
:1001A00024BF30C830C144BF04680C6070470000F1
:1001B000704700000023002400250026103A28BFC5
:1001C00078C1FBD8520728BF30C148BF0B607047C9
:1001D000662907F0C681752900F05E80002070470F
:1001E0001FB500F0CFFB04000020002106F0D2FD77
:1001F000E0601FBD10B510BD00F0C4FC1146FFF754
:10020000EFFF05F0C1FF00F0E2FC03B4FFF7F2FFDF
:1002100003BC00F025FD000009488047094800475D
:10022000FEE7FEE7FEE7FEE7FEE7FEE7FEE7FEE7A6
:10023000FEE7FEE704480549054A064B7047000003
:10024000A5450008310100087852002078580020A8
:1002500078540020785400200FB41CB50C0007AA75
:10026000009007D04142A14202D32044401E01E049
:100270004FF0FF30074B7B4469460190069800F031
:1002800066FB0021002C01D0009A11701CBC5DF8A7
:1002900014FB0000FB0600002DE9F0410646002497
:1002A00010687529314616A510D0AFF300800028DC
:1002B00002DA404213A507E031688A0701D512A58A
:1002C00002E0490704D511A5012401E0AFF3008045
:1002D00000210A2206F1240709E0B0FBF2FCB0FB82
:1002E000F2F302FB1C00303078541846491C0028F9
:1002F000F3D123462A463046BDE8F04100F0BBB8B2
:10030000000000002D0000002B0000002000000075
:100310002DE9F0474FF0000A89460446C0F820A0B6
:100320002046E1688847002876D0252806D0D4E901
:1003300001219047206A401C2062F1E7E1682046D5
:1003400000268847C4F81CA005460027C4F818A05A
:100350002A2D09D0284606F015FD38B304EB87088E
:10036000303DC8F8185019E059F8041B204604EB3A
:1003700087029161E1688847012F054618D1E0693D
:10038000002820DA26F020061DE0D8F8180000EB3F
:10039000800005EB40003038C8F818002046E168BE
:1003A0008847054606F0EEFC0028EED1012F0AD062
:1003B0002E2D08D12046E16888477F1C0546022F74
:1003C00046F02006C4DBA069002803DA404246F06C
:1003D0000106A061F00701D026F010066C2D0AD0AE
:1003E000682D08D04C2D39D06A2D35D0742D35D0DC
:1003F0007A2D33D016E0E1682F4620468847B84270
:1004000005460AD16C2F27D04FF48060E16806437F
:1004100020468847054605E027E06C2F1AD04FF4A8
:10042000807006430DB3A5F14100192802D820358C
:1004300046F400664A462946204626604E46FFF7A7
:10044000C7FE80B101280BD0F61D26F0070000F191
:10045000080965E74020E4E78020D7E70020D5E7DA
:1004600006F104095CE7284661E7206ABDE8F087E9
:100470007047704770472DE9F0470D469946924600
:10048000044600F124080168880604D5E06921F0DB
:100490001001216000E00120A84201DD471B00E0BF
:1004A0000027A1697A1902EB0900081AA0612078D7
:1004B000C00602D42046AFF30080002608E0D4E94D
:1004C00001211AF806009047206A401C761C206221
:1004D0004E45F4DB2078C0060AD52046AFF30080F5
:1004E00006E0D4E9012130209047206A401C2062B8
:1004F000381EA7F10107F4DC07E0D4E9012118F860
:1005000005009047206A401C2062281EA5F10105C5
:10051000F3DC2046AFF300802078000602D50220ED
:10052000BDE8F0870120FBE72DE9FF4F0C461E4692
:100530004FF0FF378BB0D2E90001DDF860800A9000
:100540008A46C1F30A5505B93D46002108464FF0D9
:100550000000BAF1000F00F4400005DA00EB800063
:100560004FF4400101EA50004FEA9059B9F1010FF0
:1005700000DDB9460A9850EA4A000ED044F6105001
:10058000A5F2FF3545432F14B8F1000F1ED0754278
:10059000291E1EDDC9F100021CE0B8F1010F4FF069
:1005A000000001D0302103E0F24305E02154401C5B
:1005B000B042FBDB30460022002121540B99C1F8E8
:1005C0000880C1E900200FB0BDE8F08FBD1B6D1C95
:1005D000DEE74A4600DA694206A800F05DFA06AB9B
:1005E00093E8070003AB83E8070050460A9905F03B
:1005F000EDFF8DE80700A0F500501F38009003982C
:10060000002D0ADD42F21F014A460844002303A9D7
:100610000390684606F056FA09E0A0F500504A46F5
:100620001F38002303A90390684606F060FA8DE89E
:1006300007000004000C03D04FF0FF30410800E039
:100640001046B8F1000F03D00022009215461EE0BC
:10065000751E05D400F09AF9303262556D1EF9D539
:10066000B3460122084302D000227F1C04E0207818
:10067000302801D100227F1E002A099784D01DE076
:10068000112D07DA00F082F9303262556D1C50EA04
:100690000102F5D1084302D00098C8B10EE0002154
:1006A000681E05E0235C625C63542254401E491CB2
:1006B0008142F7DBAB46A81B401E0990002004F8DE
:1006C0000B000B98099AC0F80880C0E9002B7AE764
:1006D00011264FF0000857E72DE9F04F88460446F1
:1006E000D21D22F0070191B0D1E90001CDE90A0144
:1006F00006F034FB02460B98C00F01D02D2007E016
:100700002068810701D52B2002E0202101EAC000EA
:10071000032A099001D0072A05DB034641462046FB
:1007200000F07AF90BE12078800601D5E06900E05D
:100730000620B8F1650F814606D0B8F1660F18D0D3
:10074000B8F1670F70D131E00020B9F1110F0090BE
:1007500001DB112301E009F101030AAA01A90CA898
:10076000FFF7E2FEDDE90C70002609F10105834682
:1007700047E001204B4600904FF000470AAA01A92C
:100780000CA8FFF7D1FEDDE90DB00C995D460026FF
:1007900010B909F101000D18B9EB050003D4C0F13F
:1007A000FF3609F10105A5EB09002BE0B9F1010FB6
:1007B00001DA4FF001090020B9F1110F009048460D
:1007C00001DD112300E003460AAA01A90CA8FFF7E6
:1007D000ABFEDDE90C704D4600268346207800070D
:1007E0000AD4AB4500DA5D4601A8012D04DD4119AC
:1007F00011F8011C302907D04F4502DA17F1040F18
:1008000004DA012082460FE06D1EEEE7002F02DCC5
:10081000ED1B3E4403E0781CA84200DD7D1CB81BA4
:1008200000F1010A4FF000472078000703D4AA45E1
:1008300001DB4FF0FF3A0021B7F1004F0DF1430803
:100840008DF8431024D002202B23002F01DA7F42A1
:100850002D230A21021EA0F1010000DC5FB197FBED
:10086000F1FC97FBF1F201FB1C7C17460CF1300CFC
:1008700008F801CDEEE7A8F1010003702188090511
:1008800001D5452100E06521A0F1010800F8011C17
:1008900009980FA9A1EB0807FF1D00B1012041191C
:1008A00001EBEA70A1693844081A401EA061207863
:1008B000C00602D42046AFF30080099828B1D4E9DD
:1008C00001219047206A401C20622078C00622D572
:1008D0002046AFF300801EE0002E04DBB34502DDAE
:1008E00001A8805D00E03020D4E901219047206A12
:1008F000401C2062761CAAF101005FEA000A0AD1BE
:1009000000F040F8C0680168405CD4E901219047DC
:10091000206A401C2062281EA5F10105DCDC07E0EE
:10092000D4E9012118F8010B9047206A401C20628D
:10093000381EA7F10107F3DC2046AFF30080032047
:1009400011B041E601694A1C02610878704700B5A0
:100950008FB0CDE901310021059105497944CDE9F8
:10096000031011466846FFF7D3FC0FB000BD00002E
:10097000E5FFFFFFD1E900239A4202D2531C0B602E
:1009800010707047004870477000002030B5B0F11B
:100990000A0271F100034FEA900E4EEA817EB0EB3D
:1009A0000E0061EB91014FEA101E4EEA017E10EB42
:1009B0000E0041EB11114FEA102E4EEA016E10EBC2
:1009C0000E0041EB11214FEA104E4EEA014E10EBA2
:1009D0000E0041EB1141401841F100014FEAD000F7
:1009E00040EA41704FEAD1014FEA810444EA907431
:1009F00010EB800544EB01046D1944EB0404521B19
:100A0000A3414FF0000348BF0A3200D530BD401C5F
:100A100041F1000130BD00002DE9F0411F460446C0
:100A200003260168072A01F4006004DB08B116A55B
:100A300005E016A503E008B115A500E015A521F015
:100A400010002060A069C01EA0610FB1401EA0610F
:100A50002046AFF300804FB1D4E9012138469047DA
:100A6000206A401C2062C01C206206E0206AFAE76F
:100A7000D4E9012115F8010B9047761EF8D22046E3
:100A8000AFF30080BDE8F0814E414E006E616E0014
:100A9000494E4600696E66002DE9F04781461646CC
:100AA0008AB0354878440DC88DE80D003248784446
:100AB000801C03AC0DC884E80D0041F69B3008444F
:100AC000372190FBF1F290FBF1F5A5F1800501FBD8
:100AD00012041B3C02D56442012000E00020DFF834
:100AE00098A080460027FA44AAF1BE0A0EE0E0076B
:100AF0000AD03246684607EB470101230AEB810121
:100B000005F0F5FF8DE8070064107F1C002CEED186
:100B1000194F7F44AE3F19E0E80715D007EB0410EA
:100B20000DF1180A90E80E008AE80E00C068F04245
:100B300001D1981908903246012306A903A805F0AF
:100B4000D6FF03AB83E807006D10641C002DE3D1D2
:100B50004FF0010332466946B8F1000F03A802D0F6
:100B600005F0B0FF01E005F0C2FFC9E90001C9F8D6
:100B700008200AB0BDE8F0873C6B000000487047D1
:100B8000500000207546FFF7F9FFAE4605006946A4
:100B9000534620F00700854618B020B5FFF74AFB02
:100BA000BDE820404FF000064FF000074FF000086E
:100BB0004FF0000BAC46ACE8C009ACE8C009ACE8AB
:100BC000C009ACE8C00921F007018D46704710B597
:100BD0000446AFF300802046BDE81040FFF715BB88
:100BE0004FF0013C50F8042B51F8043B9A4221D1BC
:100BF000A2EB0C03934313EACC1317D150F8042B48
:100C000051F8043B9A4215D1A2EB0C03934313EA2B
:100C1000CC130BD150F8042B51F8043B9A4209D164
:100C2000A2EB0C03934313EACC13DBD04FF000008C
:100C3000704700BFD01A01BAB1FA81F101F0180172
:100C400022FA01F0CB40DBB2C0B2C01AC1F12001E0
:100C50002CFA01F3D11A914311EAC311E6D170477E
:100C600001491820ABBEFEE72600020070470000D5
:100C7000FEE7000044F62032C2F20002D2F8B822A9
:100C8000D2F81432002B1CBF0120704710B544F677
:100C90002034C2F200040A460146204603F0A6FDB5
:100CA0002046BDE8104003F0A9BD000070470000D9
:100CB0002DE9F04F99B0EFF3108072B600F024F9EF
:100CC000824609AC1EA220464021534662B6FFF779
:100CD000C3FA81B22046FFF7CDFF00F01DF9BAF14B
:100CE000000F25D0054600264FF6FB7B0FF2780853
:100CF00001AF0FF2680902E00136564518D035F809
:100D00001640384620215C4502D14246334602E077
:100D10004A4633460094FFF79FFA84B2384621468C
:100D2000FFF7A8FF0128E7D1012000F019FCF5E743
:100D300011A01321FFF79EFF19B0BDE8F08F00BF8F
:100D40000D0A4C4F4E475445524D5F44554D502C63
:100D5000636F756E743D256C750D0A00256C752CDE
:100D600025750D0A00000000256C752C4F56455264
:100D7000464C4F570D0A0000454E445F4C4F4E47BE
:100D80005445524D5F44554D500D0A00EFF310800D
:100D900072B600BFFEE700002DE9F04740F2000107
:100DA000C2F200010C68002C64D0D1F804808246A5
:100DB000D8F8001006F0A6F800285FD008EBC405AC
:100DC00055F8081C504606F0A4F800285AD1012C0A
:100DD0004CD008F11007023C4FF0000936E000BF8C
:100DE00057F8085C5046294606F0A1F830B93E682D
:100DF0005046314606F094F800284BD1012C35D0EE
:100E00003D685046294606F092F830B9BE68504613
:100E1000314606F085F8002842D1022C26D0BD6864
:100E20005046294606F083F828B93E6950463146B7
:100E300006F076F8C0BB043C601C07F1200709F1FE
:100E400004094FF0310008BFBDE8F08757F8105C87
:100E50005046294606F06BF830B957F8086C5046F2
:100E6000314606F04FF888B1002CB9D13120BDE8E9
:100E7000F08700BF0020BDE8F08700BFB8F804008D
:100E8000BDE8F08735F8040CBDE8F08708EBC90829
:100E9000083F0EE049F0010008EBC00809E000BF80
:100EA000B846083705E000BF49F0030008EBC0086A
:100EB00010375046294606F0DFFA044630462946E8
:100EC00006F0DAFA0146204606F044F8B8F8044085
:100ED0000546204606F088F9B9880646081B06F044
:100EE0006BF90146284606F0FBF9314605F09AFFFA
:100EF00006F026F9BDE8F08740F20810C2F20000C3
:100F0000D0F8D4007047000040F20810C2F2000090
:100F100042F6BC714058704740F20810C2F200001F
:100F2000DC30704740F20810C2F20000D0F8D80060
:100F30007047000080B500F027FC40F20811C2F2B3
:100F40000001B1F8D02001EB82029060B1F8D0002E
:100F50004BF652020130C0F21E52A0FB0223322295
:100F600003FB1200A1F8D000B1F8D200312804D858
:100F7000B1F8D2000130A1F8D200086842F6BC7C7A
:100F800001300860486841F26F730130486051F8E1
:100F90000C209A4211D84FF43F528A584FF6FA73F8
:100FA0009A4251F80C3088BF6FF00402581C41F887
:100FB0000C0001EB4300A0F8DC204FF43F5000226E
:100FC0000A5080BD40F20810C2F200004FF43F51B9
:100FD00042580132425041584FF6FB72914238BF9D
:100FE000704742F6BC71425841F26F739A4208D87A
:100FF0004258531C435000EB42014FF6FB72A1F8DC
:10100000DC204FF43F510022425070472DE9F04F51
:101010008BB040F20814C2F20004EFF3108072B6F5
:10102000B4F8D260B4F8D050002E62B600F0B380AD
:1010300000F0AAFBA91B48F21F523231C5F2EB1295
:1010400081FB02231A0902EBD372322302FB131134
:10105000643805901FFA81F8042E06F00300CDE9EC
:101060000180049608D2DDF814E048F21F590023ED
:101070000022C5F2EB1958E026F0030004EB8802C9
:101080000A9002F11400099002F11000089002F198
:101090000C00DDF814E048F21F5908F1030508F1CF
:1010A0000201079008F1010602F1080000236FF029
:1010B000C70A0022C5F2EB19069000BFA5FB09BCC8
:1010C000A1FB094BA6FB0947A8FB0940069C0009A8
:1010D00000FB0A403C0950F82300079F704504FBC1
:1010E0000A744FEA1B1754F8230028BF0132089CEA
:1010F000704507FB0A47099C4FEA1C1000FB0A4099
:1011000057F8237028BF013250F82300774528BFD5
:101110000132704528BF01320A9804330435043186
:101120000436984208F10408C8D10298DDF804A0FA
:1011300040F20814C2F2000450B30AEB0301A1FB11
:1011400009373F09322307FB131704EB8707BF68F2
:10115000774528BF013201281AD04F1CA7FB09652B
:101160002E0906FB137304EB83039B68734528BFAA
:10117000013202280CD00231A1FB09373B0932278A
:1011800003FB171104EB81018968714528BF013207
:1011900090B2022806D20020C4F8D4000BB0BDE8FB
:1011A000F08F00BF00900498042805D24FF0FF3B59
:1011B00000274FF000098FE020F00300089004EBB7
:1011C0008A0000F1140100F1100207910AF10301F5
:1011D00006920AF1020200F10C030AF1010C083038
:1011E0004FF0FF3B00274FF000090493039000BF2E
:1011F00048F21F56C5F2EB16A1FB06500A90A2FB5F
:101200000603ACFB0608AAFB060E039C4FEA1E1061
:101210006FF0C70500FB05400993DDF814E050F8B6
:1012200027005C4658454E4638BF0446484588BFAF
:101230000646049D70454FEA18106FF0C70300FB87
:10124000035038BF4E4650F8270038BF5C46A042D6
:10125000254638BF0546B0429046324688BF024612
:1012600070450998069B4FEA10106FF0C70900FB04
:10127000093038BF324650F8270038BF2546A8420B
:101280002B4638BF034690420E46114688BF0146A2
:1012900070450A98079C4FEA101000FB094038BFC0
:1012A000114650F8270038BF2B4698429B46894686
:1012B00038BF8346884288BF814670453CBF894617
:1012C0009B4608980437311D08F104020CF1040C08
:1012D000B8420AF1040A8BD1029C002C4DD001982F
:1012E00048F21F55C119C5F2EB15A1FB0502100903
:1012F000322200FB121040F20816C2F2000606EB82
:10130000800080685B46584538BF034648454F46D5
:1013100088BF0746704524BFB9469B46012C2CD098
:10132000481CA0FB05373B0903FB12005A4606EB9D
:10133000800080684B46584538BF0246484588BF04
:101340000346704524BF99469346022C15D0881C4D
:10135000A0FB05121109322201FB1200594606EBCF
:10136000800080684A46584538BF0146484588BFD6
:101370000246704524BF91468B46B9EB0B0408BF6B
:1013800001240098013805F02FFF4CF20001C4F24F
:10139000B75105F0DFFD0546204605F025FF46F272
:1013A0000001C4F26A7105F0D5FD0146284605F03A
:1013B000D1FD40F20814C2F20004C4F8D4000BB00E
:1013C000BDE8F08F10B540F20814C2F20004606866
:1013D00005F00AFF4CF20001C4F2B75105F0BAFD66
:1013E000C4F8D80010BD0000014690F82100022882
:1013F00016D10868D1E90FC3026822F00E0202601C
:10140000026822F001020260012000FA03F2CCF827
:10141000042081F821000020002281F8202070475C
:10142000042088630120002281F8202070470000FA
:1014300090F82110022927D1026840F2040C1368A9
:10144000C4F2020C23F00E03136013680CF17C014C
:101450008A4223F0010111601AD940F20841C4F216
:1014600002018A4250D040F21C41C4F202018A4279
:1014700042D040F23041C4F202018A4248D14FF4D6
:101480008073CCF800345CE0042181630120704754
:101490004321C4F202018A420EDD6B21C4F2020133
:1014A0008A421BDC4421C4F202018A423ED0582108
:1014B000C4F202018A4223E00821C4F202018A42F6
:1014C00032D01C21C4F202018A4237D03021C4F24A
:1014D00002018A4214D14FF4807230E06C21C4F2D0
:1014E00002018A4226D08021C4F202018A4207D139
:1014F0004FF0807223E000BF1023CCF8003420E0CE
:101500004FF480321BE000BF0123CCF8003418E018
:101510000CF588614FF480338A4208BF4FF4805342
:10152000CCF800340DE000BF012208E04FF48052F7
:1015300005E000BF4FF4801201E000BF1022CCF89C
:101540000020012180F82110416B0022002980F841
:10155000202004BF0020704780B58847002080BD50
:10156000B0B5044600F010F9054640F20800C2F29A
:1015700000000078611C18BF044400BF00F004F9AB
:10158000401BA042FAD3B0BD2DE9F04F82B00E68E7
:10159000002E00F0E980A0F1804241F6004540F2C3
:1015A0000043A2F58432C4F201050624C4F201030B
:1015B0004FEAB227A84208BF05244FF0000E4FF0B3
:1015C00001080F254FF0000A4FF0000B052F38BF20
:1015D0004FEAB224009408E00E680AF1010A36FAD4
:1015E0000AF20EF1040E00F0BF8008FA0AFC16EAB7
:1015F0000C09F1D04E684FF6FF72C1F2100296420C
:1016000012DC122E56D8DFE806F0350B4D49555541
:10161000555555555555555555555545510000BFCE
:10162000D1F80CB046E000BF4FF6FF72C1F22102C4
:1016300096420FDC0022C1F2110296421AD000221B
:10164000C1F21202964215D00022C1F22102964246
:1016500010D02FE00022C1F2220296420AD00022CE
:10166000C1F23102964205D00022C1F23202964206
:1016700020D100BF8A684AB1012A14BFC0F814C043
:10168000C0F810C04FF0080B14E000BF4FF0040B7F
:1016900010E000BFCA6802F1040B0BE04FF0000B32
:1016A00008E000BFCA6802F1080B03E0CA6802F153
:1016B0000C0B00BF02467446B9F5807F24BF04328C
:1016C000203C166805FA04F726EA07070BFA04F629
:1016D00037431760CA79D2067FF57EAF41F218070B
:1016E000C4F202073A684FF6084542F001023A6038
:1016F0003A68CFF6FF7502F001020192019A2AF0D2
:1017000003021A440F2457590EF00C06B440A743A5
:10171000009C04FA06F6374357514E6840F20C44D9
:10172000F2029A6854BF22EA090242EA0902C4F2AC
:1017300001049A602268B70254BF22EA090242EA11
:10174000090222605A68B70354BF22EA090242EA3A
:1017500009025A600F251A68F70354BF22EA0902EA
:1017600042EA09021A6037E702B0BDE8F08F0000D4
:101770008068084018BF012070470000002A08BF99
:10178000090401617047000045F27020C2F20000B8
:101790000068704740F2080045F27021C2F2000074
:1017A000C2F2000100780A68104408607047000027
:1017B00080B542F20000C4F20200016841F010015D
:1017C0000160032000F08CF80F2000F005F800F015
:1017D00027F8002080BD000070B540F20806C2F274
:1017E000000640F240013278C2F200014FF47A73F1
:1017F0000968B3FBF2F20446B1FBF2F1084601F0CE
:10180000CFF90F2C4FF0010508D838B94FF0FF3051
:1018100021460022002500F037F87460284670BD8C
:1018200082B041F21800C4F202000168022241F0C5
:1018300001010160016801F0010101910199416814
:1018400041F080514160406800F080500090009865
:101850000420C4F20100016862F31A61016002B061
:1018600070470000002848BF704700F01F010122A8
:1018700002FA01F11C2202EAD0004EF20012CEF26E
:10188000000281507047000010B54EF60C5CCEF29D
:10189000000CDCF80030C3F3022E8EF00704042C99
:1018A00028BF0424BEF103034FF0FF3E0EFA04F4F8
:1018B00038BF0023A14399400EFA03F39A43114322
:1018C00000F00F0200F160430901043A03F564439C
:1018D0006244002848BF02F10C03197010BD0000DB
:1018E0004EF60C51CEF200010A684FF6FF031A4083
:1018F00060F30A2242F0806040F0FD70086070479B
:1019000001EB8102D0F8D43200EBC200426A1846E3
:1019100002F0E4BF01EB8102D0F8D43200EBC20048
:10192000D0F86421184603F03FB80000B0B5027942
:1019300001F00F03934284BF0120B0BD4AB24FF4BF
:10194000A874002A48BF102401F0070E021990F86D
:1019500090420EEB8E034FEAD11C02EBC301012C27
:101960004FF0000481F801C08C7002F833E004BF2E
:101970000220B0BD0268012380F89032054610466F
:1019800003F0DEFC204685F89042B0BDB0B54FFABA
:1019900081FC4FF4A87401F0070EBCF1000F48BFA2
:1019A000102404440EEB8E054FEAD11C04EBC50154
:1019B00081F801C004F835E00A61022BCB7004BF46
:1019C00000220A7190F89022012A04BF0220B0BDC3
:1019D0000268012380F890320446104603F070FB41
:1019E000002084F89002B0BD10B501F0070C0CEB9C
:1019F0008C0100EBC10E00680EF5A8710024CEF832
:101A00006421CEF86831CEF86C418EF851418EF8E1
:101A100050C103F0E9FC002010BD0000B0B5027910
:101A200001F0070494424FF001022BD84BB24FF45F
:101A3000A875002B48BF10254FEAD11C48BF21468E
:101A4000054401EB810305EBC30181F801C090F867
:101A500090C28A70BCF1010F05F8334004BF022028
:101A6000B0BD02680123054680F89032104603F0AD
:101A7000A1FC24B9286805F5267103F05FFC00225B
:101A800085F890221046B0BD80B501F0070C0CEB34
:101A90008C0100EBC10101F810CF00684FF0010C80
:101AA00001F1140781F824C04FF0000E87E80C40C4
:101AB0000B6281F801C003F097FC002080BD00009C
:101AC0002DE9F04F83B00446006804F0ADF801043E
:101AD0001ED4410500F1E483410400F1F383810445
:101AE00000F10884C10400F10F84010500F126848F
:101AF000810500F17584C00540F1E0832068B0F8ED
:101B0000441021F48071A0F8441003B0BDE8F08FB8
:101B10002068B0F94410B1F1FF3F00F3CF8304F522
:101B2000A871019104F1100148F2C005029104F579
:101B3000267140F60F78009123E000BFB0F85010F6
:101B400094F8502100EB410101EB0211B1F80C3483
:101B5000B4F8562100996FF39F23C4F86C3104F058
:101B600067F82068018801EA080180310180204679
:101B700000F072FC2068B0F94410B1F1FF3F00F3AF
:101B80009D83B0F8442012F00F090DD030F92910D0
:101B90004FEA490BB1F1FF3F1FFA81FA30DD5FEAEE
:101BA0000A60E7D548E100BF0188D20662D401EAA5
:101BB000080101F500410180B0F85010227C00EBD3
:101BC000410000EB0210B0F80404616A6FF39F203B
:101BD000E0620844606220460021FFF791FE607BCE
:101BE0000028C7D0A06A0028C4D1607B216840F0DB
:101BF0008000C0B2A1F84C0000206073BAE700BFBB
:101C000030F81B1001EA0801803120F81B10019AFE
:101C100009EB890102EBC106317B002900F07E80CF
:101C2000F178022940F08A80B0F850303178B269FA
:101C300000EB43035FEA4A4703EB011300F1968090
:101C4000B3F80C7400236FF39F27D21B38BF1A46DA
:101C5000B26140F2A1805FEA4A6200F1AD8030F8E3
:101C6000212002EA08022A4320F82120002F40F018
:101C7000A480C3E00A053FF561AF09B2B1F1FF3FAF
:101C80003FF778AF018801EA080180310180B0F8A0
:101C9000501094F8502100EB410101EB0211B1F812
:101CA0000C346FF39F23C4F86C3193B1D4F86411F2
:101CB00079B1B4F8562103F0BBFFD4F86401D4F82D
:101CC0006C110844C4F8640120460021FFF722FE8D
:101CD000206801880A053FF54DAF01F44051B1F588
:101CE000405F3FF447AFB0F8501000F20C42535A37
:101CF0006FF39F235352D4F860313F2BC0F0E8813B
:101D0000DE068E5A4FEA53174FF0FF3508BF05EB3A
:101D1000531748F2C00546EA872362E2B0F8501034
:101D2000327800EB410101EB0211B1F80C746FF352
:101D30009F27002F62D07169F2885AE0317830F81D
:101D4000212002EA08022A4320F8212030F821202D
:101D5000B0F8503000EB0111520401EB430115D4EF
:101D6000B1F80C746FF39F273FBB47E0B3F80474DE
:101D700000236FF39F27D21B38BF1A46B2611FD9C9
:101D80005FEA4A622BD497BB38E000BFB1F8047415
:101D90006FF39F275FBB31E030F8212043F60F73CC
:101DA0001A404CF28003A3F500535A4020F821203A
:101DB0005FEA4A627FF553AF07B37169728918E031
:101DC00030F8212043F60F731A404CF28003A3F53C
:101DD00000535A4020F821205FEA4A62D3D530F8F8
:101DE000212002EA08022A4320F8212037B1716934
:101DF00032893B4603F01CFF01E000BF0027F16978
:101E0000D6E9050239443844F161706112B1306994
:101E1000B84209D931782046FFF77CFD5FEA0A60B5
:101E20007FF5A8AE08E000BF2068314603F0DCFA79
:101E30005FEA0A607FF59EAE206809EB890130F801
:101E40001B20029B03EBC10602EA080101F50041D9
:101E500020F81B10F178012922D1317B00294FF0A5
:101E60000001B16100F02F815FEA4A6100F18080DA
:101E70007178012900F01481002940F02481B0F824
:101E800050103278084400EB0210B0F80C146FF3D5
:101E90009F21A0F80C14B0F80C1441F4004106E1A5
:101EA0005FEACA511ED4B0F85020317800EB4202EC
:101EB00002EB0112B2F80424B3696FF39F229B1A5C
:101EC0004FF0000738BF3B46B36140F2FD807169B7
:101ED000F369114471619918F161314603F084FA94
:101EE00048E600BFB0F850303178B5695FEA4A6221
:101EF00000EB011754D407F20C4E3EF813300022C9
:101F00006FF39F23ED1A38BF1546B5617CD95FEAA0
:101F10004A4708D430F821704CF2800507EA0807D8
:101F20002F4320F8217096F8241048F2C0050129AB
:101F300040F0A981D6E904C1D6E9075719441D44E8
:101F400067457161F56180F0FB80002F00F06081D2
:101F5000BC46326286F82420737848F2C005012B13
:101F600040F0F780B0F850302EF803C07CE100BF9D
:101F70007178012900F09E80002940F0A480B0F81B
:101F800050103278084400EB0210B0F804146FF3DC
:101F90009F21A0F80414B0F8041441F4004190E02B
:101FA00007F2044939F8133000226FF39F23ED1A2A
:101FB00038BF1546B5614DD95FEA4A4708D530F8B4
:101FC00021704CF2800507EA08072F4320F82170A2
:101FD00096F8241048F2C005012940F05481D6E952
:101FE0000471D6E9075E19441D44BE457161F5616F
:101FF00080F0CE804FF0000CBEF1000F86F824C0B8
:1020000040F0C9809E46C8E0737848F2C005012BB5
:102010006AD0002B71D1B0F850303B44B3F804744F
:102020006FF39F27A3F80474B3F8047447F40047D0
:10203000A3F80474B0F850003EF800306FF39F230B
:102040002EF800303EF8003043F400432EF8003004
:1020500053E000BF737848F2C005012B54D0002B29
:102060005BD1B0F8503039F803506FF39F2529F851
:10207000035039F8035045F4004529F80350B0F8EF
:10208000500048F2C0053844B0F80C246FF39F228A
:10209000A0F80C24B0F80C2442F400423BE000BF4E
:1020A000B0F850103278084400EB02100021A0F87C
:1020B0000C1408E0B0F850103278084400EB02101D
:1020C0000021A0F8041431782046FFF719FC51E5EF
:1020D000002B00F0858003F00107565A07EB5303ED
:1020E00046EA832382E000BFB0F850303B44A3F8B7
:1020F0000424B0F850002EF800202046FFF700FC22
:102100005FEA4A4010D5BEE0B0F8503029F803200D
:10211000B0F850003844A0F80C242046FFF7F0FB3C
:102120005FEA4A4040F1AF80206831784CF280038A
:1021300030F8212002EA08021A4320F82120A2E008
:10214000A7EB0C033362737848F2C005012B3FF410
:1021500009AF002B40F08880B0F85030BCF13F0F41
:102160003EF803706FF39F272EF803705AD35FEA8F
:10217000CC654FEA5C173EF803504FF0FF3208BFC2
:1021800002EB5C1745EA872748F2C00568E000BF0C
:10219000AEEB070CBE46C6F820C0737848F2C00507
:1021A000012B2FD0002B69D1B0F85030BEF13F0F7A
:1021B00039F803706FF39F2729F8037040D35FEA63
:1021C000CE654FEA5E1739F803504FF0FF3208BF73
:1021D00002EB5E1745EA872748F2C0054AE000BFD8
:1021E000535A48F20007CFF6FF773B438B520188E2
:1021F00043F60F7211404CF28002A2F5805251401A
:102200000180B7E4B0F8503029F803E036E000BFB1
:10221000002786F824709C46737848F2C005012B8D
:1022200097D19FE6BCF1000F18D00CF001073EF8E3
:10223000035007EB5C0745EA872748F2C00511E029
:10224000BEF1000F14D00EF0010739F8035007EB70
:102250005E0745EA872748F2C0050DE03EF80370A7
:1022600047F400472EF8037072891FFA8CF308E0D8
:1022700039F8037047F4004729F8037032891FFAD0
:102280008EF303F037FD2068317840F63F7330F865
:1022900021201A40A5F110035A4020F8212069E4BA
:1022A0002068B0F8441021F48061A0F84410204662
:1022B00000F0A4F894F8900201280DD103B0BDE815
:1022C000F08F00BF2068B0F8441021F48041A0F8DE
:1022D000441003B0BDE8F08F0120002584F890027F
:1022E00065732068002103F0FDFC84F8905203B070
:1022F000BDE8F08F2068B0F8441021F40051A0F838
:10230000441003B0BDE8F08F2068B0F8401021F011
:102310000401A0F84010B0F8401021F00801A0F826
:102320004010204600F07CF82068B0F8441021F4FA
:102330008051A0F8441003B0BDE8F08F2168B1F8D7
:1023400000C0B1F804E0B1F808808F890E8A8D8A48
:10235000088B8A8BB1F8403043F00103A1F840307C
:10236000B1F8403023F00103A1F84030B1F8443017
:102370005B050CD4B1F844305B055CBFB1F8443068
:102380005FEA435303D4B1F844305B05EED5B1F8AE
:10239000443023F48063A1F84430A1F800C0A1F8D0
:1023A00004E0A1F808808F810E828D8208838A83E1
:1023B000B1F8400040F00800A1F84000B1F8440036
:1023C00020F40060A1F84400B1F8400040F004029D
:1023D0002046A1F8402003B0BDE8F04F00F044B81B
:1023E0002168B1F8440020F400722046A1F844208E
:1023F00003B0BDE8F04F00F017B8000010B5044678
:102400008079022818BFFEF7C1FCD4F8D40201215C
:1024100002F086FBD4F8D402BDE8104002F03EBBC7
:10242000D0F8D40202F064BBD0F8D40202F06ABB48
:1024300090F89022012A04BF0220704710B50122B3
:1024400080F89022417302680446104603F04AFC6B
:10245000002084F8900210BDD0F8D42200F5267137
:10246000104602F073BB000010B50446D0F8D40249
:1024700002F0ACFBA07A002808BF10BD4EF6105049
:10248000CEF20000016841F00601016010BD0000BD
:102490002DE9F04182B00446007841F21C06C007E5
:1024A000C4F202064AD030685FEAC00808D4306837
:1024B00040F080503060306800F08050019001980A
:1024C00047F20007C4F200073868C00512D4386824
:1024D00040F480703860FFF757F905463868C0054A
:1024E00008D4FFF751F9401B6428F7D9032002B044
:1024F000BDE8F081706810F4407012D0616801F49A
:10250000407188420DD0706840F24042C4F24222CD
:10251000012320F4407113600023C0071360716031
:1025200026D17068616820F440700843B8F1000F4C
:10253000706003D4306820F08050306020688107DC
:1025400007D556F8181CA26821F44041114346F8FB
:10255000181CC00607D556F8180C616920F48000D5
:10256000084346F8180C002002B0BDE8F08100BF17
:10257000FFF70AF9054641F2883700BF7068800707
:10258000CFD4FFF701F9401BB8424FF00300F5D953
:10259000EAE70000002804BF012070472DE9F0435E
:1025A00081B042F20008C4F202080446D8F80000E4
:1025B0000D4600F0070081420CD9D8F8000020F049
:1025C00007002843C8F80000D8F8000000F0070012
:1025D000A8426CD1206841F204098107C4F20209C3
:1025E00017D5410705D5D9F8001041F4E061C9F8C5
:1025F0000010010705D5D9F8001041F46051C9F861
:102600000010D9F80010A26821F0F0011143C9F8B8
:102610000010C00742D1D8F8000000F00700854242
:102620000CD2D8F8000020F007002843C8F80000BA
:10263000D8F8000000F00700A84238D12068410710
:1026400007D5D9F80010E26821F4E0611143C9F818
:102650000010000708D5D9F80000216920F4605067
:1026600040EAC100C9F80000D9F8002002F00C00CF
:10267000082841F20020C0F27A004DD147F21663DB
:10268000C2F38341C0F60003595CD20338D440F64C
:102690000010C0F23D0048433EE000BF606859F8BA
:1026A000041C022808D0012826D1890306D4012061
:1026B00001B0BDE8F08300BF8901F8D5D9F800105A
:1026C00021F003010843C9F80000FFF75DF8064652
:1026D00041F28837D9F80000616800F00C00B0EBD7
:1026E000810F98D0FFF750F8801BB842F2D9032031
:1026F00001B0BDE8F08300BF8907D8D5DEE700BF91
:10270000D9F8002047F21463C2F34042C0F6000338
:102710009A5C4843B0FBF2F0D9F8001047F2FC5243
:10272000C1F30311C0F60002515C40F2400220FAEE
:1027300001F140F20C00C2F200000068C2F2000297
:102740001160FFF749F8002001B0BDE8F0830000F8
:1027500040F2400041F20401C2F20000C4F2020162
:102760000068096847F20C62C1F30221C0F600025A
:10277000515CC8407047000040F2400041F2040143
:10278000C2F20000C4F202010068096847F20C625C
:10279000C1F3C221C0F60002515CC840704700007E
:1027A000002804BF012070472DE9F04182B00446A3
:1027B000007841F20006C007C4F202060CD070682F
:1027C00000F00C00042840F081803068800303D5BD
:1027D0006068002800F04681207880071BD570686B
:1027E00010F00C0F09D0706800F00C00082840F0C1
:1027F00087807068C00300F183803068800703D54C
:102800002069012840F02E813068616920F0F800CD
:1028100040EAC10030602078000713D420784007D8
:102820002CD4E569002D00F01881706800F00C00D0
:10283000082840F0A780012D40F00481012002B05B
:10284000BDE8F081A069002800F084800020C4F277
:1028500042200121C0F88014FEF796FF054600BF14
:10286000706A800700F1B280FEF78EFF401B0228DD
:10287000F6D9032002B0BDE8F08100BFF0695FEA3D
:10288000C00808D4F06940F08050F061F06900F0B1
:1028900080500090009847F20007C4F200073868A3
:1028A000C00549D4386840F480703860FEF76CFF8A
:1028B000054600BF3868C0053ED4FEF765FF401BE3
:1028C0006428F7D9032002B0BDE8F081706800F0F9
:1028D0000C00082803D17068C0033FF576AF61682B
:1028E0003068002900F00C81B1F5A02F00F00081C4
:1028F000B1F5803F40F01A8140F480301CE100BF08
:102900002069002840F20000C4F2422000F08880D4
:1029100001210160FEF738FF054600BF30688007DF
:102920003FF572AFFEF730FF401B0228F6D90320B7
:1029300002B0BDE8F08100BFE168306A002900F014
:102940009D80052900F09280012940F0AF8040F081
:102950000100B1E00020C4F242200021C0F8801440
:10296000FEF712FF054600BF706A80077FF556AF7D
:10297000FEF70AFF401B0228F6D9032002B0BDE88B
:10298000F08100BF0027C4F2422700203866FEF71E
:10299000FBFE022D05460DD13068800140F1DE803E
:1029A000FEF7F2FE401B02284FF00300F4D902B0FC
:1029B000BDE8F081306880014FD5FEF7E5FE401B91
:1029C00002284FF00300F5D9F1E700BF40F24000C4
:1029D000C2F20000006844F6D351C1F26201A0FBCC
:1029E0000101480A019000BF00BF0198411E002864
:1029F00001913FF413AF00BF0198411E00280191DF
:102A00003FF40CAF00BF0198411E002801913FF434
:102A100005AF00BF0198411E00280191E4D1FDE6F9
:102A200000210160FEF7B0FE054600BF3068800758
:102A30007FF5F1AEFEF7A8FE401B02284FF0030021
:102A4000F4D9B4E77068216A00F480328A4209D16F
:102A5000616A00F47010884204D1002002B0BDE821
:102A6000F08100BF012002B0BDE8F08140F0040019
:102A70003062306A40F001001EE000BF20F001002B
:102A80003062306A20F004003062FEF77DFE0546B9
:102A900041F28837306A800720D5FEF775FE401B6B
:102AA000B8424FF00300F5D981E700BF20F00100E4
:102AB0003062306A20F004003062FEF765FE0546A1
:102AC00041F28837306A800708D4FEF75DFE401B6C
:102AD000B842F7D9032002B0BDE8F081B8F1000F89
:102AE0003FF59FAEF06920F08050F06199E600BF9D
:102AF00040F480203060306840F480301CE000BF3B
:102B000020F480303060306820F480203060FEF7A0
:102B10003BFE0546306880037FF55EAEFEF734FE6F
:102B2000401B64284FF00300F4D940E720F48030C4
:102B30003060306820F480203060FEF725FE0546C6
:102B4000306880033FF548AEFEF71EFE401B642848
:102B5000F6D9032002B0BDE8F08100BF206AB0F5CD
:102B6000803F05D17168A26821F400311143716082
:102B70007168626A21F47411114308437060012086
:102B80003866FEF701FE0446306880013FF565AF08
:102B9000FEF7FAFD001B02284FF00300F4D906E708
:102BA000411E0020B0EB116F1CBF012070474EF298
:102BB0001002CEF2000251604EF62351CEF2000117
:102BC000F0230B7007219060116070477047000080
:102BD0007047000090F83C20012A4FF0020242D0DA
:102BE00010B580F83D200268D2F804E0D2F808C0A1
:102BF0000C682EF07003234340F6FF34C4F2000447
:102C0000A242536010DCB2F1804F1FD040F200436B
:102C1000C4F200039A4219D040F60003C4F2000344
:102C20009A4213D017E000BF40F60043C4F20003FD
:102C30009A420BD043F20043C4F201039A4205D0FA
:102C400042F60043C4F201039A4204D149682CF0D1
:102C50008003194391600121002280F83D1080F823
:102C60003C20BDE81040104670470000002804BF1B
:102C70000120704710B5044690F83D0028B90020A7
:102C800084F83C00204600F01FF8022084F83D0044
:102C90002068211D01F094FC012084F8460084F88E
:102CA0003E0084F83F0084F8400084F8410084F836
:102CB000420084F8430084F8440084F8450084F816
:102CC0003D00002010BD000080B586B0006841F2D4
:102CD0000001C4F2000188424FF00001CDE9041167
:102CE000CDE9021148D040F20041C4F2000188420F
:102CF00012D0B0F1804F3CD141F21C00C4F202006E
:102D0000016841F001010160006800F001000190DC
:102D1000019806B080BD00BF41F21C00C4F2020061
:102D2000016841F002010160016801F002010191B6
:102D3000019950F8041C41F0040140F8041C50F8BB
:102D4000040C02A900F004000190019840200290B8
:102D50000020CDE9030040F60000C4F20100FEF7B8
:102D600013FC1D2003210022FEF78EFD1D20FEF71F
:102D700079FD06B080BD00BF41F21C00C4F2020024
:102D80000168002241F0100101600068002100F09C
:102D90001000019001983620FEF776FD362006B02F
:102DA000BDE88040FEF75EBD90F83D1001291CBFD4
:102DB00001207047022180F83D10006840F6FF3284
:102DC000C168C4F20002904241F00101C1600FDC11
:102DD000B0F1804F1ED040F20041C4F200018842A1
:102DE00018D040F60001C4F20001884212D018E069
:102DF00040F60041C4F2000188420BD043F200418A
:102E0000C4F20101884205D042F60041C4F201013A
:102E1000884206D1816801F00701062904BF00201D
:102E20007047016841F00101016000207047000017
:102E300090F83C20012A4FF002026CD080B580F857
:102E40003D20D0F800C04FF67772DCF8083023EA56
:102E50000202CCF808200B684F2B29DC1F2B45DD24
:102E6000202B46D0302B44D0402B40F0AF80D1F8FF
:102E700004E0C968DCF82030DCF8202022F00102F0
:102E8000CCF82020DCF8182022F0F00242EA0111F0
:102E900023F00A0242EA0E02CCF81810CCF82020E7
:102EA000DCF8081041F0470121F0300128E000BFB4
:102EB0006F2B33DDB3F5005F74D0B3F5805F21D0A5
:102EC000702B40F08380D1E901E3C968DCF8082069
:102ED00043EA0E0322F47F4243EA01211143CCF876
:102EE0000810DCF8081041F0770109E00BB1102B55
:102EF0006CD1DCF8081021F07001194341F0070192
:102F0000CCF808100022012180F83D10002180F843
:102F10003C10BDE880401046704700BF502B21D0C8
:102F2000602B53D1D1F804E0C968DCF82030DCF81C
:102F3000202022F01002CCF82020DCF8182022F407
:102F4000704242EA013123F0A00242EA0E12CCF8AC
:102F50001810CCF82020DCF8081041F0670121F0AF
:102F60001001CDE7D1F804E0C968DCF82030DCF8C6
:102F7000202022F00102CCF82020DCF8182022F0DA
:102F8000F00242EA011123F00A0242EA0E02CCF8F2
:102F90001810CCF82020DCF8081041F0570121F07F
:102FA0002001ADE7D1E901E3C968DCF8082043EA74
:102FB0000E0322F47F4243EA01211143CCF80810AA
:102FC000DCF8081041F480419AE700BF01229AE73B
:102FD000016840F20042C4F20002914218BF7047FB
:102FE000007F012808BFFDF7A5BF704790F83C306F
:102FF000012B04BF022070474FEAB202032A00F2FD
:103000008D80F0B5DFE802F0026428460368D1E95C
:1030100000C5D1F80CE01C6A1A6A40F6FF3722F0AE
:1030200001021A621A4652F8186FC4F20007BB4236
:103030007ADCB3F1804F00F0898040F20047C4F29F
:103040000007BB4200F0828040F60007C4F2000790
:10305000BB427BD096E000BF0768D1E900C5D1E94B
:1030600002313C6A3A6A61F3071522F480723A62CF
:103070003A4652F81C6F26F0F30645EA06014FEA7D
:103080005C0666F3492411603C62116821F00C0172
:1030900011606CE00368D1E900E6D1E902C11C6A65
:1030A0001A6A360222F480521A621A4652F81C5FDB
:1030B0004FF2FF07BE4325F4734561F30F364FEA25
:1030C0005E0746EA050167F34D3411601C621EE09D
:1030D0000368D1E900E6D1E902C11C6A1A6A360226
:1030E00022F010021A621A4652F8185F4FF2FF07D8
:1030F000BE4325F4734561F30F3624F0A0040EF0AF
:103100000A0746EA050144EA071711601F621168C1
:103110004FEA0C2321F44061116028E001210022D4
:1031200080F83C200846704740F60047C4F200078C
:10313000BB420BD043F20047C4F20107BB4205D0AB
:1031400042F60047C4F20107BB421BD126F003063A
:10315000354324F00A070CF00A066EF307153744CE
:103160009D611F629F6927F00C079F618B68116842
:10317000194311600021BDE8F040002280F83C2096
:103180000846704746F00105E3E70000002804BF49
:103190000120704710B5044690F83D0028B9002082
:1031A00084F83C00204600F01FF8022084F83D001F
:1031B0002068211D01F004FA012084F8460084F8FB
:1031C0003E0084F83F0084F8400084F8410084F811
:1031D000420084F8430084F8440084F8450084F8F1
:1031E0003D00002010BD00007047000031B30429ED
:1031F00008D0082919BF4FF0450C41234FF0440C6B
:10320000402302E04FF0430C3F23C25C10F80C3027
:10321000012A4FF0010208BF012B65D102220829C3
:1032200022D0042956D180F83F2080F843204FEA6D
:10323000B103032B4FF0010220D955E090F83E2056
:1032400090F84230012A4FF0010208BF012B4BD108
:10325000022280F83E2080F842204FEAB103032B7F
:103260004FF001020AD93FE080F8402080F8442066
:103270004FEAB103032B4FF0010235D847F2286C17
:103280000068C0F6000C5CF823C0C36801F01F01A1
:1032900043EA0C03C360036A02FA01F123EA010264
:1032A0000262026A114340F6FF32C4F20002904209
:1032B00001621BDCB0F1804F2AD040F20041C4F221
:1032C0000001884224D040F60001C4F20001884287
:1032D0001ED024E080F8412080F845204FEAB10359
:1032E000032B4FF00102C9D91046704740F6004148
:1032F000C4F2000188420BD043F20041C4F2010144
:10330000884205D042F60041C4F20101884206D14C
:10331000816801F00701062904BF00207047016899
:1033200041F00101016000207047000070B50446C3
:103330000068C5680669B10716D515F0020113D0FB
:103340006FF002010161012121778069800703D0BC
:103350002046FFF73DFE05E0204600F08FF82046AE
:1033600000F0ECF900202077700719D515F0040063
:1033700016D020686FF00401016102212177806975
:1033800010F4407F04D02046FFF722FE06E000BF85
:10339000204600F073F8204600F0D0F90020207796
:1033A000300717D515F0080014D020686FF0080119
:1033B000016104212177C069800703D02046FFF70F
:1033C00007FE05E0204600F059F8204600F0B6F967
:1033D00000202077F00619D515F0100016D02068CF
:1033E0006FF01001016108212177C06910F4407F5E
:1033F00004D02046FFF7ECFD06E000BF204600F0B9
:103400003DF8204600F09AF900202077F00718BF19
:1034100015F0010002D1300609D412E020686FF0E7
:1034200001010161204600F0FBF9300609D515F0D5
:10343000800006D020686FF0800101612046FFF710
:10344000C5FB700609D515F0400006D020686FF066
:1034500040010161204600F049FAB00658BF70BD36
:1034600015F0200008D021686FF0200220460A6184
:10347000BDE87040FFF7ACBB70BD000070470000B6
:1034800090F83C30012B04BF022070474FEAB20293
:10349000032A00F21D812DE9F041DFE802F003C7A5
:1034A000479100BF036843F200461D6A1A6A25F07F
:1034B000020522F001021A621A465C6852F818CF1F
:1034C0008F68D1F800E0C4F20106B34245EA07056F
:1034D00005D042F60047C4F20107BB4205D1CF68D0
:1034E00025F00C0527F004073D43B34205D042F612
:1034F0000046C4F20106B34205D1D1E9056724F4C0
:10350000407434433C432CF0730747EA0E075C6079
:103510009F614F6809695F631D629F6947F00807F3
:103520009F619F6927F004079F61C6E0036843F22B
:1035300000461D6A1A6A25F4007522F480721A6228
:103540001A46D3F804C052F81CEF8F68D1F80080F7
:10355000C4F20106B34245EA072505D042F600470A
:10356000C4F20107BB4208D1CF6840F2FF443F02DA
:1035700025F4406527EA04042543B34205D042F60A
:103580000044C4F20104A34206D1D1E905462CF45B
:103590004057264347EA061C2EF0730747EA080700
:1035A000C3F804C0DF614F680969DF631D62DF692A
:1035B00047F00807DF61DF6927F00407DF617CE07F
:1035C000036843F20047D3F820C01A6AC4F2010727
:1035D00022F480521A621A465C6852F81C5FD1F8D5
:1035E00000E08E68BB4205D042F60047C4F20107F6
:1035F000BB4204D14F6924F4804444EA87142CF47C
:10360000005747EA063725F4E64646EA0E265C6090
:10361000DE614E6809691E641F62DF6947F4006756
:10362000DF61DF6927F48067DF6145E0036843F20B
:1036300000481D6A1A6A25F0200522F010021A625D
:103640001A465C6852F818CF8F68D1F800E0C4F2CF
:103650000108434545EA071505D042F60047C4F284
:103660000107BB4207D1CF686FF0400625F0C005C7
:1036700006EA07163543434505D042F60046C4F234
:103680000106B34206D1D1E9056724F440643E4304
:1036900044EA86042CF4E64747EA0E275C609F6103
:1036A0004F6809699F631D629F6947F400679F61C6
:1036B0009F6927F480679F610902136819431160AD
:1036C0000021BDE8F041002280F83C200846704708
:1036D0000121002280F83C2008467047002804BFE2
:1036E0000120704710B5044690F83D0028B900202D
:1036F00084F83C00204600F01FF8022084F83D00CA
:103700002068211D00F05CFF012084F8460084F849
:103710003E0084F83F0084F8400084F8410084F8BB
:10372000420084F8430084F8440084F8450084F89B
:103730003D00002010BD00007047000070470000F1
:10374000C1B1042908D0082914BF41224022825C5B
:10375000012A05D016E000BF3F22825C012A11D168
:103760000222082910D0042914BF80F8412080F8D3
:103770003F200BE090F83E20012A03D1022280F87E
:103780003E2003E00120704780F84020006801F0EF
:103790001F010122036A02FA01F123EA0102026217
:1037A000026A114340F6FF32C4F200029042016205
:1037B0000EDCB0F1804F25D040F20041C4F2000190
:1037C00088421FD040F60001C4F2000118E000BF9B
:1037D00040F60041C4F20001884213D043F2004297
:1037E000C4F2010242F600419042C4F2010101D04C
:1037F00088420ED1436C904243F40043436401D0AD
:10380000884206D1816801F00701062904BF002023
:103810007047016841F0010101600020704700001D
:10382000B0B540F60044C4F201040068A4F57C4140
:10383000884218BFB0BDFDF7C5FB20464FF480415C
:1038400001220125FDF79AFF20464FF48041002216
:103850000024FDF793FF40F2F400C2F200008268FA
:1038600040F2011101808180511C42F2107291429C
:10387000816024BF84608570C1790131CAB2142A85
:10388000C17122BF0121C170C18040F248020169AB
:10389000C2F20002126801319142016107D3002196
:1038A000016145F26D21C2F2000101220A7043F26A
:1038B000CC01C2F200010A8940F2440301320A81BC
:1038C000C2F200031B6892B2934203D800220A811D
:1038D00001224A6040F2B001C2F200010978C268D8
:1038E000002918BF511CC160B0BD00007047000026
:1038F0007047000070470000B0B582B001680A68E8
:10390000CC684B6902F02F05202D04F0200505D16D
:1039100025B102B0BDE8B04000F0C8BE5FEA027C4D
:103920001EBF03F0010E04F4907313EB0E0341D19C
:10393000036BD50618D5012B16D114F0100313D044
:10394000002201920A6801924A680192019A49692B
:1039500049064BD4818DC28DC38D002B18BF914277
:1039600040F0F48102B0B0BD13062DD514F08003F1
:103970002AD090F84120212AF4D18268B2F5805FE4
:1039800003D10269002A00F06782026A531C0362B5
:1039900012784A60C28C013A1304C284E2D1C8682A
:1039A00020F08000C860C86840F04000C86002B0E5
:1039B000B0BD00BFD30718BF14F4807340F0D080AF
:1039C000530700F1D380D8E05206CBD514F0400263
:1039D000C8D0CA6822F04002CA60202180F8411095
:1039E00002B0BDE8B04000F037BB00BFC16B0A6851
:1039F000526893B2002BB5D0858DAB42B2D2C2854E
:103A00008969202900F0A180016851E8031F02683C
:103A100021F4807142E80313DBB1016851E8031F10
:103A2000026821F4807142E8031393B1016851E800
:103A3000031F026821F4807142E803134BB101684F
:103A400051E8031F026821F4807142E80313002B40
:103A5000DAD1016851E8051F026821F0010142E84E
:103A60000513C3B3016851E8051F026821F0010185
:103A700042E805137BB3016851E8051F026821F095
:103A8000010142E8051333B3016851E8051F0268DC
:103A900021F0010142E80513002BDAD11BE000BF41
:103AA000016851E8051F026821F0400142E8051352
:103AB000DBB1016851E8051F026821F0400142E8CE
:103AC000051393B1016851E8051F026821F0400118
:103AD00042E805134BB1016851E8051F026821F067
:103AE000400142E80513002BDAD1202180F8421072
:103AF00000210163016851E8031F026821F01001F1
:103B000042E80313DBB1016851E8031F026821F0AA
:103B1000100142E8031393B1016851E8031F0268E2
:103B200021F0100142E803134BB1016851E8031F73
:103B3000026821F0100142E80313002BDAD1C16BB7
:103B400004460846FDF750FC204602214163818D62
:103B5000C28D891A89B202B0BDE8B040FFF7C8BE75
:103B6000436C43F001034364530706D5BEF1000FD5
:103B700003D0436C43F002034364930706D5BEF1C0
:103B8000000F03D0436C43F004034364BCF1000F07
:103B900006D55EEA050303D0436C43F00803436493
:103BA000436C002B3FF4DEAE920605D525B10446EA
:103BB00000F07CFD216820464969426C01F040011B
:103BC00002F00802891800F0B98000BF016851E8CE
:103BD000031F026821F4907142E80313BBB301682C
:103BE00051E8031F026821F4907142E8031373B394
:103BF000016851E8031F026821F4907142E8031341
:103C00002BB3016851E8031F026821F4907142E868
:103C10000313002BDAD11AE0016851E8051F02688E
:103C200021F0010142E80513DBB1016851E8051FED
:103C3000026821F0010142E8051393B1016851E8DF
:103C4000051F026821F0010142E805134BB101682C
:103C500051E8051F026821F0010142E80513002B1D
:103C6000DAD1016B012924D1016851E8031F0268F0
:103C700021F0100142E80313DBB1016851E8031F92
:103C8000026821F0100142E8031393B1016851E882
:103C9000031F026821F0100142E803134BB10168D1
:103CA00051E8031F026821F0100142E80313002BC2
:103CB000DAD1202180F842100021016301684969AE
:103CC000490640F1C380016851E8051F026821F0F0
:103CD000400142E80513DBB1016851E8051F0268A5
:103CE00021F0400142E8051393B1016851E8051F36
:103CF000026821F0400142E805134BB1016851E828
:103D0000051F026821F0400142E80513002BDAD1BB
:103D1000C16B002900F09A8044F2A162C0F6000253
:103D2000044608464A63FDF783FB00283FF41AAEB9
:103D3000E06B416B02B0BDE8B04008470446FFF7B6
:103D4000D9FD0020606402B0B0BD00BF891A00BF79
:103D5000026852E8032F036822F4907243E80325B7
:103D6000BDB3026852E8032F036822F4907243E85F
:103D7000032575B3026852E8032F036822F490729A
:103D800043E803252DB3026852E8032F036822F4A9
:103D9000907243E80325002DDAD11AE0026852E858
:103DA000052F036822F0010243E80525DDB1026812
:103DB00052E8052F036822F0010243E8052595B17A
:103DC000026852E8052F036822F0010243E8052546
:103DD0004DB1026852E8052F036822F0010243E862
:103DE0000525002DDAD1202280F84220002202632E
:103DF000026852E8032F036822F0100243E803250B
:103E0000DDB1026852E8032F036822F0100243E894
:103E1000032595B1026852E8032F036822F01002CF
:103E200043E803254DB1026852E8032F036822F0EE
:103E3000100243E80325002DDAD1022289B2426341
:103E400002B0BDE8B040FFF753BD00BF02B0BDE80F
:103E5000B040FFF74FBD00BF026A32F8023B6FF37C
:103E60005F234B60026295E5002804BF0120704784
:103E700010B5044690F8410028B9002084F84000AD
:103E8000204600F063F8242084F841002068D4E93B
:103E90000212C36823F40053C360036923F4405340
:103EA0001A430261D4E904231143C268194341F261
:103EB0000C639A431143C1604169A26921F44071C6
:103EC000114343F60002C4F201029042416103D063
:103ED000FEF73EFC02E000BFFEF74EFCD4E90023F3
:103EE000192148439900B0FBF1F048F21F5CC5F27C
:103EF000EB1CA0FB0C314FF69C734909C0F6FF7315
:103F000001FB0300322303EB0010A0FB0C03F020A5
:103F100000EA531000EB0110C3F343110844906012
:103F20001069202120F490401061506920F02A008F
:103F30005061D06840F40050D0600020606484F884
:103F4000411084F84210606310BD000070B586B067
:103F5000006844F60001C4F200010026884205967C
:103F6000CDE90366029639D044F20041C4F2000163
:103F700088426DD141F21800C4F20200416840F657
:103F8000000441F4003141604168C4F2010401F4CD
:103F9000003101910199016802AD41F00401016015
:103FA0000068294600F00400019001980420029066
:103FB00002200390032005902046FDF7E5FA082033
:103FC00002900020CDE9030020462946FDF7DCFAE7
:103FD000262002210022262435E000BF41F21800ED
:103FE000C4F20200416802AD41F4802141604168A1
:103FF00001F4802101910199016841F008010160FB
:104000000068294600F00800019001984FF4806094
:104010000290022003900320059040F60000C4F2B5
:10402000010000F580642046FDF7AEFA4FF4006011
:10403000CDE90206204629460496FDF7A5FA272079
:10404000012100222724FDF71FFC2046FDF70AFC72
:1040500006B070BD7047000070470000FEE700002A
:10406000EFF3108072B640F2081C43F2CC02C2F2A9
:10407000000C0021C2F2000245F2BC00CCF8001096
:10408000CCF80410ACF8D010ACF8D210CCF8D410A6
:10409000CCF8D8101160C2F2000000684FF600633F
:1040A000416342F6BC70516011814CF800104FF42E
:1040B0003F504CF800104FF0804050614FF07E5060
:1040C000CFF6FF739061116162B600BFD0188033E4
:1040D000C0F81C12C0F82012C0F82412C0F8281230
:1040E000C0F82C12C0F83012C0F83412C0F83812E0
:1040F000C0F83C12C0F84012C0F84412C0F8481290
:10410000C0F84C12C0F85012C0F85412C0F858123F
:10411000C0F85C12C0F86012C0F86412C0F86812EF
:10412000C0F86C12C0F87012C0F87412C0F878129F
:10413000C0F87C12C0F88012C0F88412C0F888124F
:10414000C0F88C12C0F89012C0F89412C0F89812FF
:10415000BCD100204FF6FC71A2F81C02A2F81E028E
:10416000D060CCF80810CCF80C10CCF81010CCF8BB
:104170001410CCF81810CCF81C10CCF82010CCF887
:104180002410CCF82810CCF82C10CCF83010CCF837
:104190003410CCF83810CCF83C10CCF84010CCF8E7
:1041A0004410CCF84810CCF84C10CCF85010CCF897
:1041B0005410CCF85810CCF85C10CCF86010CCF847
:1041C0006410CCF86810CCF86C10CCF87010CCF8F7
:1041D0007410CCF87810CCF87C10CCF88010CCF8A7
:1041E0008410CCF88810CCF88C10CCF89010CCF857
:1041F0009410CCF89810CCF89C10CCF8A010CCF807
:10420000A410CCF8A810CCF8AC10CCF8B010CCF8B6
:10421000B410CCF8B810CCF8BC10CCF8C010CCF866
:10422000C410CCF8C810CCF8CC1070472DE9F0477A
:1042300086B0002741F21800CDE90477CDE9027776
:10424000C4F20200016840F6004941F00401016037
:104250000168C4F2010901F00401019101990168AA
:10426000A9F5806541F0080101600068A12100F016
:1042700008000190019828460022A124FDF77EFA4B
:1042800048464FF4604100224FF46048FDF776FA4B
:1042900002AE029401244FF0020A28463146CDE9CD
:1042A0000347CDF814A0FDF76FF948463146CDE934
:1042B00002470494FDF768F9062002A981E8810409
:1042C00048463146FDF760F948463146CDE902845B
:1042D000CDE9047AFDF758F906B0BDE8F087000093
:1042E00010B594B045F2BC000021C2F200003124A8
:1042F0000E91CDE90C110991CDE90711CDE9051118
:10430000CDE90311CDE901114FF080424723C0E907
:10431000021401618021C0E900238161FEF7A6FC3F
:10432000002818BFFCF732FD4FF480500B9045F287
:10433000BC00C2F200000BA9FEF77AFD002818BFEE
:10434000FCF724FD45F2BC00C2F20000FFF7C6F9FD
:10435000002818BFFCF71AFD45F2BC000024C2F289
:10436000000008A9CDE90844FEF734FC002818BF76
:10437000FCF70CFD6020CDE901040394059445F29F
:10438000BC04C2F2000401A920460022FFF778F81D
:10439000002818BFFCF7FAFC21680020B1F1804F1B
:1043A000CDE912001190109002D014B010BD00BFE2
:1043B00041F21800C4F20200016841F004010160FA
:1043C000006810A900F004000F900F984FF400400F
:1043D000109002201190139040F60000C4F20100EA
:1043E000FDF7D2F80420C4F2010001684FF6FF4245
:1043F000CFF6FF02114041F0E06141F480710160AD
:1044000014B010BD10B58AB045F2041040F200425D
:104410000021C2F20000C4F2000247234FF6FF74ED
:104420000991CDE90711CDE90411CDE90211CDE9DA
:104430000011C0E90023C0E9021401618161FEF7A7
:1044400015FC002818BFFCF7A1FC4FF48050069023
:1044500045F20410C2F2000006A9FEF7E9FC0028AC
:1044600018BFFCF793FC45F20410C2F20000FEF7FF
:104470008DFE002818BFFCF789FC45F204100024CB
:10448000C2F2000004A9CDE90444FEF7A3FB002812
:1044900018BFFCF77BFC0120CDE9010445F20410B4
:1044A000C2F200006946002200940394FEF79EFDCC
:1044B000002818BFFCF76AFC0AB010BD80B582B0B6
:1044C00045F24C1041F200020021C2F20000C4F299
:1044D000000247234FF0630CCDE90011C0E900232F
:1044E000C0E9021C8161FEF7C1FB002818BFFCF780
:1044F0004DFC45F24C10C2F200006946FEF76AFB23
:10450000002818BFFCF742FC02B080BD10B544F291
:10451000004445F2941044F24021C4F20004C2F277
:104520000000C0F20F0100220C23C0E90041C0E9E5
:104530000222C0E90423C0E90622FFF795FC002807
:1045400018BFFCF723FC2046BDE8104001F066BC14
:1045500010B544F6000445F2DC10C4F20004C2F2C7
:1045600000004FF47A3100220C23C0E90041C0E979
:104570000222C0E90423C0E90622FFF775FC0028E7
:1045800018BFFCF703FC2046BDE8104001F046BC14
:10459000FEE70000FEE700007047000070470000E3
:1045A000FDF7F8B87047000045F20410C2F20000B1
:1045B000FEF7BCBE45F24C10C2F20000FEF7B6BEDC
:1045C00010B540F6FF320368C4F2000240F6004E18
:1045D00043F2004C9042C4F2000EC4F2010C21DC04
:1045E000B0F1804F28D040F20044C4F20004A04251
:1045F00022D040F60004C4F20004A0421CD0904235
:1046000020DCB0F1804F27D040F20042C4F200021B
:10461000904221D040F60002C4F2000290421BD02A
:104620001EE000BF704507D0604505D042F600444B
:10463000C4F20104A042E2D14C6823F0700323438A
:104640009042DEDD704507D0604505D042F600425D
:10465000C4F20102904203D1CA6823F440731343A9
:104660004C6923F08002D1F800E08B68224360455A
:104670000260C362C0F828E005D042F60042C4F2EE
:104680000102904201D1096901630121416101697F
:10469000C90708BF10BD016921F00101016110BD0A
:1046A000406A0021C185C184FFF724B981B090F828
:1046B0004210222921D183680246B3F5805F09D1D7
:1046C00052F8281F52F8183C002B63D003685B682F
:1046D0000AE000BF52F8281F13B90369002BF5D078
:1046E00003685B6803F07F030B7011680131116090
:1046F000C18D01390A04C18502D001B0704700BFE5
:104700000168CA6822F02002CA60CA6822F4807276
:10471000CA604A6922F001024A61202180F84210F1
:1047200000214163026B012A3CD10163016851E819
:10473000031F026821F0100142E80313DBB1016896
:1047400051E8031F026821F0100142E8031393B1FE
:10475000016851E8031F026821F0100142E80313C9
:104760004BB1016851E8031F026821F0100142E8D3
:104770000313002BDAD101680A68D20606D500229D
:1047800000920A680092496800910099818D01B0F9
:10479000FFF7AEB8026852686FF35F2221F8022B70
:1047A0008162A5E701B0FFF755BC000080B544F277
:1047B0000040C4F2000001F08BFB45F29410C2F2FD
:1047C0000000BDE88040FFF797B8000080B544F6D0
:1047D0000000C4F2000001F07BFB45F2DC10C2F2E5
:1047E0000000BDE88040FFF787B80000D0F8B8327D
:1047F0000020C3F80812C3F810227047D0F8B8227E
:10480000002A04BF02207047D2F8141200294FF08A
:10481000010101D00846704780B5C2F81412D2F8E1
:104820001012D2F8082201638BB2812100F0D8F96E
:104830000021BDE8804008467047000080B5D0F8F0
:10484000B42252689047002080BD000080B5134616
:104850000A46002100F010F9002080BD80B5134603
:104860000A46002100F0BCF9002080BD80B505217A
:10487000C0F8941200210022002300F0FDF800206F
:1048800080BD000080B513460A460221C0F894128C
:104890000021C0E9073300F0A3F9002080BD00002B
:1048A00080B50421C0F8941200210022002300F0FA
:1048B00097F9002080BD000080B5D0F8C002FDF758
:1048C00035F840F200220223C100C0F20122042880
:1048D00038BF22FA01F3D8B280BD0000B0B569B18B
:1048E000D0F8B42252693AB190F89C32032B03D12C
:1048F000904700210846B0BD0220B0BDD0F8941208
:10490000002918BF04290FD18021044600F04CF97A
:10491000204690F8A01201294FF00001EAD180F85A
:10492000A0120846B0BD00BF0229F2D1D0E908317B
:104930008B420FD9591A8BB2016211461A460446AE
:10494000FFF78CFF204600210022002300F094F89E
:10495000DEE700BFC2698A4212D3B2FBF1F303FB68
:10496000112169B9D0F898128A4209D20021002297
:1049700004460025FFF772FFC4F89852E2E700BF33
:10498000D0F8B412C96831B190F89C22032A02D140
:104990000446884720468021044600F005F9204659
:1049A000FFF764FFB4E7000010B559B1D0F8B422A6
:1049B00092692AB190F89C32032B01D190472EE0E6
:1049C000022010BDD0F894120024052912D003292A
:1049D00026D1D0E958318B4214D95B1AC0F8603126
:1049E0008B4238BF19468BB211461A46FFF72EFF8D
:1049F00015E000BF0021C0F8944200F0D5F8204631
:104A000010BD00BFD0F8B412096931B190F89C22F2
:104A1000032A02D1044688472046FFF741FF0024BD
:104A2000204610BDD0F8C00201F07F034AB203EB6C
:104A3000830301EB810100EBC30300EBC10000F530
:104A4000A970002A48BF03F11200007870470000E7
:104A500080B59446D0F8C0021A466346FCF796FF2C
:104A600040F200220223C100C0F20122042838BF14
:104A700022FA01F3D8B280BD80B5D0F8C002FCF7AD
:104A8000B3FF40F200220223C100C0F20122042839
:104A900038BF22FA01F3D8B280BD0000F0B581B072
:104AA000002100224023044600254026FFF7D0FFC6
:104AB00001272046802100224023C4F85871C4F801
:104AC0006461FFF7C5FFD4F8B812A761666284F885
:104AD0009C72C4F894526560C4F8A45229B1D4F809
:104AE000B41220464A6800219047002001B0F0BD72
:104AF00090F89C12042904BF90F89D1280F89C1233
:104B00000020704790F89C12032907D1D0F8B41206
:104B1000C96919B180B58847BDE880400020704759
:104B2000024600201174704780B5D0F8C002FDF72E
:104B30007FFC40F200220223C100C0F201220428BF
:104B400038BF22FA01F3D8B280BD0000B0B500F53D
:104B50002A740546204600F055F895F8A812284614
:104B6000B5F8AE5201F01F020123022AC0E9A535B3
:104B70000ED0012A06D08AB9214600F05DF8002047
:104B8000B0BD00BF214600F071FA0020B0BD00BFEB
:104B9000214600F0C7F90020B0BD00BF01F0800140
:104BA00000F002F80020B0BD80B5D0F8C002FCF7DC
:104BB00035FF40F200220223C100C0F20122042886
:104BC00038BF22FA01F3D8B280BD0000014690F848
:104BD0009C02042281F89D02002081F89C227047EB
:104BE00080B5D0F8C002FCF74FFF40F2002202234C
:104BF000C100C0F20122042838BF22FA01F3D8B262
:104C000080BD00000A7802704A7842704A8842806B
:104C10008A888280C988C18070470000D0F8B42299
:104C2000002A04BF0220704780B512689047002810
:104C300018BF0120400080BD70B582B00A78C2F371
:104C40004112531E022B07D2D0F8B422926890472B
:104C5000002002B070BD00BF002A40F057814A78A2
:104C6000092A00F25381DFE812F00B0035005101F0
:104C70005B00510167008B0051012500410000BF1E
:104C800090F89C22013A022A00F24081C988022948
:104C900040F03C81D0F8A4120322002908BF012271
:104CA000014641F80C2F0222FFF7ECFD002002B074
:104CB00070BD00BFC988012940F0288190F89C127E
:104CC0004A1E022A80F074800022014641F8082F13
:104CD00072E000BF90F89C22013A022A00F216818D
:104CE00049880129B4D100211FE000BF4A8843F25E
:104CF000EC26D1B2C2F200060229327080F00681A1
:104D000090F89C22032A5DD0022A40F0838000297B
:104D100000F0C58003220446416080F89C22B7E081
:104D2000498801297FF494AF0121C0F8A412FFF74C
:104D3000B7FD002002B070BD8A88002A40F0E680EE
:104D4000CA88002A40F0E2804D887F2D00F2DE8084
:104D500090F89C12032900F0D980E9B280F89E52A5
:104D60000446FFF7E1FE20462646FFF799FD002D99
:104D70000CBF0120022086F89C02002002B070BD0A
:104D80004A884FF0FF3303EB12230026062BADF8C1
:104D9000066000F2BB80DFE803F0052D1FB9B94DB6
:104DA000590000BF0D46D0F8B0120A6891E000BF6C
:104DB000032940F0AB80011D0122FFF763FD0020B5
:104DC00002B070BD002951D04168012958D1FFF7C8
:104DD00067FD002002B070BDD2B2052A00F29680B5
:104DE000DFE802F0046E666A627200BFD0F8B0229B
:104DF00052686CE00D46017C0446D0F8B4020029EC
:104E00000CBF816AC16A0DF1060088470146022085
:104E100029E000BF80210446FFF7C6FE204600219E
:104E2000FFF7C2FE31782046FFF708FD002002B0F0
:104E300070BD00BF027C002A68D10446D0F8B402DD
:104E40000D46416B0DF10600884747E0027C002AC1
:104E50005CD10446D0F8B4020D46016B0DF106009A
:104E6000884701460720487039E000BF022280F8D9
:104E70009C22002242600446FFF7E0FC0EE000BFE7
:104E8000C9B20546FFF7DAFC31782C46696028463E
:104E9000FFF7C4FE022801D1204638E02046FFF784
:104EA000FFFC002002B070BDD0F8B02252690EE0C5
:104EB000D0F8B022D2680AE0D0F8B022126906E039
:104EC000D0F8B022926802E0D0F8B0229269EAB13C
:104ED0000D460446007C0DF1060190470146BDF8E1
:104EE000060048B1EA883AB1904238BF02462046EF
:104EF000ADF80620FFF7C6FCE88800287FF4A8AECE
:104F00002046FFF7CDFC002002B070BD0446802192
:104F1000FFF74AFE20460021FFF746FE002002B0C0
:104F200070BD0000B0B50B784FF0FF3503F06002A4
:104F300005EB5215022D05D2D0F8B42292689047A5
:104F40000020B0BDC3F34113DBBB202A06D1D0F84B
:104F5000B4229268BDE8B040104700BF4B780A46C3
:104F600009792BB3012B11D0032B2AD190F89C3255
:104F7000032B0FD15388C3BB11F07F0335D0D288E8
:104F80009ABB0446FFF710FE2EE000BF90F89C325B
:104F9000032B21D0022B14D14A0612D00446FFF76E
:104FA00003FE20468021FFF7FFFD0020B0BD00BFBB
:104FB00090F89C22032A1DD0022A08BF5FEA4162B2
:104FC00040D080210446FFF7EFFD20460021FFF787
:104FD000EBFD0020B0BD00BF5288002A44D14A0634
:104FE00003D00446FFF768FC2046FFF759FC002079
:104FF000B0BD00BF01F00F0202EB8202802900EB7E
:1050000082022CBF9269D2F85821002AD9D001F02F
:105010007F0202EB820200EB820202F1140401EB38
:10502000810200EB8202802938BF02F5AA744A0689
:1050300014D00546FFF7F6FC01462846002918BFA4
:1050400001210CE009064FF014024FF0000358BF95
:105050004FF4AA728118835003E000BF0021216041
:1050600021460222FFF70EFC0020B0BDB0B50A7841
:1050700002F06002602A08D090F89C22013A022ACD
:1050800003D88A8812F0FE0F0AD080210446FFF769
:105090008BFD20460021FFF787FD0020B0BD00BF3B
:1050A000D0F8B422044692680D469047E98800295A
:1050B00008BF0028F1D12046FFF7F2FB0020B0BD69
:1050C000F0B50B78024691F803E030F8230047F280
:1050D0007066BEF1030F20EA060C11D80020DFE84D
:1050E0000EF00307100B00BF4CF4007C09E000BF7A
:1050F0004CF4806C05E000BF4CF4C06C01E000BFD4
:10510000012048F28004CFF6FF744CEA040622F82E
:10511000236032F8236040F60F752E401E4326436D
:1051200022F823600E7B48F2800C002E52D032F819
:10513000234040F60F652C4048F28005BEF1020F77
:1051400008BF05F580752C4322F82340B2F8504083
:105150000E8902EB03152C4426F00106A4F8006426
:10516000B2F850404E892C4426F00105A4F80854AA
:105170004C7832F82310002C56D0490409D532F867
:10518000231040F60F742140614401F5804122F85C
:10519000231032F82310490608D532F8231040F6C0
:1051A0000F7421406144403122F8231032F823105B
:1051B00040F63F7421400CF120044C40BEF1010F39
:1051C00008BF41EA0C0422F8234032F8231043F6CA
:1051D0000F7750E04E78B2F85040CF881D01002E76
:1051E00027F001064ED051192144A1F8006432F88D
:1051F0002310490608D532F8231040F60F742140D9
:105200006144403122F8231032F8231040F63F74F5
:10521000BEF1010F01EA04012ED00CF12007794004
:1052200022F82310F0BD00BF490409D532F823103D
:1052300040F60F773940614401F5804122F8231090
:1052400032F82310490608D532F8231040F60F77BC
:1052500039406144403122F8231032F8231043F6DC
:105260000F7739400CF54057794022F8231032F877
:10527000231040F63F77394041EA0C0122F8231011
:10528000F0BD00BF15442F19A7F80864B2F850E02C
:1052900005F20C4434F80E506FF39F2524F80E509D
:1052A00009693F290CD3CF063EF804704FEA511527
:1052B0004FF0FF3608BF06EB511547EA852111E094
:1052C00071B101F0010534F80E6005EB510146EAB9
:1052D000812124F80E1032F8231049040DD416E071
:1052E00034F80E1048F20005CFF6FF75294324F874
:1052F0000E1032F82310490409D532F8231040F675
:105300000F773940614401F5804122F823105BB1E9
:1053100032F8231043F60F7739400CF500577940E7
:1053200022F82310F0BD00BF118843F60F773940F3
:105330000CF54057794022F82310F0BD002070474B
:105340000A7B0AB10020704791F800C04A7830F813
:105350002C30BAB15A0648F2A0030CD580B530F80B
:105360002CE040F60F7202EA0E021A44203220F8B6
:105370002C20BDE88040C9780129E3D040F63F7178
:1053800010E000BF59044BF2800309D530F82C100F
:1053900040F60F721140194401F5805120F82C108D
:1053A00043F60F7130F82C201140594020F82C1092
:1053B0000020704702460B78487832F823C040F648
:1053C0003F71002848F2900008BF43F60F71CFF6F6
:1053D000FF7008BF00F57F6001EA0C01414000202A
:1053E00022F82310704700002DE9F04F82B04F786B
:1053F000012F5BD18B690A690F7B934228BF13464B
:10540000002F7BD0CF780C6A022F40F0C1800D783E
:1054100040F60F6630F825704FEA850E944206EA92
:10542000070648F2B00C40F2218147F65077F61B90
:10543000D036A4EB030A20F82560C1F820A030F88C
:105440002560B0F850702D0176069EB200EB05087D
:1054500000F1608108EB0704A4F80434D1F814B01B
:10546000002E00F005830D89013600EB450505F59A
:1054700080694FF0FF3505EB5604C6F34105002D5A
:105480004FEA560700F0E0815E46CDE9004836F865
:10549000028B5C46CB46012D2BF8048B40F0D88163
:1054A000DDF80480013FD946A346CEE20A7B002AFC
:1054B00048D0CA78012A00F0A180022A40F0C680B4
:1054C0000A78002F40F06382B0F85070130107444F
:1054D00007F20446F75A6FF39F27F7520F693F2FE1
:1054E000C0F05681FC064FEA57159C5B4FF0FF3C1D
:1054F00008BF0CEB571544EA85251AE21A0400F0A0
:105500007B81CA88D1F814E000EB420202F5806882
:105510009AB201324FF0FF37C2F3410407EB520C4D
:10552000002C4FEA520200F05481774637F8025BB4
:105530004646012C26F8045B40F01881013ABE462D
:10554000B04646E18E690B69F21A38BF00228A61C3
:10555000B0F850700A7807444FEA021107F20C477E
:105560007D5A38BF33466FF39F253F2B7D5271D351
:10557000DC06CC5B4FEA53164FF0FF3508BF05EB56
:10558000531644EA862343F40043CB5346E200BF5C
:10559000E21A0F780A6230F82720B0F850403D0137
:1055A000520605444FEA870E9AB248F2B00C2C44DA
:1055B00000F18C80002AA4F8043400F00D830B89DC
:1055C0000132496900EB43034FF0FF34C2F3410558
:1055D00003F5806304EB5208002D4FEA520200F0FD
:1055E00058810E4636F8024B1F46012D27F8044B12
:1055F00040F01281013A31463B464AE18A690B6923
:10560000D61A3CBF002613460A78002F8E6140F060
:105610000582B0F850701101074407F204456F5A33
:105620003F2B6FF39F274FEA53164FEAC36C6F521D
:10563000C0F0BA8037464C5B4FF0FF3EBCF1000F24
:1056400008BF0EEB531744EA8727BAE1012002B0E6
:10565000BDE8F08F002B00F0958003F001067D5A25
:1056600006EB530345EA83237B52D7E147F650729A
:10567000B21A303A20F82520B0F8502000EB05137C
:105680001A442304A2F8044400F0A6820A89496956
:1056900000EB420202F58063A2B201324FF0FF3408
:1056A000C2F3410504EB5208002D4FEA520200F00C
:1056B0000C810E4636F8024B1F46012D27F8044B8D
:1056C00040F0B280013A31463B46FEE0002AA4F8A1
:1056D0000C3400F081824B890132496900EB4303AD
:1056E0004FF0FF34C2F3410503F5806304EB520829
:1056F000002D4FEA520200F004810E4636F8024BAC
:105700001F46012D27F8044B40F09680013A3146A0
:105710003B46F6E008EB0705A5F80C34D1F814B0C9
:10572000002E00F0FD814D89013600EB450505F5A1
:1057300080694FF0FF3505EB5604C6F34105002D97
:105740004FEA560700F082805E46CDE9004836F801
:10575000028B5C46CB46012D2BF8048B40F08680F3
:10576000DDF80480013FD946A346C6E1BEF80250E9
:10577000022CA8F8045023D108F108080EF1040EF9
:10578000023A26E07B5A43F400437B5246E100BFD5
:10579000002F00F0CD8007F00105F45A05EB570506
:1057A00044EA8525CAE000BF002B00F0098103F020
:1057B00001076C5A07EB530744EA872406E100BF50
:1057C000BEF804400EF1060EA8F8084008F10C08D7
:1057D000033ABCF1030F0FD3AEF10807A8F110068E
:1057E00037F8085F043A26F8105F7D88B580BD88D9
:1057F0003581FD88B581F3D1B0F850200978024495
:1058000002EB011248F2B00CA2F804344FEA810E08
:1058100040F63F71E2E100BF4C88022D9C8033D1FD
:1058200008330431023A34E04C88022D9C8047D181
:1058300008330431023A48E04C88022D9C805BD149
:1058400008330431023A5CE05E46FFE05E4655E113
:105850006688022DA346A9F8046040F0EB8009F1A8
:1058600008090BF10406023FEDE000BF6688022D37
:10587000A346A9F8046040F0358109F108090BF14D
:105880000406023F37E100BF8C8806311C810C33CF
:10589000033AB8F1030FC0F09F81A1F10804103B57
:1058A00034F8081F043A23F8101F61889980A188F2
:1058B0001981E188998140F63F71F1D18EE100BFF5
:1058C0008C8806311C810C33033AB8F1030FC0F009
:1058D0008381A1F10804103B34F8081F043A23F82F
:1058E000101F61889980A1881981E188998140F60B
:1058F0003F71F1D172E100BF8C8806311C810C33FD
:10590000033AB8F1030FC0F06781A1F10804103B1E
:1059100034F8081F043A23F8101F61889980A18881
:105920001981E188998140F63F71F1D156E100BFBC
:10593000F55A48F20004CFF6FF742543F552B0F84B
:1059400050603F2F064406F20C46F55A6FF39F2530
:10595000F5520BD3FC069C5B4FEA57154FF0FF3C0A
:1059600008BF0CEB571544EA85270AE047B107F05A
:105970000105F45A05EB570744EA872706E000BF04
:10598000F75A48F20005CFF6FF752F43F752C96961
:10599000002943D030F8221044F2400319409942C4
:1059A00000D0D9BB30F8221040F60F73194048F2EE
:1059B000B003CFF6FF731943103120F822102DE009
:1059C0006F5A48F20004CFF6FF743C436C52B0F8B3
:1059D00050703F2B074407F20C456F5A6FF39F2717
:1059E0006F520DD34C5B4FF0FF37BCF1000F08BF77
:1059F00007EB531644EA862343F400434B530DE070
:105A000043B103F001076E5A07EB530346EA8323C1
:105A100003E000BF6B5A43F400436B5242F6D0716F
:105A2000A1F5E0414FEA820EA1F5756C43F60F71C6
:105A3000D4E000BFBBF804500BF10606A9F80850EB
:105A400009F10C09033FDDF80480009C032C0FD3FF
:105A5000083EA9F1100500BF36F8084F043F25F8AD
:105A6000104F7488AC80B4882C81F488AC81F3D159
:105A70000BEB030600244E61924588BFAAEB03049A
:105A80000C62B0F8502088BF9A4608EB02031FFA58
:105A90008AF2002AA3F80CA400F09E804989013202
:105AA00000EB41014FF0FF33C2F3410401F5806187
:105AB00003EB5208002C4FEA52026ED0354635F8FF
:105AC000023B0F46012C27F8043B03D1013A2E4636
:105AD000394662E07388022C8B8059D10831043634
